:020000040800F2
:100000000000022029910008B5900008B790000870
:10001000B9900008BB900008BD90000800000000E7
:10002000000000000000000000000000BF90000879
:10003000C190000800000000C3900008C5900008AF
:100040007991000879910008799100087991000868
:100050007991000879910008799100087991000858
:100060007991000879910008799100087991000848
:100070007991000879910008799100087991000838
:10008000799100087991000879910008000000003A
:10009000000000000000000000000000799100084E
:1000A0007991000879910008799100087991000808
:1000B00079910008799100087991000879910008F8
:1000C00079910008799100087991000879910008E8
:1000D00079910008CD900008799100080000000097
:1000E00079910008799100087991000800000000DA
:1000F00000000000000000000000000079910008EE
:1001000000000000799100087991000879910008B9
:1001100000000000000000000000000000000000DF
:100120007991000879910008799100087991000887
:1001300079910008000000000000000000000000AD
:10014000000000000000000000000000799100089D
:100150007991000879910008799100087991000857
:10016000799100087991000800000000000000006B
:10017000000000000000000000000000000000007F
:10018000000000007991000800000000000000005D
:08019000799100087991000843
:1001C000044B05481B1A062B02D9044B03B11847F0
:1001D000704700BFCB080020C808002000000000C6
:1001E00005490648091A891001EBD171491002D05E
:1001F000034B03B118477047C8080020C808002007
:100200000000000010B5064C237843B9FFF7D8FF73
:10021000044B13B10448AFF300800123237010BDD9
:10022000C8080020000000009091000808B5084BA5
:100230001BB108490848AFF300800848036813B9A8
:10024000BDE80840CCE7064B002BF9D09847F7E70C
:1002500000000000CC08002090910008C808002091
:1002600000000000002301461A46184602F064BB55
:10027000002101F0F3B800BF38B50A4C0A4D641BE9
:10028000A4100AD004F18043013B05EB8305013C37
:1002900055F804399847002CF9D1BDE8384008F0EA
:1002A0007DBF00BF749600087096000870B50F4EB1
:1002B0000F4D761BB61018BF002405D0013455F839
:1002C000043B9847A642F9D10A4E0B4D761B08F025
:1002D0005FFFB61018BF002406D0013455F8043B68
:1002E0009847A642F9D170BD70BD00BF689600085E
:1002F00068960008709600086896000870B4860733
:1003000046D0541E002A41D0CAB2034602E014F17E
:10031000FF343BD303F8012B9D07F8D1032C2ED9D2
:10032000CDB245EA05250F2C45EA054519D903F15B
:1003300010022646103E0F2E42F8105C42F80C5C6C
:1003400042F8085C42F8045C02F11002F2D8A4F111
:10035000100222F00F0204F00F041032032C134499
:100360000DD91E462246043A032A46F8045BFAD801
:10037000221F22F003020432134404F003042CB1C0
:10038000C9B21C4403F8011B9C42FBD170BC7047EE
:1003900014460346C2E700BF0CB4F0B59DB022ACD2
:1003A000029154F8042B069123466FF000454FF458
:1003B00002774FF6FF7602A90194ADF81470049508
:1003C0000795ADF8166001F073F8029B00221A70D1
:1003D0001DB0BDE8F04002B0704700BF0EB4F0B5EC
:1003E0009CB021AB0F4953F8042B019305466FF0E5
:1003F0000044086802954FF402774FF6FF7602A991
:100400000695ADF8147004940794ADF8166001F0E9
:100410004FF8029B00221A701CB0BDE8F04003B0F8
:10042000704700BF00000020000000000000000036
:1004300000000000000000000000000000000000BC
:1004400090F800F06DE9024520F007016FF0000C14
:1004500010F0070491F820F040F049804FF00004BC
:100460006FF00700D1E9002391F840F000F1080097
:1004700082FA4CF2A4FA8CF283FA4CF3A2FA8CF3CF
:100480004BBBD1E9022382FA4CF200F10800A4FA36
:100490008CF283FA4CF3A2FA8CF3E3B9D1E904238A
:1004A00082FA4CF200F10800A4FA8CF283FA4CF3C1
:1004B000A2FA8CF37BB9D1E9062301F1200182FA7B
:1004C0004CF200F10800A4FA8CF283FA4CF3A2FA81
:1004D0008CF3002BC6D0002A04BF04301A4612BA8F
:1004E000B2FA82F2FDE8024500EBD2007047D1E992
:1004F000002304F00305C4F100004FEAC50514F021
:10050000040F91F840F00CFA05F562EA05021CBFF1
:1005100063EA050362464FF00004A9E7000000000B
:1005200070B504460D4645EC104B164604F08AFCA7
:1005300051EC100B7EB1C5F30A53C3F16B03002BD2
:1005400009DD1B0503F17F55002405F54015224602
:100550002B4606F0C3FA70BD2DE9F04F9FB00E4652
:10056000002106921A9100220021CDE90412199669
:10057000834633461A4613F8017B2D2F00F2EE8096
:10058000DFE817F02E00EC00EC00EC00EC00EC00D3
:10059000EC00EC00EC00DB00DB00DB00DB00DB0050
:1005A000EC00EC00EC00EC00EC00EC00EC00EC00EB
:1005B000EC00EC00EC00EC00EC00EC00EC00EC00DB
:1005C000EC00EC00DB00EC00EC00EC00EC00EC00DC
:1005D000EC00EC00EC00EC00EC004600EC00D80075
:1005E0009FEDB37B069B8DED027B63B100230793E8
:1005F000069B1E60079B33B1DDE90201024601F153
:100600000043CDE902239DED020B1FB0BDE8F08F42
:100610000023079302F10109CDF864905778002F69
:10062000DED0302F00F0A08000230893A7F1300324
:100630004FF00008092B454644464B4619D8082C74
:10064000C8BF08EB880805EB850203F1010307EB3F
:1006500042021993C4BF07EB4807A7F130081F787F
:10066000D8BFA2F13005A7F13002092A04F1010434
:10067000E5D95846029303F04DFDD0F800A0584646
:1006800003F048FD0068FFF7DBFE029B024651467F
:10069000184604F0F3FE8246002800F0E3800020B4
:1006A00084468646A246652F72D0452F70D000231F
:1006B000BAF1000F43D05646102EA3EB0C03284688
:1006C000A8BF1026029306F093F9002C08BF5446E9
:1006D000092ECDE9040113DD774B03EBC60353E983
:1006E000122306F0FBF9CDE90401404606F080F93B
:1006F00002460B46DDE9040106F03EF8CDE90401AF
:10070000BAF10F0F00F3E080029B002B00F0A580F0
:1007100040F34785029B162B00F3A284664901EB48
:10072000C301D1E90001DDE9042306F0D7F9CDE9E1
:1007300002010DE0012307936CE719931AE718B93A
:10074000089B002B00F0AE829FED597B8DED027B64
:10075000069B002B3FF44EAF199E49E70023302F34
:10076000914607937FF460AF99F80130582B00F061
:100770005483782B00F051834B46013319931F7833
:10078000302FFAD09946002FDED0012308934DE791
:10079000BAF1000F00F00982199E731C1993777843
:1007A0002B2F00F076822D2F00F06D820023029314
:1007B000A7F13003092B00F22382302F05D1199BBA
:1007C000013319931F78302FFAD0A7F13103082B8A
:1007D0003FF66DAF199B099319465A1C1992A7F160
:1007E00030034F78A7F1300109290CD80132199252
:1007F00003EB830307EB43031778A7F130010929C3
:10080000A3F13003F2D90999521A082A00F31F8480
:1008100044F61F629342A8BF1346029A002A3FF48F
:1008200047AF5B42BAF1000F7FF445AF87E719A8E5
:10083000224903F065FB00283FF4D2AE199B204902
:10084000013B19A8199303F05BFB10B9199B013305
:1008500019931C4B0593002304939DED047B8DEDB0
:10086000027B75E7584603F055FC0068FFF7E8FD8A
:10087000199A13181993175C002C40F0F281302F4D
:10088000204606D1013319931F78302F00F1010063
:10089000F8D0A7F13103082B40F27684652F4FF092
:1008A000000C00F08081E2464FF0010EFDE600BF33
:1008B000000000000000000030930008F4950008DC
:1008C000F89500080000F07F029AAAEB06039E1834
:1008D000002E40F3748316F00F030AD0BC4901EBDD
:1008E000C301D1E90001DDE9042306F0F7F8CDE901
:1008F000040136F00F0640F02D8200230893009586
:10090000534622464946584604F020F8002800F095
:10091000CB82029A0F904FF00008002AC2F1000328
:10092000A8BF43460A9322EAE2730993C1460F9C8B
:100930005846616803F09AFF8246002800F0E3827F
:1009400022699DED047B0232920004F10C010C300F
:100950008DED027B03F0ECFE9DED020B1CAA1BA9A2
:10096000584604F0FBFA1A90002800F04784012151
:10097000584604F089F88146002800F0C4821B9B89
:10098000002BC0F231810A9A099DD61808991C9C47
:10099000904A5B1A2344013B9342C4F1360480F22F
:1009A000E980D21A1F2AA4EB020400F3218101235B
:1009B00093400E9300230C932544089B3444A64295
:1009C0001D443346A8BF2346AB42A8BF2B46002B8D
:1009D00002DDE41AED1AF61A0A9BB3B149461A462B
:1009E000584604F0EDF88146002800F08C8201465C
:1009F0001A9A584604F052F80746002800F08382FD
:100A00001A99584603F058FF1A97002C08DD224621
:100A10001A99584604F024F91A90002800F0EE8341
:100A2000099B43B15146099A584604F0C9F88246D9
:100A3000002800F06882002D08DD51462A465846FD
:100A400004F00EF98246002800F05D82002E08DDD9
:100A500049463246584604F003F98146002800F022
:100A6000528252461A99584604F068F98046002886
:100A700000F049820023C268C36049460B9204F02B
:100A800041F90028C0F2BC8300F00D84494640467D
:100A900004F0C2FA55EC104B00224FF0804310EEE8
:100AA000100A294606F096FA002868D00B9B002B06
:100AB00000F0B2809FED427B8DED0C7B059B464D97
:100AC0000E930024454E0E9A454B02EA06079F42BC
:100AD00000F0BF81089B23B3B7F1D46F21D83AA3AC
:100AE000D3E90023DDE90C0106F074FAB0B1DDE9C9
:100AF0000C0106F0CBFA002800F0D48205F078FF54
:100B0000CDE90C010B9B002B40F0C782DDE90C12F4
:100B100002F1004312911393DDE9124505F1D6630A
:100B2000DD1B9DED020B04F08DF9204653EC102BDC
:100B3000294605F0D3FFDDE9022305F01DFECDE9CE
:100B400004010C46089B23B9244B23409F4200F02C
:100B5000FC811A99584603F0AFFE5146584603F0FF
:100B6000ABFE4946584603F0A7FE4146584603F0FF
:100B7000A3FEDCE600230C9301230E931CE7194B24
:100B800020462946002205F0A9FF0B9BCDE90C0168
:100B9000002B3CD101F1004310901193059B0E9363
:100BA000DDE910458EE74FF0010E002877D1089B54
:100BB000002B3FF415AD8246EEE500BFAFF3008099
:100BC000000000000000F03F0000C0FFFFFFDF4119
:100BD0003093000802FCFFFF0000F03F0000F07FB0
:100BE0000000E07F0000E03F099A0A9ED51ACDE69A
:100BF000B74FFF1A012303FA07F20C920E93DBE6BC
:100C000019960023BAF1000F7FF455AD97E59DEDDD
:100C10000C7B8DED107BC1E7DDE90412002940F06B
:100C2000DE80C2F313030E92002B40F0DE80002220
:100C3000A84B2046294606F0C3F9002840F053830C
:100C40000022A54B2046294605F048FF0A460146EA
:100C5000CDE90C1202F1004316901793DDE9164519
:100C600030E75046D446A246A7F13001092913D8EF
:100C7000431C0F46002940F02A82199A1846531C3B
:100C800019935778F0E701230293B31C1993B778AF
:100C90008EE500230293F8E74FF0010E03E54FF0D5
:100CA000000A79E5BEF1000F7FF49AAC493F252F89
:100CB0003FF696AC01A353F827F000BF2F080008B9
:100CC000E1050008E1050008E1050008E10500086C
:100CD000F90D0008E1050008E1050008E10500083C
:100CE000E1050008E1050008E1050008E10500084C
:100CF000E1050008E1050008E1050008E10500083C
:100D0000E1050008E1050008E1050008E10500082B
:100D1000E1050008E1050008E1050008E10500081B
:100D2000E1050008E1050008E1050008E10500080B
:100D3000E1050008E1050008E10500082F080008AA
:100D4000E1050008E1050008E1050008E1050008EB
:100D5000F90D0008B6F59A7F00F3A6803611012E32
:100D60005E4B40F3DD82DDE904011F46089300235A
:100D7000984616F0010F08F101084FEA660604D004
:100D8000D7E9002305F0AAFE0123012E07F1080789
:100D9000EFD1002B40F04A83059BA3F154730593D8
:100DA000089B03EBC808D8E90001DDE9042305F03E
:100DB00095FE21F000431B0D494A1B059342CDE9E6
:100DC000040171D8A2F58012934240F29582454BFE
:100DD0000593002308934FF0FF3304938FE5DDE97B
:100DE0000412012900F063810E929FED357B0024EF
:100DF0003D4D8DED0C7B65E619A83C4903F080F86C
:100E000000283FF4EDAB199B1B78282B00F0E18202
:100E1000374B0593002304931FE5079A01921AAB01
:100E20000093344A1BAB19A9584602F0DFFD10F0BD
:100E3000070504463FF488AC062D40F060819FED25
:100E4000227B09F10103199300238DED027B0793A7
:100E50007EE4A2F1547305939DED047BB0EE470A46
:100E6000F0EE670A03F0EEFF204653EC102B294604
:100E700005F034FEDDE9042305F07EFC1E4B06EA96
:100E80000102CDE90401DDE902019A42CDE9140134
:100E900040F2E18003F15473994231D0114B059334
:100EA0004FF0FF33049354E6144B05930022049251
:100EB0009DED047B22238DED027BCBF8003047E4CF
:100EC000000000000000F03F0000000000000000F3
:100ED000E2FBFFFF0000F03F0000E03F209400082D
:100EE0000000A07CFFFFEF7F0000F0BF009600082D
:100EF0000000F8FFB0910008FFFF9F7C0000F07F2A
:100F0000149B0133CAD10F9F1A98B94B0593002245
:100F100004929DED047B8DED027B2223CBF8003003
:100F20000146584603F0C8FC5146584603F0C4FC3D
:100F30004946584603F0C0FC3946584603F0BCFC0D
:100F40004146584603F0B8FC02E4DDE90C56314650
:100F5000284606F073F805F05BFD0B460246314665
:100F6000284605F007FC0B9B06460F469BB9049BE1
:100F70008BB9C4F3130474B993A3D3E9002306F027
:100F80001FF800283FF4E5AD9DED047B0F9F1A98F4
:100F90008DED027BC4E78EA3D3E9002330463946AA
:100FA00006F00EF80028EFD1304639468AA3D3E97F
:100FB000002306F023F800283FF4CBADE4E73FF42C
:100FC0009CAC764216F00F020AD08A4B03EBC203A8
:100FD000DDE90401D3E9002305F0AAFECDE904010F
:100FE00036113FF48AAC1F2E28DC16F0100308934C
:100FF00000F0C0816A23002E089340F3A781DDE949
:1010000004017D4F0023F20704D5D7E9002305F042
:1010100065FD0123761007F10807F4D1002B40F09D
:101020000282089B002B40F0918100220023DDE921
:10103000040105F0BBFF00283FF461AC9FED687B25
:101040002223CBF800308DED027BFFF781BB44F605
:101050001F63FFF7E2BB059B03F15474059471E530
:10106000029FCAF125039F423FF72EAC614CCAF1A3
:101070000F0B04EBCB01A7EB0B0BDDE90423D1E94C
:10108000000104EBCB0405F029FDD4E9002305F0B1
:1010900025FDCDE90201FFF75BBB9DED0C7B8DEDDE
:1010A000127B39E59FED507B8DED0C7B2AE5DDE968
:1010B00004120E92002A7FF498AE0F9F1A989FEDAB
:1010C000487B2223CBF800308DED027B28E7012BF3
:1010D0009C4418BF504404D198E15500834243D04A
:1010E0009A46BAF1080F0AF1010305EB8502F4DD17
:1010F000102BDCBF08EB88084FEA4808EEE71A9A85
:101100003AB135211CA803F0D7FF58461A9903F0CD
:10111000D3FB013D042D06D8DFE805F01A0E0313BA
:101120001A00334B059321077FF597AB059B43F0DE
:1011300000430593FFF791BB1C9B04931D9B0593F4
:10114000F1E76FF0004305934FF0FF330493EAE7B4
:101150001B9A1D9B1C99049102F2334223F48013C5
:1011600043EA02530593DEE7199A0AF1020A082BB3
:1011700011DDBAF1100FD8BF08EB88084FF000005E
:10118000D8BF01EB48087AE5199A303F00F1010C0D
:1011900091464FF0010A05EB850507EB4505002058
:1011A0006DE5029A12F11603FFF68EAB114BA3EB1D
:1011B000C203DDE90401D3E9002305F0B9FDCDE95F
:1011C0000201FFF7C5BA00BF9535A094FFFFCF3FDE
:1011D0009535A094FFFFDF3F35E5AF350000E03FD8
:1011E0000000000000000000000000000000F03FD0
:1011F0000000F07F30930008D89100080F9F84E62C
:101200000B9B0F9F9BBBDDE9041281BBC2F3130351
:10121000144663BB22F000431B0D1B05B3F1D66FD0
:1012200025D9D8F814301BB9D8F81030012B1EDDA1
:1012300041460122584603F013FD4946804603F01B
:1012400061FD002813DD089B002B40F0D4807E4B0D
:101250002340A3F580136FEA13536FEA03530593FA
:101260004FF0FF3304939DED047B8DED027B089BD3
:10127000BBB1764B159300231493DDE91423DDE90C
:10128000020105F02BFC03460C46CDE90201CDE935
:10129000043431B9049B23B922231A98CBF80030C7
:1012A0003EE61A983CE60B9B0F9F53B3DDE90445DD
:1012B000674BC5F3130199422A465FD00C9B53B389
:1012C000059A1342D3D00B9B089ADDE904015BB366
:1012D000FFF726F902460B46DDE9020105F04CFA5C
:1012E000CDE90201C3E79FED547B8DED167B9FEDA9
:1012F000547B8DED0C7BB1E401F154730593FFF742
:10130000FCBADDE90412C2F313031446002BD5D155
:101310000029D3D197E70E9B049A1342A7D0D2E7B6
:1013200008934FF0000837E5FFF7FAF802460B463E
:10133000DDE9020105F01EFA00220023CDE90201D9
:1013400005F034FE00287FF4B9AE90E7DDE9041221
:10135000C2F30A53C3F16B03002B11467FF765AE4E
:101360001F2B2EDD0022342B049254DD4FF05C73D2
:1013700005935AE6002E3FF742AE56E6089B0499C5
:10138000E3B1314B2B40B3F1D46F17D81B0DC3F130
:101390006B034FF0FF3000FA03F38B428ED12D49DF
:1013A0008A4246D0284B134003F58013059300234F
:1013B00004939DED047B8DED027B58E74FF0FF33E6
:1013C000EBE74FF0FF3202FA03F3049A1A4004925B
:1013D0002BE619A81CAA204902F0AAFD05287FF4D3
:1013E00017AD1D9B43F0FF4343F4E00305931C9BA3
:1013F0000493FFF732BA144B2340B3F1D66F3FF793
:1014000028AFB3F15C7F3FF734AF57E65346199AE4
:101410000AF1010AABE6203B4FF0FF3202FA03F378
:101420000B40059301E6CDE90401FAE5CDE904019D
:10143000B2E40133B6D167E5000000000000E0BF70
:10144000000000000000E03F0000F07F0000503985
:10145000FFFF0F00FFFFEF7FC4910008024B0A4619
:1014600001461868FFF778B80000002038B50E4B29
:101470000A4601461868FFF76FF855EC104B10EE5E
:10148000102A2B4610EE100A294605F0C1FD30B98E
:101490002046294605F01AFE00EE100A38BD00204D
:1014A000BDE8384003F06EBE0000002000000000E0
:1014B0002DE9F04FC1B00C46079192460B9308906E
:1014C00002F028FE036814931846FEF7B9FFA389BB
:1014D0001390190603D52369002B01F01B809FEDA3
:1014E000947B8DED107B00230DF1C0090F932593A4
:1014F0002493129315930593CDF88C90C8469AF8CF
:1015000000305446E3B1252B02D119E0252B03D03E
:1015100014F8013F002BF9D1A4EB0A0585B1249BF7
:10152000259AC8F800A001332A44072BC8F80450B4
:10153000259224937FDC08F10808059B2B44059332
:101540002378002B7FD000231A468DF86F30194680
:1015500009939B464FF0FF306378069004F1010A2F
:101560000AF1010AA3F12000582800F2D383DFE832
:1015700010F03F02D103D1034702D103D103D103BD
:10158000D103D103D1034C020A02D1035D007302DF
:10159000D1038E02C103C103C103C103C103C1034F
:1015A000C103C103C103D103D103D103D103D103CB
:1015B000D103D103D103D103D1033F035F03D1038F
:1015C0005F03D103D103D103D103AA03D103D10314
:1015D000AF03D103D103D103D103D1036102D103FE
:1015E000D1032603D103D103D103D103D103D10306
:1015F000D103D103D103D103CE02E3025F035F0322
:101600005F039302E302D103D1039802D103A50241
:10161000D301BC020F02D103E801D1037E00D10344
:10162000D103140209980B93404209904BF0040B2C
:101630009AF8003094E723AA0799089803F070FFFE
:1016400040B9C84679E7259B23B10898079923AA92
:1016500003F066FF079B9B8913F0400F059B18BFA3
:101660004FF0FF330593059841B0BDE8F08F1BF0B4
:10167000200F0D9340F0E5810B9A1BF0100F1346DD
:1016800040F088851BF0400F00F0848514880432F8
:10169000002501230B9200278DF86F7006994A1CD4
:1016A00000F06D822BF08002039254EA050240F0B4
:1016B0006C82002940F05184002B40F00B851BF018
:1016C00001030A9300F01A8640AE302306F8413D2C
:1016D000069B0A9A9342B8BF1346049300230E93C5
:1016E00017B1049B01330493039B13F002030C9383
:1016F00002D0049B02330493039B13F0840540F053
:101700002083099B049AA3EB020BBBF1000F40F36B
:101710001883BBF1100F259C249A30DD43462146E7
:10172000A8461027089C079D0DE000BFAFF300807E
:101730000000000000000000ABF1100BBBF1100F27
:1017400003F1080318DD0132B74824921031072A4B
:10175000259183E88100EFDD23AA2946204603F086
:10176000DFFE00287FF476AFABF1100BBBF1100F5A
:101770002599249A4B46E6DC45460C4698460132AC
:10178000A94B24925C44072A259488E8080800F3B2
:10179000A6849DF86F7008F1080877B1249B013387
:1017A00001340DF16F010122072B2594249388E861
:1017B000060000F3F48308F108080C9B6BB1249B2E
:1017C000013302341CA90222072B2594249388E8B4
:1017D000060000F3D98308F10808802D00F0228369
:1017E000069B0A9A9F1A002F36DD102F249B8F4DDF
:1017F00027DD42462146B0464FF0100B2E46089C8E
:10180000079D04E0103F102F02F1080215DD01339F
:101810001031072B2591249382E84008F2DD23AA9A
:101820002946204603F07CFE00287FF413AF103FCA
:10183000102F2599249B4A46E9DC35460C4646463E
:10184000904601333C44072B2594249388E8A0005C
:1018500000F38F8308F10808039BDF0500F1738212
:10186000249B0A99C8F8006001330C44072B259487
:10187000C8F80410249300F35B8308F10808039B65
:101880005B073AD5099B049A9D1A002D35DD102D72
:10189000249B20DD1026089FDDF81CB004E0103DDD
:1018A000102D08F1080816DD01335F4A2493103427
:1018B000072B259488E84400F1DD23AA59463846D1
:1018C00003F02EFE00287FF4C5AE103D102D259CA0
:1018D000249BC846E8DC0133534A24932C44072B4D
:1018E000259488E8240008DD23AA0799089803F0C6
:1018F00017FE00287FF4AEAE259C059B099A04993B
:101900008A42ACBF9B185B180593002C40F01B83E8
:1019100000232493C846F2E50D931BF0200340F00A
:10192000DE811BF0100240F02D841BF0400300F01C
:1019300029840B9913460A4604320C880B92002521
:10194000A9E60B9A0D93166800248DF86F40151DBB
:10195000002E00F0B586069A531C00F0178621462B
:10196000304602F095FE002800F00887831B0A939A
:1019700006940B95CDF80CB023EAE37304930E9410
:101980009DF86F70ACE69AF8003001222B21E7E554
:101990004BF0200B9AF80030E2E50D93002A40F05E
:1019A000A487234B12931BF0200F40F012810B9A57
:1019B0001BF0100F134640F0E0831BF0400F00F0C7
:1019C000DC83043314880B9300251BF0010F00F017
:1019D0000D8154EA050300F0098130239DF834207D
:1019E0008DF870308DF871204BF0020B022352E617
:1019F0009AF8003000297FF4B3AD01222021AFE531
:101A00004BF0010B9AF80030AAE50B9C2368099370
:101A100018460028234603F10403FFF603AE0B9398
:101A20009AF800309CE500BF009200081092000870
:101A3000289600084BF0100B1BF0200F0D933FF47D
:101A40001BAE0B9D073525F0070303F10802D3E910
:101A500000450B9201231EE69AF800302A2B0AF16A
:101A6000010400F03587A3F130000928A24600F2F6
:101A7000918600231C461AF8013B04EB840400EB1A
:101A80004404A3F130000928F5D906946AE54BF027
:101A9000800B9AF8003063E54BF0400B9AF8003069
:101AA0005EE59AF800306C2B03BF9AF801304BF0DA
:101AB000200B0AF1010A4BF0100B51E5002A40F00F
:101AC00018871BF0200F40F009851BF0100F40F025
:101AD000BC841BF0400F00F0B8840B9A13680432EA
:101AE0000B92BDF814201A8009E50B99B94B0C68CC
:101AF00012933022782304318DF871300D934BF01E
:101B0000020B0B9100258DF870200223C3E50B9981
:101B10000D930A688DF8982000230A461F468DF819
:101B20006F30043201230493CDF80CB006970E9762
:101B30000B920A9326AED7E50D93002A40F0F88663
:101B40001BF0200F5DD11BF0100F40F035831BF010
:101B5000400F00F031830B99B1F900400431E517D3
:101B600022462B460B91002A73F1000358DB06999D
:101B70009DF86F704A1C4FF001037FF493AD54EA57
:101B8000050200F0EC81CDF80CB0012B00F083824F
:101B9000022B40F0138212984E46230904F00F01E5
:101BA00043EA05732A091C461546435C06F8013DC5
:101BB00054EA0503F1D1A9EB06030A9388E50D93D6
:101BC000002A40F0B186844B12931BF0200F3FF4A3
:101BD000EEAE0B9D073525F0070303F108021BF05D
:101BE000010F0B92D3E900457FF4F3AE022352E5D7
:101BF0000D93002A40F094864BF0100B1BF0200F41
:101C0000A1D00B9D073525F00705D5E90023002A53
:101C100005F108011D4673F100030B911446A6DA85
:101C20002D27644265EB45058DF86F70012335E57E
:101C30000D93002A40F070860B9D1BF0080F05F1F4
:101C4000070500F0E88325F0070393ED007B8DED99
:101C5000107B03F108020B92DDE9101222F0004321
:101C600016911793DDE916454FF0FF3220462946BD
:101C70005A4B05F0CDF9002840F04F834FF0FF326A
:101C8000564B2046294605F0A5F9002840F045832B
:101C900000220023DDE9100105F092F9002840F050
:101CA00033859DF86F704E4E4E4B2BF080000390A5
:101CB0000D9803220021049206914728D8BF1E46A2
:101CC0000A920E910CE54BF0080B9AF8003047E4AD
:101CD0004BF0100B0D931BF020033FF422AE0B9D35
:101CE000073525F0070303F10802D3E900450B92FD
:101CF0000023D0E4A3F1300000231C461AF8013B76
:101D000004EB840400EB4404A3F130000928F5D966
:101D1000099427E40D93002A40F0EF850D9A002ADC
:101D20003FF491AC002301211F4604918DF89820C7
:101D3000CDF80CB08DF86F3006930E930A9126AE55
:101D4000D2E4259C29E50D9B652B40F3A980002258
:101D50000023DDE9100105F029F9002800F0528187
:101D6000249B214AC8F80020013301340122072BAB
:101D700025942493C8F8042000F36F8308F1080821
:101D80001D9B0F9A259C934203DB039BDD077FF588
:101D900076AD249B1399149AC8F8002001330C44A3
:101DA000072BC8F804102594249300F3A38308F1AB
:101DB00008080F9B5E1E002E7FF761AD102E249B3E
:101DC0000A4D40F3EF8122461027DDF820B0079C32
:101DD00014E000BF2896000814960008FFFFEF7F6C
:101DE0000896000804960008049500081092000860
:101DF00008F10808103E102E40F3D3810133103251
:101E0000072B2592249388E8A000F1DD23AA214620
:101E1000584603F085FB00287FF41CAC259A249BD0
:101E2000C846E7E7099B049A9F1A002F7FF7D8ACB2
:101E3000102F249BB74D27DD42462146B0464FF078
:101E4000100B2E46089C079D04E0103F102F02F156
:101E5000080215DD01331031072B2591249382E808
:101E60004008F2DD23AA2946204603F059FB00284A
:101E70007FF4F0AB103F102F2599249B4A46E9DCF4
:101E800035460C464646904601333C44072B259484
:101E9000249388E8A00000F3348208F108089FE446
:101EA0000F9B249F012B40F3008201370134012353
:101EB000072F25942497C8F80060C8F8043000F371
:101EC000058208F10808139A149BC8F800300137FE
:101ED0001444072F25942497C8F8042000F30282A5
:101EE00008F1080800230022DDE9100105F05EF882
:101EF0000F9B002840F00181013B013701361C4453
:101F0000072F24972594C8F80060C8F8043000F320
:101F1000288108F10808159AC8F8042001371444EC
:101F20001FAB072F25942497C8F800307FF7A5AC86
:101F300023AA0799089803F0F3FA00287FF48AABE4
:101F4000259CC8469BE423AA0799089803F0E8FA61
:101F500000283FF4DDACFFF77DBBDDF80CB0012BB2
:101F600000F03581022B25D1CDF80CB000240025DE
:101F700011E623AA0799089803F0D2FA00287FF403
:101F800069AB259CC84667E423AA0799089803F023
:101F9000C7FA00287FF45EAB259CC8461DE423AA3F
:101FA0000799089803F0BCFA00287FF453AB259CEE
:101FB000C84602E4CDF80CB000240025494600E0F4
:101FC0003146E20842EA4572E80804F00703054694
:101FD0001446303354EA050201F8013C01F1FF36A2
:101FE000EED1039AD2077FF5E6AD302B3FF4E3AD97
:101FF0000239302306F8013CA9EB01030A930E468F
:10200000FFF766BB1D99002940F331820E9B0F9AA2
:102010009342A8BF1346002B1F460DDD249BC8F832
:10202000006001333C44072B2594C8F804702493C6
:1020300000F3218308F108080E9B002FA8BFDB1BCB
:10204000002B1F4640F3D780102F249B314D40F3C7
:10205000F08142462146B0464FF0100B2E46089CB8
:10206000079D04E00832103F102F40F3DE8101335A
:102070001031072B2591249382E84008F2DD23AA32
:102080002946204603F04CFA00287FF4E3AA25995C
:10209000249B4A46E7E7002D08BF0A2CC0F0958034
:1020A0004E46204629460A22002305F05FF83032CA
:1020B00006F8012D2046294600230A2205F056F88D
:1020C00004460D4654EA0503EBD1A9EB06030A9337
:1020D000FFF7FEBA069B0A934E46FFF7F9BA23AA0A
:1020E0000799089803F01CFA00287FF4B3AA9DF81A
:1020F0006F70259CC846FFF750BB5E1E002E7FF711
:102100000AAF102E034D23DD22464FF0100B089C22
:1021100007E000BF10920008103E102E08F10808DA
:1021200015DD01371032072F2592249788E8200803
:10213000F2DD23AA0799204603F0F2F900287FF484
:1021400089AA103E102E259A249FC846E9DC144621
:1021500001373444072F2594249788E860007FF7DF
:10216000D8AE23AA0799089803F0DAF900287FF47B
:1021700071AA259C249FC846CDE61C6804330B93A6
:10218000002522E40B990A4604320C680B920025C4
:10219000FFF781BA04321C680B9201230025FFF778
:1021A0007ABA144601333444072B2594249388E8E3
:1021B00060007FF762ABBBE60B9A146813460433EA
:1021C000E5170B9322462B46CDE4DDF80CB0CDF895
:1021D0000CB040AE3034012306F8414D0A93FFF7AE
:1021E00077BA23AA0799089803F09AF900287FF490
:1021F00031AA259CC8461D9A0F9B9A4244DB039B3B
:10220000D90741D40F9B0E989A1A1D1A9542A8BF60
:102210001546002D0EDD2499C8F8045001310644FE
:102220002C440729C8F800602594249100F33A82D1
:1022300008F10808002DACBF561B1646002E7FF78C
:102240001EAB102E249BB14DACDD22461027DDF8CD
:1022500020B0079C04E008F10808103E102EA0DD15
:1022600001331032072B2592249388E8A000F2DD79
:1022700023AA2146584603F053F900287FF4EAA91F
:10228000259A249BC846E8E7249B13981499C8F81C
:10229000001001330444072B2594C8F8040024934C
:1022A00000F3F48108F10808ACE7039BDA073FF577
:1022B000FCAD013701340123072F25942497C8F87A
:1022C0000060C8F804307FF724AE4AE723AA0799D4
:1022D000089803F025F900287FF4BCA9259C249FC9
:1022E000C846F0E523AA0799089803F019F90028D1
:1022F0007FF4B0A9259C249FC846F3E54E46FFF71E
:10230000E7B923AA0799089803F00AF900287FF48F
:10231000A1A9259CC846FFF763BADDE91001024672
:102320000B4604F075FE002840F09882069B0133AE
:102330000D9B23F0200700F0D281472F00F0208171
:10234000119B4BF48072002B0392C0F2F0819DED43
:10235000107B8DED187B00230C930D9B662B00F0FA
:10236000C181462B00F0F180452F0CBF069B069DD6
:10237000089808BF5D1C21AA1EAB019200932A4653
:102380001DAB02219DED180B00F0BEFB0D9B672BD2
:10239000064640F0D5811BF0010F00F04E82741903
:1023A00000220023DDE9180104F000FE002840F0BF
:1023B0006081219BA34206D230215A1C21921970C0
:1023C000219B9C42F9D89B1B472F0F9300F0F08074
:1023D0000D9B652B40F3C3810D9B662B1D9B0E93BC
:1023E00000F0C0810F9B0E9A1946914200F3918133
:1023F0001BF0010F40F0238222EAE273049367236B
:102400000A920D930C9B002B40F0CB8006939DF815
:102410006F70FFF765B925F0070595ED007B05F1B5
:1024200008038DED107B0B9316E435460C464646AB
:10243000904601333C44072B2594249388E8A00060
:102440003FF7CFAE08F10808D5E60B9A13680432BF
:102450000B92059A1A60FFF752B823AA07990898B9
:1024600003F05EF800287FF4F5A8C84688E4249BB2
:10247000274AC8F80020013301340122072B259494
:102480002493C8F8042054DC08F1080829B90F9BEC
:102490001BB9039BD8077FF5F2A9249B1398149AC4
:1024A000C8F80020013302462244072B2592C8F8C1
:1024B0000400249300F3958108F108080029C0F274
:1024C0006D810F99C8F8006001338C18072B259493
:1024D0002493C8F804107FF7D0A929E50B9A059931
:1024E0001368CD170846043229460B92C3E9000150
:1024F000FFF705B823AA0799089803F011F80028F8
:102500007FF4A8A8259CC84653E400BF1092000899
:10251000049500084021089801F00CFE079A10600D
:102520001061002800F0F081079A40235361FEF704
:10253000D6BF23AA0799089802F0F2FF00287FF47B
:1025400089A81D99259CC846A0E7069D089821AA40
:102550001EAB019200932A461DAB03219DED180B83
:1025600000F0D2FA06460D9B462B06EB05047FF4DD
:1025700017AF3378302B00F077811D9D2C440FE787
:10258000069B002B08BF01230693D9E6304606942C
:10259000FDF756FF0B950A90CDF80CB00346FFF7F8
:1025A000EBB92D2700238DF86F700693FFF799B8CC
:1025B0001D9B0E931A46033304DB069B194691427A
:1025C000BFF610AF0D9B023B0D939DF834308DF894
:1025D0007C300E9B013B002B1D93BDBF0E9BC3F1B6
:1025E00001032D222B22092B8DF87D2040F31D8124
:1025F0000DF18B042046AC4D00E0104685FB031224
:10260000D917C1EBA20101EB8102A3EB42023032E8
:10261000092900F8012C0B4600F1FF32EDDC3033C4
:102620000238D9B2844202F8011C40F26A810DF1ED
:102630007E00134601E013F8011B00F8011BA342C2
:10264000F9D101339B1A0DF17E0213441FAA9B1A84
:102650000F9A1593012A13440A9340F31A810A9B97
:10266000139A13440A9323EAE373049300230E930B
:10267000C8E62346A7E623AA0799089802F050FF68
:1026800000287EF4E7AF259CC846D5E423AA079925
:10269000089802F045FF00287EF4DCAF1D9A259CC7
:1026A000C846AFE523AA0799089802F039FF002829
:1026B0007EF4D0AF1D9A0F9B259C9A1AC846B9E5A7
:1026C000069B0E96062B28BF0623069637460493D4
:1026D0000B95CDF80CB00A93744EFFF701B80623A2
:1026E00006932DE6069C089821AA1EAB0192009342
:1026F00022461DAB03219DED180B00F005FA234681
:10270000064604191D4634E72D278DF86F70FFF734
:10271000CABA139A0F9B13440E9A0A93002A40F3E5
:10272000B18023EAE373049367230D936AE6DDE93E
:10273000101202F1004319932D2318910C930CE60B
:102740000D9B472B7FF42BAE1BF0010F7FF40BAFDB
:10275000219B472FA3EB06030F933FF429AF1D9B4B
:102760000E9332E7002B40F3A980069A002A6BD122
:102770001BF0010F68D104930A9343E6069B049370
:102780000A9306900B95CDF80CB00E909DF86F70E3
:10279000FEF7A6BF00200690FEF7E4BE4F421031C0
:1027A000434D2BDA1024DDF820B004E008F10808CE
:1027B000103F102F22DD01331032072B2592249376
:1027C000C8F80050C8F80440F0DD23AA079958461D
:1027D00002F0A6FE00287EF43DAF259A249BC84651
:1027E000E6E723AA0799089802F09AFE00287EF4EB
:1027F00031AF1D99259A249BC8465FE601333A44C0
:10280000072B88E8A0002592249308F108087FF799
:1028100058AE23AA0799089802F082FE00287EF499
:1028200019AF259A249BC8464BE6303330228DF8E9
:102830007F308DF87E2020AB08E7219BC3E50E9BFF
:10284000139A13440A936CE70E9B139A1344069A47
:102850001A4422EAE2730A920493D3E5154E164B0A
:102860009DF86F70FFF721BA00220023DDE91801FF
:1028700004F09CFB00287FF480AEC5F101051D9596
:102880002C448DE50E9B0A9AC3F101031A441346AA
:10289000D8E71BF001030E937FF4E1AE0A9B23EA15
:1028A000E3730493AEE500BF676666663C96000876
:1028B00010920008109600080C960008069B13B9A9
:1028C0001BF0010F02D0139B0133C0E7012352E735
:1028D0000B9D9AF80130286840EAE070069028467F
:1028E0000430A2460B90FEF73BBE8DF86F10FFF749
:1028F00058B88DF86F10FFF7E4B88DF86F10FFF738
:102900000DBA0DF17E03A1E6089A0C2313604FF077
:10291000FF330593FEF7A7BE8DF86F10FFF78CB954
:102920008DF86F10FFF768B98DF86F10FFF74BB98E
:102930008DF86F10FFF704B92DE9F047254C256895
:10294000D5F848410646884692469946C4B3606821
:102950001F2817DC431C76B104EB80050122C5F863
:1029600088A0D4F8881182401143022EC4F888113F
:10297000C5F808911ED00230636044F82080002022
:10298000BDE8F087144B03B34FF4C870AFF3008079
:102990000446D0B1D5F84831002780E88800C5F852
:1029A000484138460123C4F88871C4F88C71002E60
:1029B000E1D0D1E7D4F88C110A43C4F88C21DAE7CE
:1029C00005F5A674C5F84841C1E74FF0FF30BDE8F2
:1029D000F08700BFA8910008000000000000000080
:1029E00002690B69934200F38D802DE9F04F03F1EA
:1029F000FF3801F1140700F1140B57F828205BF899
:102A000028304FEA880483B00132B3FBF2F90BEBB4
:102A10000403009407EB040A0193B9F1000F39D0C5
:102A200000252E46BC46DE465CF8044BDEF800303E
:102A3000A2B209FB0255220C2C0C09FB0242ADB2DA
:102A4000751B96B2C6EB134615FA83F306EB2346C5
:102A50009BB243EA0643E2454FEA12454EF8043B77
:102A60004FEA2646E0D2009B5BF8033093B9019C05
:102A7000231F9B450CD254F8043C4BB9A4F1080326
:102A800002E01A68043B1AB99B4508F1FF38F8D3F5
:102A9000C0F81080044602F035F900282EDB09F159
:102AA00001095D46002357F8041B28688AB29A1A68
:102AB0000B0C12FA80F2C3EB104303EB224392B2E9
:102AC00042EA0342BA4545F8042B4FEA2343EAD2CF
:102AD0005BF828200BEB880382B91A1F93450BD2B1
:102AE00053F8042C42B9083B02E01A68043B1AB9B7
:102AF0009B4508F1FF38F8D3C4F81080484603B06E
:102B0000BDE8F08F002070472DE9F04F57EC106BB7
:102B100097B0056C0291044693460393CDE9006794
:102B20004DB1426C6A6001239340AB60294601F0CD
:102B3000C3FE00232364DDE90023002B994638DB24
:102B4000209A00231360A04B33EA090317D0DDE974
:102B50000067002200233046394604F027FA8046F9
:102B600000282FD0039A01231360219B002B00F033
:102B7000C48096481860013817B0BDE8F08F039AFA
:102B800042F20F731360009B6BB9C9F3130353B97F
:102B9000219B8F48002BEFD000F10803219A13608E
:102BA00017B0BDE8F08F219B8A48002BE4D0C31CEE
:102BB000F4E7019A22F00049209ACDF8049001230D
:102BC0001360C0E714AA15A947EC106B204602F069
:102BD000C5F95FEA1955824673D0C7F3130343F072
:102BE0007F51CDF84080DDF850803046A5F2FF35AA
:102BF00041F440110022784B03F0BCFD6CA3D3E9F3
:102C0000002303F06BFF6CA3D3E9002303F0B4FDB2
:102C1000064628460F4603F0FBFE69A3D3E90023CE
:102C200003F05CFF02460B463046394603F0A4FD34
:102C300006460F4604F002FA0022049000233046B4
:102C4000394604F0BDF9002840F06F81049E162E2D
:102C500000F25981614B03EBC603D3E90001DDE9C2
:102C6000002304F0CBF9002800F0C481731E049304
:102C700000230C93A8EB05056B1E059300F14F8113
:102C800000230693049B002BC0F24081059A0B930E
:102C900011461944002305910A93029B092B2ED853
:102CA000052B40F35186043B02930027029B023B15
:102CB000032B00F23386DFE813F0D603CB02E303E5
:102CC0006404DDF85080159D454405F23243202B05
:102CD00040F38A81C3F1400309FA03F9009B05F22E
:102CE000124023FA00F040EA090003F081FE0123BC
:102CF000013DA1F1F87110937CE739483CE70021D0
:102D0000616420468B4601F0B1FD4FF0FF3308931C
:102D10000D93012307902064CDF808B00993159B0B
:102D2000002BC0F2D080049A0E2A00F3CC802B4BEB
:102D3000BBF1000F03EBC203D3E90089C0F2BE83ED
:102D4000DDE9006742464B463046394603F0F0FF66
:102D500004F074F9834603F05BFE42464B4603F0F1
:102D6000BDFE0B4602463946304603F003FD079D83
:102D70000BF130032B70089B012B06460F4605F123
:102D8000010561D00022174B03F0A8FE00220023AA
:102D900006460F4604F00AF9002840F08180CDF87D
:102DA00000A00294DDF81CA0089C28E0AFF300808E
:102DB00061436F63A787D23FB3C8608B288AC63F41
:102DC000FB799F501344D33F0000F07F0595000826
:102DD00044960008509600080000F83F3093000821
:102DE000049500080000244003F078FE0022002330
:102DF00006460F4604F0DAF8002840F0C583424644
:102E00004B463046394603F093FF04F017F98346EA
:102E100003F0FEFD42464B4603F060FE02460B46C1
:102E20003046394603F0A6FC0BF1300E05F801EBF5
:102E3000A5EB0A0EA64506460F464FF000026E4B64
:102E4000D2D1DDF800A0029C32463B4630463946DE
:102E500003F092FC06460F4602460B4640464946A2
:102E600004F0AEF848B932463B464046494604F0C5
:102E70009DF8A8B11BF0010F12D015F8018C079A2C
:102E80006B1E04E09A4200F02D8413F8018DB8F116
:102E9000390F03F10105F5D008F1010883F800802E
:102EA0005146204601F008FD0022049B2A70039A37
:102EB00001331360219B002B00F0A38307981D6052
:102EC00017B0BDE8F08F099A002A40D0029A012A73
:102ED00040F31C83089B0A9A5F1EBA42C0F2948397
:102EE000D71B089B002BC0F27E84069D089B069A88
:102EF0001A440692059A01211A442046059201F0CF
:102F0000C3FD064626E001230C93B3E6069A049B14
:102F1000D21A5B420A93002306920B93BDE6C5F1D9
:102F20000103069300230593ACE6DDF810904846B4
:102F300003F06EFD02460B463046394604F036F883
:102F400000287FF483AE09F1FF3304937EE60A9FE5
:102F5000069D099E002D0CDD059900290B4608DD14
:102F6000A942069AA8BF2B46D21AED1ACB1A06928E
:102F700005930A9BD3B1099B002B00F0C082002F60
:102F800010DD31463A46204601F01AFE524601460F
:102F90000646204601F082FD51468046204601F05B
:102FA0008BFCC2460A9BDA1B40F0AA820121204614
:102FB00001F06AFD0B9B002B81461FDD01461A467E
:102FC000204601F0FDFD029B012B814640F35B8210
:102FD0004FF00008D9F8103009EB8303186901F0AD
:102FE00003FDC0F1200013E0C3F12009009B03FAA8
:102FF00009F07AE60C903DE600002440029B012B8C
:1030000040F38D824FF000080B9B0120002BE1D193
:10301000059A104410F01F0000F0A180C0F12003B9
:10302000042B40F38C84069BC0F11C0003440693E0
:103030001346034405440593069B002B05DD5146CA
:103040001A46204601F00CFE8246059B002B05DD4A
:1030500049461A46204601F003FE81460C9B002B90
:1030600040F08680089B002B40F36982099B002B6F
:1030700000F09880002D05DD31462A46204601F0FB
:10308000EFFD0646B8F1000F40F03683B046089BCE
:10309000079A013BD3180893009B03F0010309939F
:1030A000174649465046FFF79BFC314605465046B9
:1030B00001F028FE424649468346204601F03EFE86
:1030C00005F130020092C2680146002A40F03282C7
:1030D0000690504601F016FE069B059019462046C4
:1030E00001F0EAFB059A32B9029B23B9099B002B38
:1030F00000F0DE83029ABBF1000FC0F2A28205D17C
:10310000029B1BB9099B002B00F09B82002A00F355
:1031100007839DF800303B70089B07F1010B9F422D
:103120005D4600F00883514600230A22204601F044
:10313000CDFB4645824631464FF000034FF00A0270
:10314000204600F0F18101F0C1FB41460646002314
:103150000A22204601F0BAFB5F468046A1E71C2008
:10316000069B03440693059B03440544059363E7CC
:103170004946504601F0C6FD0028BFF673AF049FD4
:10318000514600230A222046013F049701F09EFB8E
:10319000099B8246002B40F0A7830D9B002B40F338
:1031A000B0830893DDF81CB0DDF820805D4602E0B6
:1031B00001F08CFB824649465046FFF711FC00F1B6
:1031C000300705F8017BA5EB0B0343454FF00A02DE
:1031D0004FF0000351462046EADB079B089A009710
:1031E000012AACBF9B1801331D464FF0000B51461E
:1031F0000122204601F034FD4946824601F082FD5D
:10320000002840F33A8215F8012C07996B1E04E060
:103210008B4200F0AF8113F8012D392A03F101052B
:10322000F6D001321A704946204601F045FB002EC7
:103230003FF436AEBBF1000F05D0B34503D059467D
:10324000204601F039FB3146204601F035FB27E6E8
:1032500000230993049B5B440D930133012B1E460D
:103260001D460893B8BF01260021172E61640AD9B4
:10327000012204235B0003F114008642114602F18F
:103280000102F7D26164204601F0F0FA0E2D07909A
:1032900020643FF644AD002F3FF441AD049900296E
:1032A0009DED007B40F3F681B94B01F00F0203EB7B
:1032B000C2030D11D3E90067EB0640F1AD81B54BB8
:1032C00051EC170BD3E9082303F032FDCDE90E01D1
:1032D00005F00F054FF003098DB1DFF8B882E8075C
:1032E00009D530463946D8E9002303F0F7FB09F148
:1032F000010906460F466D1008F10808EFD13B465C
:103300003246DDE90E0103F013FD074688460C9BAB
:1033100043B10022A04B3846414603F051FE00283D
:1033200040F07382484603F073FB3A46434603F08D
:10333000D5FB9A4B002203F01FFA089B0546A1F12A
:103340005076002B00F04081049BDDF82090119313
:10335000099B002B00F0F6818D4B914903EBC903CB
:1033600053E90223002003F0E3FC2A46334603F02E
:1033700001FACDE90E014146384603F05FFE0546ED
:1033800003F046FB02460B463846414603F0F2F98D
:1033900030355FFA85F8079D06460F4685F80080B0
:1033A00002460B46DDE90E01013503F027FE002839
:1033B00056D132463B460020774903F0DBF90246FE
:1033C0000B46DDE90E0103F019FE002840F0628291
:1033D000B9F1010F3FF4A3AC079BCDF848A0CDF89D
:1033E0004CB09944A046DDE90EAB0DE000206A49DF
:1033F00003F0C0F952465B4603F0E2FD002840F0BE
:1034000044824D4500F04A82504659460022654BA1
:1034100003F064FB0022634B82468B4630463946FC
:1034200003F05CFB0F46064603F008FE044603F07B
:10343000EFFA02460B463046394603F09BF930342A
:10344000E4B252465B4605F8014B06460F4603F0D0
:10345000B7FD32463B460028C8D0DDF848A04446B8
:10346000119B04931CE500230993BBF1000F40F36B
:10347000DA805E465D46CDF834B0CDF820B0F3E694
:1034800001230993F1E7009B002B7FF4A1ADDDE957
:103490000012C2F31303002B7FF4B4AD22F00047F7
:1034A0003F0D3F05002F00F00082069B013306937D
:1034B000059B013305934FF00108A5E5089B002B00
:1034C0003FF73EAC40F0998049460022364B4046DB
:1034D00003F004FBDDE9002303F086FDDDF8209016
:1034E0004E4600283ED06FEA0B03079D04934946E1
:1034F000204601F0E1F9002E3FF4D2ACA3E60A9A8F
:103500005146204601F05CFB82464FE5109A002AA6
:1035100000F06F8103F233430A9F069DE7E4009BAE
:10352000002B7FF46FADB2E701F0D0F95F4606469D
:103530008046B6E5204601F0BFF90122DBE5029B9B
:10354000022B7FF793AD089B002BCCD14946052277
:10355000204601F0BBF901468146504601F0D2FBFE
:103560000028C0DD049A07993123013204920B70C0
:103570004D1CBCE7049A01320492079A3123137060
:1035800051E60123099365E6DDF800A0029C87E47B
:1035900030930008209400080000F03F00001C4019
:1035A0000000E03F0000244000001440484603F0C3
:1035B0002FFA3A46434603F091FA0022C44B03F037
:1035C000DBF80546A1F1507641460022C14B384652
:1035D00003F0D0F82A4633468046894603F00EFDB4
:1035E000002840F0AB802A4606F100434046494699
:1035F00003F0E6FC00283FF492AB4FF000094E4682
:1036000071E70798FFF7B8BA0A9B0B9A0A97FB1A5B
:103610001A440B92002764E49DED007B4FF00209F1
:103620008DED0E7B58E600216164204601F01EF905
:103630004FF0010B07902064CDF820B0CDF834B0E6
:1036400029E6002A12DD51460122204601F008FB3E
:103650004946824601F056FB002840F33181009B29
:10366000392B00F0F78005F1310300939DF800300D
:103670003B70B3467D1C4646D5E504D1009BDB0775
:1036800001D5C0E5154615F8013C302B05F1FF3298
:10369000F8D0C8E500F0B480049B5D428E4B05F085
:1036A0000F0203EBC203D3E90023DDE9000103F0BD
:1036B00015FA2D110746884600F02881874E4FF0F5
:1036C0000209E90709D538464146D6E9002303F047
:1036D00005FA09F10109074688466D1006F108064A
:1036E000EFD114E6079930220A70049A15F8018C7C
:1036F00001320492FFF7D0BB7168204601F0B6F8A2
:10370000336902339A00054606F10C010C3001F0D2
:103710000FF829460122204601F0A2FA8046B6E4BD
:10372000009B392B00F09680009B0133B3463B7021
:103730007D1C464677E5B346464658E54FF00009FE
:103740004E460FE7644901EBC9012A46334651E969
:10375000020103F0C3F9CDE90E013846414603F0FA
:103760006DFC054603F054F902460B4638464146C7
:1037700003F000F8079A3035B9F1010F15700646CD
:103780000F4602F101051CD0079B99440022544BBF
:103790003046394603F0A2F90F46064603F04EFCC8
:1037A000804603F035F908F1300802460B463046F2
:1037B000394602F0DFFF05F8018B4D4506460F46FE
:1037C000E4D10022474BDDE90E0102F0D5FF32467D
:1037D0003B4603F0F5FB002842D0119B049315F8FB
:1037E000018CFFF74CBB069B089A9D1A0023FFF73C
:1037F0007EBB149B0A9F069DC3F13603FFF777BB80
:10380000DDE900784FF0020981E5089B002B3FF4C9
:10381000CDAE0D9B002B7FF782AA0022304B38469D
:10382000414603F05BF90746884609F1010003F0C1
:10383000EFF83A46434603F051F90022244B02F0D8
:103840009BFF049ADDF83490013A0546A1F15076C9
:1038500011927DE53922B3463A7046467D1CD4E488
:10386000DDE90E2300201F4902F084FF32463B466B
:1038700003F0C4FB10B9FFF752BA154615F8013C26
:10388000302B05F1FF32F8D0EAE54346DDF848A0D9
:10389000A0461C46119B0493FFF7F1BADDF848A03F
:1038A000DDF84CB04446FFF73ABAB846FFF7ACBB78
:1038B000009B392BCED0BBF1000F3FF7D4AED5E63D
:1038C0007FF4D4AE009BDA077FF5D0AEC7E600BF29
:1038D00000001C40000014403093000820940008B1
:1038E000000024400000E03F314600230A22204629
:1038F00000F0ECFF0D9B002B06460ADD0893FFF756
:10390000B9BB029B022B22DC0D9B4AE44FF002095B
:10391000FDE4029B022B1ADC0D9BEFE7002565649A
:103920002946204600F0A2FF4FF0FF3308930D9385
:1039300001230790AB4620640993FFF7F0B93FF4E9
:103940007BABC0F13C000BE40127FFF7AFB90D9B47
:103950000893F8E5F0B505694B11AB422ADA00F19E
:10396000140711F01F0107EB850507EB830626D02E
:1039700057F82320341DA54222FA01F2C1F1200C90
:1039800032D9BE46236803FA0CF313434EF8043BC6
:1039900054F8042BA54222FA01F2F3D8AB1B053BE5
:1039A00023F0030304333B441A6002B10433DB1BEE
:1039B0009B1015E00023036100234361F0BDB54275
:1039C000F8D900F11002334653F8041B42F8041FE3
:1039D0009D42F9D8F3432B4423F0030304339B1097
:1039E0000361002BE8D0F0BD3B46DDE72DE9F04F49
:1039F0008BB0894603920893059000F08BFB036817
:103A0000029318461C46FCF71BFDD9F800300090C5
:103A10009A782118302A11F801BC40F0AA810333AA
:103A20004FF000081C4613F8012B302A08F101085A
:103A3000F8D0B34EB35C002B00F0ED8023784FF04C
:103A4000000AF35C5546274623B117F8013FF35CA3
:103A5000002BFAD1009A0299384601F00FFD002898
:103A600000F091803B78002D00F07281ED1BAA00E0
:103A70000192502B00F09080702B00F08D803D461D
:103A8000C9F80070BAF1000F40F0B5802B1B013B64
:103A9000072B514604DD5B10072B01F10101FADC15
:103AA000059800F0E3FE03461433AC4204900793FC
:103AB00080F0D0819946009B0027C3F10103B846EE
:103AC00006930FE0202F00F09F803A46043715F848
:103AD000013CF35C554603F00F039340A54248EACE
:103AE000030815D915F8013C5B4505F1FF3AE9D10A
:103AF000069B5344A342E5D31846009A02990993C2
:103B000001F0BCFC099B0028DCD11D46A542E9D888
:103B100049F8048B079B049AA9EB03094FEAA90310
:103B2000136140464FEA431900F05EFF039B1D6896
:103B3000A9EB0000A84200F3E580C0F20B8100264B
:103B4000039B019A9B689A4200F39880039801991D
:103B50004368994280F2B7805C1AA54200F30D8158
:103B6000C268022A00F07D81032A00F05A81012AEE
:103B700000F07B810499059800F09EFE149A0023C2
:103B8000136050243CE0002D00F017813B786DE776
:103B9000002301934FF0010A7B782B2B00F0AE80BD
:103BA0002D2B77D0791C0025F35C5A1E182A3FF67E
:103BB00066AF4A78B25C501E1828A3F1100301F1D9
:103BC00001010BD811F8010F03EB830302EB430350
:103BD000325C501E1828A3F11003F3D905B15B42E3
:103BE000019A3D461A440F460192C9F80070BAF195
:103BF000000F3FF44BAFB8F1000F0CBF06240024B8
:103C000020460BB0BDE8F08F00220427C9F80080E1
:103C1000B94490465BE7009D02992A46204601F090
:103C20002DFC00283AD022782746502AB0D0702A9E
:103C3000AED0C9F80070DEE7049B9B689E4280F21C
:103C40003581079B3246049800EB82014FF0010E4C
:103C50000132022C0261C1F814E000F01581964295
:103C600080F2408101210498FFF774FE039B019AC2
:103C70009B6801329A42019240F3CF8005980499E3
:103C800000F01AFEA324149A0023204613600BB000
:103C9000BDE8F08F0125BB78B91C85E7625DB35C98
:103CA0006719002BC1D0302A3C4604D114F8013FDB
:103CB000302BFBD0F35CB3FA83FA3D464FEA5A1A35
:103CC0004FF00108BFE6012466B1039BDB68022BBD
:103CD00000F08180032B00F08280012B00F0B18086
:103CE00044F01004149B1A46049B1360089B1A4668
:103CF000019B136020460BB0BDE8F08F0025CAE79A
:103D000020920008441B2146049801F0F9F9064668
:103D1000B0B1621E5111079802F01F0350F8211034
:103D2000012606FA03F30B420AD0B24240F3978011
:103D3000A11E049801F0E4F9002800F09080032609
:103D4000019B0498234421460193FFF703FEF7E605
:103D500001958EE62C1A04990598224600F080FF02
:103D6000019B04901B1B0193034614330793002609
:103D7000E6E69C1C4FF000085BE6671E002E4ED165
:103D800027B13946049801F0BBF906467B11079A22
:103D9000049852F8232007F01F07012303FA07F7BE
:103DA0001742214618BF46F00206FFF7D3FD039BDA
:103DB0005B6801932D1B022486E700997B5CF25C13
:103DC0007D182F46002A3FF451AE17F8013FF25CF0
:103DD000002AFAD14AE6159BC3F101031593159BFE
:103DE000002B3FF47DAF049B079A1E69B700134672
:103DF00002EB070E1146002004E043F8040B9E4539
:103E00007FF61AAF1A68B2F1FF3FF6D00132022CEA
:103E10001A603AD015F01F053ED1212462E7012631
:103E2000B4E7159A002A3FF4A5AE08990B60079BEA
:103E3000049901220A611A60149B1A4662241160D7
:103E4000DEE6B2077FF54CAF079B1B681E43F30706
:103E5000C9D445E7DDF81C904FF0000858E602266B
:103E60006EE7159A002AE0D084E6A5427FF482AE80
:103E7000012DDADD691E049801F042F900283FF4B3
:103E800079AE039B5B68D0E71946039B1B68013B37
:103E90009D4229D0222425E7CB19C5F1200553F8EE
:103EA000040C00F0A1FDA842B7DADBE6049BDDF8C4
:103EB000149059684846013100F0D8FC04990B6908
:103EC000023380469A000C310C3000F031FC04992A
:103ED000484600F0F1FCCDF8108008F11403D8F842
:103EE0001020B0E6194695E76B1105F01F0551F853
:103EF00023200123AB40134214BF21242224F1E6E6
:103F000030B4046808E014F8013FA3F14105192D0D
:103F100098BF2033934208D111F8012B002AF2D127
:103F200001340460012030BC7047002030BC704771
:103F30002DE9F04F0B68DFF8789185B0591102EB4D
:103F4000810113F01F0301911CBF04310191019CF9
:103F500002900393002344F8043C19469A469E4677
:103F6000029B1D686B78A4F1040CE04660466E1C51
:103F70002BB319F80340002C44D1202B60D8D64530
:103F800018DD404513D2072911DCC1F10801890071
:103F90000568C1F1200B03465F6807FA0BF42C4358
:103FA00027FA01F51C6043F8045F9845F4D8904265
:103FB0003CD8082135466B786E1C002BD9D1BEF158
:103FC000000F3FD0404501D207295DDD90423DD929
:103FD000134650F8041B43F8041B8445F9D2002112
:103FE00043F8041B9C45FBD2019B53F8043C2BB9BE
:103FF00062453CD05CF8043D002BF9D0052005B0AB
:10400000BDE8F08F013108290EF1010E06DD904266
:10401000D0D9002340F8043C01210438036804F09F
:104020000F0444EA031404603546C4E70023A0F1FA
:10403000040840F8043CF246404619463546BAE7C3
:10404000292B1AD0042005B0BDE8F08F039B002B6C
:10405000CAD0019C039B54F8040CC3F120034FF019
:10406000FF3121FA03F3034044F8043CBFE7012386
:104070000520136005B0BDE8F08F029B02351D607E
:10408000BEF1000F9ED1DDE7C1F108039B0005687A
:10409000C3F1200701464E6806FA07F42C4326FABE
:1040A00003F50C6041F8045F8845F4D88EE700BF43
:1040B00020920008B2B110B50B491046144601F029
:1040C00073F808B9094810BD0849204601F06CF89A
:1040D0000028F7D02046064901F066F80028F1D004
:1040E000002010BD0148704754960008F095000864
:1040F000D49500080048704730040020014B186A2E
:10410000704700BF3004002000487047540400206E
:10411000002070470048704774040020024B0A4694
:1041200001461868FFF7C6BF00000020004870472E
:10413000740400202DE9F04F01F10B06162E83B018
:10414000054640F29E8036F0070600F1BD80B14280
:1041500000F2BA8000F086FBB6F5FC7FC0F08F82DB
:10416000730A00F0B880042B00F27D81B30903F1DB
:10417000390003F1380EC300C14F3B44A3F10801DD
:104180005C68A14206D10CE0002A80F2AA80E468B3
:10419000A14206D0636823F003039A1B0F2AF3DDC4
:1041A00070463C69DFF8DCE2744500F0A781636883
:1041B00023F003039A1B0F2A00F38C81002AC7F80F
:1041C00014E0C7F810E080F29D80B3F5007F80F026
:1041D0005D81DB0803F1010C99107A6857F83C8087
:1041E000C4F8088001238B4007EBCC011343083946
:1041F000E1607B6047F83C40C8F80C408210012425
:1042000094409C4200F28B801C4206D120F00300B7
:1042100064001C4200F10400FAD007EBC009CC4650
:104220008046DCF80C309C4507D169E1002A80F219
:104230007781DB689C4500F06381596821F00301B8
:104240008A1B0F2AF2DDD3F80CC0D3F80880019343
:104250009C19284646F0010642F001055E60C8F848
:104260000CC0CCF808807C613C61C4F80CE0C4F858
:1042700008E065605A5000F0F7FA019B03F108046A
:104280001EE0102920D800F0EDFA10261823022095
:104290007B4F3B44A3F108025C68944200F03981F3
:1042A0006368E168A66823F00303234428465A683C
:1042B000F16042F001028E605A6000F0D5FA0834D5
:1042C000204603B0BDE8F08F00240C2320462B606D
:1042D00003B0BDE8F08F40204FF400734FF03F0E65
:1042E0004AE72344E1685A68A66842F00102F16097
:1042F00028468E605A6000F0B7FA0834204603B0B2
:10430000BDE8F08F234428465A6842F001025A6003
:1043100000F0AAFA0834204603B0BDE8F08FBC686C
:10432000636823F00309B14504D3A9EB06030F2BFF
:1043300000F38980DFF850A1D7F80824DAF80030BC
:10434000013204EB090B06EB030800F0508108F57D
:10435000805808F10F0828F47F6828F00F084146BC
:10436000284600F0FDFE421C034600F0F68083451F
:1043700000F2F180DAF804204244CAF8042000F088
:104380004781D7F8081401311BBFA3EB0B0B5A442C
:10439000C7F80834CAF8042013F0070200F00D81B2
:1043A000C2F10801C2F580520B4408329844C8F3A8
:1043B0000B08A2EB080841462846019300F0D0FE06
:1043C000431C019B00F03E81C11A414441F00101B0
:1043D000DAF80420BB604244BC425960CAF80420A9
:1043E00016D0B9F10F0F40F2F4806168A9F10C0307
:1043F00023F00703E01801F001014FF0050E194307
:104400000F2B6160C0F804E0C0F808E000F21281F0
:10441000DAF82C30BC689A42DAF8303088BFCAF833
:104420002C209A4288BFCAF83020626822F003022A
:104430009642A2EB060301D80F2B04DC284600F0BD
:1044400013FA00243CE7A21943F0010346F00106E9
:1044500066602846BA60536000F006FA08342046C9
:1044600003B0BDE8F08F142B69D9542B00F29B8068
:10447000330B03F16F0003F16E0EC3007CE600BF47
:10448000AC040020B4040020E40800205A0A042AE6
:104490005BD9142A00F2AE8002F15C01C9005B32E4
:1044A00007EB010C7958ACF1080C8C4500F08880C2
:1044B0004A6822F00302934273D289688C45F7D18F
:1044C000DCF80C207B68E260C4F808C09460CCF88B
:1044D0000C4093E6A11946F0010C42F00106C4F825
:1044E00004C0284679613961C1F80CE0C1F808E0E0
:1044F0004E60E25000F0B8F90834E1E67B687DE6F2
:1045000008F1010818F0030F0CF1080C7FF489AED4
:104510002DE0DC68A34208BF02303FF442AEBFE6A4
:1045200019441C464A68DB6854F8086F42F00102DF
:104530004A602846F3609E6000F096F9C0E603F1F9
:104540005C0003F15B0EC30016E69A0902F1390123
:10455000C9003832A4E7BC4254D0BC68626822F07B
:10456000030265E759F80839994540F0868010F054
:10457000030F00F1FF30F5D17B6823EA04037B6071
:1045800064009C423FF6CBAE002C3FF4C8AE1C4208
:1045900040467FF442AE64001C4200F10400FAD0B1
:1045A0003BE68C468CE7B3F5AA7F15D8F30B03F1F5
:1045B000780003F1770EC300DEE54FF48052F5E694
:1045C0007B689210012101FA02F213437B6062467C
:1045D00079E701225A6031E740F25452934223D8DE
:1045E000B30C03F17D0003F17C0EC300C4E508F1B8
:1045F0001008B4E6542A29D81A0B02F16F01C90039
:104600006E324DE7DAF804204244CAF80420B8E6D6
:10461000CBF30B0100297FF4B4AE09EB0803B968B2
:1046200043F001034B60F3E67F204FF47E734FF0BD
:104630007E0EA1E504F10801284601F099FDDAF8A3
:104640000420E5E601214FF00008C1E6B2F5AA7F9B
:1046500005D8DA0B02F17801C900773220E740F281
:1046600054518A4205D89A0C02F17D01C9007C326E
:1046700016E74FF47E717E2212E77B6880E7F00830
:1046800006F1080304E600BF00000000000000007F
:1046900001F0FF01102A2BDB10F0070F08D010F8F3
:1046A000013B013A8B422DD010F0070F42B3F6D1F7
:1046B000F0B441EA012141EA014122F007047FF010
:1046C00000070023F0E80256083C85EA010586EA67
:1046D000010685FA47F5A3FA87F586FA47F6A5FAA3
:1046E00087F68EB9EED1F0BC01F0FF0102F00702AF
:1046F00032B110F8013B013A83EA010313B1F8D15A
:104700000020704701387047002D06BF354603383A
:10471000073815F0010F07D1013015F4807F02BF73
:10472000013015F4C03F0130F0BC0138704700BFC4
:10473000844641EA000313F003036DD1403A41D3AC
:1047400051F8043B40F8043B51F8043B40F8043B6B
:1047500051F8043B40F8043B51F8043B40F8043B5B
:1047600051F8043B40F8043B51F8043B40F8043B4B
:1047700051F8043B40F8043B51F8043B40F8043B3B
:1047800051F8043B40F8043B51F8043B40F8043B2B
:1047900051F8043B40F8043B51F8043B40F8043B1B
:1047A00051F8043B40F8043B51F8043B40F8043B0B
:1047B00051F8043B40F8043B51F8043B40F8043BFB
:1047C000403ABDD2303211D351F8043B40F8043B9B
:1047D00051F8043B40F8043B51F8043B40F8043BDB
:1047E00051F8043B40F8043B103AEDD20C3205D3AB
:1047F00051F8043B40F8043B043AF9D2043208D0A3
:10480000D2071CBF11F8013B00F8013B01D30B8814
:1048100003806046704700BF082A13D38B078DD0F2
:1048200010F003038AD0C3F10403D21ADB071CBFC4
:1048300011F8013B00F8013B80D331F8023B20F82E
:10484000023B7BE7043AD9D3013A11F8013B00F867
:10485000013BF9D20B7803704B7843708B788370EF
:1048600060467047704700BF704700BFC36C70B5AB
:1048700005460C464BB153F8240080B1026843F85A
:10488000242000230361C36070BD2122042101F0B4
:10489000EFFBE86403460028EDD1002070BD012144
:1048A00001FA04F6721D2846920001F0E1FB00288F
:1048B000F3D044608660E4E731B1C36C4A6853F8D2
:1048C0002200086043F82210704700BFF0B50C6961
:1048D00083B00D46064601F1140E0027DEF80000F5
:1048E00081B202FB0133010C180C02FB01019BB2E7
:1048F000013703EB0143BC424EF8043B4FEA11433E
:10490000ECDC3BB1AA68944207DA05EB840201347F
:1049100053612C61284603B0F0BD696801930131F1
:104920003046FFF7A3FF2A69023205F10C01074662
:1049300092000C30FFF7FCFEF26C6968019B52F8A4
:104940002100286042F821503D46DEE72DE9F8437A
:10495000244C089E1F46083384FB034EDB17C3EB31
:104960006E0EBEF1010F05460C46904635DD012363
:1049700000215B009E4501F10101FADC2846FFF7AA
:1049800075FF0123B8F1090F4661036121DD04F1D0
:1049900009094E46444416F8013B0146303B0A22C1
:1049A0002846FFF793FFA642F5D1A8F108044C442E
:1049B000474514DDA7EB0807274414F8013B0146DF
:1049C000303B0A222846FFF781FFA742F5D1BDE818
:1049D000F8830A344FF00908EAE70021CEE7BDE882
:1049E000F88300BF398EE338020C12040346B2B9D3
:1049F0000304102013F07F4F04BF1B02083013F094
:104A0000704F04BF1B01043013F0404F04BF9B00E4
:104A10000230002B02DB5B0003D420207047002013
:104A2000E8E70130704700BF036813F00702014652
:104A300007D0DA0721D4980721D49B080B60022005
:104A4000704798B298B1104613F0FF0F04BF1B0ACD
:104A500008301A0704BF1B0904309A0704BF9B08DB
:104A60000230DA0707D45B0804D1202070471B0C02
:104A70001020E9E701300B607047002070475B08A9
:104A80000B600120704700BF10B50C460121FFF7F5
:104A9000EDFE01224461026110BD00BF2DE9F04F1F
:104AA0000C691569AC4283B08B46164604DA22467F
:104AB000B3462C460E461546DBF80830DBF80410EA
:104AC00004EB05089845C8BF0131FFF7CFFE00F1A0
:104AD000140909EB880AD145009005D24B46002104
:104AE00043F8041B9A45FBD806F1140C0CEB850324
:104AF0000BF1140B9C450BEB840E4CD2CDF804A0AB
:104B00009A46DCF80050AFB2EFB100214D465E4648
:104B10000C4656F8042B286893B281B207FB0313A6
:104B2000120C010C234407FB021101EB13419BB251
:104B300043EA0143B64545F8043B4FEA1144E8D83F
:104B40002C60DCF800502D0C1DD0D9F80030484600
:104B50001C46594600220E88240C05FB06442244BC
:104B60009BB243EA024340F8043B51F8043B04681B
:104B70001B0CA6B205FB036303EB12438E454FEA01
:104B80001342E8D803600CF1040CE24509F1040972
:104B9000B7D8DDF804A0B8F1000F0BDD5AF8043CDB
:104BA000AAF1040A1BB105E05AF8043D13B9B8F1A3
:104BB0000108F9D10098C0F8108003B0BDE8F08F6B
:104BC00012F003032DE9F041144607462ED10D469D
:104BD000A4101CD0BE6C96B3E3074FF0000806D4B7
:104BE000641014D03068A8B10646E307F8D5324601
:104BF00029463846FFF752FFB5B16A68FB6C64106E
:104C000053F82210296043F822500546EAD128467D
:104C1000BDE8F081324631463846FFF73FFF30604D
:104C2000C0F800800646E0E70546D9E75A1E0B4D5E
:104C3000002355F82220FFF749FE0546C8E7012169
:104C40003846FFF713FE40F2712101220023416133
:104C500002610646B8640360BEE700BF2093000807
:104C60002DE9F84391460A698B684FEA691404EB11
:104C7000020808F101059D420E460746496804DD19
:104C80005B009D4201F10101FADC3846FFF7EEFDC1
:104C9000002C00F1140306DD03EB8402002143F82D
:104CA000041B9A42FBD1346906F1140119F01F0963
:104CB00001EB840E1DD0C9F1200C00220C6804FA0F
:104CC00009F4144343F8044B51F8042B8E4522FA9F
:104CD0000CF2F3D81A600AB108F10205FB6C726895
:104CE000013D53F822100561316043F82260BDE8B0
:104CF000F883043B51F8042B43F8042F8E45F9D870
:104D0000ECE700BF30B40B6905460069C01A0FD14B
:104D10009B001435143119442B4401E09D4207D205
:104D200053F8044D51F8042D9442F7D002D30120DA
:104D300030BC70474FF0FF30FAE700BF2DE9F0417B
:104D40000F690E4611697F1A002F904617D189000E
:104D500006F1140502F1140E6B18714401E09D4236
:104D60005CD253F8042D51F8044DA242F7D05ED224
:104D700033462C46464675469846012705E058DBE3
:104D800006F1140508F1140400277168FFF76EFDA1
:104D9000D8F810303669C76004EB830CA64605EBE3
:104DA000860700F1140400235EF8041B55F8048BF9
:104DB0008AB213FA88F3090C9A1AC1EB184303EB71
:104DC000224392B242EA0342F44544F8042B4FEAEC
:104DD0002343E9D8AF4217D9A446AE465EF8042B68
:104DE00013FA82F3191401EB12419BB243EA014218
:104DF00077454CF8042B4FEA2143EFD8ED432F447D
:104E000027F0030704373C44043C22B954F8043D1E
:104E1000013E002BFAD00661BDE8F0810021FFF7CA
:104E200025FD0122002302614361BDE8F081744643
:104E3000ABE7334606F1140402F1140516460127C8
:104E40009846A2E7134B10EE902A1A40A2F1507335
:104E5000002B04DD0020194641EC100B70475B422B
:104E60001B15132B0DDD143B1E2BDDBFC3F11F03E0
:104E7000012202FA03F301230021184641EC100B32
:104E800070474FF40022002042FA03F141EC100B6E
:104E9000704700BF0000F07FF8B5046900F1140608
:104EA00006EB840454F8045C2846FFF79DFDC0F12E
:104EB00020030A280B60A4F1040117DC8E42C0F124
:104EC0000B0738BF54F8081C25FA07FE00F115003F
:104ED0004EF07F5334BFF940002105FA00F043F44F
:104EE000401340EA010243EC102BF8BD8E421DD264
:104EF0000B3854F8087C1CD0854045F07F55C0F134
:104F0000200CA4F1080E45F4401527FA0CF1764563
:104F100045EA01031ED254F80C1C07FA00F021FAEE
:104F20000CF10843024643EC102BF8BD0B3808D1B6
:104F3000074645F07F5343F440133A4643EC102BA9
:104F4000F8BD05FA00F040F07F53002043F4401311
:104F50000246E8E707FA00F00246E4E72DE9F043ED
:104F600057EC106B83B0884601213C46C7F30A55C5
:104F70001746FFF77BFCC4F3130481460DB144F4DC
:104F8000801401941EB302A840F8086DFFF74CFD91
:104F9000002834D19DE80C00C9F81420002B0CBF68
:104FA00001210221C9F81830C9F81010DDB909EB48
:104FB0008103A0F23240C8F800001869FFF714FD21
:104FC000C0EB41103860484603B0BDE8F08301A84B
:104FD000FFF72AFD019BC9F8143001212030C9F8E0
:104FE0001010002DE3D0A5F233450544C0F1350083
:104FF000C8F800503860484603B0BDE8F0839DE82B
:105000000A00C0F1200203FA02F20A43C3400193EE
:10501000C9F81420C2E700BF2DE9F04383B08846E9
:1050200069468146FFF738FF404601A955EC104B11
:10503000FFF732FF9DE80A00D9F81000D8F81020D9
:10504000CB1A801A03EB4013002B57EC106B0DDDCD
:1050500005EB03594D4632463B462046294601F0B2
:1050600067FE41EC100B03B0BDE8F083C3EB0333E4
:1050700007EB03510F46EEE71728D0B504460CDDC9
:105080000A490B4F0020002632463B4601F026FD20
:10509000013CF9D141EC100BD0BD064B03EBC00431
:1050A000D4E9040141EC100BD0BD00BF0000F03F7B
:1050B000000024402093000870B414694E1E02F1D1
:1050C0001403761103EB840101368B4200EB860654
:1050D0000CD2041F53F8045B44F8045F9942F9D8DA
:1050E0008B1A153B23F0030304331844864204D97A
:1050F000002340F8043B8642FBD870BC704700BFD9
:1051000003694A11934210B400F1140410DA04EB5D
:1051100083039C4221D253F8040C043B18B115E0E0
:1051200053F8042D92B99C42FAD35DF8044B7047B2
:1051300010DD11F01F010DD054F8220020FA01F308
:1051400003FA01F1884204EB8203E2D001205DF80A
:10515000044B704704EB8203DBE70020E5E700BF68
:1051600038B5074C002305460846236001F0F0FAE5
:10517000431C00D038BD2368002BFBD02B6038BD0A
:10518000300B00209FED010A704700BF0000C07F78
:10519000000000000000000000000000000000000F
:1051A000A2EB0300704700BF02780B78012A28BFEA
:1051B0009A42F5D16DE9044540EA0104CDE9026760
:1051C0006FF0000C4FEA447212B380EA010414F04D
:1051D000070F6AD100F0070420F0070004F0030570
:1051E00021F007014FEAC505F0E8042314F0040F8D
:1051F000F1E804670CFA05F462EA040266EA0406C0
:105200000AD063EA0403624667EA0407664603E0DD
:10521000F0E80423F1E8046782FA4CF582EA060418
:10522000A4FA8CF46CBB83FA4CF583EA0705A5FA63
:105230008CF595B950E9022351E9026782FA4CF5E1
:1052400082EA0604A4FA8CF483FA4CF583EA070593
:10525000A5FA8CF52543DBD09CB92DBAB5FA85F4B7
:1052600024F0070427FA04F1DDE9026723FA04F3C6
:1052700003F0FF0001F0FF01FDE80445A0EB010091
:10528000704724BAB4FA84F424F0070426FA04F12F
:10529000DDE9026722FA04F202F0FF0001F0FF01EB
:1052A000FDE80445A0EB0100704714F0030F3CD16A
:1052B00010F0030428D150F8082B51F8083B82FA6B
:1052C0004CF582EA0305A5FA8CF55DB950F8042C7B
:1052D00051F8043C82FA4CF582EA0305A5FA8CF5F4
:1052E000002DE8D02DBAB5FA85F424F0070423FA8E
:1052F00004F122FA04F202F0FF0001F0FF01FDE8E0
:105300000445A0EB010070474FEAC40420F00300FD
:1053100050F8082B21F0030151F8083B0CFA04F473
:1053200062EA040263EA0403C9E710F003041AD036
:10533000A1EB040120F00300E40750F8042B06D091
:105340000FD28B785FFAA2F4E41A06D12BB1CB7896
:105350005FFAB2F4E41A00D11BB920465DF8104B95
:10536000704701F1040150F8042BCC0721F0030130
:1053700051F8043B48D824D222F07F4482FA4CF5FD
:1053800094EA1325A5FA8CF50AD165B951F8043BC6
:1053900084EA0204B4EB036F0ED150F8042BEBE760
:1053A0004FEA132355E035F07F454DD10878FDE8ED
:1053B0000445C0F1000070474FEA126203F0FF039A
:1053C00047E002EA1C4482FA4CF594EA1345A5FA38
:1053D0008CF50AD165B951F8043B84EA0204B4EBB8
:1053E000034F0CD150F8042BEBE74FEA134330E0A6
:1053F00015EA1C4528D10B884FEA124229E04FEAF2
:10540000124203EA1C4324E002F0FF0482FA4CF546
:1054100094EA1365A5FA8CF50AD165B951F8043BF5
:1054200084EA0204B4EB032F09D150F8042BEBE714
:105430004FEA13630DE015F0FF0F05D10B684FEA3B
:10544000122223F07F4304E04FF00000FDE8044502
:10545000704712BA1BBA82FA4CF482EA0304A4FA27
:105460008CF5B5FA85F402FA04F203FA04F34FEA74
:105470001260FDE80445A0EB13607047002A41D09C
:1054800040EA010313F00303F0B425D1032A23D922
:1054900004680D68AC421FD1043A38D0A4F101353C
:1054A00025EA040414F0803F2ED1043004310FE0CB
:1054B00050F8043B0E68A3F10134B34224EA03041C
:1054C00001F1040126D1043A21D014F0803F1BD110
:1054D000032A07460D46EBD805780C78AC4202F15A
:1054E000FF331AD183B114B90EE06BB17AB110F861
:1054F000012F11F8014FA24203F1FF33F5D0101B29
:10550000F0BC7047104670470020F0BC7047104652
:10551000F0BC704729463846DEE72A46EFE700BF71
:105520002DE9F04F936883B09046002B70D08246EF
:105530000C4617688D68086842E0A38913F4906FE1
:105540002ED06569216905EB4505A0EB010B05EB44
:10555000D5750BF101006D103044A8422A4684BF76
:1055600005462A465B0538D511465046FEF7E2FD52
:1055700000283CD05A4621690190FFF7D9F8A2894A
:10558000019B22F4906242F08002A281A5EB0B0203
:1055900003EB0B00656123612060A2603546B346D2
:1055A0005A46494600F0CAFED8F80830A26820687A
:1055B000551B58449E1BA5602060C8F808603EB388
:1055C0007E683B460837002EFAD0AE42D3F80090F2
:1055D000AB46B2D23546B346E2E7504600F012FF82
:1055E00003460028D2D12169504600F0C1FD0C23AA
:1055F000CAF80030A389002243F040034FF0FF3087
:10560000A381C8F80820C8F8042003B0BDE8F08FD3
:105610000020C8F8040003B0BDE8F08F2DE9F04F7A
:10562000ADB00C460591898907930D060A9003D504
:105630002369002B00F0D68400230DF1700A0A9F25
:105640000B939346119310930293CDF83CA0D1464F
:105650009BF800305C46EBB1252B02D11AE0252BDC
:1056600003D014F8013F002BF9D1A4EB0B058DB149
:10567000109B119AC9F800B001332A44072BC9F8CE
:1056800004501192109300F3C38309F10809029B9F
:105690002B4402932378002B00F04B8300204FF023
:1056A00000038DF8373004F1010B6278054603469C
:1056B0004FF0FF3804460BF1010BA2F120015829ED
:1056C00000F26B82DFE811F0BD0069026902B800E8
:1056D0006902690269026902690269025900B3003C
:1056E00069026300C0016902BB01AD01AD01AD01FA
:1056F000AD01AD01AD01AD01AD01AD0169026902C0
:105700006902690269026902690269026902690241
:105710005F0169026902690269026902690269023C
:105720006902690269024D0169026902690269023E
:1057300069023C0169026902250169026902690284
:105740006902690269026902690269026902C500A7
:105750000002690269026902FB0100026902690232
:10576000EE016902DA017A003602310269020E02A4
:1057700069026800690269028F0007990C680A468D
:10578000002C02F1040280F2C9836442079243F0C4
:1057900004039BF800208EE706949C0600F1D68057
:1057A0000799D8060A4600F10A825E0640F1078290
:1057B0000C880431002501220791CCE113F020026E
:1057C000069440F0D58013F0100140F0FE8113F0F4
:1057D000400200F0FA8107980A4601460431048825
:1057E00007910025B7E10694002840F03184BA49BA
:1057F0000B919D0600F196800798DC06014602D4C5
:10580000580600F1A9830C68043107910025D907D7
:1058100040F1948054EA050100F0908030218DF829
:10582000392043F002038DF83810022293E19BF8EF
:10583000002001202B253EE743F001039BF80020C8
:1058400039E79BF80020002D7FF435AF012020259B
:1058500031E7079906940A688DF848204FF0000058
:105860000A468DF837000432012000900792049018
:1058700012AE01934FF00008019B13F0020308934E
:1058800002D0009B02330093019B13F08403099321
:1058900040F0A281069B009A9C1A002C40F39C8148
:1058A000102C1199109A8D4D25DD48461023C146C4
:1058B000B046059E04E0103C102C00F1080017DDF6
:1058C00001321031072A1191109205604360F2DD18
:1058D0000FAA314638460393FFF722FE002840F016
:1058E0002F82103C102C1199109A039B5046E7DC34
:1058F0004646C8468146531C2144072B11911093FC
:10590000C9F80050C9F8044000F3F28209F108090F
:1059100064E10694002840F0A58371490B919D062F
:105920007FF56AAF079C073424F0070101F10800F6
:10593000D1E90045D90707903FF56CAF02220AE193
:1059400043F0100306949C067FF52AAF079C0734AA
:1059500024F0070202F10801D2E900450791012273
:10596000F9E043F0100313F0200206943FF42BAF4C
:10597000079C073424F0070202F10801D2E9004530
:1059800007910022E7E00694002840F0658343F089
:1059900010039C0600F1FA82D80602D4590600F1E1
:1059A000C48207990C680A46E5170432079220461C
:1059B0002946002871F10002C0F2C5829DF8372007
:1059C0000392B8F1FF3F4FF0010240F0CE8054EA5D
:1059D000050100F00D820193012A00F06B82022A7A
:1059E00040F02D820B985646230904F00F0143EA3C
:1059F00005732A091C461546435C06F8013D54EA26
:105A00000503F1D1AAEB06030493049B039A4345D3
:105A1000B8BF43460093002A3FF42EAF01330093F2
:105A20002AE7A2F1300100241BF8012B04EB8404C7
:105A300001EB4404A2F130010929F5D93DE643F018
:105A400080039BF8002036E69BF800202A2A0BF101
:105A5000010600F0E782A2F130010929B3464FF0B8
:105A600000083FF62AAE1BF8012B08EB880801EB73
:105A70004808A2F130010929F5D91EE6002840F0B6
:105A8000DD829A0600F17682DE0600F197825D06DD
:105A900040F19482079A136804320792BDF80820F7
:105AA0001A80D5E59BF800206C2A03BF9BF80120E3
:105AB00043F020030BF1010B43F01003FBE543F02F
:105AC00040039BF80020F6E5069400283FF461AF00
:105AD0008DF837505DE700BF28960008489400080D
:105AE00014960008079906940E684FF000028DF88E
:105AF00037200C1D002E00F08382B8F1FF3F00F02C
