:020000040800F2
:1000000000000220111C0008D11A0008D31A0008B1
:10001000D51A0008D71A0008D91A000800000000F5
:10002000000000000000000000000000DB1A0008D3
:10003000DD1A000800000000DF1A0008E11A0008BD
:10004000611C0008611C0008611C0008611C00089C
:10005000611C0008611C0008611C0008611C00088C
:10006000611C0008611C0008E91A0008611C0008F6
:10007000611C0008611C0008611C0008611C00086C
:10008000611C0008611C0008611C000800000000E1
:10009000000000000000000000000000551B0008E8
:1000A000611C0008611C0008611C0008611C00083C
:1000B000611C0008A51B0008B51B0008611C000896
:1000C000611C0008611C0008611C0008611C00081C
:1000D000611C0008611C0008611C00080000000091
:1000E000611C0008611C0008611C00080000000081
:1000F000000000000000000000000000611C00087B
:1001000000000000611C0008611C0008611C000860
:1001100000000000000000000000000000000000DF
:10012000611C0008611C0008611C0008611C0008BB
:10013000611C00080000000000000000000000003A
:10014000000000000000000000000000611C00082A
:10015000611C0008611C0008611C0008611C00088B
:10016000611C0008611C0008000000000000000085
:10017000000000000000000000000000000000007F
:1001800000000000611C00080000000000000000EA
:08019000611C0008611C00085D
:1001980010B5054C237833B9044B13B10448AFF3B9
:1001A80000800123237010BD100000200000000013
:1001B800BC1C000808B5034B1BB103490348AFF347
:1001C800008008BD0000000014000020BC1C0008CE
:1001D80053B94AB9002908BF00281CBF4FF0FF31A6
:1001E8004FF0FF3000F072B9ADF1080C6DE904CEA4
:1001F80000F006F8DDF804E0DDE9022304B07047FA
:100208002DE9F047089E04468846002B4BD18A42C8
:10021800154667D9B2FA82F24AB1C2F1200701FA4B
:1002280002F320FA07F7954047EA030894404FEA9B
:10023800154E230CB8FBFEF71FFA85FC0EFB17883A
:1002480043EA084307FB0CF1994209D9EB1807F177
:10025800FF3080F01B81994240F21881023F2B4405
:100268005B1AA4B2B3FBFEF00EFB103344EA03445E
:1002780000FB0CFCA44509D92C1900F1FF3380F0D0
:100288000781A44540F2048102382C4440EA074023
:10029800A4EB0C0400271EB1D4400023C6E9004398
:1002A8003946BDE8F0878B4209D9002E00F0EB8073
:1002B8000027C6E9000138463946BDE8F087B3FA99
:1002C80083F7002F47D18B4202D3824200F2FA8093
:1002D800841A61EB030301209846002EE0D0C6E99A
:1002E8000048DDE702B9FFDEB2FA82F2002A40F0E8
:1002F8008F80491B4FEA154E1FFA85F80127B1FB7D
:10030800FEFC230C0EFB1C1143EA014308FB0CF115
:10031800994207D9EB180CF1FF3002D2994200F24A
:10032800CD808446591AA3B2B1FBFEF00EFB10141F
:1003380043EA044408FB00F8A04507D92C1900F14A
:10034800FF3302D2A04500F2B6801846A4EB080499
:1003580040EA0C409FE7C7F1200CBB4022FA0CFE94
:100368004EEA030E01FA07F420FA0CF521FA0CF311
:100378004FEA1E482543B3FBF8F92C0C08FB193348
:100388001FFA8EFA44EA034309FB0AF49C4202FA74
:1003980007F200FA07F10BD91EEB030309F1FF304E
:1003A80080F087809C4240F28480A9F1020973445E
:1003B8001B1BADB2B3FBF8F008FB103345EA03444E
:1003C80000FB0AFAA24508D91EEB040400F1FF332A
:1003D8006BD2A24569D90238744440EA0940A0FBAF
:1003E8000289A4EB0A044C45C2464B4654D351D06B
:1003F800002E69D0B1EB0A0564EB030404FA0CFC87
:10040800FD40FC404CEA0505C6E90054002747E7D3
:10041800C2F1200320FA03F7954001FA02F021FA0D
:1004280003F34FEA154E3843010CB3FBFEF71FFAEE
:1004380085F80EFB173341EA034107FB08F38B42AB
:1004480004FA02F407D9691807F1FF3C2FD28B424E
:100458002DD9023F2944CB1A81B2B3FBFEF00EFB23
:10046800103341EA034100FB08F38B4207D96918AE
:1004780000F1FF3C17D28B4215D902382944C91A1A
:1004880040EA07473BE73746304609E70746E7E6CD
:100498001846FBE64145ABD2B8EB020A69EB0E02FF
:1004A80001381346A4E76046E9E7184695E767462A
:1004B800D1E781467CE702382C4447E7ACF1020CCF
:1004C8002B442FE7384608E73746E9E6704700BF70
:1004D800034613F8012B002AFBD1181A013870477C
:1004E80010B504460E4B18784FF47A73B3FBF0F34B
:1004F8000C4A1068B0FBF3F000F096F868B90F2CBE
:1005080001D901200AE0002221464FF0FF3000F017
:1005180049F8034B5C60002000E0012010BD00BFDB
:10052800000000200C00002008B50B4B1A6842F4AC
:1005380000721A601A6842F480621A601A6842F4FB
:1005480080721A60032000F01BF80020FFF7C8FF34
:1005580001F026FA002008BD003C0240034A116859
:10056800034B1B780B441360704700BF4400002006
:1005780000000020014B1868704700BF44000020AD
:10058800074AD36823F4E0631B041B0C000200F441
:10059800E060184340F0BF6040F40030D06070471E
:1005A80000ED00E030B4174BDB68C3F30223C3F15E
:1005B8000704042C28BF04241D1D062D18D9033B4D
:1005C8004FF0FF3505FA04F421EA0401994005FAD1
:1005D80003F322EA0303194300280BDB0901C9B21C
:1005E80000F1604000F5614080F8001330BC7047AE
:1005F8000023E5E700F00F000901C9B2024B1954C6
:10060800F4E700BF00ED00E014ED00E0002807DB90
:1006180000F01F02400901239340024A42F82030AB
:10062800704700BF00E100E00138B0F1807F0AD2D6
:10063800064B5860064AF02182F823100020986083
:1006480007221A6070470120704700BF10E000E0E1
:1006580000ED00E000230F2B00F2C580F0B482B05B
:1006680039E0042200E00022B2403A4302345E4EF0
:1006780046F824205D4A1468EA4302EA04064F68F3
:1006880017F4803F01D045EA0406584C2660646898
:1006980002EA04064F6817F4003F01D045EA040651
:1006A800524C6660A46802EA04064F6817F4801F7B
:1006B80001D045EA04064D4CA660E46822404E6825
:1006C80016F4001F01D045EA0402484CE2600133E9
:1006D8000F2B00F2858001229A400C6804EA02057B
:1006E800AA42F4D14C68022C01D0122C10D1DE0899
:1006F800083650F826C003F00704A7000F24BC40B2
:100708002CEA040C0C69BC4044EA0C0440F826406E
:1007180004685F000326BE40F64306EA040C4C68F2
:1007280004F00304BC4044EA0C0404604C6804F17F
:10073800FF3CBCF1010F03D9112C01D0122C10D1B0
:10074800846806EA040CCC68BC4044EA0C04846063
:10075800446824EA02024C68C4F300149C40144321
:100768004460C26816408A68BA403243C2604A6828
:1007780012F0805FABD0002201921D4A546C44F401
:1007880080445464526C02F480420192019A9C089D
:10079800A61C154A52F8267003F0030296000F2291
:1007A800B24027EA0207134A90423FF45CAF02F5D1
:1007B800806290420ED002F5806290420CD002F521
:1007C800806290420AD002F5806290423FF449AFBD
:1007D800072249E7012247E7022245E7032243E7C8
:1007E80002B0F0BC7047704700380140003C01403F
:1007F80000380240000002400369194201D100207C
:1008080070470120704712B90904816170478161FE
:100818007047704708B5054B5B69034200D108BDB6
:10082800024B5861FFF7F5FFF9E700BF003C0140B4
:10083800002800F0BB8170B582B00446036813F04D
:10084800010F3BD0A74B9B6803F00C03042B2CD063
:10085800A44B9B6803F00C03082B21D06368B3F505
:10086800803F4FD0B3F5A02F52D09E4B1A6822F488
:1008780080321A601A6822F480221A606368002B9A
:1008880050D0FFF777FE0546964B1B6813F4003FE0
:1008980014D1FFF76FFE401B6428F5D903208AE1C5
:1008A800904B5B6813F4800FD8D08E4B1B6813F401
:1008B800003F03D06368002B00F07A81236813F0AF
:1008C800020F55D0874B9B6813F00C0F3ED0854B19
:1008D8009B6803F00C03082B33D0E368002B68D027
:1008E800814B01221A60FFF745FE05467D4B1B68C8
:1008F80013F0020F54D1FFF73DFE401B0228F5D933
:10090800032058E1774A136843F480331360B5E74E
:10091800744B1A6842F480221A601A6842F48032D2
:100928001A60ABE7FFF726FE05466E4B1B6813F40B
:10093800003FC3D0FFF71EFE401B6428F5D90320F3
:1009480039E1684B5B6813F4800FC6D1654B1B68AF
:1009580013F0020F04D0E368012B01D001202AE133
:10096800604A136823F0F803216943EAC10313605E
:10097800236813F0080F40D0636963B35B4B01220F
:100988001A60FFF7F7FD0546564B5B6F13F0020F31
:1009980033D1FFF7EFFD401B0228F5D903200AE108
:1009A800504A136823F0F803216943EAC10313602E
:1009B800DEE74D4B00221A60FFF7DCFD0546494B88
:1009C8001B6813F0020FD3D0FFF7D4FD401B022899
:1009D800F5D90320EFE0454B00221A60FFF7CAFD66
:1009E8000546404B5B6F13F0020F06D0FFF7C2FDC0
:1009F800401B0228F5D90320DDE0236813F0040F1B
:100A080079D0384B1B6C13F0805F33D100230193EE
:100A1800344B1A6C42F080521A641B6C03F08053FA
:100A28000193019B0125324B1B6813F4807F23D06F
:100A3800A368012B34D0052B38D02A4B1A6F22F02B
:100A480001021A671A6F22F004021A67A368002BC2
:100A580036D0FFF78FFD0646224B1B6F13F0020FAF
:100A680048D1FFF787FD801B41F288339842F3D9BC
:100A78000320A0E00025D6E71D4A136843F48073DD
:100A88001360FFF777FD0646194B1B6813F4807F48
:100A9800CED1FFF76FFD801B0228F5D903208AE02D
:100AA800104A136F43F001031367CFE70D4B1A6F1A
:100AB80042F004021A671A6F42F001021A67C5E78A
:100AC800FFF758FD0646074B1B6F13F0020F11D0B6
:100AD800FFF750FD801B41F288339842F3D9032079
:100AE80069E000BF0038024000004742800E4742DC
:100AF80000700040E5B9A369002B5BD0304A9268CA
:100B080002F00C02082A58D0022B17D02D4B0022D5
:100B18001A60FFF72FFD0446294B1B6813F0007F6E
:100B280042D0FFF727FD001B0228F5D9032042E039
:100B3800234A136C23F080531364DCE7214B002213
:100B48001A60FFF717FD05461D4B1B6813F0007F61
:100B580006D0FFF70FFD401B0228F5D903202AE035
:100B6800E369226A1343626A43EA8213A26A52085B
:100B7800013A43EA0243E26A43EA0263104A5360D5
:100B8800104B01221A60FFF7F5FC04460C4B1B685A
:100B980013F0007F06D1FFF7EDFC001B0228F5D902
:100BA800032008E0002006E0002004E00120704750
:100BB800012000E0002002B070BD0120FBE700BF6B
:100BC8000038024060004742324B9B6803F00C0338
:100BD800042B5CD0082B01D02F4870472DE9F04B2F
:100BE8002C4B5A6802F03F025B6813F4800F2BD03D
:100BF800284B5B68C3F388131E4600275C01002559
:100C0800E41A65EB0705A90141EA9461A001001BFC
:100C180061EB0501CB0043EA5073C400A01943EB14
:100C280007014B0243EAD0534402204619460023E9
:100C3800FFF7CEFA174B5B68C3F3014301335B0040
:100C4800B0FBF3F0BDE8F08B124B5B68C3F388137D
:100C58001E4600275C010025E41A65EB0705A9017B
:100C680041EA9461A001001B61EB0501CB0043EA56
:100C78005073C400A01943EB07018B0243EA905359
:100C88008402204619460023FFF7A2FAD2E7034858
:100C9800704700BF003802400024F40000127A00B8
:100CA800002800F09D8070B504464F4B1B6803F088
:100CB8000F038B4209D2CBB24B4A1370136803F06F
:100CC8000F038B4201D0012070BD236813F0020F7F
:100CD80017D013F0040F04D0444A936843F4E05348
:100CE8009360236813F0080F04D0404A936843F4D4
:100CF800604393603D4A936823F0F003A068034380
:100D080093600D46236813F0010F32D06368012BFE
:100D180021D09A1E012A25D9344A126812F0020FEE
:100D280060D032498A6822F0030213438B60FFF7D0
:100D380021FC06462D4B9B6803F00C036268B3EB5D
:100D4800820F16D0FFF716FC801B41F288339842B9
:100D5800F0D90320B8E7254A126812F4003FE0D121
:100D68000120B1E7214A126812F0007FD9D1012091
:100D7800AAE71D4B1B6803F00F03AB4209D9EAB27F
:100D8800194B1A701B6803F00F03AB4201D0012006
:100D98009AE7236813F0040F06D0144A936823F4E3
:100DA800E053E1680B439360236813F0080F07D002
:100DB8000E4A936823F46043216943EAC1039360B0
:100DC800FFF702FF094B9B68C3F30313084AD35C80
:100DD800D840084B18600020FFF782FB002073E71B
:100DE8000120704701206FE7003C024000380240B4
:100DF800D41C00080C000020014B1868704700BF85
:100E08000C00002008B5FFF7F7FF044B9B68C3F3FD
:100E18008223034AD35CD84008BD00BF0038024093
:100E2800E41C000808B5FFF7E7FF044B9B68C3F311
:100E38004233034AD35CD84008BD00BF00380240A3
:100E4800E41C000810B4036A046A24F00104046274
:100E5800846924F0F00444EA021223F00A030B43E5
:100E6800826103625DF8044B704710B4036A23F093
:100E7800100303628469036A24F4704444EA02326A
:100E880023F0A00343EA0113826103625DF8044B77
:100E98007047836823F07003194341F007018160AC
:100EA80070477047704770477047704710B50446E1
:100EB80003681A6912F0020F11D0DA6812F0020FF3
:100EC8000DD06FF002021A610123037703689B6952
:100ED80013F0030F70D0FFF7E6FF00232377236892
:100EE8001A6912F0040F12D0DA6812F0040F0ED04B
:100EF8006FF004021A610223237723689B6913F4B5
:100F0800407F5FD02046FFF7CEFF0023237723687A
:100F18001A6912F0080F12D0DA6812F0080F0ED012
:100F28006FF008021A61042323772368DB6913F042
:100F3800030F4ED02046FFF7B6FF00232377236820
:100F48001A6912F0100F12D0DA6812F0100F0ED0D2
:100F58006FF010021A61082323772368DB6913F402
:100F6800407F3DD02046FFF79EFF0023237723686C
:100F78001A6912F0010F03D0DA6812F0010F36D1A6
:100F880023681A6912F0800F03D0DA6812F0800F14
:100F980034D123681A6912F0400F03D0DA6812F0CE
:100FA800400F32D123681A6912F0200F03D0DA6893
:100FB80012F0200F30D110BDFFF774FF2046FFF765
:100FC80073FF8AE72046FFF76DFF2046FFF76CFFA7
:100FD8009BE72046FFF766FF2046FFF765FFACE773
:100FE8002046FFF75FFF2046FFF75EFFBDE76FF083
:100FF80001021A612046FFF754FFC1E76FF0800233
:101008001A61204600F014F9C3E76FF040021A6134
:101018002046FFF74AFFC5E76FF020021A61204615
:1010280000F005F9C7E700000368254A90420ED092
:10103800B0F1804F0BD0A2F57C42904207D002F568
:101048008062904203D002F58062904203D123F07F
:1010580070034A6813431A4A90421AD0B0F1804F7D
:1010680017D0A2F57C42904213D002F580629042DC
:101078000FD002F5806290420BD002F59A3290426E
:1010880007D002F58062904203D002F58062904258
:1010980003D123F44073CA68134323F080034A69D9
:1010A800134303608B68C3620B688362044B9842E6
:1010B80002D00123436170470B690363F9E700BF5E
:1010C80000000140A8B110B5044690F83D305BB16E
:1010D800022384F83D30211D2068FFF7A5FF012376
:1010E80084F83D30002010BD80F83C3000F078FCDA
:1010F800EEE70120704710B4846824F47F4442EA84
:1011080003230B43234383605DF8044B704790F837
:101118003C30012B66D010B50446012380F83C30E2
:10112800022380F83D300268936823F47F4323F05C
:10113800770393600B68402B4AD013D9602B3DD0BE
:101148001ED9702B28D0B3F5005F30D1CB684A6820
:1011580089680068FFF7CFFF2268936843F48043EB
:10116800936024E0102B06D004D9202B03D0302B19
:1011780001D01CE0DBB919462068FFF78AFE16E0AB
:10118800502B14D1CA6849680068FFF75BFE5021EC
:101198002068FFF77EFE0AE0CB684A688968006825
:1011A800FFF7A9FF2268936843F077039360012350
:1011B80084F83D30002084F83C0010BDCA684968B6
:1011C8000068FFF752FE60212068FFF762FEEEE735
:1011D800CA6849680068FFF735FE40212068FFF7B4
:1011E80058FEE4E70220704790F83C30012B1CD0F1
:1011F80070B4012680F83C60022380F83D30026814
:101208005568936825F070050C682C4323F0800519
:101218004B682B4354600268936080F83D6000235C
:1012280080F83C30184670BC704702207047704701
:10123800704700002DE9F84304460268136923F457
:101248004053C1680B4313618368026913434269C1
:101258001343C2691A430168CB6823F4164323F089
:101268000C031343CB600268536923F4407381690C
:101278000B435361C369B3F5004F60D00368B84AA4
:10128800934200F0148102F58062934200F00F81CE
:10129800FFF7B8FD00EB800000EB80006568AD004B
:1012A800B0FBF5F5AF4FA7FB05356D092E01FFF72C
:1012B800A9FD00EB800000EB80006568AD00B0FB85
:1012C800F5F9FFF79FFD00EB800000EB80006568F3
:1012D800AD00B0FBF5F5A7FB05356D094FF06408C7
:1012E80008FB15952D013235A7FB05356D0905F06D
:1012F800F0053544FFF786FD00EB800000EB800029
:101308006668B600B0FBF6F6FFF77CFD00EB8000E0
:1013180000EB800063689B00B0FBF3F0A7FB003094
:10132800400908FB10684FEA081808F13208A7FBC3
:101338000837C7F3431723682F449F600DE10368FC
:10134800874A93425BD002F58062934257D0FFF7F9
:1013580059FD00EB800000EB800065686D00B0FB74
:10136800F5F5804FA7FB05356D092E01FFF74AFDFE
:1013780000EB800000EB800065686D00B0FBF5F9BC
:10138800FFF740FD00EB800000EB800065686D0012
:10139800B0FBF5F5A7FB05356D094FF0640808FBB0
:1013A8001595ED003235A7FB05356D096D0005F47F
:1013B800F8753544FFF726FD00EB800000EB800050
:1013C80066687600B0FBF6F6FFF71CFD00EB8000C0
:1013D80000EB800063685B00B0FBF3F3A7FB03231B
:1013E8005B0908FB13684FEAC80808F13208A7FB35
:1013F8000837C7F3421723682F449F60ADE0FFF713
:1014080011FD00EB800000EB800065686D00B0FB0B
:10141800F5F5544FA7FB05356D092E01FFF702FDC1
:1014280000EB800000EB800065686D00B0FBF5F90B
:10143800FFF7F8FC00EB800000EB800065686D00AA
:10144800B0FBF5F5A7FB05356D094FF0640808FBFF
:101458001595ED003235A7FB05356D096D0005F4CE
:10146800F8753544FFF7DEFC00EB800000EB8000E8
:1014780066687600B0FBF6F6FFF7D4FC00EB800058
:1014880000EB800063685B00B0FBF3F3A7FB03236A
:101498005B0908FB13684FEAC80808F13208A7FB84
:1014A8000837C7F3421723682F449F6055E0FFF7BA
:1014B800B9FC00EB800000EB80006568AD00B0FB74
:1014C800F5F5284FA7FB05356D092E01FFF7AAFC96
:1014D80000EB800000EB80006568AD00B0FBF5F91B
:1014E800FFF7A0FC00EB800000EB80006568AD0012
:1014F800B0FBF5F5A7FB05356D094FF0640808FB4F
:1015080015952D013235A7FB05356D0905F0F00558
:101518003544FFF787FC00EB800000EB800066682D
:10152800B600B0FBF6F6FFF77DFC00EB800000EBA1
:10153800800063689B00B0FBF3F0A7FB0030400914
:1015480008FB10684FEA081808F13208A7FB0837AB
:10155800C7F3431723682F449F60BDE8F88300BF93
:10156800001001401F85EB512DE9F04105460F465B
:1015780016469846069C2B681B6837EA03030CBF7F
:1015880001230023B3421DD1B4F1FF3FF3D02CB1A6
:10159800FEF7F0FFA0EB0800A042ECD92A68D36858
:1015A80023F4D073D3602A68536923F0010353618D
:1015B800202385F8393085F83A30002385F838300B
:1015C800032000E00020BDE8F08158B310B50446C0
:1015D80090F839300BB3242384F839302268D36863
:1015E80023F40053D3602046FFF724FE22681369D2
:1015F80023F4904313612268536923F02A0353614B
:101608002268D36843F40053D3600020E0632023AA
:1016180084F8393084F83A3010BD80F8383000F05A
:1016280019FAD8E7012070472DE9F04182B01E462B
:1016380090F83930DBB2202B55D104460D46904640
:10164800002955D0002A55D090F83830012B53D0B6
:10165800012380F838300023C363212380F8393010
:10166800FEF788FF0746A4F82480A4F8268010E037
:1016780000963B46002280212046FFF775FF002890
:101688003CD12B882268C3F3080353602369C3B98C
:101698000235E38C9BB2B3B1E38C013B9BB2E3848C
:1016A800A368B3F5805FE3D000963B460022802113
:1016B8002046FFF759FF18BB2A7823685A6001357E
:1016C800E7E70135E5E700963B4600224021204642
:1016D800FFF74AFF0346A8B9202284F839200022E0
:1016E80084F8382000E00223184602B0BDE8F081F3
:1016F8000123F9E70123F7E70223F5E70323F3E7DB
:101708000323F1E70323EFE730B58BB000240594FA
:10171800069407940894099401942E4B1A6B42F08E
:1017280004021A631A6B02F004020192019A0294ED
:101738001A6B42F080021A631A6B02F0800202925E
:10174800029A03941A6B42F001021A631A6B02F0B0
:1017580001020392039A04941A6B42F002021A637C
:101768001B6B03F002030493049B1B4D22462021AC
:101778002846FFF748F84FF400530593174B069394
:10178800079405A91648FEF765FF20230593012352
:1017980006930794089405A92846FEF75BFF3023B3
:1017A8000593104B0693079405A90F48FEF752FFBF
:1017B800224621460A20FEF7F5FE0A20FEF726FFFC
:1017C800224621461720FEF7EDFE1720FEF71EFFE2
:1017D8000BB030BD0038024000000240000021106C
:1017E80000080240000031100004024008B5084813
:1017F800084B03604FF4E133436000238360C36008
:1018080003610C2242618361C361FFF7DEFE08BDFC
:10181800CC0000200044004030B587B0002402947A
:10182800039404940594009401940F4D0F4B2B607E
:101838004AF20F436B60AC6040F2CF73EB602C61EF
:10184800AC612846FFF73EFC4FF48053029302A98F
:101858002846FFF75CFC0094019469462846FFF788
:10186800C3FC07B030BD00BF8C000020000400405E
:1018780030B587B00024029403940494059400942E
:1018880001940F4D0F4B2B6040F23E336B60AC6000
:1018980042F21073EB602C61AC612846FFF712FC32
:1018A8004FF48053029302A92846FFF730FC0094B6
:1018B800019469462846FFF797FC07B030BD00BF82
:1018C8004C0000200008004030B595B030220021BF
:1018D80008A800F0E7F900240394049405940694FA
:1018E800079401941A4B1A6C42F080521A641B6CCC
:1018F80003F080530193019B0294164B1A6842F43B
:1019080040421A601B6803F440430293029B02257D
:10191800089501230B9310230C930E950F941093A5
:101928004FF4A873119304231293139308A8FEF796
:101938007FFF0F230393049505944FF48053069378
:101948000794294603A8FFF7ABF915B030BD00BFCF
:10195800003802400070004038B505460C4608467D
:10196800FEF7B6FD052382B221462846FFF75CFE46
:1019780038BD000008B5FEF7D7FDFFF7A5FFFFF754
:10198800C3FEFFF733FFFFF747FFFFF771FF024979
:101998000248FFF7E1FFFEE7EC1C0008CC0000203E
:1019A80000B583B0002100910C4B5A6C42F4804280
:1019B8005A645A6C02F480420092009A01911A6C9F
:1019C80042F080521A641B6C03F080530193019B10
:1019D8000720FEF7D5FD03B05DF804FB0038024090
:1019E80000B583B00368184A934205D0174A93425A
:1019F80016D003B05DF804FB00210091144B1A6C5B
:101A080042F002021A641B6C03F002030093009B6D
:101A18000A461D20FEF7C6FD1D20FEF7F7FDE8E784
:101A2800002101910A4B1A6C42F004021A641B6CE3
:101A380003F004030193019B0A461E20FEF7B2FD42
:101A48001E20FEF7E3FDD4E7000400400008004034
:101A58000038024000B589B000230393049305932E
:101A6800069307930268164B9A4202D009B05DF8B4
:101A780004FB0021019103F5FA331A6C42F4003299
:101A88001A641A6C02F400320192019A02911A6BDC
:101A980042F001021A631B6B03F001030293029BDD
:101AA8000C23039302230493012305930323069332
:101AB8000723079303A90348FEF7CCFDD6E700BF29
:101AC80000440040000002407047FEE7FEE7FEE7E2
:101AD800FEE770477047704708B5FEF73FFD08BD41
:101AE80008B510211448FEF787FE80B1134A136821
:101AF80001331360124B01221A605B681BB1114B52
:101B080000221A600FE00F4B01221A600BE00E4A08
:101B18001368013313600A4B00221A605B6833B9FB
:101B2800084B00221A601020FEF774FE08BD054B12
:101B380001221A60F7E700BF0004024038000020C5
:101B48003C000020080000203400002008B52021B7
:101B58000D48FEF751FE68B90C4A1368013313604B
:101B68000B4B00225A600B4B01221A602020FEF713
:101B780051FE08BD084A1368013313600123044A63
:101B88005360044A1360F1E700040240300000206B
:101B98003C000020080000202C00002008B5024866
:101BA800FFF784F908BD00BF8C00002008B5024883
:101BB800FFF77CF908BD00BF4C0000200F49D1F8A1
:101BC800883043F47003C1F888300D4B1A6842F02E
:101BD80001021A60002098601A6822F0847222F4C8
:101BE80080321A60074A5A601A6822F480221A6002
:101BF800D8604FF000638B60704700BF00ED00E0D5
:101C08000038024010300024DFF834D0002103E00F
:101C18000C4B5B58435004310B480C4B42189A420A
:101C2800F6D30B4A02E0002342F8043B094B9A42E0
:101C3800F9D3FFF7C3FF00F011F8FFF79BFE7047D9
:101C480000000220101D00080000002010000020E5
:101C5800100000200C010020FEE7000070B50D4EBA
:101C68000D4CA41BA4100025A54209D10B4E0C4C09
:101C780000F020F8A41BA4100025A54205D170BDD2
:101C880056F8253098470135EEE756F8253098473D
:101C98000135F2E7081D0008081D0008081D0008A6
:101CA8000C1D000802440346934200D1704703F814
:101CB800011BF9E7F8B500BFF8BC08BC9E467047A1
:0C1CC800F8B500BFF8BC08BC9E46704791
:101CD40000000000000000000102030406070809D8
:101CE40000000000010203040A416C6C20696E6963
:0C1CF4007469616C697A65640A00000084
:081D000008E5FF7F010000006F
:041D0800BD01000811
:041D0C009901000831
:101D10000100000010000000010000000024F40099
:0400000508001C11C2
:00000001FF
