:020000040800F2
:10000000000008204D2A0008292900082B29000893
:100010002D2900082F2900083129000800000000C0
:10002000000000000000000000000000332900086C
:100030003529000800000000372900083929000888
:100040009D2A00089D2A00089D2A00089D2A000874
:100050009D2A00089D2A00089D2A00089D2A000864
:100060009D2A00089D2A00089D2A00089D2A000854
:100070009D2A00089D2A00089D2A00089D2A000844
:100080009D2A00089D2A00089D2A00084129000891
:100090005129000861290008712900089D2A0008DB
:1000A0009D2A00089D2A00089D2A00089D2A000814
:1000B0009D2A00089D2A00089D2A00089D2A000804
:1000C0009D2A00089D2A00089D2A00089D2A0008F4
:1000D0009D2A00089D2A00089D2A00089D2A0008E4
:1000E0009D2A00089D2A00089D2A00089D2A0008D4
:1000F0009D2A00089D2A00089D2A00089D2A0008C4
:100100009D2A00089D2A00089D2A00089D2A0008B3
:100110009D2A00089D2A00089D2A00089D2A0008A3
:100120009D2A00089D2A00089D2A00089D2A000893
:100130009D2A00089D2A00089D2A00089D2A000883
:100140009D2A00089D2A00089D2A00089D2A000873
:100150009D2A00089D2A00089D2A00089D2A000863
:100160009D2A00089D2A00089D2A00089D2A000853
:100170009D2A00089D2A00089D2A00080000000012
:100180009D2A00089D2A00089D2A00089D2A000833
:100190009D2A00089D2A00089D2A00089D2A000823
:1001A00000000000000000009D2A00089D2A0008B1
:1001B0009D2A00089D2A00089D2A00089D2A000803
:1001C0009D2A00089D2A0008000000009D2A0008C2
:1001D0009D2A00089D2A00089D2A00089D2A0008E3
:1001E0008129000891290008A1290008B1290008E7
:0801F000000000009D2A000838
:1002000010B5054C237833B9044B13B10448AFF350
:1002100000800123237010BD70000020000000004A
:100220001433000808B5034B1BB103490348AFF36F
:10023000008008BD00000000740000201433000896
:10024000034613F8012B002AFBD1181A0138704716
:1002500001F0FF01102A2BDB10F0070F08D010F877
:10026000013B013A8B422DD010F0070F42B3F6D17B
:10027000F0B441EA012141EA014122F007047FF094
:1002800000070023F0E80256083C85EA010586EAEB
:10029000010685FA47F5A3FA87F586FA47F6A5FA27
:1002A00087F68EB9EED1F0BC01F0FF0102F0070233
:1002B00032B110F8013B013A83EA010313B1F8D1DE
:1002C0000020704701387047002D06BF35460338BF
:1002D000073815F0010F07D1013015F4807F02BFF8
:1002E000013015F4C03F0130F0BC0138704700BF49
:1002F00053B94AB9002908BF00281CBF4FF0FF318D
:100300004FF0FF3000F072B9ADF1080C6DE904CE8A
:1003100000F006F8DDF804E0DDE9022304B07047E0
:100320002DE9F047089E04468846002B4BD18A42AF
:10033000154667D9B2FA82F24AB1C2F1200701FA32
:1003400002F320FA07F7954047EA030894404FEA82
:10035000154E230CB8FBFEF71FFA85FC0EFB178821
:1003600043EA084307FB0CF1994209D9EB1807F15E
:10037000FF3080F01B81994240F21881023F2B44EC
:100380005B1AA4B2B3FBFEF00EFB103344EA034445
:1003900000FB0CFCA44509D92C1900F1FF3380F0B7
:1003A0000781A44540F2048102382C4440EA07400A
:1003B000A4EB0C0400271EB1D4400023C6E900437F
:1003C0003946BDE8F0878B4209D9002E00F0EB805A
:1003D0000027C6E9000138463946BDE8F087B3FA80
:1003E00083F7002F47D18B4202D3824200F2FA807A
:1003F000841A61EB030301209846002EE0D0C6E981
:100400000048DDE702B9FFDEB2FA82F2002A40F0CE
:100410008F80491B4FEA154E1FFA85F80127B1FB63
:10042000FEFC230C0EFB1C1143EA014308FB0CF1FC
:10043000994207D9EB180CF1FF3002D2994200F231
:10044000CD808446591AA3B2B1FBFEF00EFB101406
:1004500043EA044408FB00F8A04507D92C1900F131
:10046000FF3302D2A04500F2B6801846A4EB080480
:1004700040EA0C409FE7C7F1200CBB4022FA0CFE7B
:100480004EEA030E01FA07F420FA0CF521FA0CF3F8
:100490004FEA1E482543B3FBF8F92C0C08FB19332F
:1004A0001FFA8EFA44EA034309FB0AF49C4202FA5B
:1004B00007F200FA07F10BD91EEB030309F1FF3035
:1004C00080F087809C4240F28480A9F10209734445
:1004D0001B1BADB2B3FBF8F008FB103345EA034435
:1004E00000FB0AFAA24508D91EEB040400F1FF3311
:1004F0006BD2A24569D90238744440EA0940A0FB96
:100500000289A4EB0A044C45C2464B4654D351D051
:10051000002E69D0B1EB0A0564EB030404FA0CFC6D
:10052000FD40FC404CEA0505C6E90054002747E7BA
:10053000C2F1200320FA03F7954001FA02F021FAF4
:1005400003F34FEA154E3843010CB3FBFEF71FFAD5
:1005500085F80EFB173341EA034107FB08F38B4292
:1005600004FA02F407D9691807F1FF3C2FD28B4235
:100570002DD9023F2944CB1A81B2B3FBFEF00EFB0A
:10058000103341EA034100FB08F38B4207D9691895
:1005900000F1FF3C17D28B4215D902382944C91A01
:1005A00040EA07473BE73746304609E70746E7E6B4
:1005B0001846FBE64145ABD2B8EB020A69EB0E02E6
:1005C00001381346A4E76046E9E7184695E7674611
:1005D000D1E781467CE702382C4447E7ACF1020CB6
:1005E0002B442FE7384608E73746E9E6704700BF57
:1005F00010B504460E4B18784FF47A73B3FBF0F342
:100600000C4A1068B0FBF3F000F000FC68B90F2C46
:1006100001D901200AE0002221464FF0FF3000F00E
:10062000B5FB034B5C60002000E0012010BD00BF63
:10063000000000200800002008B5032000F094FB13
:100640000020FFF7D5FF02F089F8002008BD000068
:10065000034A1168034B1B780B441360704700BFBB
:10066000A000002000000020014B1868704700BF68
:10067000A000002038B50446FFF7F6FF0546B4F1A8
:10068000FF3F02D0044B1B781C44FFF7EDFF401BDB
:10069000A042FAD338BD00BF00000020002800F0BF
:1006A000A18038B5044690F82030D3B12268136891
:1006B00023F002031360FFF7D7FF054623685A684B
:1006C00012F0020F10D0FFF7CFFF401B0A28F5D918
:1006D000636A43F400336362052384F82030012009
:1006E00038BD02F053F8E1E71A6842F001021A60DF
:1006F000FFF7BAFF054623685A6812F0010F0DD1C3
:10070000FFF7B2FF401B0A28F5D9636A43F40033B0
:100710006362052384F820300120E1E7227E012A6C
:100720003DD01A6822F080021A60637E012B3BD014
:100730002268136823F040031360A37E012B39D095
:100740002268136823F020031360E37E012B37D067
:100750002268136843F010031360237F012B35D008
:100760002268136823F008031360637F012B33D0E2
:100770002268136823F004031360A368E26813433C
:1007800022691343626913436268013A2168134383
:10079000CB6100206062012384F82030A0E71A6852
:1007A00042F080021A60C0E72268136843F04003F9
:1007B0001360C2E72268136843F020031360C4E7A4
:1007C0002268136823F010031360C6E722681368D9
:1007D00043F008031360C8E72268136843F004037A
:1007E0001360CAE701207047036890F82020013A9F
:1007F000D2B2012A05D9436A43F48023436201201F
:10080000704770B4434A934200D0434BD3F8002260
:1008100042F00102C3F800223F4A934242D04A69A3
:1008200002F01F02012000FA02F2D3F81C42D0436A
:100830000440C3F81C42CC69ACB9D3F80C42044064
:10084000C3F80C42CE688D884C6945EA06454834A9
:1008500043F834508E680D884C6945EA06454834A3
:1008600003EBC4046560CC69012C29D08C69002C91
:100870003DD1D3F804420440C3F804420C69002C73
:100880003BD1D3F814422040C3F81402096A01296D
:1008900039D0D3F8002222F00102C3F80022002050
:1008A00070BC7047D3F8002222F47C52C3F80022B7
:1008B000D3F80022486A42EA0022C3F80022AEE7D9
:1008C000D3F80C421443C3F80C420E688D884C696F
:1008D00045EA0645483443F834508E688D894C69A2
:1008E00045EA0645483403EBC4046560BEE7D3F827
:1008F00004421443C3F80442C0E7D3F8140210437F
:10090000C3F81402C2E7D3F81C120A43C3F81C222E
:10091000BFE700BF003400400064004038B590F8E5
:100920002030DBB2012B05D0436A43F4002343623D
:10093000012038BD0446022380F820300268136885
:1009400023F001031360FFF78FFE054623685B6801
:1009500013F0010F0DD0FFF787FE401B0A28F5D9D1
:10096000636A43F400336362052384F82030012076
:10097000DFE700206062DCE730B490F82040013C03
:10098000E4B2012C06D9436A43F480234362012078
:1009900030BC704700296FD10468E46814F0030F7D
:1009A00064D0056801F11B0424012C5904F00404EF
:1009B0009460002C6BD1056801F11B0424012C59B3
:1009C000640D1460056801F11B0424012D59C5F361
:1009D0004005D560056825446D6805F00F05156173
:1009E000056825446D68C5F30725956105682C44A5
:1009F0006468240C546104680A011444D4F8B841B2
:100A00001C7004681444D4F8B841C4F307245C7023
:100A100004681444D4F8B841C4F307449C700468D3
:100A20001444D4F8B841240EDC7004681444D4F89B
:100A3000BC411C7104681444D4F8BC41C4F30724BD
:100A40005C7104681444D4F8BC41C4F307449C713D
:100A500004682244D2F8BC21120EDA71F9B9026896
:100A6000D36843F02003D360002091E7436A43F446
:100A70000013436201208BE70468246914F0030F1C
:100A80008FD1436A43F400134362012080E7056875
:100A900001F11B0424012C59E408546092E7026818
:100AA000136943F020031361002071E790F82030B0
:100AB000013BDBB2012B01D90020704721B1036853
:100AC000186900F0030070470368D86800F003005D
:100AD000704790F82030013BDBB2012B05D9436A07
:100AE00043F480234362012070470268536919432D
:100AF00051610020704770477047704770477047DA
:100B000070477047704770477047704770472DE9CE
:100B1000F84F054603685C695F689E68D3F80C90DF
:100B2000D3F81080D3F818A014F0010F5AD016F0A3
:100B3000010F17D001229A6016F0020F08D116F0AB
:100B4000040F30D116F0080F07D04FF4805B0BE094
:100B5000FFF7D1FF4FF0000B06E0FFF7CFFF4FF09C
:100B6000000B01E04FF0000B16F4807F0BD02B68D8
:100B70004FF480729A6016F4007F17D116F4806FDC
:100B800018D04BF4005B16F4803F2DD02B684FF447
:100B900080329A6016F4003F16D116F4802F17D0D9
:100BA0004BF4004B20E04FF4006BDDE72846FFF7E5
:100BB000A3FFE8E716F4006F02D04BF4804BE2E7A6
:100BC0002846FFF79CFFDEE72846FFF796FF0BE07D
:100BD00016F4002F02D04BF4803B05E02846FFF7C7
:100BE0008FFF01E04FF0000B14F0080F07D019F051
:100BF000100F04D04BF4007B2B681022DA6014F045
:100C0000040F02D019F0080F60D114F0020F04D0C5
:100C10002B68DB6813F0030F5FD114F0400F07D08F
:100C200018F0100F04D04BF4806B2B6810221A615F
:100C300014F0200F02D018F0080F52D114F0100F4A
:100C400004D02B681B6913F0030F51D114F4003F3B
:100C500002D017F0100F4FD114F4803F02D017F0DC
:100C6000080F50D114F4004F67D017F0040F61D073
:100C700014F4807F04D01AF0010F01D04BF0010B67
:100C800014F4007F04D01AF0020F01D04BF0020BD5
:100C900014F4806F04D01AF0040F01D04BF0040B51
:100CA00014F4006F46D01AF0700A43D0BAF1300F36
:100CB00048D02FD9BAF1500F47D0BAF1600F47D0C2
:100CC000BAF1400F31D14BF0400B2EE02B680822D7
:100CD000DA60284601F026FC97E72846FFF711FF67
:100CE0009BE72B6808221A612846FFF70CFFA5E74F
:100CF0002846FFF707FFA9E72B6810225A6028460D
:100D0000FFF702FFA8E72B6808225A602846FFF782
:100D1000FCFEA7E7BAF1100F05D0BAF1200F04D1FD
:100D20004BF0100B01E04BF0080B2A68936923F09D
:100D3000700393612B6804225A60BBF1000F0AD143
:100D4000BDE8F88F4BF0200BEFE74BF0800BECE7A2
:100D50004BF4807BE9E76B6A43EA0B036B6228463E
:100D6000FFF7D4FEECE700000649CB6823F4E0630C
:100D70001B041B0C000200F4E0600343024A1A4308
:100D8000CA60704700ED00E00000FA0530B4154B72
:100D9000DB68C3F30223C3F10704042C28BF042437
:100DA0001D1D062D14D9033B4FF0FF3505FA04F441
:100DB00021EA0401994005FA03F322EA03031943E7
:100DC000002807DB0901C9B2074B195430BC704732
:100DD0000023E9E700F00F000901C9B2034B1954E1
:100DE000F4E700BF00ED00E000E400E014ED00E0F7
:100DF000002807DB00F01F02400901239340024A4C
:100E000042F82030704700BF00E100E00138B0F147
:100E1000807F0AD2064B5860064AF02182F82310E0
:100E20000020986007221A6070470120704700BFB9
:100E300010E000E000ED00E000230F2B00F2E28064
:100E4000F0B482B039E0092200E00022B2403A4317
:100E500002346D4E46F824206C4A1468EA4302EAD4
:100E600004064F6817F4803F01D045EA0406674C3A
:100E70002660646802EA04064F6817F4003F01D058
:100E800045EA0406614C6660A46802EA04064F68FD
:100E900017F4801F01D045EA04065C4CA660E468A4
:100EA00022404E6816F4001F01D045EA0402574C58
:100EB000E26001330F2B00F2A28001229A400C68FD
:100EC00004EA0205AA42F4D14C68122C18BF022C85
:100ED00010D1DE08083650F826C003F00704A7003A
:100EE0000F24BC402CEA040C0C69BC4044EA0C04FE
:100EF00040F8264004685F000326BE40F64306EA39
:100F0000040C4C6804F00304BC4044EA0C04046084
:100F10004C6804F1FF3C112C18BFBCF1010F01D942
:100F2000122C11D1846806EA040CCC68BC4044EA57
:100F30000C048460446824EA020C4C68C4F3001278
:100F40009A4042EA0C024260C26816408A68BA407F
:100F50003243C2604A6812F0805FAAD02C4A546CB7
:100F600044F480445464526C02F480420192019A29
:100F70009C08A61C244A52F8267003F0030296002F
:100F80000F22B24027EA0207224A90423FF45DAFA7
:100F900002F58062904222D002F58062904220D019
:100FA00002F5806290421ED002F5806290421CD011
:100FB00002F5806290421AD002F58062904218D009
:100FC00002F58062904216D002F58062904214D001
:100FD00002F5806290423FF436AF0A2236E70122E2
:100FE00034E7022232E7032230E704222EE705220B
:100FF0002CE706222AE7072228E7082226E702B084
:10100000F0BC7047704700BF00380140003C014011
:10101000003802400000024012B9090481617047A3
:101020008161704710B582B01B4B1A6C42F0805240
:101030001A641B6C03F080530193019B174A1368D9
:1010400043F480331360FFF70FFB0446134B5B68D8
:1010500013F4803F08D1FFF707FB001BB0F57A7F40
:10106000F4D9032002B010BD0C4A136843F40033D6
:101070001360FFF7F9FA0446084B5B6813F4003F6E
:1010800007D1FFF7F1FA001BB0F57A7FF4D90320FE
:10109000E8E70020E6E700BF0038024000700040AB
:1010A000002800F0DC8170B582B00446036813F0BC
:1010B000010F29D0A24B9B6803F00C03042B1AD01C
:1010C0009F4B9B6803F00C03082B0FD06368B3F5AC
:1010D000803F40D0002B54D1994B1A6822F48032C3
:1010E0001A601A6822F480221A6039E0944B5B6817
:1010F00013F4800FEAD0924B1B6813F4003F03D027
:101100006368002B00F0AD81236813F0020F75D0E7
:101110008B4B9B6813F00C0F5ED0894B9B6803F0E0
:101120000C03082B53D0E368002B00F08A80844A1C
:10113000136843F001031360FFF796FA0546804BEE
:101140001B6813F0020F73D1FFF78EFA401B0228C1
:10115000F5D9032088E17A4A136843F48033136099
:1011600063682BB3FFF780FA0546754B1B6813F4D1
:10117000003FC9D1FFF778FA401B6428F5D9032056
:1011800072E1B3F5A02F09D06D4B1A6822F48032BA
:101190001A601A6822F480221A60E1E7684B1A6824
:1011A00042F480221A601A6842F480321A60D7E74B
:1011B000FFF75AFA0546624B1B6813F4003FA3D0B1
:1011C000FFF752FA401B6428F5D903204CE15C4B31
:1011D0005B6813F4800FA6D1594B1B6813F0020F04
:1011E00004D0E368012B01D001203DE1544A13688B
:1011F00023F0F803216943EAC1031360236813F065
:10120000080F46D0636983B34D4A536F43F001031F
:101210005367FFF729FA0546494B5B6F13F0020F3E
:1012200037D1FFF721FA401B0228F5D903201BE133
:10123000434A136823F0F803216943EAC1031360AA
:10124000DCE73F4A136823F001031360FFF70CFA51
:1012500005463B4B1B6813F0020FCFD0FFF704FA93
:10126000401B0228F5D90320FEE0354A536F23F0D6
:1012700001035367FFF7F8F90546314B5B6F13F035
:10128000020F06D0FFF7F0F9401B0228F5D9032022
:10129000EAE0236813F0040F7ED0294B1B6C13F097
:1012A000805F1ED1264B1A6C42F080521A641B6C70
:1012B00003F080530193019B0125224B1B6813F41B
:1012C000807F10D0A368012B21D0002B3CD11C4B78
:1012D0001A6F22F001021A671A6F22F004021A67CD
:1012E0001AE00025E9E7174A136843F48073136096
:1012F000FFF7BAF90646134B1B6813F4807FE1D160
:10130000FFF7B2F9801B6428F5D90320ACE00C4A42
:10131000136F43F001031367A3685BB3FFF7A4F9EE
:101320000646074B1B6F13F0020F34D1FFF79CF9F1
:10133000801B41F288339842F3D9032094E000BF28
:101340000038024000700040052B09D0484B1A6F4E
:1013500022F001021A671A6F22F004021A67DBE713
:10136000434B1A6F42F004021A671A6F42F00102EF
:101370001A67D1E7FFF778F906463D4B1B6F13F06C
:10138000020F08D0FFF770F9801B41F288339842B2
:10139000F3D9032068E0F5B9A369002B63D0344A80
:1013A000926802F00C02082A60D0022B19D0304A51
:1013B000136823F080731360FFF756F904462C4B33
:1013C0001B6813F0007F48D0FFF74EF9001B02287E
:1013D000F5D9032048E0264A136C23F080531364A8
:1013E000DAE7234A136823F080731360FFF73CF9B0
:1013F00005461F4B1B6813F0007F06D0FFF734F93A
:10140000401B0228F5D903202EE0E369226A13432A
:10141000626A43EA8213A26A5208013A43EA02432B
:10142000E26A43EA0263226B43EA0273104A5360A2
:10143000136843F080731360FFF716F904460C4BF2
:101440001B6813F0007F06D1FFF70EF9001B02287E
:10145000F5D9032008E0002006E0002004E0012088
:101460007047012000E0002002B070BD0120FBE7C2
:1014700000380240264B9B6803F00C03042B44D039
:10148000082B01D0234870472DE9F04B204B5A68B8
:1014900002F03F025B6813F4800F13D01C4B5968B5
:1014A000C1F3881100231C48A1FB0001FEF720FFB7
:1014B000174B5B68C3F3014301335B00B0FBF3F0F0
:1014C000BDE8F08B124B5B68C3F388131E46002700
:1014D0005C010025E41A65EB0705A90141EA946166
:1014E000A001001B61EB0501CB0043EA5073C4006F
:1014F000A01943EB07018B0243EA90538402204674
:1015000019460023FEF7F4FED2E70348704700BFF8
:10151000003802400024F40040787D01002800F0EB
:10152000A28070B50446524B1B6803F00F038B4238
:101530000CD24F4A136823F00F030B431360136858
:1015400003F00F038B4201D0012070BD236813F01C
:10155000020F17D013F0040F04D0464A936843F4E7
:10156000E0539360236813F0080F04D0414A936856
:1015700043F4604393603F4A936823F0F003A0680C
:10158000034393600D46236813F0010F31D0636865
:10159000012B20D0022B25D0364A126812F0020F00
:1015A00063D034498A6822F0030213438B60FFF74B
:1015B0005BF806462F4B9B6803F00C036268B3EBA5
:1015C000820F16D0FFF750F8801B41F28833984203
:1015D000F0D90320B9E7274A126812F4003FE0D19E
:1015E0000120B2E7234A126812F0007FD9D101200E
:1015F000ABE71F4B1B6803F00F03AB420CD91C4A2F
:10160000136823F00F032B431360136803F00F03D9
:10161000AB4201D0012098E7236813F0040F06D0F5
:10162000144A936823F4E053E1680B439360236802
:1016300013F0080F07D00F4A936823F46043216921
:1016400043EAC1039360FFF715FF0A4B9B68C3F39E
:101650000313094AD35CD840084B18600020FEF7FA
:10166000C7FF002071E70120704701206DE700BF30
:10167000003C0240003802402C33000808000020E3
:10168000014B1868704700BF0800002008B5FFF73D
:10169000F7FF044B9B68C3F38223034AD35CD84013
:1016A00008BD00BF003802403C33000808B5FFF712
:1016B000E7FF044B9B68C3F34233034AD35CD84033
:1016C00008BD00BF003802403C330008F0B583B0CD
:1016D0000446036813F0010F0CD0B34B9A6822F450
:1016E00000029A609A68416B0A439A60436BC3B1E7
:1016F000002600E00026236813F4002F15D0AA4A24
:10170000D2F88C3023F44013E16B0B43C2F88C30D9
:10171000E36BB3F5801F06D0002B00F0418100255C
:1017200004E00126E7E70126F6E70025236813F425
:10173000801F0FD09C4AD2F88C3023F44003216CD8
:101740000B43C2F88C30236CB3F5800F00F02A8174
:1017500003B90125236813F0807F00D0012613F020
:10176000200F40F02381236813F0100F0CD08E4B14
:10177000D3F88C2022F08072C3F88C20D3F88C2010
:10178000A16B0A43C3F88C20236813F4804F08D060
:10179000854AD2F8903023F44033616E0B43C2F88F
:1017A0009030236813F4004F08D07F4AD2F890306D
:1017B00023F44023A16E0B43C2F89030236813F446
:1017C000803F08D0784AD2F8903023F44013E16E7D
:1017D0000B43C2F89030236813F4003F08D0724ADC
:1017E000D2F8903023F44003216F0B43C2F89030BD
:1017F000236813F0400F08D06B4AD2F8903023F0E2
:101800000303616C0B43C2F89030236813F0800F20
:1018100008D0654AD2F8903023F00C03A16C0B433A
:10182000C2F89030236813F4807F08D05E4AD2F863
:10183000903023F03003E16C0B43C2F89030236802
:1018400013F4007F08D0584AD2F8903023F0C00338
:10185000216D0B43C2F89030236813F4806F08D0D9
:10186000514AD2F8903023F44073616D0B43C2F8B3
:101870009030236813F4006F08D04B4AD2F89030B0
:1018800023F44063A16D0B43C2F89030236813F436
:10189000805F08D0444AD2F8903023F44053E16D81
:1018A0000B43C2F89030236813F4005F08D03E4A1F
:1018B000D2F8903023F44043216E0B43C2F89030AD
:1018C000236813F4800F08D0374AD2F8903023F001
:1018D0008063A16F0B43C2F89030236813F4001F9C
:1018E0000DD0314AD2F8903023F00063E16F0B4302
:1018F000C2F89030E36FB3F1006F00F0BD80236851
:1019000013F4802F08D0284AD2F8903023F0407387
:10191000616F0B43C2F89030236813F4000F09D0B5
:10192000214AD2F8903023F08053D4F880100B4332
:10193000C2F89030236813F0806F09D01A4AD2F8A9
:10194000903023F00053D4F884100B43C2F8903049
:10195000236813F0006F09D0134AD2F88C3023F0BB
:101960000073D4F888100B43C2F88C30236813F04E
:10197000805F09D00C4AD2F88C3023F08063D4F811
:101980008C100B43C2F88C30002E77D12368B3F152
:10199000007F73D0002D40F00481002003B0F0BD23
:1019A0000125C3E60126D3E600380240B34B1A6C8A
:1019B00042F080521A641B6C03F080530193019B28
:1019C000AF4A136843F480731360FEF74DFE074679
:1019D000AB4B1B6813F4807F06D1FEF745FEC01B9E
:1019E0006428F5D90320D9E7A44B1B6F13F4407387
:1019F00015D0226B02F440729A4210D09F4B1A6F9E
:101A000022F44072196F41F480311967196F21F483
:101A1000803119671A671B6F13F0010F12D1236B06
:101A200003F44072B2F5407F1DD0944A936823F4CA
:101A3000F813936091490B6F226BC2F30B021343AF
:101A40000B6790E6FEF710FE07468C4B1B6F13F0FA
:101A5000020FE4D1FEF708FEC01B41F28833984222
:101A6000F3D903209AE78548826822F4F812854961
:101A700019400A438260DDE7012540E77F4A136889
:101A800023F080631360FEF7EFFD06467B4B1B6877
:101A900013F0006F06D0FEF7E7FD801B6428F5D930
:101AA00003207BE7236813F0010F13D0636B8BB91E
:101AB000724AD2F88430D2F88410606803F440335C
:101AC00043EA801301F070610B43A16843EA01739C
:101AD000C2F88430236813F4002F03D0E26BB2F510
:101AE000801F06D013F4801F1ED0236CB3F5800F27
:101AF0001AD1624AD2F88430D2F88410606803F4B4
:101B0000403343EA8013E06843EA006301F0E041B8
:101B10000B43C2F88430D2F88C3023F01F03616A83
:101B200001390B43C2F88C30236813F0807F11D049
:101B3000524AD2F88400D2F88410666823691B04E4
:101B400043EA861300F07060034301F0E0410B4369
:101B5000C2F88430236813F0007F0DD062682369D7
:101B60001B0443EA8213E26843EA0263A26843EA81
:101B70000273424AC2F88430404A136843F08063DB
:101B80001360FEF771FD06463C4B1B6813F0006FB7
:101B90007FF400AFFEF768FD801B6428F4D90320B2
:101BA000FCE6364A136823F080531360FEF75CFDB1
:101BB0000546324B1B6813F0005F06D0FEF754FD5C
:101BC000401B6428F5D90320E8E6236813F4002FAE
:101BD00001D0E26B22B113F4801F1DD0236CDBB95E
:101BE000264AD2F88830D2F88810606903F440336E
:101BF00043EA8013A06943EA006301F0E0410B432C
:101C0000C2F88830D2F88C3023F4F853A16A013935
:101C100043EA0123C2F88C30236813F4001F03D079
:101C2000E36FB3F1006F13D0144A136843F080538D
:101C30001360FEF719FD0446104B1B6813F0005F9C
:101C400019D1FEF711FD001B6428F5D90320A5E684
:101C50000A4AD2F88800D2F888106569236A1B0402
:101C600043EA851300F07060034301F0E0410B4349
:101C7000C2F88830D8E7002090E600BF0038024064
:101C800000700040FFFCFF0F10B504468368026936
:101C9000134342691343C269134301680868994AB0
:101CA000024013430B602268536823F44053E168F9
:101CB0000B435360A269236A1A4321688B6823F49B
:101CC000306313438B6023688F4A934218D08F4A46
:101CD000934228D08E4A93423DD08E4A934250D0B0
:101CE0008D4A934262D08D4A934277D08C4A934278
:101CF00000F08C808B4A934200F0A0801023B6E065
:101D0000894BD3F8903003F00303032B09D8DFE8A5
:101D100003F00204AD060123A9E00423A7E0082391
:101D2000A5E01023A3E0804BD3F8903003F00C0320
:101D30000C2B0ED8DFE803F0070D0D0D090D0D0D6E
:101D4000A90D0D0D0B00002391E004238FE0082363
:101D50008DE010238BE0744BD3F8903003F0300308
:101D6000102B0AD006D9202B00F09180302B06D101
:101D700008237CE01BB9002379E0042377E01023DB
:101D800075E0694BD3F8903003F0C003402B09D0C5
:101D900005D9802B7DD0C02B06D1082367E01BB965
:101DA000002364E0042362E0102360E05E4BD3F87C
:101DB000903003F44073B3F5807F0BD007D9B3F5AF
:101DC000007F68D0B3F5407F06D108234FE01BB9F0
:101DD00000234CE004234AE0102348E0524BD3F8A0
:101DE000903003F44063B3F5806F0BD007D9B3F59F
:101DF000006F52D0B3F5406F06D1082337E01BB90E
:101E0000012334E0042332E0102330E0464BD3F8C2
:101E1000903003F44053B3F5805F0BD007D9B3F58E
:101E2000005F3CD0B3F5405F06D108231FE01BB92B
:101E300000231CE004231AE0102318E03A4BD3F8E7
:101E4000903003F44043B3F5804F0BD007D9B3F57E
:101E5000004F26D0B3F5404F06D1082307E01BB949
:101E6000002304E0042302E0102300E00223E269DF
:101E7000B2F5004F17D0082B00F2B380DFE803F073
:101E8000768B95B19EB1B1B1A8000223EFE7022392
:101E9000EDE70223EBE70223E9E70223E7E702236A
:101EA000E5E70223E3E7082B5DD8DFE803F0051F31
:101EB0003F5C485C5C5C5300FFF7E8FB62685308DA
:101EC00003EB4003B3FBF2F39BB20020A3F110013C
:101ED0004FF6EF72914200F287809AB222F00F0221
:101EE000C3F3420313432268D36050E0FFF7DEFBE5
:101EF0006268530803EB4003B3FBF2F39BB200208C
:101F0000E4E700BFF369FFEF001001400044004028
:101F100000480040004C00400050004000140140C8
:101F200000780040007C0040003802406268304B7E
:101F300003EB5203B3FBF2F39BB20020C6E7FFF7BB
:101F400099FA6268530803EB4003B3FBF2F39BB2C8
:101F50000020BBE76268530803F58033B3FBF2F35C
:101F60009BB20020B2E701200023AFE7FFF78EFB12
:101F7000626800EB5203B3FBF2F39BB20020A3F1C3
:101F800010014FF6EF72914230D82268D3600023DF
:101F90002366636610BDFFF789FB626800EB52039E
:101FA000B3FBF2F39BB20020E9E76268114B03EB4D
:101FB0005203B3FBF2F39BB20020E0E7FFF75AFABB
:101FC000626800EB5203B3FBF2F39BB20020D6E74A
:101FD0006268530803F50043B3FBF2F39BB20020A1
:101FE000CDE701200023CAE70120D0E70120CEE79A
:101FF0000048E8010024F400436A13F0010F06D002
:102000000268536823F40033816A0B435360436AC8
:1020100013F0020F06D00268536823F48033C16ABC
:102020000B435360436A13F0040F06D002685368F1
:1020300023F48023016B0B435360436A13F0080FB2
:1020400006D00268536823F40043416B0B4353608E
:10205000436A13F0100F06D00268936823F480538C
:10206000816B0B439360436A13F0200F06D0026824
:10207000936823F40053C16B0B439360436A13F0DE
:10208000400F0AD00268536823F48013016C0B439D
:102090005360036CB3F5801F0BD0436A13F0800FBD
:1020A00006D00268536823F40023816C0B4353600D
:1020B00070470268536823F4C003416C0B435360BC
:1020C000EBE72DE9F04105460F4616469846069C7B
:1020D0002B68DB6937EA03030CBF01230023B342FB
:1020E0001CD1B4F1FF3FF3D0FEF7BEFAA0EB08001D
:1020F000A04201D8002CEBD12A68136823F4D073D6
:1021000013602A68936823F00103936020236B67B0
:10211000AB67002385F87030032000E00020BDE8A5
:10212000F0812DE9F04182B01E46436F202B59D13A
:1021300004460D469046B2FA82F35B09002908BFB7
:102140000123002B53D190F87030012B51D0012383
:1021500080F870300023C36721234367FEF784FAB9
:102160000746A4F85080A4F85280A368B3F5805FB6
:1021700002D04FF0000810E023690BB34FF00008C5
:102180000BE038F8023B2268C3F308039362B4F80B
:102190005230013B9BB2A4F85230B4F852309BB29B
:1021A0008BB100963B46002280212046FFF789FF35
:1021B00008BB002DE5D015F8012B23689A62E6E7ED
:1021C000A8460025E9E700963B460022402120462C
:1021D000FFF777FF034680B920226267002284F868
:1021E000702000E00223184602B0BDE8F081012310
:1021F000F9E70223F7E70323F5E70323F3E710B535
:1022000082B004460023C367FEF72EFA22681268E4
:1022100012F0080F07D120236367A367002084F81A
:10222000700002B010BD6FF07E43009303460022A1
:102230004FF400112046FFF744FF0028EBD00320A5
:10224000EFE768B310B50446436F03B32423636715
:102250002268136823F0010313602046FFF714FD82
:10226000012813D0636ABBB92268536823F49043F2
:1022700053602268936823F02A03936022681368EE
:1022800043F0010313602046FFF7B9FF10BD80F84B
:10229000703000F013FBD9E72046FFF7ADFEE3E70F
:1022A00001207047F0B58BB0002405940694079484
:1022B00008940994234B1A6B42F010021A631A6BAC
:1022C00002F010020192019A1A6B42F002021A63A4
:1022D0001A6B02F002020292029A1A6B42F0010299
:1022E0001A631A6B02F001020392039A1A6B42F00E
:1022F00008021A631B6B03F008030493049B124F3C
:1023000022464FF478413846FEF786FE0F4D2246AE
:1023100008212846FEF780FE4FF4784305930126F6
:1023200006960794089405A93846FEF785FD08230C
:10233000059306960794089405A92846FEF77CFDA8
:102340000BB0F0BD0038024000100240000C02400B
:1023500008B50948094B03604FF4E133436000239B
:102360008360C36003610C2242618361C3610362C5
:102370004362FFF766FF08BD100200200010014015
:1023800008B50C480C4B03600323436000238360B3
:10239000C3604FF4602202614FF480124261012257
:1023A000027642768276C37603774377FEF776F934
:1023B00008BD00BFE80100200034004008B50C480B
:1023C0000C4B03600323436000238360C3604FF41E
:1023D000602202614FF4801242610376437601224B
:1023E0008276C37603774377FEF758F908BD00BFBE
:1023F000A80200200064004008B500221146132006
:10240000FEF7C4FC1320FEF7F3FC00221146142053
:10241000FEF7BCFC1420FEF7EBFC00221146152051
:10242000FEF7B4FC1520FEF7E3FC0022114616204F
:10243000FEF7ACFC1620FEF7DBFC002211466820FC
:10244000FEF7A4FC6820FEF7D3FC002211466920A9
:10245000FEF79CFC6920FEF7CBFC002211466A20A7
:10246000FEF794FC6A20FEF7C3FC002211466B20A5
:10247000FEF78CFC6B20FEF7BBFC08BD30B5B9B095
:10248000342200212BA800F040FB0024269427943E
:10249000289429942A949022214602A800F035FB22
:1024A0001E4B1A6C42F080521A641B6C03F080536E
:1024B0000093009B1A4B1A6842F440421A601B6852
:1024C00003F440430193019B02252B9501232E9396
:1024D00010232F933195329408233393D8233493C8
:1024E000359536952BA8FEF7DBFDFEF79BFD0F23F8
:1024F0002693279528944FF4A05329934FF48053A3
:102500002A93072126A8FFF709F840230293139482
:1025100002A8FFF7DBF839B030BD00BF0038024039
:102520000070004010B588B0124B834206D00021E5
:102530001148FEF7BBFA90B908B010BD002118464B
:10254000FEF7B4FA0028F7D00C4C234601AA00216C
:102550000848FEF711FA019B44F80B3CECE7084CE5
:10256000234601AA00210448FEF706FA019B44F81D
:102570000B3CE1E7A8020020E80100209B020020BC
:10258000DB0100202DE9F04182B0314C0023A36132
:1025900063602360A360E36023616361E3610123FF
:1025A0002362DFF8D08021464046FEF71DF9294E10
:1025B0003072294F21463846FEF716F9274D28720A
:1025C00014214046FEF785FA707269213846FEF7FD
:1025D00080FA68724046FEF7A1F9B0723846FEF7FD
:1025E0009DF9A8721E4C8D221E49204600F082FAE9
:1025F0002046FDF725FE1C4F0A2382B221463846AD
:10260000FFF78FFD327A737AB17A0091174920462D
:1026100000F084FA2046FDF713FE0A2382B2214619
:102620003846FFF77EFD2A7A6B7AA97A0091104925
:10263000204600F073FA2046FDF702FE0A2382B21C
:1026400021463846FFF76DFD02B0BDE8F08100BFBE
:10265000D002002090020020E8010020D0010020DC
:10266000A40000204433000810020020D4330008E6
:102670005C340008A802002080B588B0FDF7DCFFBC
:10268000FFF7FCFEFFF70EFEFFF762FEFFF778FE96
:10269000FFF794FEFFF7B0FEFFF774FF41F28830BA
:1026A000FDF7E8FF274AD37A117B507B957BD67BD9
:1026B000177C92F811C092F812E01268224CCDF803
:1026C00018E0CDF814C0049703960295019000918C
:1026D0001E49204600F022FA2046FDF7B1FD1C4DB0
:1026E0000A2382B221462846FFF71BFD3220FDF760
:1026F000C1FF184AD37A117B507B967BD77B92F827
:1027000010C092F811E092F812801268CDF818808B
:10271000CDF814E0CDF810C0039702960190009117
:102720000D49204600F0FAF92046FDF789FD0A23FD
:1027300082B221462846FFF7F4FC3220FDF79AFFCB
:10274000B0E700BF90020020A4000020E43400089D
:1027500010020020D00100201035000882B00A4B82
:102760001A6C42F080521A641A6C02F08052009285
:10277000009A5A6C42F480425A645B6C03F48043C2
:102780000193019B02B070470038024070B58CB0D5
:1027900000230793089309930A930B930368414A14
:1027A000934204D0404A93422CD00CB070BD3F4AB3
:1027B000136801331360012B19D03D4B1A6B42F0A3
:1027C00001021A631B6B03F001030193019B4FF499
:1027D000C0530793022308930123099303230A9309
:1027E00009230B9307A93348FEF726FBDDE7304B9F
:1027F0001A6C42F000721A641B6C03F000730093B1
:10280000009BDAE72A4B1A6C42F400521A641A6CE5
:1028100002F400520292029A1A6C42F080621A6428
:102820001B6C03F080630393039B204A13680133FE
:102830001360012B2BD01E4B1A6B42F001021A635E
:102840001A6B02F001020592059A1A6B42F002021D
:102850001A631B6B03F002030693069B4FF480730D
:1028600007930226089603250A950B240B9407A9C3
:102870001048FEF7E1FA1023079308960023099306
:102880000A950B9407A90C48FEF7D6FA8DE7084B7A
:102890001A6C42F000721A641B6C03F0007304930C
:1028A000049BC8E700640040003400408C00002016
:1028B00000380240000002400004024000B589B028
:1028C000002303930493059306930793026803F18F
:1028D000804303F588339A4202D009B05DF804FBC7
:1028E00003F594335A6C42F010025A645A6C02F0A9
:1028F00010020192019A1A6B42F002021A631B6BDA
:1029000003F002030293029B4FF44043039302231C
:102910000493032306930423079303A90148FEF7B6
:102920008BFADAE7000402407047FEE7FEE7FEE7B5
:10293000FEE770477047704708B5FDF789FE08BD90
:1029400008B50248FEF7E3F808BD00BFA802002062
:1029500008B50248FEF7DBF808BD00BFA80200205A
:1029600008B50248FEF7D3F808BD00BFA802002052
:1029700008B50248FEF7CBF808BD00BFA80200204A
:1029800008B50248FEF7C3F808BD00BFE801002003
:1029900008B50248FEF7BBF808BD00BFE8010020FB
:1029A00008B50248FEF7B3F808BD00BFE8010020F3
:1029B00008B50248FEF7ABF808BD00BFE8010020EB
:1029C00008B503460B4A126842B10A4A106803442C
:1029D0006A46934206D8074A136008BD054A06496D
:1029E0001160F2E700F05CF80C2303604FF0FF3059
:1029F000F3E700BF900000200003002010B40F4A4E
:102A0000D2F8883043F47003C2F888300C4B196850
:102A100041F001011960002098601C6809492140BB
:102A2000196009495960196821F480211960D8603A
:102A30004FF0006393605DF8044B704700ED00E0D9
:102A400000380240FFFFF6FE10300024DFF834D0DB
:102A5000002103E00C4B5B58435004310B480C4BF6
:102A600042189A42F6D30B4A02E0002342F8043B94
:102A7000094B9A42F9D3FFF7C1FF00F017F8FFF7AF
:102A8000FBFD704700000820803500080000002092
:102A90007000002070000020FC020020FEE7000013
:102AA000014B1868704700BF0C00002070B50D4E38
:102AB0000D4CA41BA4100025A54209D10B4E0C4CB3
:102AC00000F028FCA41BA4100025A54205D170BD70
:102AD00056F8253098470135EEE756F825309847E7
:102AE0000135F2E7783500087835000878350008B8
:102AF0007C35000810B5431E0A44914200D110BD38
:102B000011F8014B03F8014FF7E7024403469342E3
:102B100000D1704703F8011BF9E700000EB400B5BF
:102B20009CB01DAB029006906FF0004109480791E0
:102B30000491094953F8042B05910068019302A9F7
:102B400000F066F8029B00221A701CB05DF804EBDE
:102B500003B070470C0000200802FFFF2DE9F0478A
:102B60008E689E4282460C469046994637D88A899E
:102B700012F4906F31D0256809696F1A65690223D4
:102B800005EB450595FBF3F509F101033B449D4237
:102B900038BF1D46530530D5294600F021FB0646B7
:102BA00050B90C23CAF80030A38943F04003A38135
:102BB0004FF0FF30BDE8F0873A462169FFF79AFFF2
:102BC000A38923F4906343F08003A38126616561A8
:102BD0003E44ED1B2660A5604E464E4500D94E464C
:102BE00032464146206800F093FAA3689B1BA3601D
:102BF00023681E4426600020DCE72A4600F04AFBDA
:102C000006460028E2D12169504600F09BFAC8E749
:102C10002DE9F04F1D468B891F069DB080460C465E
:102C200016460FD50B696BB9402100F0D9FA206028
:102C3000206128B90C23C8F800304FF0FF30C8E0FD
:102C4000402363610023099320238DF8293030232A
:102C50008DF82A3003954FF0010B37463D4615F8A5
:102C6000013B0BB1252B3ED1B7EB060A0BD05346E7
:102C7000324621464046FFF771FF013000F0A48044
:102C8000099B534409933B78002B00F09D8000235F
:102C90004FF0FF32CDE90523049307938DF85330AD
:102CA0001A932F46052217F8011B5048FDF7D0FA5A
:102CB000049BD0B9D90644BF20228DF853201A07AF
:102CC00044BF2B228DF853202A782A2A15D0079A40
:102CD0002F4600200A25394611F8013B303B092BCD
:102CE0004DD9B8B10FE02F46B8E7404A801A0BFA29
:102CF00000F0184304903D46D3E7039A111D126873
:102D00000391002A01DB079204E0524243F00203E0
:102D1000079204933B782E2B0CD17B782A2B33D14E
:102D2000039B1A1D1B680392002BB8BF4FF0FF33A3
:102D3000023705932E4D397803222846FDF788FA8D
:102D400038B14023401B03FA00F0049B03430137D2
:102D50000493397827488DF8281006227E1CFDF749
:102D600077FA002838D0244B13BB039B073323F09A
:102D7000070308330393099B4B4409936DE705FB55
:102D8000023201200F46A6E70023013705931946BA
:102D90000A25384610F8012B303A092A03D9002BAE
:102DA000C8D00591C6E705FB012101230746F0E7DE
:102DB00003AB00932246114B04A94046AFF30080B9
:102DC000B0F1FF3F8146D6D1A3895B063FF535AF11
:102DD00009981DB0BDE8F08F03AB00932246074B66
:102DE00004A9404600F082F8EAE700BF3C3500083D
:102DF0004235000846350008000000005D2B000841
:102E00002DE9F04791461F468A680B69DDF820805E
:102E10009342B8BF1346C9F8003091F843200646E4
:102E20000C4612B10133C9F800302368990642BF3D
:102E3000D9F800300233C9F80030256815F00605CE
:102E400007D104F1190AE368D9F800209B1AAB42B4
:102E500028DC94F843302268003318BF012392061F
:102E60002DD404F1430239463046C047013020D00A
:102E70002368E568D9F8002003F00603042B08BF97
:102E8000AD1AA36822690CBF25EAE57500259342B7
:102E9000C4BF9B1AED184FF000091A344D451AD1E2
:102EA000002008E00123524639463046C047013031
:102EB00003D14FF0FF30BDE8F0870135C3E7E118DB
:102EC0005A1C302081F84300224494F8451082F8BF
:102ED00043100233C5E70123224639463046C04736
:102EE0000130E6D009F10109D8E700002DE9F043EF
:102EF00001F1430C0C46097E85B06E291746064643
:102F000098460C9A00F0B38022D8632936D00AD8AC
:102F1000002900F0B980582900F0838004F14205AF
:102F200084F8421032E0642901D06929F6D1206882
:102F30001368050603F104012AD51B681160002BF4
:102F400003DA2D225B4284F843206F480A2239E0DD
:102F5000732900F09D8008D86F2920D07029DDD119
:102F6000236843F02003236003E0752917D07829F4
:102F7000D4D1782384F84530644855E01368191D8E
:102F80001B68116004F1420584F8423001238CE093
:102F90001B68116010F0400F18BF1BB2CFE7136819
:102FA0002568181D1060280601D51B6802E0680618
:102FB000FBD51B8854486F2914BF0A220822002120
:102FC00084F843106568A560002DC0F295802168E3
:102FD00021F004012160002B3DD1002D40F08E80B6
:102FE0006546082A0BD12368DB0708D52369626888
:102FF0009A42DEBF302305F8013C05F1FF35ACEB0A
:1030000005032361CDF800803B4603AA21463046E4
:10301000FFF7F6FE01304DD14FF0FF3005B0BDE8AF
:10302000F083394884F84510136821681D1D1B681A
:1030300015600A060BD5CA0744BF41F02001216084
:103040001BB9226822F0200222601022B7E74D0649
:1030500048BF9BB2EFE76546B3FBF2F102FB1133C9
:10306000C35C05F8013D0B460029F5D1B9E71368AB
:1030700025686169181D106028061B6801D5196054
:1030800002E06A06FBD51980002323616546B9E793
:103090001368191D11601D68626800212846FDF73C
:1030A000D7F808B1401B606063682361002384F88F
:1030B0004330A7E723692A4639463046C0470130E6
:1030C000AAD023689B0713D4E068039B9842B8BF3B
:1030D0001846A3E701234A4639463046C047013027
:1030E0009AD00135E368039A9B1AAB42F2DCEBE716
:1030F000002504F11909F5E7002BACD1037884F819
:10310000423004F142056CE74D3500085E35000899
:10311000884210B501EB020307D8421E99420AD03B
:1031200011F8014B02F8014FF8E78342F5D98118F5
:10313000D21AD34200D110BD13F8014D01F8014D50
:10314000F7E7000038B50546002945D051F8043CA2
:103150000C1F002BB8BFE41800F0D2F81F4A136808
:10316000104633B9636014602846BDE8384000F06B
:10317000C8B8A3420CD921686218934204BF1A68E8
:103180005B68636004BF521822600460ECE713467A
:103190005A680AB1A242FAD919685818A0420BD14C
:1031A00020680144581882421960DDD110685268C5
:1031B0005A6001441960D7E702D90C232B60D3E78A
:1031C000206821188A4204BF11685268626004BFF7
:1031D000091821605C60C7E738BD00BF9800002077
:1031E00070B5CD1C25F0030508350C2D38BF0C2516
:1031F000002D064601DBA94203D90C2333600020D1
:1032000070BD00F07DF8214A1468214691B9204C28
:1032100023681BB9304600F063F820602946304629
:1032200000F05EF8431C24D10C233360304600F0DC
:1032300068F8E4E70B685B1B18D40B2B0FD90B6005
:10324000CD50CC18304600F05CF804F10B00231D83
:1032500020F00700C31AD3D05A42E250D0E78C4284
:103260004B6816BF636013600C46EBE70C46496879
:10327000CCE7C41C24F00304A04205D0211A304638
:1032800000F02EF80130CFD02560DBE79800002059
:103290009C000020F8B5074614460E4621B9114699
:1032A000BDE8F840FFF79CBF22B9FFF74BFF25466A
:1032B0002846F8BD00F026F8A0420FD22146384635
:1032C000FFF78EFF05460028F2D031462246FFF771
:1032D00011FC31463846FFF735FFE9E73546E7E7A9
:1032E00038B5064C0023054608462360FFF768FB07
:1032F000431C02D1236803B12B6038BDF8020020C3
:103300007047704751F8043C181F002BBCBF0B5886
:10331000C0187047F8B500BFF8BC08BC9E4670479F
:0C332000F8B500BFF8BC08BC9E46704722
:10332C000000000000000000010203040607080969
:10333C0000000000010203044E657874206578617A
:10334C006D706C65206578706C61696E2074686551
:10335C002074797065206F66207374617475733A8C
:10336C000D0A092048414C5F4F4B20202020202083
:10337C00203D2030783030550D0A092048414C5FF3
:10338C004552524F52202020203D2030783031556C
:10339C000D0A092048414C5F4255535920202020EA
:1033AC00203D2030783032550D0A092048414C5FC1
:1033BC0054494D454F555420203D203078303355DD
:1033CC000D0A0D0A0000000043414E313A0920431A
:1033DC00414E2066696C74657220636F6E66696716
:1033EC0075726174696F6E207374617475732020CB
:1033FC0020203D2025640D0A092043414E206163A5
:10340C007469766174696F6E206E6F746966696336
:10341C006174696F6E20737461747573203D20251F
:10342C00640D0A092043414E207374617274207339
:10343C0074617475732020202020202020202020EF
:10344C0020202020202020203D2025640D0A000073
:10345C0043414E333A092043414E2066696C7465F2
:10346C007220636F6E66696775726174696F6E2026
:10347C00737461747573202020203D2025640D0A1F
:10348C00092043414E2061637469766174696F6EE3
:10349C00206E6F74696669636174696F6E207374F2
:1034AC0061747573203D2025640D0A092043414E3B
:1034BC00207374617274207374617475732020208E
:1034CC0020202020202020202020202020202020F0
:1034DC003D2025640D0A000063616E313A2025649D
:1034EC002C2025642C2025642C2025642C2025647C
:1034FC002C2025642C2025642C2025642C2025646C
:10350C000D0A000063616E333A2025642C2025647B
:10351C002C2025642C2025642C2025642C2025644B
:10352C002C2025642C2025642C2025640D0A0000F9
:10353C00232D302B2000686C4C0065666745464790
:10354C000030313233343536373839414243444513
:10355C004600303132333435363738396162636482
:04356C006566000090
:08357000B0CDFF7F0100000057
:043578002502000820
:04357C000102000840
:1035800001000000100000000024F40010000020E2
:10359000000000000000000000000000000000002B
:1035A000000000000000000000000000000000001B
:1035B000000000000000000000000000000000000B
:1035C00000000000000000000000000000000000FB
:1035D00000000000000000000000000000000000EB
:1035E00000000000000000000000000000000000DB
:0400000508002A4D78
:00000001FF
