:020000040800F2
:1000000000000820E9300008113000081330000813
:1000100015300008173000081930000800000000F3
:100020000000000000000000000000001B3000087D
:100030001D300008000000001F30000821300008BB
:1000400039310008393100083931000839310008E8
:1000500039310008393100083931000839310008D8
:1000600039310008393100083931000839310008C8
:1000700039310008393100083931000839310008B8
:1000800039310008393100083931000829300008B9
:10009000393000084930000859300008393100086B
:1000A0003931000839310008393100083931000888
:1000B0006930000839310008393100083931000849
:1000C0003931000839310008393100083931000868
:1000D00039310008393100087930000889300008CA
:1000E0003931000839310008393100083931000848
:1000F0003931000839310008393100083931000838
:100100003931000839310008393100083931000827
:100110003931000839310008393100083931000817
:100120003931000839310008393100083931000807
:1001300039310008393100083931000839310008F7
:1001400039310008393100083931000839310008E7
:1001500039310008393100083931000839310008D7
:1001600039310008393100083931000839310008C7
:100170003931000839310008393100080000000029
:1001800039310008393100083931000839310008A7
:100190003931000839310008393100083931000897
:1001A0003931000839310008393100083931000887
:1001B0003931000839310008393100083931000877
:1001C00039310008393100080000000039310008D9
:1001D0003931000839310008393100083931000857
:1001E0003931000839310008393100083931000847
:0801F000393100083931000823
:1002000090F800F06DE9024520F007016FF0000C56
:1002100010F0070491F820F040F049804FF00004FE
:100220006FF00700D1E9002391F840F000F10800D9
:1002300082FA4CF2A4FA8CF283FA4CF3A2FA8CF311
:100240004BBBD1E9022382FA4CF200F10800A4FA78
:100250008CF283FA4CF3A2FA8CF3E3B9D1E90423CC
:1002600082FA4CF200F10800A4FA8CF283FA4CF303
:10027000A2FA8CF37BB9D1E9062301F1200182FABD
:100280004CF200F10800A4FA8CF283FA4CF3A2FAC3
:100290008CF3002BC6D0002A04BF04301A4612BAD1
:1002A000B2FA82F2FDE8024500EBD2007047D1E9D4
:1002B000002304F00305C4F100004FEAC50514F063
:1002C000040F91F840F00CFA05F562EA05021CBF34
:1002D00063EA050362464FF00004A9E7000000004E
:1002E00001F0FF01102A2BDB10F0070F08D010F8E7
:1002F000013B013A8B422DD010F0070F42B3F6D1EB
:10030000F0B441EA012141EA014122F007047FF003
:1003100000070023F0E80256083C85EA010586EA5A
:10032000010685FA47F5A3FA87F586FA47F6A5FA96
:1003300087F68EB9EED1F0BC01F0FF0102F00702A2
:1003400032B110F8013B013A83EA010313B1F8D14D
:100350000020704701387047002D06BF354603382E
:10036000073815F0010F07D1013015F4807F02BF67
:10037000013015F4C03F0130F0BC0138704700BFB8
:10038000844641EA000313F003036DD1403A41D3A0
:1003900051F8043B40F8043B51F8043B40F8043B5F
:1003A00051F8043B40F8043B51F8043B40F8043B4F
:1003B00051F8043B40F8043B51F8043B40F8043B3F
:1003C00051F8043B40F8043B51F8043B40F8043B2F
:1003D00051F8043B40F8043B51F8043B40F8043B1F
:1003E00051F8043B40F8043B51F8043B40F8043B0F
:1003F00051F8043B40F8043B51F8043B40F8043BFF
:1004000051F8043B40F8043B51F8043B40F8043BEE
:10041000403ABDD2303211D351F8043B40F8043B8E
:1004200051F8043B40F8043B51F8043B40F8043BCE
:1004300051F8043B40F8043B103AEDD20C3205D39E
:1004400051F8043B40F8043B043AF9D2043208D096
:10045000D2071CBF11F8013B00F8013B01D30B8808
:1004600003806046704700BF082A13D38B078DD0E6
:1004700010F003038AD0C3F10403D21ADB071CBFB8
:1004800011F8013B00F8013B80D331F8023B20F822
:10049000023B7BE7043AD9D3013A11F8013B00F85B
:1004A000013BF9D20B7803704B7843708B788370E3
:1004B0006046704753B94AB9002908BF00281CBFDD
:1004C0004FF0FF314FF0FF3000F00CB8ADF1080CE9
:1004D0006DE904CE06F072FDDDF804E0DDE90223EB
:1004E00004B07047704700BF10B5054C227832B990
:1004F000044B13B10448AFF300800123237010BDF7
:10050000B8090020000000006872000808B5034B1D
:100510001BB103490348AFF3008008BD0000000091
:10052000BC0900206872000810B504460E4B18780C
:100530004FF47A73B3FBF0F30C4A1068B0FBF3F09E
:1005400000F08EFA68B90F2C01D9012010BD0022ED
:1005500021464FF0FF3000F031FA054B1C600020BF
:1005600010BD012010BD00BF0000002008000020C9
:100570000400002008B5032000F00EFA0020FFF769
:10058000D3FF02F05BFC002008BD0000034A1168A5
:10059000034B1B780B441360704700BF100A002008
:1005A00000000020014B1868704700BF100A0020AF
:1005B00038B50446FFF7F6FF0546B4F1FF3F02D019
:1005C000044B1B781C44FFF7EDFF401B8442FAD814
:1005D00038BD00BF00000020002800F0A18038B521
:1005E000044690F82030D3B12268136823F0020348
:1005F0001360FFF7D7FF054623685A6812F0020F11
:1006000010D0FFF7CFFF401B0A28F5D9636A43F4E7
:1006100000336362052384F82030012038BD02F0E6
:1006200025FCE1E71A6842F001021A60FFF7BAFF01
:10063000054623685A6812F0010F0DD1FFF7B2FF8B
:10064000401B0A28F5D9636A43F40033636205232B
:1006500084F82030012038BD227E012A3DD01A685E
:1006600022F080021A60637E012B3BD0226813685F
:1006700023F040031360A37E012B39D02268136856
:1006800023F020031360E37E012B37D02268136828
:1006900043F010031360237F012B35D022681368C9
:1006A00023F008031360637F012B33D022681368A3
:1006B00023F0040313602168A368E26813432269EE
:1006C0001343626913436268013A1343CB6100200C
:1006D0006062012384F8203038BD1A6842F080023D
:1006E0001A60C0E72268136843F040031360C2E752
:1006F0002268136843F020031360C4E7226813687C
:1007000023F010031360C6E72268136843F0080360
:100710001360C8E72268136843F004031360CAE754
:1007200001207047704770477047704770477047A7
:1007300070477047704770477047704770472DE9A2
:10074000F84F054603685C695F689E68D3F80C90B3
:10075000D3F81080D3F818A014F0010F5AD016F077
:10076000010F17D001229A6016F0020F08D116F07F
:10077000040F30D116F0080F07D04FF4805B0BE068
:10078000FFF7D0FF4FF0000B06E0FFF7CEFF4FF072
:10079000000B01E04FF0000B16F4807F0BD02B68AC
:1007A0004FF480729A6016F4007F17D116F4806FB0
:1007B00018D04BF4005B16F4803F2DD02B684FF41B
:1007C00080329A6016F4003F16D116F4802F17D0AD
:1007D0004BF4004B20E04FF4006BDDE72846FFF7B9
:1007E000A2FFE8E716F4006F02D04BF4804BE2E77B
:1007F0002846FFF79BFFDEE72846FFF795FF0BE053
:1008000016F4002F02D04BF4803B05E02846FFF79A
:100810008EFF01E04FF0000B14F0080F07D019F025
:10082000100F04D04BF4007B2B681022DA6014F018
:10083000040F02D019F0080F60D114F0020F04D099
:100840002B68DB6813F0030F5FD114F0400F07D063
:1008500018F0100F04D04BF4806B2B6810221A6133
:1008600014F0200F02D018F0080F52D114F0100F1E
:1008700004D02B681B6913F0030F51D114F4003F0F
:1008800002D017F0100F4FD114F4803F02D017F0B0
:10089000080F50D114F4004F67D017F0040F61D047
:1008A00014F4807F04D01AF0010F01D04BF0010B3B
:1008B00014F4007F04D01AF0020F01D04BF0020BA9
:1008C00014F4806F04D01AF0040F01D04BF0040B25
:1008D00014F4006F46D01AF0700A43D0BAF1300F0A
:1008E00048D02FD9BAF1500F47D0BAF1600F47D096
:1008F000BAF1400F31D14BF0400B2EE02B680822AB
:10090000DA602846FFF715FF97E72846FFF710FF44
:100910009BE72B6808221A612846FFF70CFFA5E722
:100920002846FFF707FFA9E72B6810225A602846E0
:10093000FFF702FFA8E72B6808225A602846FFF756
:10094000FCFEA7E7BAF1100F05D0BAF1200F04D1D1
:100950004BF0100B01E04BF0080B2A68936923F071
:10096000700393612B6804225A60BBF1000F0AD117
:10097000BDE8F88F4BF0200BEFE74BF0800BECE776
:100980004BF4807BE9E76B6A4BEA03036B62284612
:10099000FFF7D4FEECE700000649CB6823F4E063E0
:1009A0001B041B0C000200F4E0600343024A1A43DC
:1009B000CA60704700ED00E00000FA0530B4144B47
:1009C000DB68C3F30223C3F10704042C28BF04240B
:1009D0001D1D062D13D9033B012505FA04F4013C26
:1009E0002140994005FA03F3013B134019430028C5
:1009F00007DB0901C9B2074B195430BC704700230B
:100A0000EAE700F00F000901C9B2034B1954F4E7FB
:100A100000ED00E000E400E014ED00E0002808DB59
:100A2000420900F01F00012303FA00F0014B43F8D4
:100A30002200704700E100E000280DDB430900F0D0
:100A40001F00012202FA00F02033044A42F823007A
:100A5000BFF34F8FBFF36F8F704700BF00E100E01F
:100A60000138B0F1807F0AD2064B5860F021064A67
:100A700082F823100020986007221A607047012036
:100A8000704700BF10E000E000ED00E090F8353066
:100A9000DBB2022B03D0802343650120704705237E
:100AA00080F835300268136823F0010313600020DA
:100AB00070470000F0B583B0002437E0092600E05D
:100AC000002606FA0EF6324302336C4E46F8232017
:100AD0006B4B1A68EB4302EA03064F6817F4803F3A
:100AE00001D045EA0206664A1660526803EA020629
:100AF0004F6817F4003F01D045EA0206604A56608D
:100B0000926803EA02064F6817F4801F01D045EA95
:100B100002065B4A9660D26813404E6816F4001FC6
:100B200001D045EA0203564AD36001340F2C00F28B
:100B3000A3800123A3400A6803EA0205AB42F4D173
:100B40004A68122A18BF022A12D14FEAD40E0EF1B7
:100B5000080E50F82E2004F00706B6000F27B74005
:100B600022EA07020F6907FA06F6324340F82E2000
:100B700006684FEA440E032202FA0EF2D2431640F0
:100B80004F6807F0030707FA0EF73E4306604E680A
:100B9000771E112E18BF012F01D9122E0FD1866892
:100BA0001640CF6807FA0EF73E438660466826EA8D
:100BB00003034E68C6F30016A64033434360C36880
:100BC0001A408B6803FA0EF31A43C2604B6813F0A5
:100BD000805FAAD02B4B5A6C42F480425A645B6C03
:100BE00003F480430193019BA3089E1C234A52F8FF
:100BF000262004F003064FEA860E0F2606FA0EF6AC
:100C000022EA0602204FB8423FF45AAF1F4EB042CC
:100C100022D006F58066B04220D006F58066B0424C
:100C20001ED006F58066B0421CD006F58066B04244
:100C30001AD006F58066B04218D006F58066B0423C
:100C400016D006F58066B04214D006F58066B04234
:100C50003FF434AF0A2634E7012632E7022630E7B4
:100C600003262EE704262CE705262AE7062628E792
:100C7000072626E7082624E703B0F0BD0038014028
:100C8000003C0140003802400000024000040240E5
:100C900000230F2B00F29380F0B529E0092700E034
:100CA000002707FA05F5AE4270D005685E00032400
:100CB000B440E44325400560DD08083550F8256060
:100CC00003F007074FEA870E0F2707FA0EF726EA09
:100CD000070640F82560856825408560456825EA57
:100CE00002024260C2681440C46001330F2B65D811
:100CF00001229A4002EA0104A242F6D14FEA930E81
:100D00000EF102062E4D55F8266003F00305AD00E6
:100D10000F2707FA05FC06EA0C062A4FB842BFD097
:100D200007F58067B84221D007F58067B8421FD029
:100D300007F58067B8421DD007F58067B8421BD021
:100D400007F58067B84219D007F58067B84217D019
:100D500007F58067B84215D007F58067B84213D011
:100D600007F58067B84299D00A279AE7012798E7E4
:100D7000022796E7032794E7042792E7052790E7E1
:100D800006278EE707278CE708278AE70C4E0EF127
:100D9000020556F8257027EA0C0746F825700A4D1B
:100DA0002E68E44326402E606E6826406E60AE6872
:100DB0002640AE60EE683440EC6076E7F0BD7047E8
:100DC0000038014000000240003C014012B9090413
:100DD0008161704781617047436931EA030301D043
:100DE00081617047090481617047000010B582B0CD
:100DF0001B4B1A6C42F080521A641B6C03F0805338
:100E00000193019B174A136843F480331360FFF783
:100E1000C9FB0446134B5B6813F4803F08D1FFF70E
:100E2000C1FB001BB0F57A7FF4D9032002B010BDDE
:100E30000C4A136843F400331360FFF7B3FB044616
:100E4000084B5B6813F4003F07D1FFF7ABFB001BB7
:100E5000B0F57A7FF4D90320E8E70020E6E700BF89
:100E60000038024000700040002800F0DC8170B5BE
:100E700082B00446036813F0010F3AD0A24B9B687E
:100E800003F00C03042B2BD09F4B9B6803F00C0347
:100E9000082B20D06368B3F5803F50D0002B54D18D
:100EA000994B1A6822F480321A601A6822F4802260
:100EB0001A606368002B5FD0FFF774FB0546924B06
:100EC0001B6813F4003F14D1FFF76CFB401B642830
:100ED000F5D90320ACE18C4B5B6813F4800FD9D0BB
:100EE000894B1B6813F4003F03D06368002B00F0AC
:100EF0009C81236813F0020F64D0834B9B6813F02E
:100F00000C0F4DD0804B9B6803F00C03082B42D094
:100F1000E368002B79D07C4A136843F00103136027
:100F2000FFF740FB0546784B1B6813F0020F63D1B7
:100F3000FFF738FB401B0228F5D9032078E1724AFD
:100F4000136843F480331360B3E7B3F5A02F09D0DF
:100F50006D4B1A6822F480321A601A6822F48022DB
:100F60001A60A6E7684B1A6842F480221A601A6871
:100F700042F480321A609CE7FFF714FB0546624B8F
:100F80001B6813F4003FB4D0FFF70CFB401B642830
:100F9000F5D903204CE15C4B5B6813F4800FB7D1AB
:100FA000594B1B6813F0020F04D0E368012B01D0EA
:100FB00001203DE1544A136823F0F803216943EA14
:100FC000C1031360236813F0080F46D0636983B32D
:100FD0004D4A536F43F001035367FFF7E3FA0546A9
:100FE000494B5B6F13F0020F37D1FFF7DBFA401B61
:100FF0000228F5D903201BE1434A136823F0F803C4
:10100000216943EAC1031360DCE73F4A136823F018
:1010100001031360FFF7C6FA05463B4B1B6813F04C
:10102000020FCFD0FFF7BEFA401B0228F5D90320EC
:10103000FEE0354A536F23F001035367FFF7B2FA1E
:101040000546314B5B6F13F0020F06D0FFF7AAFA8B
:10105000401B0228F5D90320EAE0236813F0040FAF
:101060007ED0294B1B6C13F0805F31D1264B1A6C5C
:1010700042F080521A641B6C03F080530193019B71
:101080000125224B1B6813F4807F23D0A368012B1A
:1010900034D0002B3CD11C4B1A6F22F001021A678E
:1010A0001A6F22F004021A67A368002B46D0FFF7DC
:1010B00079FA0646144B1B6F13F0020F4FD1FFF75E
:1010C00071FA801B41F288339842F3D90320AFE0D4
:1010D0000025D6E70D4A136843F480731360FFF7C9
:1010E00061FA0646094B1B6813F4807FCED1FFF7E7
:1010F00059FA801B6428F5D9032099E0024A136F3E
:1011000043F001031367CFE700380240007000404E
:10111000052B09D0484B1A6F22F001021A671A6F8B
:1011200022F004021A67BFE7434B1A6F42F0040231
:101130001A671A6F42F001021A67B5E7FFF732FA31
:1011400006463D4B1B6F13F0020F08D0FFF72AFA3B
:10115000801B41F288339842F3D9032068E0F5B947
:10116000A369002B63D0344A926802F00C02082A6B
:1011700060D0022B19D0304A136823F080731360BB
:10118000FFF710FA04462C4B1B6813F0007F48D081
:10119000FFF708FA001B0228F5D9032048E0264A89
:1011A000136C23F080531364DAE7234A136823F0A7
:1011B00080731360FFF7F6F905461F4B1B6813F0A9
:1011C000007F06D0FFF7EEF9401B0228F5D9032077
:1011D0002EE0E369226A1343626A43EA8213A26A39
:1011E0005208013A43EA0243E26A43EA0263226B8D
:1011F00043EA0273104A5360136843F0807313602C
:10120000FFF7D0F904460C4B1B6813F0007F06D1A2
:10121000FFF7C8F9001B0228F5D9032008E00020D9
:1012200006E0002004E001207047012000E00020DB
:1012300002B070BD0120FBE700380240F8B5254B35
:101240009B6803F00C03042B41D0082B01D02248EB
:10125000F8BD204B5A6802F03F025B6813F4800F20
:1012600012D01C4B5968C1F3881100231B48A1FB05
:101270000001FFF71FF9174B5B68C3F3014301330C
:101280005B00B0FBF3F0F8BD124B5B68C3F388134F
:101290001E4600275C010025E41A65EB0705A9013D
:1012A00041EA9461A001001B61EB0501CB0043EA18
:1012B0005073C400A01943EB07018B0243EA90531B
:1012C0008402204619460023FFF7F4F8D3E70348C9
:1012D000F8BD00BF003802400024F40040787D01D2
:1012E000002800F0A28070B50446524B1B6803F042
:1012F0000F038B420CD24F4A136823F00F030B43AA
:101300001360136803F00F03994201D0012070BDF0
:10131000236813F0020F17D013F0040F04D0464ACD
:10132000936843F4E0539360236813F0080F04D0EC
:10133000414A936843F4604393603F4A936823F0C3
:10134000F003A068034393600D46236813F0010F78
:1013500031D06368012B20D0022B25D0364A126889
:1013600012F0020F63D034498A6822F0030213435B
:101370008B60FFF717F906462F4B9B6803F00C03B1
:101380006268B3EB820F16D0FFF70CF9801B41F2B5
:1013900088339842F0D9032070BD274A126812F4AE
:1013A000003FE0D1012070BD234A126812F0007F97
:1013B000D9D1012070BD1F4B1B6803F00F039D4264
:1013C0000CD21C4A136823F00F032B4313601368DD
:1013D00003F00F039D4201D0012070BD236813F07C
:1013E000040F06D0144A936823F4E053E1680B43DA
:1013F0009360236813F0080F07D00F4A936823F413
:101400006043216943EAC1039360FFF717FF0A4B6A
:101410009B68C3F30313094AD35CD840084B186098
:101420000020FFF781F8002070BD012070470120E7
:1014300070BD00BF003C02400038024060730008ED
:1014400008000020014B1868704700BF080000200A
:1014500008B5FFF7F7FF044B9B68C3F38223034AE9
:10146000D35CD84008BD00BF00380240707300084C
:1014700008B5FFF7E7FF044B9B68C3F34233034A09
:10148000D35CD84008BD00BF00380240707300082C
:10149000F0B583B00446036813F0010F0CD0B54BD0
:1014A0009A6822F400029A609A68416B0A439A6033
:1014B000436BC3B1002700E00027236813F4002F1B
:1014C00015D0AC4AD2F88C3023F44013E16B0B43B7
:1014D000C2F88C30E36BB3F5801F06D0002B00F010
:1014E0004581002504E00127E7E70127F6E700250D
:1014F000236813F4801F0FD09E4AD2F88C3023F457
:101500004003216C0B43C2F88C30236CB3F5800F81
:1015100000F02E8103B90125236813F0807F00D0ED
:10152000012713F0200F40F02781236813F0100FDC
:101530000CD0904BD3F88C2022F08072C3F88C2012
:10154000D3F88C20A16B0A43C3F88C20236813F4D2
:10155000804F08D0874AD2F8903023F44033616E30
:101560000B43C2F89030236813F4004F08D0814A2F
:10157000D2F8903023F44023A16E0B43C2F8903090
:10158000236813F4803F08D07A4AD2F8903023F4CD
:101590004013E16E0B43C2F89030236813F4003F10
:1015A00008D0744AD2F8903023F44003216F0B43E3
:1015B000C2F89030236813F0400F08D06D4AD2F87B
:1015C000903023F00303616C0B43C2F89030236822
:1015D00013F0800F08D0674AD2F8903023F00C0344
:1015E000A16C0B43C2F89030236813F4807F08D0BD
:1015F000604AD2F8903023F03003E16C0B43C2F81C
:101600009030236813F4007F08D05A4AD2F8903003
:1016100023F0C003216D0B43C2F89030236813F40C
:10162000806F08D0534AD2F8903023F44073616D34
:101630000B43C2F89030236813F4006F08D04D4A72
:10164000D2F8903023F44063A16D0B43C2F8903080
:10165000236813F4805F08D0464AD2F8903023F410
:101660004053E16D0B43C2F89030236813F4005FE0
:1016700008D0404AD2F8903023F44043216E0B4307
:10168000C2F89030236813F4800F08D0394AD2F89A
:10169000903023F08063A16F0B43C2F89030236831
:1016A00013F4001F0DD0334AD2F8903023F00063BA
:1016B000E16F0B43C2F89030E36FB3F1006F00F0BD
:1016C000C180236813F0080F00D0012513F4802F88
:1016D00008D0284AD2F8903023F04073616F0B4352
:1016E000C2F89030236813F4000F09D0214AD2F8D1
:1016F000903023F08053D4F880100B43C2F8903020
:10170000236813F0806F09D01A4AD2F8903023F082
:101710000053D4F884100B43C2F89030236813F0C0
:10172000006F09D0134AD2F88C3023F00073D4F83C
:1017300088100B43C2F88C30236813F0805F09D007
:101740000C4AD2F88C3023F08063D4F88C100B4311
:10175000C2F88C30002F77D12368B3F1007F73D0AB
:10176000002D40F00581002003B0F0BD0125BFE64B
:101770000127CFE600380240B84B1A6C42F0805285
:101780001A641B6C03F080530193019BB44A1368E5
:1017900043F480731360FEF705FF0646B04B1B68E9
:1017A00013F4807F06D1FEF7FDFE801B6428F5D977
:1017B0000320D9E7A94B1B6F13F4407315D0226B9C
:1017C00002F44072934210D0A44B1A6F22F440727C
:1017D000196F41F480311967196F21F4803119674D
:1017E0001A671B6F13F0010F12D1236B03F44072C1
:1017F000B2F5407F1DD0994A936823F4F8139360A3
:1018000096490B6F226BC2F30B0213430B678CE6F6
:10181000FEF7C8FE0646914B1B6F13F0020FE4D192
:10182000FEF7C0FE801B41F288339842F3D90320B3
:101830009AE78A48826822F4F8128A4919400A43D2
:101840008260DDE701253CE7844A136823F080636A
:101850001360FEF7A7FE0646804B1B6813F0006F6F
:1018600006D0FEF79FFE801B6428F5D903207BE796
:10187000236813F0010F13D0636B8BB9774AD2F84A
:101880008430D2F88410606803F4403343EA801354
:1018900001F070610B43A16843EA0173C2F8843020
:1018A000236813F4002F03D0E26BB2F5801F43D0FE
:1018B00013F4801F03D0236CB3F5800F3CD0236852
:1018C00013F0807F11D0654AD2F88400D2F88410DA
:1018D000666823691B0443EA861300F070600343C3
:1018E00001F0E0410B43C2F88430236813F0007F1D
:1018F0000DD0626823691B0443EA8213E26843EA5D
:101900000263A26843EA0273544AC2F88430534A1D
:10191000136843F080631360FEF744FE06464F4BA6
:101920001B6813F0006F7FF41BAFFEF73BFE801BBC
:101930006428F4D9032017E7484AD2F88430D2F853
:101940008410606803F4403343EA8013E06843EA9C
:10195000006301F0E0410B43C2F88430D2F88C30D0
:1019600023F01F03616A01390B43C2F88C30A6E7EC
:101970003A4A136823F080531360FEF713FE0546BE
:10198000364B1B6813F0005F06D0FEF70BFE401BC2
:101990006428F5D90320E7E6236813F4002F01D06B
:1019A000E26B22B113F4801F1DD0236CDBB92B4AEC
:1019B000D2F88830D2F88810606903F4403343EAE3
:1019C0008013A06943EA006301F0E0410B43C2F8D1
:1019D0008830D2F88C3023F4F853A16A013943EAF5
:1019E0000123C2F88C30236813F4001F03D0E36F87
:1019F000B3F1006F38D0236813F0080F19D0174ADD
:101A0000D2F88810D2F88830606903F4403343EA92
:101A1000801301F070610B43E16943EA0173C2F87E
:101A20008830D2F88C3023F44033E16A0B43C2F89B
:101A30008C300A4A136843F080531360FEF7B2FDFE
:101A40000446064B1B6813F0005F20D1FEF7AAFD89
:101A5000001B6428F5D9032086E600BF0038024049
:101A600000700040FFFCFF0F0A4AD2F88800D2F84D
:101A700088106569236A1B0443EA851300F07060CF
:101A8000034301F0E0410B43C2F88830B3E7002084
:101A90006AE600BF0038024010B4036A046A24F00A
:101AA00001040462846924F0F00444EA021223F081
:101AB0000A030B43826103625DF8044B704710B464
:101AC000036A23F0100303628469036A24F47044F8
:101AD00044EA023223F0A00343EA01138261036265
:101AE0005DF8044B7047836823F07003194341F09D
:101AF00007018160704770477047704770477047B3
:101B000010B5044603681A6912F0020F11D0DA68A2
:101B100012F0020F0DD06FF002021A610123037759
:101B200003689B6913F0030F79D0FFF7E6FF0023EA
:101B3000237723681A6912F0040F12D0DA6812F0C2
:101B4000040F0ED06FF004021A610223237723687A
:101B50009B6913F4407F68D02046FFF7CEFF002337
:101B6000237723681A6912F0080F12D0DA6812F08E
:101B7000080F0ED06FF008021A6104232377236840
:101B8000DB6913F0030F57D02046FFF7B6FF0023A1
:101B9000237723681A6912F0100F12D0DA6812F056
:101BA000100F0ED06FF010021A61082323772368FC
:101BB000DB6913F4407F46D02046FFF79EFF0023E9
:101BC000237723681A6912F0010F03D0DA6812F044
:101BD000010F3FD123681A6912F0800F03D0DA6831
:101BE00012F0800F3DD123681A6912F4807F03D070
:101BF000DA6812F0800F3BD123681A6912F0400FA7
:101C000003D0DA6812F0400F39D123681A6912F054
:101C1000200F03D0DA6812F0200F37D110BDFFF784
:101C20006BFF2046FFF76AFF81E72046FFF764FF5E
:101C30002046FFF763FF92E72046FFF75DFF20464F
:101C4000FFF75CFFA3E72046FFF756FF2046FFF7AC
:101C500055FFB4E76FF001021A612046FFF74BFF12
:101C6000B8E76FF080021A61204600F064F9BAE725
:101C70006FF480721A61204600F05EF9BCE76FF0E5
:101C800040021A612046FFF73AFFBEE76FF02002DC
:101C90001A61204600F04EF9C0E7000070B40368F6
:101CA0003A4DA84214BF00250125B0F1804F14BF62
:101CB0002A4645F00102AAB9354CA04214BF0024BF
:101CC0000124344EB0420DD064B904F1804404F5CF
:101CD0008234A04214BF0024012406F50066B042FD
:101CE00000D01CB123F070034C682343002A33D189
:101CF000274A904214BF00220122264CA0422BD03A
:101D000052BB02F1804202F58232904214BF00229F
:101D1000012204F50064A0421ED0EAB91E4A904296
:101D200014BF0022012204F59A34A04214D09AB9BB
:101D30001A4A904214BF0022012204F50064A04216
:101D40000AD04AB9164A904214BF00220122A4F5D3
:101D50009634A04200D01AB123F44073CC682343D8
:101D600023F080034A69134303608A68C2620A68E9
:101D700082620C4B984214BF2B4645F001030BB115
:101D80000B6903630123436170BC7047000001408D
:101D900000080040000400400044014000180040DA
:101DA0000020004000040140A8B110B5044690F89E
:101DB0003D305BB1022384F83D30211D2068FFF7E0
:101DC0006DFF012384F83D30002010BD80F83C30C9
:101DD00001F082F8EEE70120704710B4846824F423
:101DE0007F4442EA032319430C4384605DF8044BAB
:101DF0007047000090F83C30012B64D010B50446C9
:101E0000012380F83C30022380F83D30026890685E
:101E10002E4B034093600B68402B4AD013D9602BA4
:101E20003DD01ED9702B28D0B3F5005F30D1CB68E0
:101E30004A6889682068FFF7D0FF2268936843F4F6
:101E40008043936024E0102B06D004D9202B03D0CC
:101E5000302B01D01CE0DBB919462068FFF743FEA8
:101E600016E0502B14D1CA6849682068FFF714FEA9
:101E700050212068FFF737FE0AE0CB684A6889687E
:101E80002068FFF7AAFF2268936843F07703936006
:101E9000012384F83D30002084F83C0010BDCA685E
:101EA00049682068FFF70BFE60212068FFF71BFEE2
:101EB000EEE7CA6849682068FFF7EEFD4021206818
:101EC000FFF711FEE4E70220704700BF8800FEFF25
:101ED00090F83C30012B27D070B4012380F83C30BF
:101EE000022380F83D3004686368A2680F4D104EED
:101EF000AC4218BFB44203D123F470034D682B43A6
:101F000023F070030D682B4322F0800289680A4396
:101F1000636003689A60012380F83D30002380F8F5
:101F20003C30184670BC70470220704700040140E6
:101F3000000001407047704770470268136823F43F
:101F4000907313600268936823F001039360202369
:101F50008367002303667047C0B138B50446242365
:101F600043670268136823F00103136003680025C8
:101F70001D6003685D6003689D6001F01DF8E56702
:101F80006567A56784F87050284638BD0120704702
:101F9000836F202B01D002207047002A18BF002930
:101FA00056D090F87030012B54D0012380F8703057
:101FB0004165A0F85820A0F85A20002303668368E2
:101FC000B3F5805F06D0A3B9036973B9FF23A0F806
:101FD0005C3014E0036923B940F2FF13A0F85C30D1
:101FE0000DE0FF23A0F85C3009E07F23A0F85C300F
:101FF00005E0B3F1805F1BD00023A0F85C30002324
:10200000C367222383670268936843F001039360E8
:102010008368B3F5805F15D00F4B0366002380F80B
:10202000703001680A6842F490720A60184670477E
:1020300003691BB97F23A0F85C30E0E73F23A0F8D9
:102040005C30DCE70369002BE6D1044B0366E5E76F
:1020500001207047022070477D200008E120000821
:10206000704708B501680A6822F040020A60202221
:10207000426700224266FFF7F3FF08BD08B5B0F8DB
:102080005C30826F222A05D00268936943F008030E
:10209000936108BD0268516A426DDBB20B40137058
:1020A000436D01334365B0F85A309BB2013B9BB29C
:1020B000A0F85A30B0F85A309BB2002BE9D1026830
:1020C000136823F4907313600268936823F001038C
:1020D0009360202383670023036600F051FE08BD50
:1020E00008B5B0F85C20836F222B05D00268936995
:1020F00043F00803936108BD03685B6A416D1A40B1
:102100000A80436D02334365B0F85A309BB2013BFD
:102110009BB2A0F85A30B0F85A309BB2002BEAD1EB
:102120000268136823F4907313600268936823F0C5
:1021300001039360202383670023036600F020FEE1
:1021400008BD000038B504460268D3691568906878
:1021500013F00F010CD113F0200F09D015F0200F50
:1021600006D0236E002B00F086802046984738BDAD
:1021700000296FD010F0010002D115F4907F69D0D2
:1021800013F0010F07D015F4807F04D001211162F4
:10219000E26F0A43E26713F0020F07D030B1226802
:1021A00002211162E26F42F00402E26713F0040FB1
:1021B00007D030B1226804211162E26F42F00202BE
:1021C000E26713F0080F09D015F0200F00D128B1F5
:1021D000226808211162E26F0A43E267E26F002A77
:1021E00049D013F0200F06D015F0200F03D0236E36
:1021F0000BB120469847E26F23689B6813F0400FAD
:1022000002D112F0080F1FD02046FFF796FE236878
:102210009A6812F0400F13D09A6822F040029A6038
:10222000E36E4BB1164A1A65E06EFEF72FFC10B351
:10223000E06E036D984738BD204600F0E5FD38BDDF
:10224000204600F0E1FD38BD204600F0DDFD002312
:10225000E36738BD13F0800F07D015F0800F04D06E
:10226000636E43B12046984738BD13F0400F02D04B
:1022700015F0400F00D138BD2046FFF7F2FEFAE717
:102280008522000808B5806B0023A0F85A30A0F81A
:10229000523000F0B9FD08BDC06F704710B504465C
:1022A00083680269134342691343C2691343016897
:1022B00008689C4A024013430B602268536823F469
:1022C0004053E1680B435360A369226A13432168BA
:1022D0008A6822F4306213438B602368924A9342E7
:1022E0002BD0924A93423BD0914A934250D0914A8C
:1022F000934263D0904A934275D0904A934200F043
:102300008A808F4A934200F09E808E4A934200F06A
:10231000B2801023E269B2F5004F00F0D480082BA0
:1023200000F26F81DFE813F03201470151016D01C6
:102330005A016D016D016D016401834BD3F890303A
:1023400003F00303032B09D8DFE803F00204AD0612
:102350000123DFE70423DDE70823DBE71023D9E7C8
:10236000794BD3F8903003F00C030C2B0ED8DFE838
:1023700003F0070D0D0D090D0D0D9C0D0D0D0B003E
:102380000023C7E70423C5E70823C3E71023C1E7F9
:102390006D4BD3F8903003F03003102B0AD006D9E0
:1023A000202B00F08480302B06D10823B2E71BB924
:1023B0000023AFE70423ADE71023ABE7624BD3F86C
:1023C000903003F0C003402B09D005D9802B70D08A
:1023D000C02B06D108239DE71BB900239AE70423ED
:1023E00098E7102396E7584BD3F8903003F44073E6
:1023F000B3F5807F0BD007D9B3F5007F5BD0B3F581
:10240000407F06D1082385E71BB9002382E7042318
:1024100080E710237EE74C4BD3F8903003F4406301
:10242000B3F5806F0BD007D9B3F5006F45D0B3F586
:10243000406F06D108236DE71BB901236AE7042327
:1024400068E7102366E7404BD3F8903003F440531D
:10245000B3F5805F0BD007D9B3F5005F2FD0B3F58C
:10246000405F06D1082355E71BB9002352E7042338
:1024700050E710234EE7344BD3F8903003F4404339
:10248000B3F5804F0BD007D9B3F5004F19D0B3F592
:10249000404F06D108233DE71BB900233AE7042348
:1024A00038E7102336E7022334E7022332E702231A
:1024B00030E702232EE702232CE702232AE7022338
:1024C00028E7022326E7082B5DD8DFE803F0051F85
:1024D0003F5C485C5C5C5300FEF7BAFF62685308DF
:1024E00003EB4003B3FBF2F39BB20020A3F1100116
:1024F0004FF6EF72914200F287809AB222F00F02FB
:10250000C3F3420313432268D36050E0FEF7B0FFE9
:102510006268530803EB4003B3FBF2F39BB2002065
:10252000E4E700BFF369FFEF001001400044004002
:1025300000480040004C00400050004000140140A2
:1025400000780040007C0040003802406268304B58
:1025500003EB5203B3FBF2F39BB20020C6E7FEF796
:102560006DFE6268530803EB4003B3FBF2F39BB2CA
:102570000020BBE76268530803F58033B3FBF2F336
:102580009BB20020B2E701200023AFE7FEF760FF17
:10259000626800EB5203B3FBF2F39BB20020A3F19D
:1025A00010014FF6EF72914230D82268D3600023B9
:1025B0002366636610BDFEF75BFF626800EB5203A3
:1025C000B3FBF2F39BB20020E9E76268114B03EB27
:1025D0005203B3FBF2F39BB20020E0E7FEF72EFEBE
:1025E000626800EB5203B3FBF2F39BB20020D6E724
:1025F0006268530803F50043B3FBF2F39BB200207B
:10260000CDE701200023CAE70120D0E70120CEE773
:102610000048E8010024F400436A13F0010F06D0DB
:102620000268536823F40033816A0B435360436AA2
:1026300013F0020F06D00268536823F48033C16A96
:102640000B435360436A13F0040F06D002685368CB
:1026500023F48023016B0B435360436A13F0080F8C
:1026600006D00268536823F40043416B0B43536068
:10267000436A13F0100F06D00268936823F4805366
:10268000816B0B439360436A13F0200F06D00268FE
:10269000936823F40053C16B0B439360436A13F0B8
:1026A000400F0AD00268536823F48013016C0B4377
:1026B0005360036CB3F5801F0BD0436A13F0800F97
:1026C00006D00268536823F40023816C0B435360E7
:1026D00070470268536823F4C003416C0B43536096
:1026E000EBE72DE9F04105460F4616469846069C55
:1026F0002B68DB6937EA03030CBF01230023B342D5
:102700001DD1B4F1FF3FF3D0FDF74CFFA0EB080063
:10271000844201D3002CEBD12A68136823F4D073D0
:1027200013602A68936823F00103936020236B678A
:10273000AB67002385F870300320BDE8F0810020EE
:10274000BDE8F0812DE9F04182B01E46436F202B99
:1027500004D00223184602B0BDE8F08104460D46BD
:102760009046002A18BF002953D090F87030012BF2
:1027700001D10223EEE7012380F870300023C36704
:1027800021234367FDF70EFF0746A4F85080A4F805
:102790005280A368B3F5805F02D04FF0000814E0C8
:1027A000236913B14FF000080FE0A84600250CE0A4
:1027B000226838F8023BC3F308039362B4F852303E
:1027C0009BB2013B9BB2A4F85230B4F852309BB29A
:1027D00073B100963B46002280212046FFF781FF1F
:1027E000C8B9002DE4D0236815F8012B9A62E5E7FB
:1027F00000963B46002240212046FFF772FF034629
:1028000008B10323A6E720226267002284F8702023
:10281000A0E701239EE703239CE710B582B004469E
:102820000023C367FDF7BEFE2268126812F0080F8E
:1028300007D120236367A367002084F8700002B0EB
:1028400010BD6FF07E430093034600224FF4001149
:102850002046FFF746FF0028EBD00320EFE768B3E0
:1028600010B50446436F03B32423636722681368DB
:1028700023F0010313602046FFF710FD01281FD04D
:10288000636ABBB92268536823F49043536022689B
:10289000936823F02A0393602268136843F00103CE
:1028A00013602046FFF7B9FF10BD80F8703000F0CC
:1028B00027FBD9E72046FFF7AFFEE3E7012070478B
:1028C00010BD000038B50C4656484FF4165343600F
:1028D00000238360C36003610C2242618361C36192
:1028E00003624362FFF738FB00287FD14D48FFF7B2
:1028F000B6FF002840F081804A4DC82314224A497F
:102900002846FFF71FFF4FF4FA70FDF751FE4FF412
:10291000E1336B602846FFF71FFB002874D1414864
:102920004FF4E133436000238360C36003610C22F2
:1029300042618361C36103624362FFF790FF002835
:1029400069D1384DC823142237492846FFF7FAFECB
:102950004FF4FA70FDF72CFEC823112233492846A4
:10296000FFF7F0FE4FF4FA70FDF722FEC823332282
:102970002F492846FFF7E6FE4FF4FA70FDF718FEE0
:102980002C4B186820609A889B79A280A3712A4BEF
:1029900003CBE06021611B88A382284B1B88A383A3
:1029A000274B03CBE06221631A889B78A28684F8C8
:1029B0003630244B1B88A387234B1868E0649A8821
:1029C0009B79A4F8502084F85230204B1A889B78C9
:1029D000A4F8582084F85A30A4F85B2084F85D30BD
:1029E000A4F85E2084F86030012038BD0A23062256
:1029F00017491848FFF7A6FE78E70A23062216496A
:102A00001448FFF79FFE77E70A230622134911486F
:102A1000FFF798FE83E70A23062211490D48FFF7C6
:102A200091FE8EE7DC0B002098720008C872000847
:102A3000DC72000810730008187300082473000883
:102A400028730008347300083873000814730008F2
:102A500080720008DC0A00208C720008B072000846
:102A6000BC72000808B5002211461620FDF7A6FF2B
:102A70001620FDF7D3FF002211461520FDF79EFF1B
:102A80001520FDF7CBFF002211461420FDF796FF1D
:102A90001420FDF7C3FF002211461320FDF78EFF1F
:102AA0001320FDF7BBFF002211461C20FDF786FF17
:102AB0001C20FDF7B3FF002211462620FDF77EFF04
:102AC0002620FDF7ABFF002211462720FDF776FFF9
:102AD0002720FDF7A3FF08BD30B589B0002403947B
:102AE00004940594069407941C4B1A6B42F004025C
:102AF0001A631A6B02F004020092009A1A6B42F0F9
:102B000002021A631A6B02F002020192019A1A6B16
:102B100042F008021A631B6B03F008030293029B46
:102B20000F4D224644F281012846FEF74FF94FF43B
:102B3000005303930494059403A90A48FDF7BAFFD0
:102B400044F281030393012304930594069403A99B
:102B50002846FDF7AFFF09B030BD00BF0038024086
:102B6000000402400008024008B50C480C4B03600A
:102B70000323436000238360C3604FF4602202613B
:102B80004FF4801242610376437601228276C27648
:102B900003774377FDF720FD08BD00BF5C0C0020E4
:102BA0000064004030B589B0002404940594069474
:102BB00007940194029403940E4D4FF080432B60D0
:102BC0006C236B60AC604FF47A73EB602C61AC618A
:102BD0002846FFF7E9F84FF48053049304A92846E8
:102BE000FFF708F90194039401A92846FFF770F94B
:102BF00009B030BD980B002008B50948094B0360A7
:102C00004FF4E133436000238360C36003610C220F
:102C100042618361C36103624362FFF720FE08BD26
:102C2000DC0B00200044004008B50948094B036054
:102C3000094B436000238360C36003610C2242613F
:102C40008361C36103624362FFF709FE08BD00BFF1
:102C5000DC0A00200048004080841E0030B5B9B076
:102C6000342200212BA800F0A9FA002426942794EE
:102C7000289429942A949022214602A800F09EFAD2
:102C80001F4B1A6C42F080521A641B6C03F0805385
:102C90000093009B1B4B1A6842F440421A601B6869
:102CA00003F440430193019B02252B9501232E93AE
:102CB00010232F933195329408233393D8233493E0
:102CC0003595092336932BA8FEF7CEF8FEF78EF83C
:102CD0000F232693279528944FF4A05329934FF45C
:102CE00080532A93072126A8FEF7FAFA4FF4C073FF
:102CF00002931494159402A8FEF7CAFB39B030BDB4
:102D0000003802400070004008B5FDF733FCFFF7C3
:102D1000A5FFFFF7E1FEFFF727FFFFF743FFFFF7F0
:102D20006BFFFFF781FFFFF79DFE0F4C0A23062282
:102D30000E492046FFF706FD01220D492046FFF708
:102D400027F90C4C0C492046FFF7BCFD0022114628
:102D50002620FDF733FE2620FDF760FE01220749FD
:102D60002046FFF715F9FEE7DC0A00204073000853
:102D7000D80B0020DC0B0020140A00205C0B002084
:102D800038B50446194B984203D0194B98421FD0CE
:102D900038BD184A1368184908781849C8540133CF
:102DA0001360322B10D080211548FEF715F8124D14
:102DB0000A23012229460E48FFF7C4FC01222946B6
:102DC0002046FFF7E5F8E3E7134600221A60EAE73A
:102DD0000C4D1C460A23012229462046FFF7B2FC6F
:102DE000012229462046FFF7D3F8D1E7DC0B00206B
:102DF000DC0A0020D40900205C0B0020640B0020BA
:102E000000040240D80B002000B59BB0FFF744FA45
:102E10000246084901A800F021FA01A8FDF7F0F9DF
:102E20000A2382B201A90448FFF78CFC1BB05DF8AD
:102E300004FB00BF48730008DC0A002082B00A4B84
:102E40001A6C42F080521A641A6C02F0805200929E
:102E5000009A5A6C42F480425A645B6C03F48043DB
:102E60000193019B02B070470038024000B589B061
:102E70000023039304930593069307930268144B6E
:102E80009A4202D009B05DF804FB03F5EA331A6CEC
:102E900042F000721A641A6C02F000720192019AF8
:102EA0001A6B42F002021A631B6B03F002030293D7
:102EB000029B4FF44073039302230493032306936E
:102EC0000923079303A90348FDF7F4FDDAE700BFE0
:102ED00000640040000402400368B3F1804F00D05A
:102EE000704782B003F50E331A6C42F001021A6487
:102EF0001B6C03F001030193019B02B0F0E700009B
:102F000000B58BB0002305930693079308930993AC
:102F10000368254A934205D0244A934222D00BB03D
:102F20005DF804FB224B1A6C42F400321A641A6CEE
:102F300002F400320192019A1A6B42F008021A63FD
:102F40001B6B03F008030293029B6023059302238B
:102F50000693032308930723099305A91548FDF752
:102F6000A9FDDCE7124B1A6C42F480221A641A6C39
:102F700002F480220392039A1A6B42F008021A6349
:102F80001B6B03F008030493049B4FF440730593F9
:102F900002230693032308930723099305A90548F1
:102FA000FDF788FDBBE700BF00440040004800403B
:102FB00000380240000C024008B50368114A9342F1
:102FC00003D0114A93420ED008BD02F5FA32136CB9
:102FD00023F40033136460210C48FDF759FE2620CA
:102FE000FDF72AFD08BD02F5F832136C23F48023A7
:102FF00013644FF440710548FDF74AFE2720FDF7A2
:103000001BFDE1E70044004000480040000C024086
:103010007047FEE7FEE7FEE7FEE770477047704740
:1030200008B5FDF7B3FA08BD08B50248FDF787FB00
:1030300008BD00BF5C0C002008B50248FDF77FFB0F
:1030400008BD00BF5C0C002008B50248FDF777FB07
:1030500008BD00BF5C0C002008B50248FDF76FFBFF
:1030600008BD00BF5C0C002008B50248FEF748FD13
:1030700008BD00BF980B002008B50248FFF762F8B2
:1030800008BD00BFDC0B002008B50248FFF75AF866
:1030900008BD00BFDC0A002010B40F4AD2F8883007
:1030A00043F47003C2F888300C4B196841F00101F9
:1030B0001960002098601C6809492140196009497D
:1030C0005960196821F480211960D8604FF00063BD
:1030D00093605DF8044B704700ED00E0003802405B
:1030E000FFFFF6FE10300024DFF834D0002103E0AB
:1030F0000C4B5B58435004310B480C4B42189A421E
:10310000F6D30B4A02E0002342F8043B094B9A42F3
:10311000F9D3FFF7C1FF00F02DF8FFF7F5FD704779
:10312000000008201476000800000020B8090020E4
:10313000B8090020AC0C0020FEE700000023014687
:103140001A46184601F02CBD38B5084B084D5B1BDC
:103150009C1007D0043B1D44013C55F804399847A6
:10316000002CF9D1BDE8384004F084B8147600088A
:103170001076000870B50D4E0D4D761BB61006D0BA
:10318000002455F8043B01349847A642F9D1094E72
:10319000094D761B04F068F8B61006D0002455F8E7
:1031A000043B01349847A642F9D170BD0876000867
:1031B000087600081076000808760008F0B4860744
:1031C00046D0541E002A3CD0CAB2034601E0013C5E
:1031D00037D303F8012B9D07F9D1032C2AD9CDB29F
:1031E00045EA05250F2C45EA054534D9A4F110021E
:1031F00022F00F0C03F120071609674403F11002B7
:1032000042E9045542E902551032BA42F8D1721C23
:1032100014F00C0F03EB021204F00F0613D0331F4F
:1032200023F003030433134442F8045B9342FBD1BD
:1032300006F003042CB1CAB21C4403F8012B9C42D3
:10324000FBD1F0BC704734461346002CF3D1F8E7AD
:1032500014460346C1E71A462646E0E70EB430B5E9
:103260009CB01FAB0C4C0D4D53F8042B0193014641
:1032700002910691206802A96FF00044CDE904454F
:10328000079400F00DF8029B00221A701CB0BDE8F4
:10329000304003B0704700BF0C0000200802FFFF61
:1032A0002DE9F04F2DED068BCDB08A46904609935F
:1032B000834602F0EDFC036812931846FCF7A0FF6A
:1032C000BAF80C3011901D0604D5DAF81030002B36
:1032D00000F057870023CDE92133CDE91333CDE941
:1032E00016330F9315930693464623AB20939946C6
:1032F0005346DA469B4633789FED5F8B9FED609B8C
:10330000002B00F04481344604E014F8013F002B08
:1033100000F08F80252BF8D1A51B40F08D802378FD
:10332000002B00F03481002307938DF86330039362
:103330004FF0FF32631C677805922B254FF0200871
:103340001C460134A7F120035A2B00F29D80DFE8D0
:1033500013F0D2029B009B00CC029B009B009B00C1
:10336000AB029B009B009A0206029B000002E10256
:103370009B00DB025B005B005B005B005B005B00B3
:103380005B005B005B009B009B009B009B009B0025
:103390009B009B0034019B009F017D02340134019E
:1033A00034019B009B009B009B0077029B009B00CD
:1033B00038029B009B009B00AD019B000A029B0012
:1033C0009B00F5069B009B009B009B009B009B00C5
:1033D0009B009B0034019B009F01D5013401340107
:1033E00034014D02D5016A009B006E029B0056021B
:1033F000ED06FB026A009B00AD016E00F0069B002B
:103400009B00CB069B006E00A7F13003002214F84E
:10341000017B02EB820203EB4202A7F13003092B8E
:10342000F5D907928EE7039B43F020030393277897
:1034300087E7A51B00F0AB80DDE9213201332A4488
:10344000072BCDE92132C9F80060C9F8045006DC29
:1034500009F10809069A23782A44069260E720AA0F
:103460005946504603F0B8FA002841F0E4820DF1C5
:103470008C09EFE7AFF300800000000000000000BF
:10348000FFFFFFFFFFFFEF7F0C94002F7FD0002393
:103490000125194604958DF8CC708DF8633008919C
:1034A00005910D9110910E9133AE039B13F0020321
:1034B0000A9302D0049B02330493039B229A13F0D5
:1034C00084030B9305D1079B04981C1A002C00F36E
:1034D000A48071B12199013101320DF16304012001
:1034E0000729CDE92112C9E9004000F3B58309F1AC
:1034F00008090A9B6BB1219B0133023219A80221F2
:10350000072BCDE92132C9E9000100F3B78309F1A6
:1035100008090B9B802B00F0C382059B5C1B002CD1
:1035200000F3F782039BD80500F16682219BC9F85E
:10353000006001332A44072B2292C9F804502193DA
:1035400000F36F8309F10809039B590705D5079B11
:1035500004995C1A002C00F39D83DDE90631049880
:103560008142ACBF5B181B180693002A40F0FF8213
:1035700000232193089B1BB10899504602F07EFA64
:103580000DF18C090C9E3378002B7FF4BCAE5B46AA
:10359000D3469A46229B002B41F0CD81BAF80C30DD
:1035A00013F0400F069B18BF4FF0FF3306930698A9
:1035B0004DB0BDEC068BBDE8F08F099B0C94073332
:1035C00023F00703B3EC028BB0EEC87BB4EE497B6B
:1035D000F1EE10FA099340F3BE84B5EEC08BF1EE24
:1035E00010FA00F1E6879DF86310AC4EAC4B0398DF
:1035F0000022032520F08000049508920390472FB5
:10360000C8BF1E4605920D9210920E9200293FF4FB
:103610004CAF049B0133049347E7102C2199DFF84A
:10362000848227DD084641461023A8460D4604E063
:10363000103C102C09F1080918DD01301032072860
:10364000CDE92102C9E90053F2DD20AA59465046CE
:1036500003F0C2F9002840F09282103C102CDDE902
:1036600021020DF18C094FF01003E6DC2B460146D8
:1036700045469846013122440729CDE92112C9E97E
:10368000008400F3B7869DF8631009F1080920E76C
:10369000099B0C9453F8041B8DF8CC1000220125D3
:1036A0001146049509938DF86320F8E60C94099C63
:1036B00054F8046B4FF000088DF86380002E00F082
:1036C0007085059A1346013300F04A87414630461B
:1036D000FCF706FE0890002801F08980089BCDF8D1
:1036E00014809D1B434625EAE5729DF863100994FA
:1036F000049208930D9310930E9387E7039B0C9409
:1037000013F0200F099B00F0AC80073323F0070370
:103710001946F1E80223099114461D46002A73F167
:103720000003C0F2CF83059B013300F08582039B29
:1037300023F0800854EA050340F08082059B002BAB
:1037400040F08182CDF80C80002305931D464CAEDD
:1037500027E12778039B43F004030393F1E52778DF
:103760008DF86350EDE5039B0C9443F0100818F0BE
:10377000200F099B00F09883073323F00703F3E839
:1037800002450993012300228DF86320059A114612
:10379000013100F0ED8028F08001039154EA050129
:1037A00040F0E480002A40F09C86002BCCD118F039
:1037B000010500F0AE8330238DF82F310DF22F1666
:1037C000EFE0039B0C9443F010030393039B9E06CE
:1037D00040F15C83099B073323F00703F3E80245BC
:1037E0000993039B23F480680023CCE72778039B8D
:1037F000682F00F0B38443F040030393A1E5099AD6
:103800000C9452F8043B0992039A900600F15F84ED
:10381000039AD10600F16C86039A520600F1F886ED
:10382000039A970540F16486069A1A70AAE62778EB
:10383000039B6C2F00F08B8443F01003039380E50F
:10384000039B277843F0080303937AE5039B0C94CA
:1038500043F010030393039B13F0200F099B7FF4A5
:1038600054AF039AD40603F1040100F16D83039B66
:10387000580640F16383099B0991B3F90040E517AD
:1038800022462B464AE7099B277853F8042B0792D8
:10389000002AC0F25784099353E500BF7C730008E7
:1038A00080730008BC730008504602F0F1F94368C9
:1038B00016931846FCF7A4FC034650461F46179380
:1038C00002F0E6F982681592002F3FF4B0AD159B27
:1038D0002778002B3FF435AD1B78002B3FF431AD3A
:1038E000039B43F4806303932BE5039B277843F00A
:1038F0000103039325E59DF863302778002B7FF4BF
:1039000020AD8DF863801CE5039B277843F080038E
:10391000039316E5224612F8017B2A2F01F013814A
:10392000A7F13003092B144698BF002200F28487C8
:1039300014F8017B02EB820203EB4202A7F1300391
:10394000092BF5D90592FDE4099B0C9447F630024A
:1039500053F8044BADF86420039A0993C44B1393B6
:1039600042F002080025022378270CE7DDF80C80DE
:10397000012B00F06381022B4CAE1FD11398230959
:1039800004F00F0143EA05732A091C461546435CFF
:1039900006F8013D54EA0503F1D14CABCDF80C809B
:1039A0009D1B002308930D9310930E93059B9DF888
:1039B0006310AB42B8BF2B46049327E6E20842EA05
:1039C0004572E90804F007030D461446303354EA03
:1039D0000501324606F8013DF0D118F0010FDCD0A8
:1039E000302BDAD03023023A06F8013C4CABCDF84C
:1039F0000C809D1A1646D4E7652F40F3CC80B5EEB7
:103A0000408BF1EE10FA40F07D81219B9949C9F875
:103A10000010013301320121072BCDE92132C9F811
:103A2000041000F32B8509F108091A9B0F998B42AA
:103A300080F26A82219B1299C9F800101199C9F885
:103A4000041001330A44072B2292219300F38D8343
:103A500009F108090F9B5C1E002C7FF775AD102C37
:103A6000219B40F31885102505E009F10809103C59
:103A7000102C40F3108501337F491032072BCDE91C
:103A80002132C9E90015F0DD20AA5946504602F05E
:103A9000A3FF002873D1DDE921320DF18C09E6E79F
:103AA000079B04995C1A002C7FF737AD102C219BE3
:103AB0001EDD4FF0100804E0103C102C09F108093D
:103AC00016DD01336C491032072BCDE92132C9E9EB
:103AD0000018F1DD20AA5946504602F07DFF00286B
:103AE0004DD1103C102CDDE921320DF18C09E8DCC0
:103AF000013361492244072BCDE92132C9E9001481
:103B000000F3E284059B5C1B002C09F108097FF798
:103B100009AD102C219B1DDD4FF0100804E0103C76
:103B2000102C09F1080915DD013353491032072B18
:103B3000CDE92132C9E90018F1DD20AA59465046E5
:103B400002F04AFFD8B9103C102CDDE921320DF10A
:103B50008C09E9DC013348492244072BCDE92132A5
:103B6000C9E9001400F3858109F10809DAE420AA03
:103B70005946504602F030FF00283FF4F9AC5B464E
:103B8000D3469A46089B002B3FF408AD0899584647
:103B900001F074FF02E50F9C2198012C02F1010253
:103BA00000F1010309F1080140F32D810120072BE9
:103BB000CDE92132C9F80060C9F8040000F38C8116
:103BC0001198129C01330244072BCDE92132C1E93F
:103BD000004000F38D8108310F9CB5EE408B581CDE
:103BE000F1EE10FA074604F1FF3401F1080900F084
:103BF0001C810136224407280E6022924C602190DD
:103C000000F3A28301F11004981C4946A146149CBC
:103C10004C6022441CAB0728229221900B607FF756
:103C200093AC20AA5946504602F0D6FE0028A6D1F1
:103C3000229A0DF18C0987E4DDF80C80002D08BF75
:103C40000A2C80F0908330348DF82F41CDF80C8011
:103C500001250DF22F16A4E620AA5946504602F07F
:103C6000BBFE00288BD1229A0DF18C0941E400BFE4
:103C70008C73000820730008CC73000820AA5946F2
:103C8000504602F0A9FE00287FF479AF229A0DF188
:103C90008C093EE4102C219BDFF844841FDD1025A5
:103CA000464604E0103C102C09F1080916DD0133EA
:103CB0001032072BCDE92132C9E90065F2DD20AAD7
:103CC0005946504602F088FE00287FF458AF103C59
:103CD000102CDDE921320DF18C09E8DCB04601330E
:103CE0002244072BCDE92132C9E900847FF735ACA6
:103CF00020AA5946504602F06FFE00287FF43FAFDD
:103D0000229A2AE41A99002940F38383DDE90E31CF
:103D10008B42A8BF0B46002B1C460DDD219BC9F82A
:103D2000006001332244072B2292C9F804402193FA
:103D300000F3EA8409F108090E9B002CA8BF1B1BA5
:103D4000002B1C4600F33C820E9B33441F46039B12
:103D50005B0500F157821A9B0F998B4203DB039995
:103D6000CD0740F14C8421991298C9F800001198B0
:103D7000C9F804000131024407292292219100F37D
:103D8000E38409F108090F997418E41BCB1A9C42CB
:103D9000A8BF1C46002C0DDD2199C9F80070013127
:103DA000224407292292C9F80440219100F32B856F
:103DB00009F10809002CACBF1C1B1C46002C7FF726
:103DC000C3AB102C219B40F36683102505E009F15D
:103DD0000809103C102C40F35E830133BF491032B8
:103DE000072BCDE92132C9E90015F0DD20AA59469B
:103DF000504602F0F1FD00287FF4C1AEDDE921322A
:103E00000DF18C09E5E7039CE4073FF5CFAE0124F3
:103E1000072BCDE92132C9F80060C9F8044000F34E
:103E20009382023009F11009F1E6002C7FF7EFAE22
:103E3000102C40F38386102508463B4605E00830E9
:103E4000103C102C40F395830133A4491032072B0A
:103E5000CDE92132C0E90015F1DD20AA59465046CE
:103E600002F0BAFD00287FF48AAEDDE9213223A8F2
:103E7000E6E720AA5946504602F0AEFD00287FF43E
:103E80007EAE229A0DF18C09FFF74CBB0399099A7B
:103E9000CD0602F104034DD4039A540644D5099A81
:103EA0000993148800259CE418F0100F03F1040214
:103EB00035D118F0400F099B2DD01C8809920025A0
:103EC000012360E42D2364428DF86330DDF80C801B
:103ED00065EB4505012359E420AA5946504602F0F6
:103EE0007BFD00287FF44BAEDDE9213223A967E694
:103EF00020AA5946504602F06FFD00287FF43FAEDD
:103F0000DDE9213223A967E6039BD9077FF51CABC6
:103F100090E54CAE45E518F4007F40F07D831C68C9
:103F20000992012300252EE4039A12F4007F099AD6
:103F300040F0788314680993002552E4039B13F43E
:103F4000007F099B40F073831C680991E5172246A6
:103F50002B46FFF7E3BBB4EE488BF1EE10FA80F18D
:103F60005C85612F00F0F684412F00F06984059B89
:103F700027F020055A1CA84600F08083472D00F04A
:103F80002A8518EE903A039C002B44F48072C0F20C
:103F90007785B0EE48AB00230A9308930392462D31
:103FA00000F0F683452D40F0DD83B0EE4A0B059B13
:103FB0001EA8591C1BABCDE900300D460A461AABB2
:103FC0000221504600F0C8FE06464119B5EE40AB4E
:103FD000F1EE10FA40F088830B469B1B0F93B8F16B
:103FE000470F1A9B0E9300F05783B8F1460F00F06D
:103FF000E9830E9BFAB2B8F1410F08BF0F3203F10B
:10400000FF3306BFD2B201210021002B1A93B8BFA3
:104010000E9B8DF87020BABFC3F101032D222B2215
:10402000092B8DF8712040F31C850DF17F0EDFF810
:10403000B4C075468CFB0321DA17C2EBA10202EB78
:104040008201A3EB410198463031B8F1630F284655
:1040500005F8011C134605F1FF35EBDC3033821EF9
:10406000DBB29645294605F8013C40F28B850DF1FF
:10407000720201E011F8013B02F8013B8E45F9D1D3
:104080000DF181030DF172021B1A13441CAA9B1A35
:1040900014930F9B149A012B03EB020540F3368512
:1040A000119B1D44002324F480640D9344F480721A
:1040B00010930E9325EAE573039204930A9B002B59
:1040C00040F00B839DF863100593FFF79FBA069AA3
:1040D0001046D117C3E90001FFF754BACC730008AA
:1040E000BC73000867666666A64B0C941393039B2B
:1040F000980640F10581099B073323F00703F3E895
:1041000002450993039AD6070AD554EA050307D056
:10411000302342F002028DF8657003928DF864300E
:10412000039B23F480680223FFF72DBB0C94FFF759
:104130004DBBDDF80C800C94FFF719BB924B0C942F
:104140001393D4E7524207920993FFF703BB43F05E
:104150002003677803930134FFF7F3B843F4007347
:10416000677803930134FFF7ECB820AA594650460C
:1041700002F032FC00287FF402AD229A0DF18C0986
:1041800068E44021584601F08BFDCAF80000CAF8E7
:104190001000002800F0E2844023CAF81430FFF732
:1041A00099B8059D0D96062D28BF062505961096F3
:1041B0000E96089631460495744E0994FFF726BA78
:1041C000102C219B40F3E881102505E009F1080936
:1041D000103C102C40F3E08101336D491032072B65
:1041E000CDE92132C9E90015F0DD20AA5946504633
:1041F00002F0F2FB00287FF4C2ACDDE921320DF1C0
:104200008C09E5E70F9B159D0A964846DDF840901E
:1042100006EB030859460D9BC346DDF85C80B9F1F7
:10422000000F2FD0002B30D1013D09F1FF39219B28
:10423000169C046001334244072B2292C0F804808C
:1042400021936BDC08302B78ABEB07049C42A8BFB2
:104250001C46002C0BDD219B076001332244072BF9
:1042600022924460219300F322812B780830002CA5
:10427000ACBF1C1B1C46002C0BDC1F440D9BB9F172
:10428000000FCFD1002B00F0FC810D9B013B0D9363
:10429000CDE7102CDDF884C023DD0595102663469C
:1042A0000D4604E0103C102C00F1080016DD01332F
:1042B00037491032072BCDE92132C0E90016F1DD74
:1042C00020AA2946504602F087FB002840F01882B9
:1042D000103C102CDDE9213223A8E8DC2946059D9D
:1042E0009C460CF101032A4E2244072BCDE92132D2
:1042F000C0E9006400F31A822B7808301F44BDE740
:104300000399099AC90602F1040319D4039A5206C3
:1043100010D5099A099314880025F3E620AA50467F
:10432000059102F059FB0599002840F00384229A78
:1043300023A888E7039A12F4007F099A40F07F814E
:10434000146809930025DDE620AA5946504602F07C
:1043500043FB00287FF413ACDDE921020DF1940941
:10436000013023A953E408F4806300220397CDF8B9
:104370001080CDF820904CAEDDF85490174698464A
:1043800010E000BF8C730008A0730008B47300082D
:10439000CC730008FCF78EF8002D08BF0A2C20D340
:1043A00004460D460A22002320462946FCF782F8DF
:1043B00094460CF1300C06F801CC204629460A221E
:1043C00000230137013EB8F1000FE3D099F800C097
:1043D0006745DFD1FF2FDDD09D4208BF944280F0BA
:1043E000ED80CDF854900F97DDF82090DDE903784B
:1043F000FFF7D3BA20AA5946504602F0EDFA00283A
:104400007FF4BDAB9DF86310229A0DF18C09FFF784
:1044100060B8219BC348C9F8000001330132012074
:10442000072BCDE92132C9F8040000F3DB8009F144
:104430000809002960D1039B0F9903F001030B4386
:104440003FF482A8219B1299C9F800101199C9F86C
:10445000041001330A44072B2292219300F3F380C6
:1044600009F108090F9901330A44072BCDE92132DC
:10447000C9E900617FF766A8FFF7D3BB20AA5946B8
:10448000504602F0A9FA00287FF479AB229A0DF188
:104490008C09FFF7CABA0133A3492244072BCDE99F
:1044A0002132C9E900147FF74DA8FFF7BABB20AA53
:1044B0005046059102F090FA0599002840F03A83A1
:1044C0002B78229A23A8D2E620AA5946504602F019
:1044D00083FA00287FF453AB229A0DF18C09FFF781
:1044E0001CB8012BDDF80C807FF445AAFFF7ABBBAD
:1044F000069A1A60FFF746B8219B1298C9F8000087
:104500001198C9F8040001330244072B2292219329
:1045100000F3998009F108090029A3DA4C4210310F
:1045200080F23882102505E009F10809103C102CB2
:1045300040F3308201337C491032072BCDE9213220
:10454000C9E90015F0DD20AA5946504602F044FAA8
:1045500000287FF414ABDDE921320DF18C09E5E789
:104560003046FBF74DFE4346CDF814800546FFF775
:10457000BAB80146581C01F108036B4D2190224442
:104580000728C1E9005422923FF7DEAE013003F163
:1045900008091946FFF73BBB013363492244072B47
:1045A000CDE92132C9E900145BDC09F10809FFF704
:1045B000CBBB2D218DF86310FFF717B8179B169909
:1045C000F61A1A46304602F0D3F999F801300BB1C9
:1045D00009F101090A220023204629460027FBF79A
:1045E00069FFDDE620AA5946504602F0F5F9002899
:1045F0007FF4C5AA1A99229A0DF18C0919E70F992F
:104600007418E41BCB1A9C42A8BF1C46FFF7D2BB10
:10461000069A1A80FEF7B6BF1C780992002501237E
:10462000FFF7B1B8147809930025FFF7DAB893F9CA
:1046300000400991E51722462B46FFF76FB8147822
:10464000099300255EE520AA5946504602F0C4F9B8
:1046500000287FF494AADDE921321A990DF18C0922
:104660005AE720AA5946504602F0B6F900287FF4CE
:1046700086AA229A0DF18C09FFF766BB06230593E3
:104680007FE40A9E0F9B1595F3189F4281468B4647
:1046900028BF1F46FFF75FBBDA1C02DB059A934277
:1046A00003DD023F27F02008A3E4DDE90E318B4251
:1046B000C0F2B980E50740F1E881119A9D186405C0
:1046C00003D50E9B002B00F3E28125EAE5730493EA
:1046D000672700230D931093F0E42D2100238DF81C
:1046E00063100593FEF795BF1E9B8B42BFF475AC1C
:1046F00030205A1C1E9218701E9B9942F9D86CE407
:10470000D346AA46FFF73EBA20AA5946504602F0C1
:1047100063F900287FF433AA229A0DF18C09FFF780
:104720000BBB00BF20730008CC73000820AA5046C2
:10473000059102F051F90599002840F0FB812B7892
:10474000229A23A81F4499E520AA5946504602F010
:1047500043F900287FF413AA1A9B229A0DF18C09C1
:10476000FFF711BB1EAA1BABCDE90032B0EE4A0B1E
:10477000059A1AAB0221504600F0EEFA472D064684
:1047800013D1E30700F1E0801E9B4FF0470824E4BB
:104790001EAA1BABCDE90032B0EE4A0B059A1AAB4C
:1047A0000321504600F0D8FA0646059B462D06EB3D
:1047B00003017FF40BAC3378302B00F092811A9B0D
:1047C000194403E40E99059A04F00103002943EA11
:1047D000020340F3A081002B40F07E810E9D6627EE
:1047E000620500F1558125EAE573049371E7059BA5
:1047F0009DF8631004931D46059009940D90109048
:104800000E90FEF703BF20AA5946504602F0E4F886
:1048100000287FF4B4A91A9B0F99229ACB1A0DF1A4
:104820008C09FFF7C7BA0F9B119A9D180E9B002B9E
:1048300040F364816727D3E700230593FEF782BD29
:1048400030238DF8643058238DF86530039B43F096
:104850000204059B632B00F3B4800023089333AE5E
:10486000039B43F48173039318EE903A27F02005DD
:10487000002BA8465ADBB0EE48AB00230A93612F09
:1048800000F0DD80412F7FF48AABB0EE4A0B1AA80E
:1048900002F032F8B4EE007B20EE070BB5EE400BD1
:1048A000F1EE10FA01D101231A93B848059BB3EE3B
:1048B000005B5A1E334604E0B5EE400BF1EE10FAF1
:1048C00013D020EE050BFDEEC07BB2F1FF3F17EEDB
:1048D000901A415CB8EEE76B1D4630EE460B03F8CC
:1048E000011B114602F1FF32E6D1B6EE006BB4EEC9
:1048F000C60BF1EE10FA32DCB4EE460BF1EE10FA14
:1049000003D117EE902AD20729D40029FFF665AB10
:104910004A1C1A44302103F8011B9A42FBD1FFF7CD
:104920005CBB00230893049B039C03932D230A93F1
:10493000B1EE48ABA3E7584620AA514602F04CF826
:10494000BAF80C30FEF72CBE059B4FF04708F11863
:10495000FFF73CBB30238DF86430782374E71E9555
:1049600013F8011CC57BA9421A460AD14FF0300C3E
:1049700002F801CC1E9A511E1E9112F8011C8D42A4
:10498000F6D0392916BF0131817AC9B202F8011C6B
:10499000FFF723BB01337E492244072BCDE92132A7
:1049A000C9E900147FF75CAD20AA5946504602F0D1
:1049B00013F800287FF4E3A8DDE921320DF18C091A
:1049C00050E5591C504601F06BF90646002800F0EE
:1049D000CD80089044E7002B08BF01230593039B7B
:1049E00043F48073049318EE903A002B99DBB0EEF9
:1049F000480BB0EE48AB1EAA1BABCDE9003202213A
:104A0000059A1AAB504600F0A7F90023049A039CBC
:104A10000A93064603920893B3E618EE903A002BE9
:104A2000B4BF2D219DF863105A4E5B4BB8BF8DF873
:104A30006310FEF7DCBDBBF80C30FEF7B1BD1AA861
:104A4000B0EE4A0B01F058FFB4EE007B20EE070BEE
:104A5000B5EE400BF1EE10FA01D101231A934F4845
:104A600024E700296CD130228DF872200DF17302F9
:104A7000303302F8013B1CABD31A1493FFF709BB88
:104A80000023039C0893039250E70E9D17E66727C7
:104A900015990B78FF2B71D000240E9A204603E065
:104AA00001300131FF2B08D0934206DAD21A4B783D
:104AB000002BF5D10B780134F4E715910E9210908C
:104AC0000D940D9A109B1344179A02FB035525EA87
:104AD000E5730493FFF7F2BA119BCD1815446627CE
:104AE0007EE6B5EE40ABF1EE10FA3FF468AE059B02
:104AF000C3F101031A931944FFF768BAC3F1010324
:104B00001D4425EAE57304936727E2E5E3077FF593
:104B1000C9AAFFF7C5BA23B9012304931D46662726
:104B2000D7E5119B5D1C059B1D4425EAE5730493A5
:104B30006627CEE5D3468A46FFF724B84B461CE5E8
:104B40000DF1720294E7099B677853F8041B0993EF
:104B5000144641EAE1720592FEF7F3BB0C23CBF851
:104B600000304FF0FF330693FEF721BDBBF80C3049
:104B700043F04003ABF80C30FEF712BD00230D9359
:104B800010939EE702231493FFF783BAA0730008E3
:104B9000CC73000884730008887300088C730008C5
:104BA0002DE9F047DFF87CA00646DAF800009846C9
:104BB0000F46914601F070F8194B1B68D3F8484135
:104BC00024B36568DAF800001F2D24DC4EB9AB1C55
:104BD0000135656044F8237001F060F80020BDE8FD
:104BE000F08704EB85030122C3F88890D4F888117C
:104BF000AA401143022EC4F88811C3F80881E6D1F7
:104C0000D4F88C311A43C4F88C21E0E703F5A6747C
:104C1000C3F84841D5E701F041F84FF0FF30DEE737
:104C20007873000838040020024B13B10248FEF7E5
:104C300085BA704700000000493100082DE9F04FA7
:104C400003690E69B34283B0C0F28280013E01F174
:104C5000140700F1140A57F826305AF826200133B9
:104C60008346B00000909A420AEB860007EB860963
:104C70000190B2FBF3F836D300252A46BC465046D5
:104C80005CF8044B03681FFA84FE08FB0E554FEADC
:104C9000154E240C08FB04E4ADB2551BA2B2C2EBC6
:104CA000134215FA83F302EB23429BB243EA024319
:104CB000E14540F8043B4FEA14454FEA2242DFD277
:104CC000009B5AF8033073B9019B043B9A4504D307
:104CD00007E09A4506F1FF3603D253F80429002A6B
:104CE000F7D0CBF81060584601F0E4FC00282BDB2D
:104CF00008F101085046002357F8041B04688AB2E3
:104D00009A1A0B0C12FA84F2C3EB144303EB2243FE
:104D100092B242EA0342B94540F8042B4FEA2343DA
:104D2000EAD25AF826200AEB86036AB9043B9A4570
:104D300004D307E09A4506F1FF3603D253F804295D
:104D4000002AF7D0CBF81060404603B0BDE8F08FE2
:104D5000002003B0BDE8F08F2DE9F04F57EC106B49
:104D600095B0056C0391CDE90932CDE9066704469B
:104D70004DB1426C6A6001239340AB60294601F05B
:104D800093FA00232364B7F100081E9AB4BF0123ED
:104D900000231360BE4BBCBF28F00048CDF81C8038
:104DA00033EA080300F0A2809DED067BB5EE407B60
:104DB000F1EE10FA8DED007B0ED1099A01231360FC
:104DC0001F9B002B00F03C82B2481860431E0493E6
:104DD000049815B0BDE8F08F9DED000B12AA13A941
:104DE000204601F019FD5FEA185A834640F094808E
:104DF000DDE912130B4403F23242202A40F3FE8213
:104E0000C2F1400203F2124008FA02F2C6403243F5
:104E100007EE902AB8EE677B03F1FF3A8DED047B35
:104E20000598DDE90423A0F1F87301200E9043EC0E
:104E3000172BB7EE086B9FED904B37EE466B9FED4F
:104E4000907B9FED915BA6EE047B06EE90AAB8EEF8
:104E5000E66BA6EE057BFDEEC76BB5EEC07BF1EE13
:104E600010FA16EE905A08D5B8EEE66BB4EE476B22
:104E7000F1EE10FA18BF05F1FF35A1EB0A0A162D65
:104E80000AF1FF3700F24181834B03EBC50393ED39
:104E9000007B9DED006BB4EEC76BF1EE10FA51D5BF
:104EA0000023002F05F1FF350D93C0F233814FF041
:104EB000000A002D4CDA6B420C93039B0895092BDA
:104EC000AAEB050A4FF0000549D8052B40F39D8257
:104ED000043B03930026039B023B032B00F21E813D
:104EE000DFE813F0AF03AC03A3038203099A42F295
:104EF0000F73C8F31308136058EA06031BD11F9BF6
:104F0000002B00F06085654B049308331F9A0498CA
:104F1000136015B0BDE8F08F0199C1F31301DDE90D
:104F20000023002041F07F53AAF2FF3A12990E901D
:104F300043F440137BE71F9B002B40F04483584B06
:104F4000049345E70023002F0D93C0F2E3809A46B7
:104F500000230C93039B0895092B2F44B5D90023FC
:104F60000126CDE90A364FF0FF380393C1460021F0
:104F70006164CDF83C90204601F070F9B8F10E0F55
:104F80000490206400F2D980002E00F0D6800899A9
:104F9000002940F3D983404B01F00F0203EBC20319
:104FA000CE0593ED007B4FEA211340F179833D4A12
:104FB0009DED005B92ED086B03F00F03032185EE7E
:104FC000065B5BB1374AD80704D592ED006B01311F
:104FD00027EE067B5B1002F10802F4D185EE076B29
:104FE0000D9B3BB1B7EE007BB4EEC76BF1EE10FA50
:104FF00000F1918407EE901AB8EEE75BB1EE0C7BFE
:10500000A5EE067B8DED107B1199DDE91023A1F152
:105010005073B9F1000F00F07F83DDF820C04946DE
:10502000BDEEC67B1C4817EE106A00EBC10010ED08
:10503000024BB8EEC77B0B9836EE477B43EC162B42
:10504000049B3036F6B25A1C002800F01784B6EEE6
:10505000003B83EE045B35EE465BB4EEC75BF1EEDE
:1050600010FA1E7000F38B84B7EE003BB2EE044BD7
:10507000002330E0AFF3008061436F63A787D23F26
:10508000B3C8608B288AC63FFB799F501344D33F37
:105090000000F07F2173000828740008E073000806
:1050A000DC730008007400088B4246DA27EE047BAC
:1050B00025EE045BBDEEC76B16EE100AB8EEC66BAC
:1050C000303037EE467BB4EEC57BF1EE10FA02F8D5
:1050D000010B00F1548433EE476BB4EEC56BF1EE77
:1050E00010FA03F10103DFD50CF1010304990893D1
:1050F00002E0914200F03184914612F8013D392BD3
:10510000F7D00133DBB2137061E10123002F0D935F
:10511000BFF6CDAECAF1010A0027CAE600266664D2
:105120003146204601F09AF84FF0FF330F9399462D
:10513000012304900A9620640B93139B002B5DDBE4
:10514000089A0E2A5ADCBD4B03EBC20393ED005BB9
:105150000A9B002B17DAB9F1000F14DC40F0F08243
:10516000B1EE047B25EE075B9DED007BB4EEC57BC5
:10517000F1EE10FAC8464E4600F27E820A9BDDF838
:105180001090DA437FE29DED007B87EE056BBDEE6C
:10519000C66B9DED004B16EE103A049A3033B9F110
:1051A000010FB8EEC67B02F8013BA7EE454BB0EE0F
:1051B000447B00F02483B2EE043B012310E087EE31
:1051C000056BBDEEC66B994516EE101A01F1300164
:1051D000B8EEC64B02F8011BA4EE457B00F00F832E
:1051E00027EE037BB5EE407BF1EE10FA03F10103ED
:1051F000E5D1089B013308939146E8E00B9A2AB366
:10520000039A012A40F36C820C9B09F1FF38434555
:1052100080F243820C9BCDF83080A8EB03031D4441
:105220004FF00008B9F1000FC0F21483CDF800A0D0
:105230004F44CA440121204601F0D6F806460AE050
:105240007F4B0493049815B0BDE8F08FDDF83080F3
:105250000B9ECDF800A0009A002A0ADD002F08DD81
:10526000BA421346A8BF3B46D21AAAEB030A0092E1
:10527000FF1A0C9BE3B10B9B002B00F09D81B8F152
:10528000000F10DD31464246204601F059F95A46DA
:1052900001460646204601F0B1F85946034620462D
:1052A0009B4601F001F80C9BB3EB080240F08581AE
:1052B0000121204601F098F8002D804600F3A780D8
:1052C000039B012B40F3838100230C930120002DCD
:1052D00040F0A980384410F01F0000F08D80C0F12C
:1052E0002003042B40F37383C0F11C00009B034494
:1052F000824400930744BAF1000F05DD5946524637
:10530000204601F06DF98346002F05DD41463A46FF
:10531000204601F065F980460D9B002B40F033815B
:10532000B9F1000F40F31981089B013308930B9BDF
:10533000002B40F09380049F012503E000F0BEFFA6
:105340000135834641465846FFF778FC4D4500F14C
:10535000300A07F801AB59464FF000034FF00A023C
:105360002046EBDBB9F1000F049BD8BF4FF00109D9
:105370009944002759460122204601F031F941465F
:10538000834601F097F9002819F8012C40F3928127
:10539000049909F1FF3304E0994200F09A8113F86F
:1053A000012D392A03F10109F6D001321A70414664
:1053B000204600F079FF56B12FB1B74203D03946ED
:1053C000204600F071FF3146204600F06DFF59463F
:1053D000204600F069FF002389F80030099B1A4637
:1053E000089B13601F9B002B3FF4F2AC0498C3F89A
:1053F000009015B0BDE8F08F1C2077E7C2F12002C5
:1054000006FA02F207EE902A04E5012663E501465A
:105410002A46204601F094F8039B012B804640F376
:10542000BA8100230C93D8F8103008EB8303186975
:1054300000F08AFFC0F120004CE700BF287400088C
:1054400020730008314600230A22204600F036FF70
:105450000F9B002B064640F3A9829946009B002B28
:1054600005DD31461A46204601F0BAF806460C9B87
:10547000002B40F0DB813546069B0499039803F02E
:1054800001024B1E4B440D9202430C920B93894632
:1054900041465846FFF7D2FB314603465846009333
:1054A00001F008F92A4607464146204601F020F956
:1054B000009B03F13002C3688246002B3FD10146B6
:1054C00058460A9201F0F6F851460690204600F040
:1054D000EBFE069B0A9A1BB90C99002900F05B822F
:1054E000002F09F1010AC0F26B8103990F430D9956
:1054F000394300F06581002B00F3B0810B9B89F8E4
:105500000020994500F0B581594600230A22204623
:1055100000F0D4FEAE42834631464FF000034FF018
:105520000A02204613D000F0C9FE29460646002391
:105530000A22204600F0C2FED1460546A8E70146F1
:105540002046069200F0B0FE069A0123C8E700F05C
:10555000B5FED146064605469AE7039B022B79DC49
:10556000089B013308930B9B002B7FF477AF4146D8
:105570005846FFF763FBDDF8109000F1300A09F898
:1055800001AB0027F6E64146584601F093F80028A3
:10559000BFF6C6AE594600230A22204600F08EFE12
:1055A000089B5D1E0B9B8346002B7FF44BAF0F9B2C
:1055B000002B49DD9946BEE60C9A5946204600F07C
:1055C000BFFF834674E6CD4B049303339EE4DDE9CD
:1055D000061200297FF478AEC2F31303002B00F00B
:1055E000E480069B0C9371E601230B930A9B089AB7
:1055F000134403F10109B9F1010FCC460F93B8BF71
:105600004FF0010C0021BCF1170F6164C8467FF711
:10561000B2AC012204235B0003F114006045114683
:1056200002F10102F7D96164A5E401230B930A9BFF
:10563000002B39DD0F9399469C46E3E700230B933B
:10564000D4E700230B93F2E7039B022B8FDDDDF8F9
:105650003C900895B9F1000F7FF490AD41464B4660
:105660000522204600F02AFE01468046584601F0F9
:1056700021F800287FF782ADDDF81090089A3123D9
:1056800009F8013B0132531C41462046089300F0C3
:105690000BFE002E7FF497AE99E6A3EB0808C1E558
:1056A0009DED005B02218CE44FF00108C146CDF86E
:1056B00028805CE403D11AF0010F7FF469AE09F190
:1056C000FF3301E013F8012D302A03F10109F9D06D
:1056D0006DE6089A01320892049A3123137066E647
:1056E0000E9A002A00F0FF8003F23343CDF800A0A9
:1056F000DDF830801F449A449CE507EE901AB1EE25
:105700000C5BB8EEE77BA7EE065B8DED105B1199A5
:10571000DDE91023A1F15073B1EE047B36EE477B37
:1057200043EC162BB4EEC67BF1EE10FA00F32181A8
:10573000B1EE466BB4EEC67BF1EE10FA7FF5FDAC30
:105740004FF00008464619E500F0E080089B6C4ADF
:105750005B4203F00F0102EBC10292ED006B9DED85
:10576000007B1B1127EE066B00F02781B0EE467B15
:10577000644A00200221DE0705D592ED005B01316D
:10578000012027EE057B5B1002F10802F3D100280F
:1057900006FE076B24E4DDE9061200297FF441AE22
:1057A000C2F31303002B40F00B81574B1340002B27
:1057B00000F0E38001230AF1010A01370C9385E52B
:1057C000002BCDF80C90D146924612DD59460122AD
:1057D000204600F005FF4146834600F06BFF00289D
:1057E00040F3D280BAF1390F00F0BD80009B03F185
:1057F000310A039B374683F800A02E46D7E5089B65
:1058000037EE077B0133B4EEC57BF1EE10FA089357
:1058100008DCB4EE457BF1EE10FA05D116EE103A35
:10582000DB0701D5049967E49146D0E5716820460D
:1058300000F014FD3369023305469A0006F10C01AD
:105840000C30FAF79DFD29460122204600F0C8FEE3
:10585000054611E6AAEB09030093EBE4392ACDF8DB
:105860000C90D1467FD0531C039A374613702E46B6
:105870009DE5D146374692462E467BE5049B26EEB3
:10588000044B01291E7012D0B2EE045B049B194434
:1058900027EE057BBDEEC76B16EE103A303302F8EB
:1058A000013B8A42B8EEC66B37EE467BF0D1B6EECE
:1058B000006B34EE065BB4EEC75BF1EE10FA3FF519
:1058C00013AC36EE446BB4EEC76BF1EE10FA7FF713
:1058D00034AC9146013A19F8013C302BF9D00CF167
:1058E0000103089373E5129BCDF800A0C3F13603C2
:1058F000DDF830801F449A449CE400BFDC7300084C
:1059000028740008007400080000F07F9DED006B13
:105910000221FFF765BBB9F1000F3FF4EEAE0F981F
:1059200000287FF70AACB2EE044BB1EE0C5B0131FC
:1059300007EE901A26EE046BB8EEE77BA6EE075B47
:105940008DED105B1199DDE91023A1F150730899D9
:1059500001F1FF3C0146FFF763BB089B013308934D
:105960003123137033E5039B392237461A702E46D4
:105970000EE54FF0000846467EE60C93A6E40CF1D7
:1059800001030893914622E57FF433AF1AF0010F2B
:105990007FF428AF2DE7392ACDF80C90924609F113
:1059A0000109E0D0002F3FF721AF22E7039B022B34
:1059B0003FF74DAEDDF83C9050E50221FFF710BBFC
:1059C000069B0C932FE5044B0493FFF701BA3FF4B9
:1059D00092ACC0F13C0089E4E0730008F8B5244FB4
:1059E0000C46064600F02EFCBB685D68C4F57E617F
:1059F0000F3125F003054B1923F47F6323F00F03C8
:105A0000A3F58054B4F5805F07DB0021304600F039
:105A100061FFBB682B44984204D0304600F018FC6C
:105A20000020F8BD6142304600F054FF01300DD037
:105A3000104AB96813682D1B45F0010530461B1B41
:105A40004D60136000F004FC0120F8BD00213046D9
:105A500000F040FFBA68831A0F2BDEDD064C0549C3
:105A6000246843F00103001B53600860D5E700BFC2
:105A7000A8050020D8090020B0090020002963D023
:105A8000F8B50C46064600F0DDFB54F8045C7D4991
:105A900025F00100A4F1080C0CEB00038F685A6894
:105AA0009F4222F0030200F08E80ED075A6003EB64
:105AB000020736D454F808EC7C68ACEB0E0C01F10C
:105AC0000807DCF80850BD42704404F0010468D0B7
:105AD000DCF80CE0C5F80CE0CEF80850002C00F023
