:020000040800F2
:100000000000082081700008A96F0008AB6F00088D
:10001000AD6F0008AF6F0008B16F0008000000006E
:10002000000000000000000000000000B36F0008A6
:10003000B56F000800000000B76F0008B96F000836
:10004000D1700008D1700008D1700008D17000088C
:10005000D1700008D1700008D1700008D17000087C
:10006000D1700008D1700008D1700008D17000086C
:10007000D1700008D1700008D1700008D17000085C
:10008000D1700008D1700008D1700008C16F00085D
:10009000D16F0008E16F0008F16F0008D17000080F
:1000A000D1700008D1700008D1700008D17000082C
:1000B00001700008D1700008D1700008D1700008EC
:1000C000D1700008D1700008D1700008D17000080C
:1000D000D1700008D1700008D170000811700008BC
:1000E000D1700008D1700008D1700008D1700008EC
:1000F000D1700008D1700008D1700008D1700008DC
:10010000D170000821700008D1700008D17000087B
:10011000D1700008D1700008D1700008D1700008BB
:10012000D1700008D1700008D1700008D1700008AB
:10013000D1700008D1700008D1700008D17000089B
:10014000D1700008D1700008D1700008D17000088B
:10015000D1700008D1700008D1700008D17000087B
:10016000D1700008D1700008D1700008D17000086B
:10017000D1700008D1700008D170000800000000A4
:10018000D1700008D1700008D1700008D17000084B
:10019000D1700008D1700008D1700008D17000083B
:1001A000D1700008D1700008D1700008D17000082B
:1001B000D1700008D1700008D1700008D17000081B
:1001C000D1700008D170000800000000D170000854
:1001D000D1700008D1700008D1700008D1700008FB
:1001E000D1700008D1700008D1700008D1700008EB
:0801F000D1700008D170000875
:10020000844641EA000313F003036DD1403A41D321
:1002100051F8043B40F8043B51F8043B40F8043BE0
:1002200051F8043B40F8043B51F8043B40F8043BD0
:1002300051F8043B40F8043B51F8043B40F8043BC0
:1002400051F8043B40F8043B51F8043B40F8043BB0
:1002500051F8043B40F8043B51F8043B40F8043BA0
:1002600051F8043B40F8043B51F8043B40F8043B90
:1002700051F8043B40F8043B51F8043B40F8043B80
:1002800051F8043B40F8043B51F8043B40F8043B70
:10029000403ABDD2303211D351F8043B40F8043B10
:1002A00051F8043B40F8043B51F8043B40F8043B50
:1002B00051F8043B40F8043B103AEDD20C3205D320
:1002C00051F8043B40F8043B043AF9D2043208D018
:1002D000D2071CBF11F8013B00F8013B01D30B888A
:1002E00003806046704700BF082A13D38B078DD068
:1002F00010F003038AD0C3F10403D21ADB071CBF3A
:1003000011F8013B00F8013B80D331F8023B20F8A3
:10031000023B7BE7043AD9D3013A11F8013B00F8DC
:10032000013BF9D20B7803704B7843708B78837064
:100330006046704700000000000000000000000060
:10034000A2EB0300704700BF02780B78012A28BF98
:100350009A42F5D16DE9044540EA0104CDE902670E
:100360006FF0000C4FEA447212B380EA010414F0FB
:10037000070F6AD100F0070420F0070004F003051E
:1003800021F007014FEAC505F0E8042314F0040F3B
:10039000F1E804670CFA05F462EA040266EA04066E
:1003A0000AD063EA0403624667EA0407664603E08C
:1003B000F0E80423F1E8046782FA4CF582EA0604C7
:1003C000A4FA8CF46CBB83FA4CF583EA0705A5FA12
:1003D0008CF595B950E9022351E9026782FA4CF590
:1003E00082EA0604A4FA8CF483FA4CF583EA070542
:1003F000A5FA8CF52543DBD09CB92DBAB5FA85F466
:1004000024F0070427FA04F1DDE9026723FA04F374
:1004100003F0FF0001F0FF01FDE80445A0EB01003F
:10042000704724BAB4FA84F424F0070426FA04F1DD
:10043000DDE9026722FA04F202F0FF0001F0FF0199
:10044000FDE80445A0EB0100704714F0030F3CD118
:1004500010F0030428D150F8082B51F8083B82FA19
:100460004CF582EA0305A5FA8CF55DB950F8042C29
:1004700051F8043C82FA4CF582EA0305A5FA8CF5A2
:10048000002DE8D02DBAB5FA85F424F0070423FA3C
:1004900004F122FA04F202F0FF0001F0FF01FDE88E
:1004A0000445A0EB010070474FEAC40420F00300AC
:1004B00050F8082B21F0030151F8083B0CFA04F422
:1004C00062EA040263EA0403C9E710F003041AD0E5
:1004D000A1EB040120F00300E40750F8042B06D040
:1004E0000FD28B785FFAA2F4E41A06D12BB1CB7845
:1004F0005FFAB2F4E41A00D11BB920465DF8104B44
:10050000704701F1040150F8042BCC0721F00301DE
:1005100051F8043B48D824D222F07F4482FA4CF5AB
:1005200094EA1325A5FA8CF50AD165B951F8043B74
:1005300084EA0204B4EB036F0ED150F8042BEBE70E
:100540004FEA132355E035F07F454DD10878FDE89B
:100550000445C0F1000070474FEA126203F0FF0348
:1005600047E002EA1C4482FA4CF594EA1345A5FAE6
:100570008CF50AD165B951F8043B84EA0204B4EB66
:10058000034F0CD150F8042BEBE74FEA134330E054
:1005900015EA1C4528D10B884FEA124229E04FEAA0
:1005A000124203EA1C4324E002F0FF0482FA4CF5F5
:1005B00094EA1365A5FA8CF50AD165B951F8043BA4
:1005C00084EA0204B4EB032F09D150F8042BEBE7C3
:1005D0004FEA13630DE015F0FF0F05D10B684FEAEA
:1005E000122223F07F4304E04FF00000FDE80445B1
:1005F000704712BA1BBA82FA4CF482EA0304A4FAD6
:100600008CF5B5FA85F402FA04F203FA04F34FEA22
:100610001260FDE80445A0EB136070470000000085
:1006200000000000000000000000000000000000CA
:1006300000000000000000000000000000000000BA
:1006400090F800F06DE9024520F007016FF0000C12
:1006500010F0070491F820F040F049804FF00004BA
:100660006FF00700D1E9002391F840F000F1080095
:1006700082FA4CF2A4FA8CF283FA4CF3A2FA8CF3CD
:100680004BBBD1E9022382FA4CF200F10800A4FA34
:100690008CF283FA4CF3A2FA8CF3E3B9D1E9042388
:1006A00082FA4CF200F10800A4FA8CF283FA4CF3BF
:1006B000A2FA8CF37BB9D1E9062301F1200182FA79
:1006C0004CF200F10800A4FA8CF283FA4CF3A2FA7F
:1006D0008CF3002BC6D0002A04BF04301A4612BA8D
:1006E000B2FA82F2FDE8024500EBD2007047D1E990
:1006F000002304F00305C4F100004FEAC50514F01F
:10070000040F91F840F00CFA05F562EA05021CBFEF
:1007100063EA050362464FF00004A9E70000000009
:1007200001F0FF01102A2BDB10F0070F08D010F8A2
:10073000013B013A8B422DD010F0070F42B3F6D1A6
:10074000F0B441EA012141EA014122F007047FF0BF
:1007500000070023F0E80256083C85EA010586EA16
:10076000010685FA47F5A3FA87F586FA47F6A5FA52
:1007700087F68EB9EED1F0BC01F0FF0102F007025E
:1007800032B110F8013B013A83EA010313B1F8D109
:100790000020704701387047002D06BF35460338EA
:1007A000073815F0010F07D1013015F4807F02BF23
:1007B000013015F4C03F0130F0BC0138704700BF74
:1007C00053B94AB9002908BF00281CBF4FF0FF31B8
:1007D0004FF0FF3000F00CB8ADF1080C6DE904CE1D
:1007E0000DF00AFADDF804E0DDE9022304B07047F9
:1007F000704700BF10B5054C227832B9044B13B1D5
:100800000448AFF300800123237010BDD00C0020FA
:1008100000000000A4DE000808B5034B1BB103492B
:100820000348AFF3008008BD00000000D40C002096
:10083000A4DE000810B504460E4B18784FF47A7306
:10084000B3FBF0F30C4A1068B0FBF3F000F088FC47
:1008500068B90F2C01D901200AE0002221464FF08F
:10086000FF3000F03DFC054B1C60002000E0012043
:1008700010BD00BF00000020200300200400002065
:1008800008B5032000F01AFC0020FFF7D3FF06F0A4
:10089000A7FA002008BD0000034A1168034B1B782B
:1008A0000B441360704700BF880D0020000000203B
:1008B000014B1868704700BF880D002038B504460A
:1008C000FFF7F6FF0546B4F1FF3F02D0044B1B785B
:1008D0001C44FFF7EDFF401BA042FAD338BD00BF18
:1008E00000000020002800F0A18038B5044690F8F0
:1008F0002030D3B12268136823F002031360FFF79E
:10090000D7FF054623685A6812F0020F10D0FFF790
:10091000CFFF401B0A28F5D9636A43F400336362B2
:10092000052384F82030012038BD06F071FAE1E794
:100930001A6842F001021A60FFF7BAFF0546236801
:100940005A6812F0010F0DD1FFF7B2FF401B0A28C1
:10095000F5D9636A43F400336362052384F82030D9
:100960000120E1E7227E012A3DD01A6822F08002B0
:100970001A60637E012B3BD02268136823F040038A
:100980001360A37E012B39D02268136823F0200363
:100990001360E37E012B37D02268136843F0100305
:1009A0001360237F012B35D02268136823F00803DE
:1009B0001360637F012B33D02268136823F0040394
:1009C0001360A368E2681343226913436269134307
:1009D0006268013A21681343CB6100206062012301
:1009E00084F82030A0E71A6842F080021A60C0E75D
:1009F0002268136843F040031360C2E7226813685B
:100A000043F020031360C4E72268136823F0100347
:100A10001360C6E72268136843F008031360C8E751
:100A20002268136843F004031360CAE7012070478B
:100A3000036890F82020013AD2B2012A05D9436A0E
:100A400043F4802343620120704770B4434A9342C9
:100A500000D0434BD3F8002242F00102C3F8002239
:100A60003F4A934243D04A6902F01F02012000FA34
:100A700002F2D3F81C02D44320EA0200C3F81C029D
:100A8000C869A8B9D3F80C022040C3F80C02CE689C
:100A90008D88486945EA0645483043F830508E68ED
:100AA0000D88486945EA0645483003EBC0004560BB
:100AB000C869012829D0886900283DD1D3F80402EB
:100AC0002040C3F80402086900283BD1D3F814027F
:100AD0000440C3F81442096A012939D0D3F800222E
:100AE00022F00102C3F80022002070BC7047D3F846
:100AF000002222F47C52C3F80022D3F80022486A74
:100B000042EA0022C3F80022ADE7D3F80C021043FA
:100B1000C3F80C020E688D88486945EA06454830DE
:100B200043F830508E688D89486945EA064548305B
:100B300003EBC0004560BEE7D3F804021043C3F8DE
:100B40000402C0E7D3F814021043C3F81402C2E74A
:100B5000D3F81C120A43C3F81C22BFE7003400403C
:100B60000064004070B5044690F82050EDB2012DAD
:100B700006D0436A43F4002343620125284670BD32
:100B8000022380F820300268136823F00103136009
:100B9000FFF78EFE064623685B6813F0010F0CD04A
:100BA000FFF786FE831B0A2BF5D9636A43F40033F3
:100BB0006362052384F82030E0E700256562DDE705
:100BC00070B490F820400568AD68013CE4B2012C97
:100BD00065D815F0E05F5CD0C5F30164022C05D93F
:100BE000436A43F40003436201205DE00125A54010
:100BF0001D608B68002B39D10E68CB68056843EA0D
:100C0000465604F118031B01EE5003680D6904F108
:100C1000180603EB06135D600B7D012B31D0D179F3
:100C200093791B0443EA0163517943EA012315795F
:100C300001682B4301EB0411C1F88C31D178937812
:100C40001B0443EA0163517843EA012311780268E7
:100C50000B4302EB0412C2F88831026818342401F5
:100C6000135943F00103135100201DE04D6843EA7E
:100C7000C503CD6806682B4304F118052D01735197
:100C8000C3E7036803EB0613596841F480715960A8
:100C9000C5E7436A43F400134362012004E0436A5A
:100CA00043F480234362012070BC704790F82030E9
:100CB000013BDBB2012B01D9002070470368986823
:100CC00010F0806000D001209A6812F0006F00D010
:100CD00001309B6813F0805FEFD00130704730B473
:100CE00090F82040013CE4B2012C00F2918051B90F
:100CF0000468E46814F0030F10D1436A43F400134E
:100D00004362012089E00468246914F0030F05D1CF
:100D1000436A43F40013436201207EE0056801F159
:100D20001B0424012C5904F004049460002C61D1AC
:100D3000056801F11B0424012C59640D1460056839
:100D400001F11B0424012D59C5F34005D560056848
:100D500025446D6805F00F051561056825446D682B
:100D6000C5F30725956105682C446468240C54611B
:100D7000026802EB0112D2F8B8211A70026802EB85
:100D80000112D2F8B821C2F307225A70026802EBAE
:100D90000112D2F8B821C2F307429A70026802EB3E
:100DA0000112D2F8B821120EDA70026802EB0112B9
:100DB000D2F8BC211A71026802EB0112D2F8BC21F0
:100DC000C2F307225A71026802EB0112D2F8BC2169
:100DD000C2F307429A71026802EB0112D2F8BC21F9
:100DE000120EDA7171B90268D36843F02003D36040
:100DF000002012E0056801F11B0424012C59E408CD
:100E000054609CE70268136943F020031361EFE725
:100E1000436A43F480234362012030BC704790F85A
:100E20002030013BDBB2012B01D90020704721B9F2
:100E30000368D86800F0030070470368186900F081
:100E40000300704790F82030013BDBB2012B05D93D
:100E5000436A43F480234362012070470268536968
:100E600019435161002070477047704770477047C1
:100E700070472DE9F84F054603685C69D3F8048094
:100E80009F68D3F80CB0D3F810A0D3F8189014F0E2
:100E900001063BD017F0010616D001229A6017F028
:100EA000020F08D117F0040F0CD117F0080606D076
:100EB0004FF4805608E005F05DF8002604E0FFF7E7
:100EC000D3FF01E04FF4006617F4807F0DD02B684C
:100ED0004FF480729A6017F4007F40F0868017F418
:100EE000806F00F0868046F4005617F4803F0DD0E6
:100EF0002B684FF480329A6017F4003F40F08380F3
:100F000017F4802F00F0838046F4004614F0080F99
:100F100007D01BF0100F04D046F400762B68102287
:100F2000DA6014F0040F02D01BF0080F79D114F02E
:100F3000020F04D02B68DB6813F0030F78D114F094
:100F4000400F07D01AF0100F04D046F480662B68CB
:100F500010221A6114F0200F02D01AF0080F6BD182
:100F600014F0100F04D02B681B6913F0030F6AD123
:100F700014F4003F02D018F0100F68D114F4803F31
:100F800002D018F0080F69D114F4004F7AD018F08D
:100F9000040F74D014F4807F04D019F0010F01D035
:100FA00046F0010614F4007F04D019F0020F01D0BE
:100FB00046F0020614F4806F04D019F0040F01D03B
:100FC00046F0040614F4006F59D019F0700956D099
:100FD000B9F1400F65D058D8B9F1200F5ED0B9F102
:100FE000300F42D146F0200644E0284605F004F8D0
:100FF0007BE717F4006F02D046F4804675E7284679
:10100000FFF733FF71E7284605F03AF87EE717F45B
:10101000002F02D046F4803678E72846FFF726FFF7
:1010200074E72B680822DA60284604F07FFF7EE729
:10103000284604F041FF82E72B6808221A612846FF
:1010400004F086FF8CE7284604F05EFF90E72B68EB
:1010500010225A602846FFF70AFF8FE72B68082204
:101060005A602846FFF704FF8EE7B9F1100F01D14F
:1010700046F008062A68936923F0700393612B6891
:1010800004225A609EB9BDE8F88FB9F1500F0BD019
:10109000B9F1600FEED146F48076EBE746F010062A
:1010A000E8E746F04006E5E746F08006E2E76B6ACF
:1010B0001E436E62284605F027F8E4E70649CB6830
:1010C00023F4E0631B041B0C000200F4E060034304
:1010D000024A1A43CA60704700ED00E00000FA05BA
:1010E00030B4154BDB68C3F30223C3F10704042CAF
:1010F00028BF04241D1D062D14D9033B4FF0FF35D6
:1011000005FA04F421EA0401994005FA03F322EAFE
:1011100003031943002807DB0901C9B2074B19541F
:1011200030BC70470023E9E700F00F000901C9B2A5
:10113000034B1954F4E700BF00ED00E000E400E0C9
:1011400014ED00E0002807DB00F01F024009012336
:101150009340024A42F82030704700BF00E100E0AF
:101160000138B0F1807F0AD2064B5860064AF02160
:1011700082F823100020986007221A60704701202F
:10118000704700BF10E000E000ED00E090F835305F
:10119000DBB2022B03D08023436501207047052377
:1011A00080F835300268136823F0010313600020D3
:1011B0007047000000230F2B00F2E380F0B482B0F0
:1011C00039E0092200E00022B2403A4302346D4E79
:1011D00046F824206C4A1468EA4324EA05064F685E
:1011E00017F4803F01D045EA0406674C2660646826
:1011F00002EA04064F6817F4003F01D045EA0406EE
:10120000614C6660A46802EA04064F6817F4801F08
:1012100001D045EA04065C4CA660E46822404E68B2
:1012200016F4001F01D045EA0402574CE260013376
:101230000F2B00F2A38001229A400C6804EA0205F9
:1012400032EA0404F3D14C68122C18BF022C10D1DE
:10125000DE08083650F826C003F00704A7000F2464
:10126000BC402CEA040C0C69BC4044EA0C0440F875
:101270002640D0F800C05E000324B440E7432CEAC7
:10128000040C4C6804F00304B44044EA0C04046009
:101290004C6804F1FF3C112C18BFBCF1010F01D9BF
:1012A000122C10D1846807EA040CCC68B44044EADC
:1012B0000C048460446824EA02024C68C4F30014FD
:1012C0009C4014434460C26817408A68B2403A4365
:1012D000C2604A6812F0805FA9D02C4A546C44F472
:1012E00080445464526C02F480420192019A9C083A
:1012F000A61C244A52F8267003F0030296000F221F
:10130000B24027EA0207224A90423FF45CAF02F55E
:101310008062904222D002F58062904220D002F595
:10132000806290421ED002F5806290421CD002F58D
:10133000806290421AD002F58062904218D002F585
:101340008062904216D002F58062904214D002F57D
:10135000806290423FF435AF0A2235E7012233E73D
:10136000022231E703222FE704222DE705222BE793
:10137000062229E7072227E7082225E702B0F0BC6A
:101380007047704700380140003C0140003802407F
:10139000000002400369194201D00120704700207B
:1013A00070470AB1816170470904816170474369E0
:1013B00031EA030301D081617047090481617047FC
:1013C00010B582B01B4B1A6C42F080521A641B6C31
:1013D00003F080530193019B174A136843F4803351
:1013E0001360FFF765FA0446134B5B6813F4803F04
:1013F00008D1FFF75DFA001BB0F57A7FF4D903201E
:1014000002B010BD0C4A136843F400331360FFF7B9
:101410004FFA0446084B5B6813F4003F07D1FFF70F
:1014200047FA001BB0F57A7FF4D90320E8E70020E3
:10143000E6E700BF0038024000700040002800F0DE
:10144000DA8170B582B00446036813F0010F29D029
:10145000A74B9B6803F00C03042B1AD0A44B9B688A
:1014600003F00C03082B0FD06368B3F5803F40D026
:10147000002B54D19E4B1A6822F480321A601A68ED
:1014800022F480221A6039E0994B5B6813F4800FD4
:10149000EAD0974B1B6813F4003F03D06368002B1E
:1014A00000F0AB81236813F0020F74D0904B9B685F
:1014B00013F00C0F5ED08E4B9B6803F00C03082BCF
:1014C00053D0E368002B00F08980894A136843F009
:1014D00001031360FFF7ECF90546854B1B6813F019
:1014E000020F72D1FFF7E4F9401B0228F5D903205F
:1014F00088E17F4A136843F48033136063682BB339
:10150000FFF7D6F905467A4B1B6813F4003FC9D1A3
:10151000FFF7CEF9401B6428F5D9032072E1B3F53B
:10152000A02F09D0724B1A6822F480321A601A6810
:1015300022F480221A60E1E76D4B1A6842F480229F
:101540001A601A6842F480321A60D7E7FFF7B0F9E0
:101550000546674B1B6813F4003FA3D0FFF7A8F9BB
:10156000401B6428F5D903204CE1614B5B6813F400
:10157000800FA6D15E4B1B6813F0020F03D0E36807
:10158000012B40F03C815A4A136823F0F80321698B
:1015900043EAC1031360236813F0080F46D0636960
:1015A00083B3534A536F43F001035367FFF780F946
:1015B00005464F4B5B6F13F0020F37D1FFF778F9F9
:1015C000401B0228F5D903201CE1494A136823F087
:1015D000F803216943EAC1031360DCE7444A136856
:1015E00023F001031360FFF763F90546404B1B68C6
:1015F00013F0020FCFD0FFF75BF9401B0228F5D99B
:101600000320FFE03A4A536F23F001035367FFF7CB
:101610004FF90546364B5B6F13F0020F06D0FFF70C
:1016200047F9401B0228F5D90320EBE0236813F0AB
:10163000040F7DD02E4B1B6C13F0805F0BD12C4B15
:101640001A6C42F080521A641B6C03F080530193B1
:10165000019B012500E00025264B1B6813F4807FC9
:101660000ED0A368012B1FD0002B35D1204B1A6F51
:1016700022F001021A671A6F22F004021A6718E0BA
:101680001C4A136843F480731360FFF711F9064690
:10169000184B1B6813F4807FE3D1FFF709F9801B17
:1016A0006428F5D90320ADE0114A136F43F001031C
:1016B0001367A36853B3FFF7FBF806460C4B1B6F89
:1016C00013F0020F33D1FFF7F3F8801B41F2883398
:1016D0009842F3D9032095E0052B0DD0044B1A6FE7
:1016E00022F001021A671A6F22F004021A67E0E77B
:1016F0000038024000700040444B1A6F42F0040270
:101700001A671A6F42F001021A67D2E7FFF7D0F8A2
:1017100006463E4B1B6F13F0020F08D0FFF7C8F8C8
:10172000801B41F288339842F3D903206AE0F5B96F
:10173000A369002B65D0354A926802F00C02082A92
:1017400062D0022B19D0314A136823F080731360E2
:10175000FFF7AEF804462D4B1B6813F0007F48D00E
:10176000FFF7A6F8001B0228F5D903204AE0274A14
:10177000136C23F080531364DAE7244A136823F0D0
:1017800080731360FFF794F80546204B1B6813F035
:10179000007F06D0FFF78CF8401B0228F5D9032004
:1017A00030E0E369226A1343626A43EA8213A26A61
:1017B0005208013A43EA0243E26A43EA0263226BB7
:1017C00043EA0273114A5360136843F08073136055
:1017D000FFF76EF804460D4B1B6813F0007F06D12F
:1017E000FFF766F8001B0228F5D903200AE0002065
:1017F00008E0002006E001207047012002E00120FF
:1018000000E0002002B070BD0120FBE7003802407C
:10181000F8B5244B9B6803F00C03042B3DD0082B38
:101820003DD1204B5A6802F03F025B6813F4800FF1
:1018300012D01C4B5968C1F3881100231A48A1FB30
:101840000001FEF7BDFF174B5B68C3F30143013393
:101850005B00B0FBF3F023E0124B5B68C3F388132B
:101860005C010025E41A65F10005AE0146EA9466C4
:10187000A701381B66EB0501CC0044EA5074C50093
:10188000E81844F100018B0243EA90538402204699
:1018900019460023FEF794FFD5E7034800E003480C
:1018A000F8BD00BF0038024040787D010024F400FC
:1018B000002800F09F8070B50D460446514B1B6810
:1018C00003F00F038B420BD24E4A136823F00F0331
:1018D0000B431360136803F00F038B4240F08C80BE
:1018E000236813F0020F17D013F0040F04D0464AF8
:1018F000936843F4E0539360236813F0080F04D017
:10190000414A936843F4604393603F4A936823F0ED
:10191000F003A1680B439360236813F0010F31D0EB
:101920006368012B20D0022B25D0374A126812F0B1
:10193000020F63D034498A6822F0030213438B609C
:10194000FEF7B6FF0646304B9B6803F00C03626857
:10195000B3EB820F16D0FEF7ABFF801B41F288334A
:101960009842F0D9032044E0274A126812F4003F5D
:10197000E0D101203DE0244A126812F0007FD9D165
:10198000012036E01F4B1B6803F00F03AB420AD95E
:101990001C4A136823F00F032B431360136803F0F2
:1019A0000F03AB422CD1236813F0040F06D0164A64
:1019B000936823F4E053E1680B439360236813F0CA
:1019C000080F07D0104A936823F46043216943EA63
:1019D000C1039360FFF71CFF0B4B9B68C3F303131A
:1019E0000A4AD35CD8400A4B18600020FEF722FF59
:1019F000002070BD012070470120FAE70120F8E7C0
:101A00000120F6E7003C02400038024018E50008DB
:101A100020030020014B1868704700BF20030020FE
:101A200008B5FFF7F7FF044B9B68C3F38223034A13
:101A3000D35CD84008BD00BF0038024028E500084C
:101A400008B5FFF7E7FF044B9B68C3F34233034A33
:101A5000D35CD84008BD00BF0038024028E500082C
:101A6000F0B583B00446066816F001060DD0B54BFC
:101A70009A6822F400029A609A68416B0A439A605D
:101A8000436B002B00F055810026256815F40025D6
:101A900011D0AC4AD2F88C3023F44013E16B0B43E5
:101AA000C2F88C30E36BB3F5801F00F04481002B4B
:101AB00000F043810025236813F4801F0FD0A14A52
:101AC000D2F88C3023F44003216C0B43C2F88C30E5
:101AD000236CB3F5800F00F0328103B90125236830
:101AE00013F0807F00D0012613F0200F40F02C81EE
:101AF000236813F0100F0CD0924BD3F88C2022F0F7
:101B00008072C3F88C20D3F88C20A16B0A43C3F8F1
:101B10008C20236813F4804F08D08A4AD2F8903082
:101B200023F44033616E0B43C2F89030236813F402
:101B3000004F08D0834AD2F8903023F44023A16E9E
:101B40000B43C2F89030236813F4803F08D07D4ADD
:101B5000D2F8903023F44013E16E0B43C2F890307A
:101B6000236813F4003F08D0764AD2F8903023F46B
:101B70004003216F0B43C2F89030236813F0400FED
:101B800008D0704AD2F8903023F00303616C0B4305
:101B9000C2F89030236813F0800F08D0694AD2F859
:101BA000903023F00C03A16C0B43C2F890302368F3
:101BB00013F4807F08D0634AD2F8903023F03003CA
:101BC000E16C0B43C2F89030236813F4007F08D017
:101BD0005C4AD2F8903023F0C003216D0B43C2F869
:101BE0009030236813F4806F08D0564AD2F89030B2
:101BF00023F44073616D0B43C2F89030236813F4F3
:101C0000006F08D04F4AD2F8903023F44063A16DA2
:101C10000B43C2F89030236813F4805F08D0494A20
:101C2000D2F8903023F44053E16D0B43C2F890306A
:101C3000236813F4005F08D0424AD2F8903023F4AE
:101C40004043216E0B43C2F89030236813F4800F99
:101C500008D03C4AD2F8903023F08063A16F0B4348
:101C6000C2F89030236813F4001F0DD0354AD2F823
:101C7000903023F00063E16F0B43C2F89030E36FC4
:101C8000B3F1006F00F0C680236813F0080F00D096
:101C9000012513F4802F08D02A4AD2F8903023F07F
:101CA0004073616F0B43C2F89030236813F4000F48
:101CB00009D0244AD2F8903023F08053D4F8801011
:101CC0000B43C2F89030236813F0806F09D01D4A8F
:101CD000D2F8903023F00053D4F884100B43C2F8AC
:101CE0009030236813F0006F09D0164AD2F88C3078
:101CF00023F00073D4F888100B43C2F88C302368AB
:101D000013F0805F09D00F4AD2F88C3023F0806343
:101D1000D4F88C100B43C2F88C30002E7CD1236891
:101D2000B3F1007F78D0012D00F00981002003B0CD
:101D3000F0BD0126A9E60126B9E60125BBE601268C
:101D4000CBE600BF00380240B74B1A6C42F080521D
:101D50001A641B6C03F080530193019BB34A136810
:101D600043F480731360FEF7A3FD0746AF4B1B6877
:101D700013F4807F06D1FEF79BFDC01B6428F5D9C4
:101D80000320D4E7A84B1B6F13F4407315D0226BCC
:101D900002F440729A4210D0A34B1A6F22F44072A0
:101DA000196F41F480311967196F21F48031196777
:101DB0001A671B6F13F0010F12D1236B03F44072EB
:101DC000B2F5407F1DD0984A936823F4F8139360CE
:101DD00095490B6F226BC2F30B0213430B6787E627
:101DE000FEF766FD0746904B1B6F13F0020FE4D120
:101DF000FEF75EFDC01B41F288339842F3D9032001
:101E000095E78948826822F4F812894919400A4303
:101E10008260DDE7012537E7834A136823F080639A
:101E20001360FEF745FD06467F4B1B6813F0006FFD
:101E300006D0FEF73DFD801B6428F5D9032076E728
:101E4000236813F0010F13D0636B8BB9764AD2F875
:101E50008430D2F88410606803F4403343EA80137E
:101E600001F070610B43A16843EA0173C2F884304A
:101E7000236813F4002F03D0E26BB2F5801F06D065
:101E800013F4801F1ED0236CB3F5800F1AD1664A5D
:101E9000D2F88430D2F88410606803F4403343EA07
:101EA0008013E06843EA006301F0E0410B43C2F8AD
:101EB0008430D2F88C3023F01F03616A01390B4360
:101EC000C2F88C30236813F0807F11D0564AD2F8C4
:101ED0008400D2F88410666823691B0443EA8613E1
:101EE00000F07060034301F0E0410B43C2F884301E
:101EF000236813F0007F0DD0626823691B0443EA56
:101F00008213E26843EA0263A26843EA0273464A24
:101F1000C2F88430444A136843F080631360FEF7CC
:101F2000C7FC0646404B1B6813F0006F7FF4FBAE06
:101F3000FEF7BEFC801B6428F4D90320F7E63A4A7A
:101F4000136823F080531360FEF7B2FC0546364B4E
:101F50001B6813F0005F06D0FEF7AAFC401B642844
:101F6000F5D90320E3E6236813F4002F01D0E26BD8
:101F700022B113F4801F1DD0236CDBB92A4AD2F89A
:101F80008830D2F88810606903F4403343EA801344
:101F9000A06943EA006301F0E0410B43C2F88830D6
:101FA000D2F88C3023F4F853A16A013943EA0123B3
:101FB000C2F88C30236813F4001F03D0E36FB3F131
:101FC000006F37D0236813F0080F19D0164AD2F8E3
:101FD0008810D2F88830606903F4403343EA8013F4
:101FE00001F070610B43E16943EA0173C2F8883084
:101FF000D2F88C3023F44033E16A0B43C2F88C30C2
:10200000094A136843F080531360FEF751FC0446FD
:10201000054B1B6813F0005F1FD1FEF749FC001B46
:102020006428F5D9032082E60038024000700040A1
:10203000FFFCFF0F0A4AD2F88800D2F888106569C1
:10204000236A1B0443EA851300F07060034301F028
:10205000E0410B43C2F88830B4E7002067E600BFD8
:102060000038024070B582B0044600230193006836
:1020700001F068FF054610B1284602B070BD206827
:1020800001F073FF064610B30023A364284604E062
:102090000021206801F099FDC00FA8B9019B5A1CCE
:1020A00001924FF6FF7293423DD00021206801F06B
:1020B00073FF00283AD10021206801F085FF002835
:1020C000E6D04FF08055D7E700236364D4E70123BF
:1020D000A364054605E00021206801F076FD054671
:1020E000C00FB0B9019B5A1C01924FF6FF72934288
:1020F0001FD00021206801F04FFF05460028BBD10A
:102100004FF08041206801F05FFF05460028E2D0D3
:10211000B2E715F0804503D0012363643546ABE791
:1021200000236364A8E74FF08075A5E74FF0805562
:10213000A2E74FF080759FE770B50546866A0024D8
:1021400005E0286801F01CFD46F824000134072C46
:10215000F7D9AB6A2033AB62002070BD70B505467D
:10216000066A002405E006EB8401286801F00BFDF7
:102170000134072CF7D92B6A20332B62002070BD65
:1021800070B581B104460E46016D0904006801F086
:1021900077FF054608B1284670BD0021206801F090
:1021A00014FD3060F7E74FF00065F4E72DE9F047E4
:1021B00086B004460E4615469946DDF838A0FEF76F
:1021C00077FB46B3804694F83470FFB2012F40F09D
:1021D000F1800023A36305EB0903E26D934220D84D
:1021E000032384F8343023680022DA62636C012B05
:1021F00000D06D024FF40071206801F0F9FDA8B124
:10220000236840F2FF519963A36B0343A363012347
:1022100084F83430D3E0A36B43F00063A363012759
:10222000CDE0A36B43F00073A363C8E04FF0FF332E
:1022300000934FEA492301939023029302230393CF
:1022400000230493012305936946206801F0BEFD35
:10225000B9F1010F11D9022323632946206801F047
:10226000F7FD18B3236840F2FF529A63A36B18433B
:10227000A063012384F83430A1E0012323632946BD
:10228000206801F0CDFDECE7206801F079FC46F80C
:1022900025000135072DF7D92036BAF1000F0FD0F0
:1022A000FEF706FBA0EB0800504509D22068456BFD
:1022B00015F4957511D1436B13F4004FEDD0E9E798
:1022C000236840F2FF529A63A36B43F00043A36379
:1022D000012384F83430032771E0436B13F4807FCB
:1022E00005D0B9F1010F02D9636C032B2AD1236801
:1022F0005A6B12F0080F34D15A6B12F0020F3BD117
:102300005A6B12F0200F42D12068436B13F4001F68
:1023100048D001F035FC46F8040BBAF1000F05D0A7
:10232000FEF7C6FAA0EB08005045EDD3236840F253
:10233000FF529A63A36B43F00043A363012384F825
:1023400034303CE001F0CCFD0028D0D0236840F2CE
:10235000FF519963A36B0343A363012384F83430D3
:102360002DE040F2FF529A63A36B43F00803A3638E
:10237000012384F8343022E040F2FF529A63A36BC9
:1023800043F00203A363012384F8343017E040F2E2
:10239000FF529A63A36B43F02003A363012384F8E5
:1023A00034300CE040F2FF538363012384F834306F
:1023B000002704E0A36B43F00053A36301273846D2
:1023C00006B0BDE8F0872DE9F04F87B004460E4611
:1023D00015469946DDF840A0FEF76AFA002E36D081
:1023E000804694F83470FFB2012F40F0D88000236B
:1023F000A36305EB0903E26D93422ED8032384F80F
:10240000343023680022DA62636C012B00D06D0245
:102410004FF40071206801F0EBFC18BBB9F1010F1B
:102420002BD9202323632946206801F041FD8346F0
:10243000BBF1000F29D0236840F2FF529A63A06BD2
:1024400040EA0B00A063012384F83430ACE0A36BB6
:1024500043F00063A3630127A6E0A36B43F000737E
:10246000A363A1E0236840F2FF519963A36B034388
:10247000A363012384F8343096E0102323632946B4
:10248000206801F0FDFC8346D2E74FF0FF33009354
:102490004FEA49230193902302930023039304936B
:1024A000012305936946206801F090FC11E006EBDA
:1024B0008501206801F067FB0135072DF7D920362B
:1024C000BAF1000F0FD0FEF7F3F9A0EB080050456A
:1024D00009D22068456B15F48D7511D1436B13F447
:1024E000804FEDD0E9E7236840F2FF529A63A06B7A
:1024F00040EA0B00A063012384F83430032753E043
:10250000436B13F4807F05D0B9F1010F02D9636CDE
:10251000032B17D123685A6B12F0080F21D15A6B85
:1025200012F0020F28D15A6B12F0100F2FD040F288
:10253000FF529A63A36B43F01003A363012384F853
:10254000343031E001F0CCFC0028E3D0236840F2C5
:10255000FF519963A36B0343A363012384F83430D1
:1025600022E040F2FF529A63A36B43F00803A36397
:10257000012384F8343017E040F2FF529A63A36BD2
:1025800043F00203A363012384F834300CE040F2EB
:10259000FF529A63012384F83430002704E0A36BD0
:1025A00043F00053A3630127384607B0BDE8F08F1E
:1025B000704730B4436E9A0F0A70C3F383624A7057
:1025C000C3F301638B7090F86630CB7090F8653080
:1025D0000B7190F864304B7190F86B301B01CB801D
:1025E000B0F86A30CC88C3F303122243CA8003F0E8
:1025F0000F030B7290F86930DA094A72C3F3801244
:102600008A72C3F34012CA72C3F300120A73002223
:102610004A73426C002A40F092809B0203F44063AC
:102620000B61836E0A699B0003F47F7313430B6194
:10263000C36E0A6942EA93720A61C3F3C2620A7501
:10264000C3F302634B75C26EC2F30743C2F3425435
:102650008C75C2F38242CA755B0003F006030B76E9
:10266000C26EC2F307230C7EC2F3C03222430A7645
:102670000A69013242650C7E023402FA04F44465B0
:102680000A7AD5B20122AA408265520A02FB04F2FC
:10269000C2654FF400720266C3F380124A765B0093
:1026A00003F07E038B76C36E8A7EC3F3C01422438D
:1026B0008A7603F07F03CB76036F1A0EDC0F0C775C
:1026C000C3F341744C77C3F382638B77930003F0B9
:1026D0000C03CB77036FCA7FC3F381542243CA77BD
:1026E000C3F3405281F82020002281F82120C3F357
:1026F000004381F82230036FC3F3C03481F82340D4
:10270000C3F3803481F82440C3F3403481F825407A
:10271000C3F3003481F82640C3F3812481F82740B5
:10272000C3F3012381F82830036FC3F3460381F814
:102730002930012381F82A30104630BC7047012A25
:102740001BD1836E1B0403F47C130B6190F86F2084
:102750000B6943EA02230B610A6990F86E30134358
:102760000B6190F86D300A69013292024265C265D0
:102770004FF40072826502668EE7036840F2FF52F2
:102780009A63836B43F080538363012280F8342083
:102790001046D2E770B590B004460123ADF8123070
:1027A000006801F0F9F900286AD0636C032B43D16B
:1027B000636C032B5BD1636C032B1DD0BDF812102F
:1027C00021650904206801F02EFC0546002859D136
:1027D0000021206801F0F9F960660421206801F009
:1027E000F4F9A0660821206801F0EFF9E0660C21F9
:1027F000206801F0EAF920670421206801F0E5F97A
:10280000000DE06405A92046FFF7D3FE226D1204F7
:102810000023206801F07EFB054698BB234653F851
:10282000106B93E807008DE80700043494E80E006D
:10283000304601F089F925E0206801F0DFFB05460C
:1028400000BB0021206801F0C0F960670421206806
:1028500001F0BBF9A0670821206801F0B6F9E06734
:102860000C21206801F0B1F9C4F88000A0E70DF157
:102870001201206801F0ECFB054600289BD001E026
:102880004FF08065284610B070BD10B58AB0044680
:1028900000230493059306930793089376230993E3
:1028A0000AAB13E907008DE8070004AB0ECB2068E4
:1028B00001F04AF92268536823F48073536020685A
:1028C00001F066F92268536843F480735360022074
:1028D000FDF7F4FF2046FFF7C5FB40B1024601209B
:1028E00084F83400A36B1343A3630AB010BD2046E1
:1028F000FFF750FF024608B90020F6E7012084F8F0
:102900003400A36B1343A363EFE7A8B110B50446EB
:1029100090F8343063B1032384F834302046FFF755
:10292000B4FF0020A0632063012384F8343010BD7D
:10293000037704F0A3FAEEE701207047436C0B60C5
:10294000836C4B60C36C8B60036DCB60436D0B611C
:10295000836D4B61C36D8B61036ECB61002070474B
:1029600010B582B004460023019301A9FFF708FCCB
:1029700010B1A36B0343A3630198C0F3432002B0DB
:1029800010BD10B5846B236C0BB100232364E36B83
:1029900003B110BD2046FFF7E3FF0023A36301232B
:1029A00084F834300538C0B29842F2D8206801F07B
:1029B00097FAA36B0343A363A36B1BB1204602F0FA
:1029C00030FFE6E72046FFF7F3FDE2E710B5846B42
:1029D000E36B0BB10023E363236C03B110BD20460E
:1029E000FFF7BEFF0023A363012384F834300538CA
:1029F000C0B29842F2D8206801F072FAA36B034388
:102A0000A363A36B1BB1204602F00BFFE6E7204651
:102A1000FFF7CEFDE2E7000010B5044603685A6BED
:102A200012F4807F5FD04FF480729A630268D36B98
:102A300023F49D73D363036B13F0080F2AD0036B49
:102A400013F0020F03D1036B13F0200F04D02068A2
:102A500001F046FA034690B9236840F2FF529A63A8
:102A6000012384F83430236B13F0010F03D1236B5F
:102A700013F0020F0AD0204602F0DDFE10BDA26B5B
:102A80001343A3632046FFF793FDE5E7204602F0DA
:102A9000CDFEF3E7036B13F0800FEFD0036B13F061
:102AA000200F13D1236B13F0010FE7D1236B13F029
:102AB000020FE3D12268D36A23F00803D362012313
:102AC00084F83430204602F0B1FED7E7006801F008
:102AD00007FA03460028E5D0A26B1343A363204600
:102AE000FFF766FDDEE75A6B12F4804F40D15A6B58
:102AF00012F4004F42D15A6B12F03A0FBED05A6B0B
:102B000012F0020F03D0826B42F0020282635A6B12
:102B100012F0080F03D0A26B42F00802A2635A6BB6
:102B200012F0200F03D0A26B42F02002A2635A6B76
:102B300012F0100F03D0A26B42F01002A26340F219
:102B4000FF529A632268D36B23F49D73D363236B84
:102B500013F0800F2FD0236CB3B11D4A1A65206C7F
:102B6000FEF714FB002889D0206CFFF70AFF85E7E9
:102B70004FF480429A63FFF7F1FA7FE74FF4004287
:102B80009A63FFF7D9FA79E7E36B5BB1114A1A65EB
:102B9000E06BFEF7FBFA00283FF470AFE06BFFF745
:102BA00015FF6BE70023A363012384F8343020462C
:102BB00002F037FE62E7236B13F0080F3FF45EAFBD
:102BC000012384F834302046FFF7F2FC56E700BFBB
:102BD00083290008CD29000830B4036A056A25F06E
:102BE00001050562846924F0F00444EA021423F02C
:102BF0000A030B438461036230BC704730B4056A3A
:102C000025F0100505628469036A24F4704444EADF
:102C1000023423F0A00343EA01138461036230BC51
:102C20007047836823F070030B4343F0070383600E
:102C3000704700000268D36843F00103D360026864
:102C40009168064B0B40062B18BFB3F5803F03D0AD
:102C5000136843F001031360002070470700010070
:102C6000704770477047704710B5044603681A698B
:102C700012F0020F11D0DA6812F0020F0DD06FF0CF
:102C800002021A610123037703689B6913F0030FA3
:102C900079D0FFF7E6FF0023237723681A6912F043
:102CA000040F12D0DA6812F0040F0ED06FF0040295
:102CB0001A610223237723689B6913F4407F68D04D
:102CC0002046FFF7CEFF0023237723681A6912F00E
:102CD000080F12D0DA6812F0080F0ED06FF0080259
:102CE0001A61042323772368DB6913F0030F57D09D
:102CF0002046FFF7B6FF0023237723681A6912F0F6
:102D0000100F12D0DA6812F0100F0ED06FF0100210
:102D10001A61082323772368DB6913F4407F46D0C8
:102D20002046FFF79EFF0023237723681A6912F0DD
:102D3000010F03D0DA6812F0010F3FD123681A693E
:102D400012F0800F03D0DA6812F0800F3DD12368B3
:102D50001A6912F4807F03D0DA6812F0800F3BD139
:102D600023681A6912F0400F03D0DA6812F0400F9E
:102D700039D123681A6912F0200F03D0DA6812F0F3
:102D8000200F37D110BDFFF76BFF2046FFF76AFF1A
:102D900081E72046FFF764FF2046FFF763FF92E7D5
:102DA0002046FFF75DFF2046FFF75CFFA3E72046C4
:102DB000FFF756FF2046FFF755FFB4E76FF001021B
:102DC0001A61204602F0E0FFB8E76FF080021A6156
:102DD000204600F064F9BAE76FF480721A61204669
:102DE00000F05EF9BCE76FF040021A612046FFF781
:102DF0003AFFBEE76FF020021A61204600F04EF95C
:102E0000C0E7000070B403683A4CA04214BF00242D
:102E10000124B0F1804F14BF224644F00102AAB948
:102E2000354DA84214BF00250125344EB0420DD0C7
:102E300065B905F1804505F58235A84214BF002526
:102E4000012506F50066B04200D01DB123F07003E5
:102E50004D682B43002A33D1274A904214BF0022E9
:102E60000122264DA8422BD052BB02F1804202F52E
:102E70008232904214BF0022012205F50065A8426B
:102E80001ED0EAB91E4A904214BF0022012205F565
:102E90009A35A84214D09AB91A4A904214BF002217
:102EA000012205F50065A8420AD04AB9164A9042A7
:102EB00014BF00220122A5F59635A84200D01AB110
:102EC00023F44073CA68134323F080034A69134311
:102ED00003608A68C2620A6882620C4B984214BF1F
:102EE000234644F001030BB10B69036301234361E3
:102EF00070BC704700000140000800400004004022
:102F0000004401400018004000200040000401403F
:102F1000B0B110B5044690F83D3063B1022384F897
:102F20003D30214651F8040BFFF76CFF012384F874
:102F30003D30002010BD80F83C3003F0EBFFEDE7A2
:102F40000120704710B4846824F47F4442EA0322CD
:102F50000A43224382605DF8044B704790F83C308E
:102F6000012B64D010B50446012380F83C300223C5
:102F700080F83D30026890682E4B034093600B68E8
:102F8000602B40D022D8402B47D00BD9502B0ED1EC
:102F9000CA6849682068FFF71FFE50212068FFF7C4
:102FA00040FE04E0202B0CD008D9302B09D001239F
:102FB00084F83D30002084F83C0010BD0BB1102B8C
:102FC000F5D119462068FFF72CFEF0E7702B0ED0E4
:102FD000B3F5005FEBD1CB684A6889682068FFF7DA
:102FE000B1FF2268936843F480439360DFE7CB68C6
:102FF0004A6889682068FFF7A5FF2268936843F054
:1030000077039360D3E7CA6849682068FFF7F6FD45
:1030100060212068FFF705FEC9E7CA684968206893
:10302000FFF7DAFD40212068FFF7FBFDBFE7022034
:10303000704700BF8800FEFF90F83C30012B27D07E
:1030400070B4012380F83C30022380F83D300368DF
:103050005A689D680F4E104CA34218BFB34203D16B
:1030600022F470024C68224322F070020C68224362
:1030700025F08004896821435A6003689960012320
:1030800080F83D30002380F83C30184670BC704713
:103090000220704700000140000401407047704763
:1030A00070470268136823F4907313600268936892
:1030B00023F0010393602023836700230366704796
:1030C000836F202B5ED1B2FA82F35B09002908BF1F
:1030D0000123002B58D190F87030012B56D00123DA
:1030E00080F870304165A0F85820A0F85A200023DD
:1030F00003668368B3F5805F06D0A3B9036973B92B
:10310000FF23A0F85C3014E0036923B940F2FF13F9
:10311000A0F85C300DE0FF23A0F85C3009E07F23CD
:10312000A0F85C3005E0B3F1805F1BD00023A0F86D
:103130005C300023C367222383670268936843F0EF
:10314000010393608368B3F5805F15D0104B03666D
:10315000002380F8703001680A6842F490720A60B7
:103160001846704703691BB97F23A0F85C30E0E77D
:103170003F23A0F85C30DCE70369002BE6D1054B68
:103180000366E5E702207047012070470220704780
:10319000B531000817320008704708B501680A68A1
:1031A00022F040020A602022426700224266FFF7B6
:1031B000F3FF08BD08B5B0F85C30826F222A05D055
:1031C0000268936943F00803936108BD0268516A7D
:1031D000DBB2426D0B401370436D01334365B0F8B1
:1031E0005A30013B9BB2A0F85A30B0F85A309BB22B
:1031F000002BEAD10268136823F49073136002680D
:10320000936823F001039360202383670023036600
:1032100002F09EFFD9E708B5B0F85C20836F222B3F
:1032200005D00268936943F00803936108BD036801
:103230005B6A416D13400B80436D02334365B0F808
:103240005A30013B9BB2A0F85A30B0F85A309BB2CA
:10325000002BEBD10268136823F4907313600268AB
:10326000936823F0010393602023836700230366A0
:1032700002F06EFFDAE7704738B504460268D3699A
:103280001568906813F00F0105D113F0200F02D0DC
:1032900015F0200F13D129B110F0010015D115F44C
:1032A000907F12D113F0800F02D015F0800F77D1EC
:1032B00013F0400F02D015F0400F77D138BD236EC8
:1032C000002BFBD020469847F8E713F0010F07D0FA
:1032D00015F4807F04D001211162E26F0A43E26796
:1032E00013F0020F07D030B1226802211162E26FA1
:1032F00042F00402E26713F0040F07D030B12268F5
:1033000004211162E26F42F00202E26713F0080F3B
:1033100009D015F0200F00D128B1226808211162D0
:10332000E26F0A43E267E26F002AC7D013F0200F72
:1033300006D015F0200F03D0236E0BB1204698471E
:10334000E26F23689B6813F0400F02D112F0080F60
:1033500020D02046FFF7A5FE23689A6812F0400FA0
:1033600014D09A6822F040029A60E36E53B1114A79
:103370001A65E06EFDF70AFF00289FD0E06E036D2E
:1033800098479BE72046FFF776FF97E72046FFF731
:1033900072FF93E72046FFF76EFF0023E3678DE798
:1033A000636E002B8AD02046984787E72046FFF7B8
:1033B000F4FE83E7B933000808B5806B0023A0F85A
:1033C0005A30A0F85230FFF756FF08BD38B5044612
:1033D00083680269134342691343C2691343016856
:1033E00008689F4A024013430B602268536823F425
:1033F0004053E1680B435360A269236A1A43216872
:103400008B6823F4306313438B602368954A93429F
:1034100019D0954A934229D0944A93423ED0944A77
:10342000934262D0934A934271D0934A934200F000
:103430008380924A934200F09480914A934200F034
:10344000A58010253AE08F4BD3F8903003F00303AA
:10345000032B09D8DFE803F00204AE0601252DE0B6
:1034600004252BE0082529E0102527E0854BD3F81B
:10347000903003F00C030C2B0ED8DFE803F0070D9F
:103480000D0D090D0D0D9D0D0D0D0B00002515E009
:10349000042513E0082511E010250FE0794BD3F83F
:1034A000903003F03003202B00F0888019D8002BD7
:1034B00000F08680102B40F085800425E369B3F589
:1034C000004F00F0AB80082D00F24081DFE815F0DE
:1034D0000701180122013E012B013E013E013E0180
:1034E0003501302B70D10825E8E7664BD3F89030D2
:1034F00003F0C003802B69D005D8002B68D0402B87
:1035000068D10425DAE7C02B66D10825D6E75D4BE4
:10351000D3F8903003F44073B3F5007F5ED006D843
:10352000002B5DD0B3F5807F5CD10425C6E7B3F5F1
:10353000407F59D10825C1E7524BD3F8903003F4AE
:103540004063B3F5006F51D006D8002B50D0B3F5CF
:10355000806F4FD10425B1E7B3F5406F4CD10825FA
:10356000ACE7484BD3F8903003F44053B3F5005F19
:1035700044D006D8002B43D0B3F5805F42D1042558
:103580009CE7B3F5405F3FD1082597E73D4BD3F863
:10359000903003F44043B3F5004F37D005D8BBB3A8
:1035A000B3F5804F36D1042588E7B3F5404F33D1CA
:1035B000082583E7022581E702257FE702257DE7CD
:1035C00000257BE7102579E7102577E7022575E7C9
:1035D000002573E7102571E710256FE702256DE7D9
:1035E00000256BE7102569E7102567E7022565E7E9
:1035F000012563E7102561E710255FE702255DE7F8
:1036000000255BE7102559E7102557E7022555E708
:10361000002553E7102551E710254FE7082D5BD80B
:10362000DFE805F005323D5A465A5A5A5100FEF776
:10363000F7F96268530803EB4003B3FBF2F39BB264
:10364000A3F110014FF6EF72914200F282809AB21C
:1036500022F00F02C3F3420313432268D3607BE0DE
:10366000F369FFEF001001400044004000480040B3
:10367000004C004000500040001401400078004021
:10368000007C004000380240FEF7DAF96268530817
:1036900003EB4003B3FBF2F39BB20025D0E7626873
:1036A000304B03EB5203B3FBF2F39BB20025C7E7A9
:1036B000FEF7AEF86268530803EB4003B3FBF2F386
:1036C0009BB20025BCE76268530803F58033B3FB67
:1036D000F2F39BB20025B3E701250023B0E7FEF724
:1036E0009FF9626800EB5203B3FBF2F39BB2A3F1C4
:1036F00010014FF6EF7291422DD82268D3602BE073
:10370000FEF79EF9626800EB5203B3FBF2F39BB243
:103710000025ECE76268144B03EB5203B3FBF2F3B2
:103720009BB20025E3E7FEF773F8626800EB5203F3
:10373000B3FBF2F39BB20025D9E76268530803F5A7
:103740000043B3FBF2F39BB20025D0E70125002331
:10375000CDE7012500E001250023236663662846A6
:1037600038BD00BF0048E8010024F400436A13F0AC
:10377000010F06D00268536823F40033816A0B43BB
:103780005360436A13F0020F06D00268536823F4B3
:103790008033C16A0B435360436A13F0040F06D0B1
:1037A0000268536823F48023016B0B435360436A20
:1037B00013F0080F06D00268536823F40043416BEE
:1037C0000B435360436A13F0100F06D002689368EE
:1037D00023F48053816B0B439360436A13F0200FF3
:1037E00006D00268936823F40053C16B0B439360C7
:1037F000436A13F0400F0AD00268536823F4801321
:10380000016C0B435360036CB3F5801F0BD0436A0C
:1038100013F0800F06D00268536823F40023816CF4
:103820000B43536070470268536823F4C003416C34
:103830000B435360EBE72DE9F84305460F46164668
:103840009946DDF820802C68E46937EA04030CBF50
:1038500001240024B4421DD1B8F1FF3FF3D0FDF79D
:1038600027F8A0EB0900404502D8B8F1000FEAD1D3
:103870002A68136823F4D07313602A68936823F0CE
:103880000103936020236B67AB67002385F87030DA
:10389000032000E00020BDE8F8832DE9F04182B06C
:1038A0001E46436F202B58D104460D469046B2FA6F
:1038B00082F35B09002908BF0123002B51D190F846
:1038C0007030012B4FD0012380F870300023C36784
:1038D00021234367FCF7ECFF0746A4F85080A4F8C7
:1038E0005280A368B3F5805F02D04FF0000810E06B
:1038F00023690BB34FF000080BE038F8023B226855
:10390000C3F308039362B4F85220013A92B2A4F8C8
:103910005220B4F852309BB28BB100963B46002245
:1039200080212046FFF787FFF8B9002DE5D015F874
:10393000012B23689A62E6E7A8460025E9E700968E
:103940003B46002240212046FFF775FF78B920232F
:103950006367002384F8703000E0022002B0BDE805
:10396000F0810120FAE70220F8E70320F6E70320C0
:10397000F4E710B582B004460023C367FCF798FF54
:1039800023681B6813F0080F07D120236367A36720
:10399000002084F8700002B010BD6FF07E430093E9
:1039A000034600224FF400112046FFF744FF002891
:1039B000EBD00320EFE768B310B50446436F03B3C1
:1039C000242363672268136823F0010313602046F1
:1039D000FFF7FCFC012813D0636ABBB92268536867
:1039E00023F4904353602268936823F02A03936082
:1039F0002268136843F0010313602046FFF7B9FF04
:103A000010BD80F8703003F099FAD9E72046FFF72F
:103A1000ADFEE3E7012070470C4B1B680C4AA2FB8C
:103A200003235A0A41F2883303FB02F31A46013B8F
:103A300042B1426B12F0800FF8D040F2FF53836323
:103A4000002070474FF00040704700BF2003002067
:103A5000D34D62100146134B1B68134AA2FB03238C
:103A60005A0A41F2883303FB02F31A46013BAAB11A
:103A70004A6B12F0450FF8D04B6B13F0040F07D1CF
:103A8000486B10F0010006D140F2FF538B63704782
:103A90000420886370470120886370474FF000401E
:103AA000704700BF20030020D34D621001460F4B2A
:103AB0001B680F4AA2FB03235A0A41F2883303FB17
:103AC00002F31A46013B72B14A6B12F0450FF8D06F
:103AD000486B10F0040003D140F2FF538B63704732
:103AE0000420886370474FF0004070472003002097
:103AF000D34D62100146124B1B68124AA2FB0323EE
:103B00005A0A41F2883303FB02F31A46013B9AB189
:103B10004A6B12F0450FF8D04B6B13F0040307D13A
:103B2000486B10F0400009D040228A631846704765
:103B300040238B63042070474FF00040704700BF64
:103B400020030020D34D621084B010B402AC84E88E
:103B50000E000B46039A1343049A1343059A13432A
:103B6000069A1343079A13434168044A0A401343D1
:103B7000436000205DF8044B04B070470081FFFFF4
:103B8000D0F8800070470B68C0F880300020704784
:103B90000323036000207047006800F003007047B3
:103BA0000B6883604B688A681343CA6813430A69C9
:103BB0001343C168024A0A401343C36000207047A0
:103BC00000F0FFFF0069C0B2704782B0002301938C
:103BD000143008440190019B186802B0704700003F
:103BE00038B504460D464F4B1B684F49A1FB0313E4
:103BF0005B0A02FB03F21346013A002B5BD0636BB6
:103C000013F0450FF7D0636B13F0040F06D1636B0D
:103C100013F0010F05D00120A0634EE00420A06343
:103C20004BE02046FFF7CEFFA84201D0012044E040
:103C300040F2FF53A36300212046FFF7C6FF03466F
:103C40003A481840C8B3002B38DB13F0804F38D106
:103C500013F0005F37D113F0805F36D113F0006F9F
:103C600036D113F0806F36D113F0807F36D113F444
:103C7000000F36D113F4800F36D113F4001F36D164
:103C800013F4801F36D113F4802F36D113F4003F84
:103C900036D113F4803F36D113F4004F36D113F4EC
:103CA000804F36D113F4005F36D113F0080F36D0B1
:103CB0004FF4000001E04FF0004038BD4FF00070BD
:103CC000FBE74020F9E78020F7E74FF48070F4E746
:103CD0004FF40070F1E74FF48060EEE74FF40060BE
:103CE000EBE74FF48050E8E74FF40050E5E74FF47E
:103CF0008040E2E74FF40040DFE74FF40030DCE7BC
:103D00004FF48020D9E74FF40020D6E74FF480101D
:103D1000D3E74FF40010D0E74FF48000CDE74FF425
:103D20008030CAE720030020D34D621008E0FFFD79
:103D3000F8B505460E461746224B1B682248A0FBE5
:103D40000323580A41F2883303FB00F31C46013B6E
:103D50007CB36C6B14F0450FF8D06B6B13F0040F51
:103D600006D16B6B13F0010F05D00120A86322E090
:103D70000420A8631FE02846FFF724FFB04201D0CB
:103D8000012018E040F2FF53AB6300212846FFF703
:103D90001CFF034610F4604008D013F4804F0BD191
:103DA00013F4004F0BD04FF4805004E01B0C3B8009
:103DB00001E04FF00040F8BD4FF40050FBE74FF436
:103DC0008030F8E720030020D34D62100B68436277
:103DD0004B6883628B68CA6813430A6913434A6954
:103DE0001343C26A22F0F7021343C36200207047F4
:103DF00030B587B004460191102502954023039306
:103E0000002304934FF48063059301A9FFF7C8FED4
:103E100041F2883229462046FFF7E2FE07B030BD66
:103E200030B587B0044601911125029540230393D4
:103E3000002304934FF48063059301A9FFF7B0FEBC
:103E400041F2883229462046FFF7CAFE07B030BD4E
:103E500030B587B0044601911225029540230393A3
:103E6000002304934FF48063059301A9FFF798FEA4
:103E700041F2883229462046FFF7B2FE07B030BD36
:103E800030B587B00446019118250295402303936D
:103E9000002304934FF48063059301A9FFF780FE8C
:103EA00041F2883229462046FFF79AFE07B030BD1E
:103EB00030B587B00446019119250295402303933C
:103EC000002304934FF48063059301A9FFF768FE74
:103ED00041F2883229462046FFF782FE07B030BD06
:103EE00030B587B00446002301930C25029540228B
:103EF000039204934FF48063059301A9FFF750FEEA
:103F0000034A29462046FFF76BFE07B030BD00BFCD
:103F100000E1F50530B587B004460192072502950A
:103F200040230393002304934FF48063059301A976
:103F3000FFF736FE41F2883229462046FFF750FE51
:103F400007B030BD10B586B004460023019302933C
:103F5000039304934FF48063059301A9FFF720FEB8
:103F60002046FFF759FD06B010BD10B586B00446D7
:103F70004FF4D57301930823029340230393002346
:103F800004934FF48063059301A9FFF709FE2046CF
:103F9000FFF7B0FD06B010BD30B587B00446019103
:103FA0003725029540230393002304934FF4806345
:103FB000059301A9FFF7F4FD41F288322946204616
:103FC000FFF70EFE07B030BD10B586B004460A4BB1
:103FD0000B4301932923029340230393002304936B
:103FE0004FF48063059301A9FFF7DAFD2046FFF740
:103FF0005DFD06B010BD00BF0000108010B586B09A
:1040000004460023019302220292C02203920493E9
:104010004FF48063059301A9FFF7C2FD2046FFF727
:1040200019FD06B010BD10B586B0044601910923F4
:104030000293C0230393002304934FF480630593FA
:1040400001A9FFF7ADFD2046FFF704FD06B010BD46
:1040500070B586B004460D460023019303260296F0
:104060004022039204934FF48063059301A9FFF764
:1040700097FD2A4631462046FFF75AFE06B070BD2E
:1040800030B587B0044601910D2502954023039376
:10409000002304934FF48063059301A9FFF780FD8B
:1040A00041F2883229462046FFF79AFD07B030BD1D
:1040B00008B5044B03EB8002526852680344187A37
:1040C000904708BD140D002008B5084B1B5C53B980
:1040D000064B01221A5403EB8002526812681844FE
:1040E000007A904708BD0020FCE700BF140D0020B7
:1040F00038B5044C04EB80056D68AD680444207A43
:10410000A84738BD140D002038B5044C04EB8005D9
:104110006D68ED680444207AA84738BD140D00206E
:1041200010B5044B03EB8004646824690344187AD7
:10413000A04710BD140D00204278007840EA02200C
:104140007047C278837843EA0222437843EA022325
:10415000007840EA032070470170090A41707047F7
:104160000170C1F307234370C1F307438370090E45
:10417000C170704710B414462AB10A780131027038
:104180000130013CF9D15DF8044B704701700130FA
:10419000013AFBD1704710B40446207801340B7803
:1041A0000131C01A013A01D00028F6D05DF8044B65
:1041B00070470346187818B1884201D00133F9E7F7
:1041C0007047000030B400252B4601E00125013383
:1041D000012B15D81A01184CA258002AF6D00468F1
:1041E000A242F4D1144A02EB03125468826894424A
:1041F000EDD1114A02EB0312946842699442E6D170
:10420000022B0AD0A9B90C4A02EB03139B89B3F520
:10421000807F0CD0002030BC7047022914BF294693
:1042200045F0010109B10020F5E71220F3E7102065
:10423000F1E71020EFE700BFF00C0020002000E0C5
:104240000130012804D80301034AD358002BF7D1C9
:10425000023818BF01207047F00C002070B4002312
:1042600000E00133012B13D81A01244CA458026832
:104270009442F6D1214A02EB0312546882689442B8
:10428000EFD11E4A02EB0312946842699442E8D1CE
:10429000022B13D021B1194A02EB0312928952BBAF
:1042A00021BB164A02EB03129189013189B2134AEC
:1042B00002EB03129181581C70BC70470023012B44
:1042C00005D81A010D4CA2580AB10133F7E7022BA9
:1042D0000FD00668094D1C0105EB03122E518468AE
:1042E00054604069906000209081D3E74FF4807162
:1042F000DDE70020E0E70020DEE700BFF00C002053
:104300000138012815D80D4B03EB00139B89B3F539
:10431000807F03D01BB1013B9BB200E00023074A22
:1043200002EB0012938133B903010020034AD050FD
:104330007047022070470020704700BFF00C00203B
:10434000002303E05DF8044B70470133012B11D8C3
:104350001A0109498A588242F7D110B41A0100247F
:104360008C500133012BEDD81A0103498A5882423F
:10437000F7D1F3E7704700BFF00C00200239436922
:10438000023B8B4204D94389806A01FB03007047DA
:10439000002070470268C36A0433490A5289B1FB9E
:1043A000F2F1186830B1814202D3091A0833F8E7F4
:1043B00058680844704770B506460D4601F11A006A
:1043C000FFF7BAFE3378032B00D070BD044605F129
:1043D0001400FFF7B1FE44EA0040F6E770B5064668
:1043E0000C46154691B204F11A00FFF7B5FE33787A
:1043F000032B00D070BD290C04F11400FFF7ACFEB4
:10440000F8E700002DE9F84F81468A46D1F8008090
:1044100000F1240B0B2220215846FFF7B7FE0025A0
:104420002B46082729E0013618F806305C2B18BF08
:104430002F2BF8D04644CAF80060002D45D099F8DB
:104440002430E52B36D0202C38D8042389F82F309F
:10445000002036E014F0800F28D121461C48FFF7D9
:10446000A8FE80BBA4F16103DBB2192B01D8203C6C
:10447000E4B20BF80540013533465E1C18F80340E2
:10448000202CD7D95C2C18BF2F2CCDD02E2C18BFA8
:10449000AF42DFD82E3C18BF01240B2F14BF274694
:1044A00044F0010767B908250B27E5E7803C094B75
:1044B0001C5DD2E7052389F82430C4E70023C5E753
:1044C0000620BDE8F88F0620FBE70620F9E700BFCD
:1044D000C0DE0008D0DE00080146006808B10246D0
:1044E00003E04FF0FF307047013213783A2B18BFCA
:1044F000202BF9D83A2B01D000207047034613F83F
:10450000010B3038092898BF9A4203D128B90132EB
:104510000A6070474FF0FF3070474FF0FF30704730
:1045200038B50D46044698B103689BB11A78A2B11C
:104530008188DA88914203D0092000242C6038BD9C
:104540005878FFF7B5FD10F0010009D12468F5E7B0
:104550000920F3E71C460920F0E709200024EDE7D5
:1045600009200024EAE72DE9F041C57815B928466D
:10457000BDE8F0810446C76A00F1300801233A46DD
:1045800041464078FFF7C0FD054698B90023E37027
:10459000236AFB1AA2699342E9D2A678012EE6D9D2
:1045A000A3691F4401233A4641466078FFF7ACFDFA
:1045B000013EF3E70125DAE770B5C36A8B4202D109
:1045C0000026304670BD04460D46FFF7CCFF064678
:1045D0000028F6D101232A4604F130016078FFF764
:1045E00087FD10B101264FF0FF35E562E9E70000D5
:1045F00038B504460023C3704FF0FF33C362FFF7A2
:10460000DBFF30BB054604F22E20FFF795FD4AF68E
:10461000552398421FD194F83030E92B07D0236BF3
:1046200003F0FF130D4A934201D0022514E004F178
:104630006600FFF786FD20F07F40094B98420BD0C3
:1046400004F18200FFF77DFD064B984204D002255D
:1046500002E0042500E00325284638BDEB00900069
:1046600046415400464154332DE9F04F85B00D4684
:10467000164600230B60FFF72FFF071EC0F2448190
:10468000B54B53F82740002C00F043812C6006F016
:10469000FE06237873B16078FFF70AFD10F001057C
:1046A00008D1002E00F0318110F0040F00F02D81B0
:1046B0000A252AE100232370F8B26070FFF704FD99
:1046C00010F0010540F027811EB110F0040F40F0FA
:1046D000248100212046FFF78BFF022800F0B680DE
:1046E0000027042800F01B81012800F21A8104F140
:1046F0003B00FFF721FDB0F5007F40F0148104F18D
:104700004600FFF719FD064620B904F15400FFF7F3
:1047100018FD0646A66194F84020A270531EDBB235
:10472000012B00F2028106FB02F894F83D90A4F8F8
:104730000A90B9F1000F00F0FA8009F1FF3319EA8D
:10474000030F40F0F68004F14100FFF7F5FC8246CC
:10475000208110F00F0F40F0EE8004F14300FFF7CE
:10476000EBFC834620B904F15000FFF7EAFC8346D6
:1047700004F13E00FFF7E0FC0246002800F0DD8077
:1047800000EB080303EB1A139B45C0F0D880ABEB9A
:10479000030BBBFBF9F1CB45C0F0D3804FF6F570AE
:1047A00081426BD94FF0030B40F6F570814201D87E
:1047B0004FF0010B01F10209C4F81490E7613A448B
:1047C00022623B44A362BBF1030F5AD0BAF1000F3F
:1047D00000F0BD8042446262BBF1020F62D009EB7F
:1047E000490309F0010909EB530909F2FF19B6EB76
:1047F000592FC0F0AE804FF0FF332361E360802378
:104800002371BBF1030F50D084F800B0534A1388D2
:1048100001339BB21380E3802046FFF791FD74E0E3
:10482000002004AB03EB860343F8100C0136032E83
:104830000ED804F13000330103F5DF731844037917
:10484000002BEDD00830FFF77CFCEAE70026EEE70E
:1048500000260AE039462046FFF7CAFE01287FF607
:1048600040AF0136032E3FF63CAF04AB03EB8603AB
:1048700053F8107C002FEDD10320F2E74FF0020B2C
:1048800092E704F15A00FFF757FC00285BD1BAF118
:10489000000F5AD104F15C00FFF753FC60624FEA4D
:1048A0008909A2E74FEA49099FE704F16000FFF791
:1048B00043FC0128A8D1791C2046FFF77DFE002883
:1048C000A2D10023237104F22E20FFF735FC4AF613
:1048D0005523984298D104F13000FFF732FC204B69
:1048E000984291D104F50570FFF72BFC1D4B9842BF
:1048F0008AD104F50670FFF724FC206104F50770E7
:10490000FFF71FFCE0607FE70B25284605B0BDE8F8
:10491000F08F0C25F9E70325F7E70A25F5E70125D0
:10492000F3E70D25F1E70D25EFE70D25EDE70D2563
:10493000EBE70D25E9E70D25E7E70D25E5E70D2573
:10494000E3E70D25E1E70D25DFE70D25DDE70D2583
:10495000DBE70D25D9E700BFEC0C0020100D00208F
:1049600052526141727241612DE9F04701297ED9AD
:1049700007460C46164643698B427AD90378022BC8
:1049800045D0032B57D0012B03D002252846BDE884
:10499000F08701EB5108016A01EB5821FFF70CFE8B
:1049A00005460028F2D107F1300A08F10109C8F3E1
:1049B000080814F001041FD01AF9083003F00F039F
:1049C000320102F47F621343DBB20AF8083001239C
:1049D000FB70396A01EB59213846FFF7EDFD0546BA
:1049E0000028D3D1C9F3080944B1C6F307120AF865
:1049F00009200123FB70C9E7F3B2E6E71AF90920A1
:104A000022F00F02C6F303263243D2B2EFE7016A67
:104A100001EB1421FFF7D0FD05460028B6D107F1C0
:104A20003000640004F4FF74B1B22044FFF794FB3B
:104A30000123FB70AAE7016A01EBD411FFF7BCFD6B
:104A400005460028A2D126F0704607F13003A400E5
:104A500004F4FE741C442046FFF773FB00F0704121
:104A600031432046FFF77CFB0123FB708EE70225D4
:104A70008CE702258AE7F8B50568012956D90C4666
:104A80006B698B4254D92B78022B2DD0032B3BD052
:104A9000012B01D001204AE001EB5106296A01EB0C
:104AA00056212846FFF788FD10B14FF0FF303EE059
:104AB000771CC6F308062E4496F83060296A01EB8D
:104AC00057212846FFF778FDA0BBC7F308073D44F0
:104AD00095F8300046EA002014F0010F01D00009DB
:104AE00025E0C0F30B0022E0296A01EB14212846DF
:104AF000FFF762FD08BB05F13000640004F4FF74A9
:104B00002044FFF719FB12E0296A01EBD411284673
:104B1000FFF752FDA0B905F13000A40004F4FE74C3
:104B20002044FFF70EFB20F0704000E00120F8BDAC
:104B30000120FCE74FF0FF30F9E74FF0FF30F6E7D8
:104B40004FF0FF30F3E72DE9F041D0F80080B1F5E8
:104B5000001F42D206460F4611F01F0F3FD14161A0
:104B600084682CB998F80030022B01D9D8F8244079
:104B7000B4B9B8F80830B3EB571F32D9D8F824309D
:104B8000F361B461F36993B303EB5723F36108F165
:104B90003003C7F30801194431620020BDE8F081F9
:104BA000B8F80A506D0200E07F1BAF420FD32146D8
:104BB0003046FFF760FF0446B0F1FF3F13D00128F5
:104BC00013D9D8F814308342EED80220E6E7214604
:104BD0004046FFF7D3FBF061D3E70220DEE7022077
:104BE000DCE70220DAE70120D8E70220D6E702203E
:104BF000D4E72DE9F041054606680F4651B9D6F8CD
:104C00000C80B8F1000F12D07369434511D84FF0F2
:104C100001080EE0FFF72FFF034601284CD9B0F141
:104C2000FF3F4ED0726982424BD8B84601E04FF048
:104C3000010844460CE021462846FFF71CFF0346C6
:104C400078B1B0F1FF3F18BF01283AD0444537D0C2
:104C500001347369A342EED8B8F1010F2ED90224B2
:104C6000E9E74FF0FF3221463046FFF77DFE02466E
:104C70003B1E18BF0123002818BF002373B9A2B937
:104C8000F46032697369023B9A4201D8013A326199
:104C9000337943F001033371234612E0224639464B
:104CA0003046FFF761FE0246E9E7012A01D0012301
:104CB00007E04FF0FF3304E0012302E0002300E0AF
:104CC00000231846BDE8F081F8B50C4605680129B7
:104CD0002ED9064611466B69A3422BD94AB14FF033
:104CE000FF322846FFF740FE074610B123E0A242FC
:104CF00021D9274621463046FFF7BDFE0446E0B1E4
:104D000001281CD0B0F1FF3F1BD0002239462846B5
:104D1000FFF72AFE074670B92B696A69911E8B421C
:104D2000E5D201332B612B7943F001032B71DEE7D0
:104D3000022700E002273846F8BD0027FBE70227DC
:104D4000F9E70127F7E72DE9F04706684569C369E8
:104D5000002B6CD0044688462035B5F5001F68D27C
:104D6000C5F308073FB90133C361816979B9338954
:104D7000B3EB551F07D9656106F130033B4423624D
:104D80000020BDE8F0870023C3610420F9E77389A0
:104D9000013B13EA5529EED1FFF76DFE824601284B
:104DA00049D9B0F1FF3F48D07369834237D8B8F191
:104DB000000F11D0A1692046FFF71BFF8246002893
:104DC0003DD001283DD0B0F1FF3F3CD03046FFF749
:104DD000CAFB28B10120D4E70023E3610420D0E717
:104DE0004FF40072002106F13000FFF7CFF9514671
:104DF0003046FFF7C3FAF062738999450BD201235D
:104E0000F3703046FFF7AFFBF8B909F10109F36A17
:104E10000133F362F0E7F36AA3EB0903F362C4F82A
:104E200018A051463046FFF7A9FAE061A3E7042035
:104E3000A7E70420A5E70220A3E70120A1E70720B8
:104E40009FE702209DE701209BE7012099E770B5CD
:104E5000044606680021FFF776FE054640B1284665
:104E600070BD00212046FFF76EFF05460028F6D1F1
:104E7000E1693046FFF7A0FB05460028EFD1206A24
:104E800003787BB1C37A03F03F03A371C37A13F0B5
:104E9000080FE6D10B2204F12401FFF77CF900286A
:104EA000DFD1DCE70425DAE730B583B004460191B1
:104EB0000568019B1A785C2A18BF2F2A02D101339A
:104EC0000193F6E70022A2601B781F2B1BD88023DA
:104ED00084F82F3011462046FFF735FE034618466A
:104EE00003B030BD0428FAD112F0040FF7D1052326
:104EF000F5E705F130016369C3F308031944284657
:104F0000FFF759FAA06001A92046FFF77BFA034694
:104F10000028E4D12046FFF79AFF94F82F2003469B
:104F20000028DFD112F0040FD9D1A37913F0100FAC
:104F3000DFD10523D3E7F8B504460E460768002104
:104F4000FFF701FE0246B8B9002506E00025012161
:104F50002046FFF7F8FE024670B9E1693846FFF7D0
:104F60002BFB024640B9236A1B78002B18BFE52BA8
:104F7000ECD10135B542EAD1042A01D01046F8BD82
:104F80000722FBE770B5044606680121FFF7D3FF4F
:104F9000054608B1284670BDE1693046FFF70CFBB5
:104FA00005460028F6D120220021206AFFF7EEF8FE
:104FB0000B2204F12401206AFFF7DCF80123F370CF
:104FC000E8E7000070B50446FFF7CDFA054648B99A
:104FD0002378032B08D0002211466078FFF7A0F851
:104FE00000B10125284670BD2379012BF3D104F1CE
:104FF00030064FF4007200213046FFF7C7F84AF63A
:10500000552104F22E20FFF7A7F80F493046FFF78D
:10501000A7F80E4904F50570FFF7A2F8216904F519
:105020000670FFF79DF8E16804F50770FFF798F840
:10503000E2690132E262012331466078FFF764F8E9
:1050400000232371C7E700BF525261417272416170
:1050500070B584B0019000911646039103A8FFF744
:105060003BFA041E1FDB114B53F8245025B1284690
:10507000FFF766F900232B70019B0BB100221A7019
:10508000019B0A4A42F82430721E18BF0122002BED
:1050900008BF012212B1002004B070BD01A968460A
:1050A000FFF7E2FAF8E70B20F6E700BFEC0C002070
:1050B0002DE9F04391B00191002800F00F811546D1
:1050C000064602F03F073A4603A901A8FFF7CCFACB
:1050D000044630B10CB100233360204611B0BDE866
:1050E000F083039B0493019904A8FFF7DDFE0446B7
:1050F00060B99DF93F30002B50DB37F0010314BF3E
:105100000121002104A8FFF75DF8044615F01C0FEB
:105110005AD0002C4ED0042C42D047F00807002C67
:1051200061D117F0080F5ED000F086FD05460146FC
:105130000C980E30FFF714F829460C981630FFF73C
:105140000FF80C9B2022DA72DDF80C80DDF830902D
:1051500049464046FFF72FF905460022494640469A
:10516000FFF73CF900210C981C30FEF7F9FF039B78
:105170000122DA70BDB3039BD3F82C8000222946AC
:1051800004A8FFF7A1FD044668BB41460398FFF75A
:1051900013FA0446013D039BDD6024E00624B5E7D5
:1051A000FFF74CF808B91224B7E704A8FFF7EAFEA6
:1051B0000446B2E79DF8163013F0110F12D115F026
:1051C000040FACD008240EE06CB99DF8163013F033
:1051D000100F4CD115F0020F05D013F0010F02D0C3
:1051E000072416E00724A4B917F0080F01D047F0F0
:1051F0004007039BDB6A73620C9BB36237F00103C9
:1052000014BF0121002104A8FFF728F8306100280D
:1052100062D0002C7FF45EAF039DDDF83080414604
:105220002846FFF7C8F8B06008F11C00FEF789FFB8
:10523000F0600021F1623560EB88B38037757175DD
:105240003162B16106F130084FF400724046FEF75A
:105250009DFF17F0200F3FF43DAFF568002D3FF4A0
:1052600039AFB561039B5F897F02B16805E0042413
:10527000CFE7B1F1FF3F10D0ED1BBD4294BF00233B
:105280000123002C18BF00234BB13046FFF7F3FB7E
:1052900001460128EDD80224EBE70124ECE7F16197
:1052A000002C7FF417AFC5F30803002B3FF412AFB7
:1052B000039F3846FFF762F808B902240BE700EBBA
:1052C00055223262012341467878FEF711FF00280B
:1052D0003FF400AF0124FEE60224FBE60924FCE6CD
:1052E0002DE9F04F85B004460E4617469846002338
:1052F000C8F80030019003A9FFF712F900900028C8
:1053000040F0AE80637D0093002B40F0A980237DA8
:1053100013F0010F00F0C380E568A369ED1ABD42E8
:1053200062D33D4660E0E36A1BB12046FFF732F8E6
:105330006AE0E1690198FFF79EFB65E04FF0020A21
:1053400084F815A0CDF800A08AE04FF0010A84F897
:1053500015A0CDF800A083E04FF0020A84F815A054
:10536000CDF800A07CE094F91430002B02DB4FEA6A
:105370004A272FE0206AA0EB09005045F7D24FF4EE
:10538000007204F1300106EB4020FEF7F3FEEEE779
:10539000226A4A450DD094F91430002B64DB0123B6
:1053A0004A4604F1300103984078FEF7A1FE002838
:1053B0006ED1C4F82090A369C3F30803C3F5007746
:1053C000BD4200D22F4604F130013A46194430461E
:1053D000FEF7D0FE3E44A3693B44A361D8F80030F9
:1053E0003B44C8F80030ED1B002D39D0A169C1F352
:1053F0000803002BDFD1039B5F89013F17EA512788
:1054000008D100298FD1A068012897D9B0F1FF3FBA
:105410009BD0E061DDF80CB0E1695846FEF7AEFFC5
:105420008146002898D0B9444FEA552AB5F5007F47
:10543000AED307EB0A03BBF80A20934201D9A2EBD3
:10544000070A53464A4631469BF80100FEF750FED4
:10545000002888D04FF0010A84F815A0CDF800A0EC
:10546000009805B0BDE8F08F012304F130019BF8EE
:105470000100FEF749FE20B9237D03F07F03237569
:105480008DE74FF0010A84F815A0CDF800A0E7E7FA
:105490004FF0010A84F815A0CDF800A0E0E707233B
:1054A0000093DDE72DE9F04F85B004460E46154622
:1054B00098460023C8F80030019003A9FFF730F8A0
:1054C000009000284AD1637D0093002B46D1237DB4
:1054D00013F0020F00F0E380A369EB42C0F0B1804B
:1054E000DD43AEE0E36A002B3CD02046FEF752FFDE
:1054F000002800F0CF80012839D0B0F1FF3F3DD027
:10550000E061A36803B9A06094F91430002B3CDB80
:10551000DDF80CB0E1695846FEF730FF81460028FF
:1055200048D0B9444FEA552AB5F5007F5ED307EB62
:105530000A03BBF80A20934201D9A2EB070A53469B
:105540004A4631469BF80100FEF7DEFD002838D0C0
:105550004FF0010A84F815A0CDF800A0009805B01E
:10556000BDE8F08FE1690198FFF743FBC0E74FF01A
:10557000020A84F815A0CDF800A0EFE74FF0010A69
:1055800084F815A0CDF800A0E8E70123226A04F111
:10559000300103984078FEF7B7FD20B9237D03F072
:1055A0007F032375B4E74FF0010A84F815A0CDF806
:1055B00000A0D3E74FF0020A84F815A0CDF800A0B0
:1055C000CCE7216AA1EB0901514502D34FEA4A27F2
:1055D00028E04FF4007206EB412104F13000FEF7A1
:1055E000C9FD237D03F07F032375EFE7236A4B4555
:1055F00003D0A269E3689A423BD3C4F82090A36920
:10560000C3F30803C3F50077BD4200D22F4604F16F
:1056100030003A4631461844FEF7ACFD237D63F076
:105620007F0323753E44A3693B44A361E268934230
:1056300038BF1346E360D8F800303B44C8F8003068
:10564000ED1B3DB3A169C1F30803002BD7D1039B28
:105650005F89013F17EA51277FF456AF00297FF495
:1056600041AFA06800287FF443AF0198FFF7C1FA6B
:105670003EE701234A4604F130019BF80100FEF7A2
:1056800037FD0028B9D04FF0010A84F815A0CDF8F5
:1056900000A063E7237D43F0400323755EE7072303
:1056A00000935BE770B582B0044601A9FEF738FFAE
:1056B00070B9237D13F0400F0AD013F0800F09D189
:1056C00000F0BAFA0546616A0198FEF775FF78B1F5
:1056D00002B070BD0123226A04F1300101984078C4
:1056E000FEF712FD40BB237D03F07F032375E7E740
:1056F000A66AF37A43F02003F372A2683146206869
:10570000FEF76CFEE16806F11C00FEF729FD294654
:1057100006F11600FEF724FD002106F11200FEF747
:105720001BFD019B0122DA700198FFF74BFC237DE2
:1057300023F040032375CBE70120C9E710B582B001
:105740000446FFF7AFFF08B102B010BD01A9204623
:10575000FEF7E6FE0028F7D12069FEF7D1FD00280C
:10576000F2D12060F0E70000104B5B7AE3B970B42F
:10577000044603F0FF000D4B5D7AEDB200265E5546
:105780005D7A03EB85056C605C7A1C4422725A7A60
:10579000541CE4B25C7230320A703A234B702F23EF
:1057A0008B70CE7070BC704701207047140D0020C4
:1057B00008B50022FFF7D8FF08BD000000B583B090
:1057C000009313460A4601460348FCF7EFFC00B17C
:1057D000012003B05DF804FBB82F002000B583B0B2
:1057E000009313460A4601460348FCF7ECFD00B15E
:1057F000012003B05DF804FBB82F002008B5034872
:10580000FDF7AEF8043818BF012008BDB82F0020FE
:1058100008B501460148FDF791F808BDB82F0020F2
:10582000704708B5FFF7FCFF08BD704708B5FFF7E4
:10583000FCFF08BD704708B5FFF7FCFF08BD00B5C9
:1058400083B001238DF8073000F0F8F910B9002378
:105850008DF807309DF8070003B05DF804FB0000E9
:1058600008B5FFF7ECFF012801D0022008BD02486F
:10587000FDF74BF8FAE700BFB82F002000B589B05C
:105880000023079304E0C218117B82F8241001332F
:10589000072BF8DDC36A83630268C26301930023A8
:1058A0000393049305928DF8183007AB00F10C02B6
:1058B00001A9006CFBF784F918B1002009B05DF86C
:1058C00004FB0120FAE700B587B0836B0093002347
:1058D00002930393C26B04928DF81430012300F1FC
:1058E00024026946006CFBF76BF918B1002007B081
:1058F0005DF804FB0120FAE738B504460025C565CC
:1059000085644564C564056545658565056601234F
:10591000436600F14401006CFBF78AF884F86C00E0
:1059200094F9981D206CFBF78DFA84F86D0094F9BA
:10593000991D206CFBF786FA84F86D0084F870508E
:1059400084F8715084F8745084F8725084F875505B
:1059500084F87350206CFBF705F984F86E00B4F8F6
:105960006C3013B910B1012000E0012038BD0000F7
:1059700008B50248FFF7C0FF08BD00BF281B002084
:1059800070B490F8703090F87160B34220D0354612
:1059900000EB06139A6F0263DC6F446000239C42A5
:1059A00009DD00EB05121A4492F88010C218117537
:1059B0000133DBB2F3E70136064B83FB06235B11B1
:1059C000642202FB136380F87130012070BC7047C1
:1059D0000020FBE71F85EB5170B490F87060731CDA
:1059E000124C84FB03246411642202FB143490F8EB
:1059F00071309C4217D0426B00EB06139A678568A2
:105A0000DD6700239D4209DDC218117F00EB0612FD
:105A10001A4482F880100133DBB2F3E780F870405B
:105A2000012070BC70470020FBE700BF1F85EB51D1
:105A300070B490F8723090F87360B34222D035465B
:105A400000EB0613D3F8B826C262D3F8BC46046054
:105A500000239C4209DD00EB05121A4492F8C0169F
:105A6000C21811730133DBB2F3E70136064B83FB37
:105A700006235B11642202FB136380F8733001205C
:105A800070BC70470020FBE71F85EB5170B490F8A5
:105A9000743090F87550AB4224D02E4600EB0513BD
:105AA000D3F8F82CC262D3F8FC4C046000239C426B
:105AB00009DD00EB06121A4492F8001DC21811739A
:105AC0000133DBB2F3E70135074B83FB052303F01A
:105AD000FC0202EBA303A5EB430580F875500120FF
