:020000040800F2
:1000000000000820759D00089D9C00089F9C00082A
:10001000A19C0008A39C0008A59C0008000000000B
:10002000000000000000000000000000A79C000885
:10003000A99C000800000000AB9C0008AD9C0008D3
:10004000C59D0008C59D0008C59D0008C59D000808
:10005000C59D0008C59D0008C59D0008C59D0008F8
:10006000C59D0008C59D0008C59D0008C59D0008E8
:10007000C59D0008C59D0008C59D0008C59D0008D8
:10008000C59D0008C59D0008C59D0008B59C0008D9
:10009000C59C0008D59C0008E59C0008C59D00088B
:1000A000C59D0008C59D0008C59D0008C59D0008A8
:1000B000F59C0008C59D0008C59D0008C59D000869
:1000C000C59D0008C59D0008C59D0008C59D000888
:1000D000C59D0008C59D0008C59D0008059D000838
:1000E000C59D0008C59D0008C59D0008C59D000868
:1000F000C59D0008C59D0008C59D0008C59D000858
:10010000C59D0008159D0008C59D0008C59D0008F7
:10011000C59D0008C59D0008C59D0008C59D000837
:10012000C59D0008C59D0008C59D0008C59D000827
:10013000C59D0008C59D0008C59D0008C59D000817
:10014000C59D0008C59D0008C59D0008C59D000807
:10015000C59D0008C59D0008C59D0008C59D0008F7
:10016000C59D0008C59D0008C59D0008C59D0008E7
:10017000C59D0008C59D0008C59D00080000000041
:10018000C59D0008C59D0008C59D0008C59D0008C7
:10019000C59D0008C59D0008C59D0008C59D0008B7
:1001A000C59D0008C59D0008C59D0008C59D0008A7
:1001B000C59D0008C59D0008C59D0008C59D000897
:1001C000C59D0008C59D000800000000C59D0008F1
:1001D000C59D0008C59D0008C59D0008C59D000877
:1001E000C59D0008C59D0008C59D0008C59D000867
:0801F000C59D0008C59D000833
:10020000044B05481B1A062B02D9044B03B11847AF
:10021000704700BFCF080020CC080020000000007D
:1002200005490648091A891001EBD171491002D01D
:10023000034B03B118477047CC080020CC080020BE
:100240000000000010B5064C237843B9FFF7D8FF33
:10025000044B13B10448AFF300800123237010BD99
:10026000CC08002000000000DC9D000808B5084B09
:100270001BB108490848AFF300800848036813B968
:10028000BDE80840CCE7064B002BF9D09847F7E7CC
:1002900000000000D0080020DC9D0008CC080020F1
:1002A00000000000002301461A46184601F03ABD3E
:1002B00038B50A4C0A4D641BA4100AD004F18043DF
:1002C000013B05EB8305013C55F804399847002CA8
:1002D000F9D1BDE8384009F087BD00BF4CA5000842
:1002E00048A5000870B50F4E0F4D761BB61018BF0D
:1002F000002405D0013455F8043B9847A642F9D1B3
:100300000A4E0B4D761B09F069FDB61018BF00248C
:1003100006D0013455F8043B9847A642F9D170BD88
:1003200070BD00BF40A5000840A5000848A5000812
:1003300040A50008844641EA000313F003036DD191
:10034000403A41D351F8043B40F8043B51F8043B98
:1003500040F8043B51F8043B40F8043B51F8043B9F
:1003600040F8043B51F8043B40F8043B51F8043B8F
:1003700040F8043B51F8043B40F8043B51F8043B7F
:1003800040F8043B51F8043B40F8043B51F8043B6F
:1003900040F8043B51F8043B40F8043B51F8043B5F
:1003A00040F8043B51F8043B40F8043B51F8043B4F
:1003B00040F8043B51F8043B40F8043B51F8043B3F
:1003C00040F8043B403ABDD2303211D351F8043BDF
:1003D00040F8043B51F8043B40F8043B51F8043B1F
:1003E00040F8043B51F8043B40F8043B103AEDD28E
:1003F0000C3205D351F8043B40F8043B043AF9D2DF
:10040000043208D0D2071CBF11F8013B00F8013BB1
:1004100001D30B8803806046704700BF082A13D3BE
:100420008B078DD010F003038AD0C3F10403D21AD6
:10043000DB071CBF11F8013B00F8013B80D331F80A
:10044000023B20F8023B7BE7043AD9D3013A11F88A
:10045000013B00F8013BF9D20B7803704B784370F5
:100460008B7883706046704770B4860746D0541E00
:10047000002A41D0CAB2034602E014F1FF343BD354
:1004800003F8012B9D07F8D1032C2ED9CDB245EAF4
:1004900005250F2C45EA054519D903F1100226461A
:1004A000103E0F2E42F8105C42F80C5C42F8085CDB
:1004B00042F8045C02F11002F2D8A4F1100222F01A
:1004C0000F0204F00F041032032C13440DD91E4602
:1004D0002246043A032A46F8045BFAD8221F22F087
:1004E00003020432134404F003042CB1C9B21C44C7
:1004F00003F8011B9C42FBD170BC704714460346B5
:10050000C2E700BF0CB4F0B59DB022AC029154F824
:10051000042B069123466FF000454FF402774FF607
:10052000FF7602A90194ADF8147004950795ADF813
:10053000166000F015FA029B00221A701DB0BDE88B
:10054000F04002B0704700BF0EB4F0B59CB021ABD4
:100550000F4953F8042B019305466FF000440868D7
:1005600002954FF402774FF6FF7602A90695ADF893
:10057000147004940794ADF8166000F0F1F9029B32
:1005800000221A701CB0BDE8F04003B0704700BFF5
:10059000000000200000000000000000000000003B
:1005A000A2EB0300704700BF02780B78012A28BF36
:1005B0009A42F5D16DE9044540EA0104CDE90267AC
:1005C0006FF0000C4FEA447212B380EA010414F099
:1005D000070F6AD100F0070420F0070004F00305BC
:1005E00021F007014FEAC505F0E8042314F0040FD9
:1005F000F1E804670CFA05F462EA040266EA04060C
:100600000AD063EA0403624667EA0407664603E029
:10061000F0E80423F1E8046782FA4CF582EA060464
:10062000A4FA8CF46CBB83FA4CF583EA0705A5FAAF
:100630008CF595B950E9022351E9026782FA4CF52D
:1006400082EA0604A4FA8CF483FA4CF583EA0705DF
:10065000A5FA8CF52543DBD09CB92DBAB5FA85F403
:1006600024F0070427FA04F1DDE9026723FA04F312
:1006700003F0FF0001F0FF01FDE80445A0EB0100DD
:10068000704724BAB4FA84F424F0070426FA04F17B
:10069000DDE9026722FA04F202F0FF0001F0FF0137
:1006A000FDE80445A0EB0100704714F0030F3CD1B6
:1006B00010F0030428D150F8082B51F8083B82FAB7
:1006C0004CF582EA0305A5FA8CF55DB950F8042CC7
:1006D00051F8043C82FA4CF582EA0305A5FA8CF540
:1006E000002DE8D02DBAB5FA85F424F0070423FADA
:1006F00004F122FA04F202F0FF0001F0FF01FDE82C
:100700000445A0EB010070474FEAC40420F0030049
:1007100050F8082B21F0030151F8083B0CFA04F4BF
:1007200062EA040263EA0403C9E710F003041AD082
:10073000A1EB040120F00300E40750F8042B06D0DD
:100740000FD28B785FFAA2F4E41A06D12BB1CB78E2
:100750005FFAB2F4E41A00D11BB920465DF8104BE1
:10076000704701F1040150F8042BCC0721F003017C
:1007700051F8043B48D824D222F07F4482FA4CF549
:1007800094EA1325A5FA8CF50AD165B951F8043B12
:1007900084EA0204B4EB036F0ED150F8042BEBE7AC
:1007A0004FEA132355E035F07F454DD10878FDE839
:1007B0000445C0F1000070474FEA126203F0FF03E6
:1007C00047E002EA1C4482FA4CF594EA1345A5FA84
:1007D0008CF50AD165B951F8043B84EA0204B4EB04
:1007E000034F0CD150F8042BEBE74FEA134330E0F2
:1007F00015EA1C4528D10B884FEA124229E04FEA3E
:10080000124203EA1C4324E002F0FF0482FA4CF592
:1008100094EA1365A5FA8CF50AD165B951F8043B41
:1008200084EA0204B4EB032F09D150F8042BEBE760
:100830004FEA13630DE015F0FF0F05D10B684FEA87
:10084000122223F07F4304E04FF00000FDE804454E
:10085000704712BA1BBA82FA4CF482EA0304A4FA73
:100860008CF5B5FA85F402FA04F203FA04F34FEAC0
:100870001260FDE80445A0EB136070470000000023
:1008800090F800F06DE9024520F007016FF0000CD0
:1008900010F0070491F820F040F049804FF0000478
:1008A0006FF00700D1E9002391F840F000F1080053
:1008B00082FA4CF2A4FA8CF283FA4CF3A2FA8CF38B
:1008C0004BBBD1E9022382FA4CF200F10800A4FAF2
:1008D0008CF283FA4CF3A2FA8CF3E3B9D1E9042346
:1008E00082FA4CF200F10800A4FA8CF283FA4CF37D
:1008F000A2FA8CF37BB9D1E9062301F1200182FA37
:100900004CF200F10800A4FA8CF283FA4CF3A2FA3C
:100910008CF3002BC6D0002A04BF04301A4612BA4A
:10092000B2FA82F2FDE8024500EBD2007047D1E94D
:10093000002304F00305C4F100004FEAC50514F0DC
:10094000040F91F840F00CFA05F562EA05021CBFAD
:1009500063EA050362464FF00004A9E700000000C7
:100960002DE9F04F2DED068BBBB00C46029192465F
:100970000B93079002F012F9036812931846FFF7E1
:100980007FFFA38911901F0603D52369002B00F078
:10099000BB879FED7B8B9FED7C9B00230DF1A8090E
:1009A0000F931F931E93109313930593CDF8749098
:1009B000C8469AF800305446EBB1252B02D11AE014
:1009C000252B03D014F8013F002BF9D1A4EB0A0525
:1009D0008DB11E9B1F9AC8F800A001332A44072B33
:1009E000C8F804501F921E9300F3AC8008F1080869
:1009F000059B2B4405932378002B00F0AB804FF030
:100A0000000300228DF857304FF0FF3063780992D1
:100A10001146174604F1010A06900AF1010A9B46A5
:100A2000ABF12003582B00F2AD82DFE813F06D012B
:100A3000AB02AB027501AB02AB02AB02AB02AB0285
:100A4000AB027A01F801AB0286001402AB02F3019B
:100A5000880188018801880188018801880188014E
:100A60008801AB02AB02AB02AB02AB02AB02AB0242
:100A7000AB02AB02AB0297013002AB023002AB0219
:100A8000AB02AB02AB020F02AB02AB026C00AB02DB
:100A9000AB02AB02AB02AB025900AB02AB027C0271
:100AA000AB02AB02AB02AB02AB02AB02AB02AB02DE
:100AB000AB02AB02D901EE0130023002300261021A
:100AC000EE01AB02AB026F02AB0292026E00FD01BF
:100AD000A602AB02B100AB025B00AB02AB0223018A
:100AE00047F01007B80600F1FF850B9AF906134688
:100AF00000F15F827E0640F15C821488043200259A
:100B000001230B92D9E047F0100717F0200340F0C3
:100B1000F78517F0100240F0528217F0400300F002
:100B20004E820B9913460A4604320C880B9200251C
:100B3000C3E009980B934042099047F004079AF8E4
:100B400000306AE71DAA0299079802F0B5FF40B984
:100B5000C8464DE71F9B23B1079802991DAA02F0D2
:100B6000ABFF029B9B8913F0400F059B18BF4FF012
:100B7000FF33059305983BB0BDEC068BBDE8F08FC5
:100B80000000000000000000FFFFFFFFFFFFEF7FFD
:100B90000B9A16684FF000038DF85730141D002E85
:100BA00000F08C87069A531C00F0EA86002130463C
:100BB00002F0AEFA002800F0CE87831B0A9323EAE6
:100BC000E373002204939DF8573006920B94039729
:100BD0000E920893089B13B1049B01330493039B6B
:100BE00013F002030C9302D0049B02330493039B83
:100BF00013F084030D9340F0E981099B049A9C1A39
:100C0000002C40F3E381102C1F991E9ABB4F20DD6E
:100C100040461025B046079E04E0103C102C00F121
:100C2000080014DD01321031072A1F911E9207605F
:100C30004560F2DD1DAA0299304602F03DFF002812
:100C40008FD1103C102C1F991E9A4846EADC46466C
:100C5000804601326318072A1F931E92C8F800705D
:100C6000C8F8044000F3F1839DF85720089208F17A
:100C70000808ACE1002A41F03880A14B1093BD0672
:100C800000F159810B9AFC06134600F1288478067E
:100C900040F12584043314880B930025F90740F1B3
:100CA000568154EA050300F0528130238DF8583004
:100CB0008DF859B047F0020702234FF000028DF87B
:100CC00057200022089206994A1C6AD027F0800219
:100CD000039254EA050269D1002940F0FB82002BFF
:100CE00040F0AF8317F001030A9300F015853AAE88
:100CF000302306F8413D069B0A9A9342B8BF13463B
:100D0000049300230E9365E79AF8003000297FF4DE
:100D100084AE0122202180E647F001079AF80030D6
:100D20007BE60B9C2368099318460028234603F1B1
:100D30000403FFF6FEAE0B939AF800306DE6ABF1BC
:100D4000300300201AF801BB00EB800003EB4000E9
:100D5000ABF13003092BF5D9099061E6002A40F088
:100D6000C08747F01007BE0600F1B284FD0600F10F
:100D7000BC837C0640F1B9830B99B1F90040043182
:100D8000E51722462B460B91002A73F10003C0F2AF
:100D9000B98306999DF8573008934A1C4FF0010318
:100DA00094D154EA050200F096820397012B00F0DB
:100DB0002A83022B40F0BC8210984E46230904F08F
:100DC0000F0143EA05732A091C461546435C06F8E1
:100DD000013D54EA0503F1D1A9EB06030A938AE722
:100DE0000B9903970B688DF880304FF000020B468B
:100DF00001208DF8572004330022089204900B93B1
:100E000006920E920A9020AEE9E6002AABD08DF849
:100E10005710A8E747F080079AF80030FDE59AF8E8
:100E2000003001222B21F8E50B99354B0C6810930B
:100E30003022782304318DF859309B4647F0020761
:100E40000B9100258DF85820022336E747F008075C
:100E50009AF80030E1E59AF800B0BBF12A0F0AF1E8
:100E6000010000F02987ABF13003092B824698BFBF
:100E7000002000F28D861AF801BB00EB800003EB26
:100E80004000ABF13003092BF5D90690C8E5002AE4
:100E900040F02F870B9B380703F1070323F007036C
:100EA00040F1BE8493ED008B03F108020B92B0EE8B
:100EB000C87BB4EE497BF1EE10FA40F33B84B5EE0B
:100EC000C08BF1EE10FA00F10A869DF857300893B6
:100ED0000C4E0D4B0322002127F080000492069156
:100EE0000390BBF1470FD8BF1E460A920E9171E6E0
:100EF00047F040079AF800308FE500BFFC9D0008DE
:100F0000FCA40008DCA40008D8A400089AF800306B
:100F10006C2B03BF9AF8013047F020070AF1010A51
:100F200047F0100779E5002A40F0EA86A34B1093BA
:100F3000BD067FF5A7AE0B9B073323F0070303F134
:100F40000802F9070B92D3E900453FF5AAAE022348
:100F5000B3E6002A40F0C186BE0600F1BE84FD065D
:100F600000F173847C0640F170840B9A136804329C
:100F70000B92BDF814201A801BE547F020079AF861
:100F800000304AE5002A40F0A486BBF1000F3FF490
:100F9000E1AD002301224FF00001089304928DF887
:100FA00080B08DF85710039706930E930A9220AEE7
:100FB00015E604321C680B92012300257DE60B998F
:100FC0000A4604320C680B92002576E61F9B089AAD
:100FD00072B11E9A013201330DF157000121072A27
:100FE0001F931E9288E8030000F3898108F1080826
:100FF0000C9A6AB11E9A0132023316A80221072AFE
:101000001F931E9288E8030000F3848108F108080A
:101010000D9A802A00F0C080069A0A99551A002D70
:1010200034DD102D1E9A664C25DD41461027B04652
:1010300018462646079C04E0103D102D01F10801DA
:1010400015DD01321030072A1F901E9281E8C00082
:10105000F2DD1DAA0299204602F02EFD00287FF441
:1010600080AD103D102D1F981E9A4946E9DC34468C
:1010700003464646884601322B44072A1F931E9298
:1010800088E8300000F3308108F10808039AD7059A
:101090005ED41E9A0A98C8F8006001320344072AF9
:1010A0001F93C8F804001E9200F3008108F108089D
:1010B000039A52073DD5099A0499541A002C38DD39
:1010C000102C1E9A3F4F21DD1025079EDDF808B039
:1010D00004E0103C102C08F1080817DD0132103331
:1010E000072A1F931E92C8F80070C8F80450F0DD5C
:1010F0001DAA5946304602F0DFFC00287FF431ADCE
:10110000103C102C1F9B1E9AC846E7DC013223447A
:10111000072A1F931E92C8F80070C8F8044008DD23
:101120001DAA0299079802F0C7FC00287FF419ADA8
:101130001F9B059A099904988142ACBF5218121856
:101140000592002B40F0BD8000231E93C84630E47A
:10115000BBF1650F65DDB5EE408BF1EE10FA40F0A6
:101160000A811E9A1849C8F8001001320133012182
:10117000072A1F931E92C8F8041000F36E8308F12B
:101180000808179B0F9A9342C0F2C681039BDD07A4
:1011900000F1C2811F9B8BE7099A0499551A002D13
:1011A0007FF73AAF102D1E9A054C2EDD41461027D1
:1011B000B04618462646079C0DE000BFE8A400088C
:1011C0000C9E0008FC9D000818A50008103D102D7D
:1011D00001F1080115DD01321030072A1F901E921F
:1011E00081E8C000F2DD1DAA0299204602F064FCED
:1011F00000287FF4B6AC103D102D1F981E9A49466A
:10120000E9DC344603464646884601322B44072A29
:101210001F931E9288E8300000F3818208F10808CD
:10122000FAE60F9A012A40F326821E9AC8F8006057
:10123000013201330121072A1F931E92C8F80410BE
:1012400000F32E8208F1080811981299C8F80010CE
:1012500001320344072A1F931E92C8F8040000F3CA
:101260002B8208F10808B5EE408BF1EE10FA0F99C9
:1012700000F0F9800139013201360B44072A1E9231
:101280001F93C8F80060C8F8041000F31C8108F12F
:1012900008081398C8F804000132034419A9072A62
:1012A0001F931E92C8F800107FF700AF1DAA029985
:1012B000079802F001FC00287FF453AC1F9BC8463E
:1012C000F6E61DAA0299079802F0F6FB00283FF403
:1012D0003BAF46E4039F012B00F06181022B24D138
:1012E00003970024002567E51DAA0299079802F0DC
:1012F000E3FB00287FF435AC1F9BC846C6E61DAA59
:101300000299079802F0D8FB00287FF42AAC1F9BB3
:10131000C8466DE61DAA0299079802F0CDFB002889
:101320007FF41FAC1F9BC84672E60397002400257C
:10133000494600E03146E20842EA4572E80804F016
:10134000070305461446303354EA050201F8013C10
:1013500001F1FF36EED1039AD2077FF53DAD302B78
:101360003FF43AAD0239302306F8013CA9EB010302
:101370000A930E46BFE41799002940F378820E9A2B
:101380000F998A42A8BF0A46002A15460DDD1E9A0B
:10139000C8F8006001322B44072A1F93C8F8045094
:1013A0001E9200F3668308F108080E9A002DA8BF6C
:1013B000521B002A154640F30581102D1E9AB74C8A
:1013C00040F3378241461027B046DDF81CB0264670
:1013D000029C04E00831103D102D40F327820132B9
:1013E0001033072A1F931E9281E8C000F2DD1DAA68
:1013F0002146584602F060FB00287FF4B2AB1F9BE9
:101400001E9A4946E7E7002D08BF0A2CC0F0C680A7
:101410004E46204629460A22002303F073FC303250
:1014200006F8012D2046294600230A2203F06AFC13
:1014300004460D4654EA0503EBD1A9EB06030A93D3
:1014400059E4069B0A934E4655E41DAA0299079853
:1014500002F032FB00287FF484AB9DF857300893EC
:10146000C8461F9BB3E54D1E002D7FF712AF102D10
:101470008A4C1FDD1026079FDDF808B004E0103D00
:10148000102D08F1080815DD01321033072A1F93CB
:101490001E9288E85000F2DD1DAA5946384602F037
:1014A0000BFB00287FF45DAB103D102D1F9B1E9A97
:1014B000C846E9DC01322B44072A1F931E9288E8B4
:1014C00030007FF7E4AE1DAA0299079802F0F4FA03
:1014D00000287FF446AB1F9B1E9AC846D9E61C68BD
:1014E00004330B930025FFF7D9BB0B9A14681346FE
:1014F0000433E51722460B93002A2B4673F10003B1
:10150000BFF647AC2D2364428DF85730089365EB46
:1015100045050123FFF7D7BB1E9A1F9B119812990F
:10152000C8F8001001320344072AC8F804001F93CA
:101530001E9200F3DE8108F108080F9A551E002D57
:101540007FF7B6AD102D1E9A544C1DDD1026079F57
:10155000DDF808B004E008F10808103D102D13DD97
:1015600001321033072A1F931E9288E85000F2DDE3
:101570001DAA5946384602F09FFA00287FF4F1AAC6
:101580001F9B1E9AC846E8E701322B44072A1F9387
:101590001E9288E830007FF789AD87E6039F0397A6
:1015A0003AAE3034012306F8414D0A93FFF7A3BB4E
:1015B0001DAA0299079802F07FFA00287FF4D1AAA9
:1015C0001F9BC84617990F9A914243DB039AD00795
:1015D00040D40F9A0E98511A151A8D42A8BF0D4685
:1015E000002D0EDD1E9AC8F80450013206442B442B
:1015F000072AC8F800601F931E9200F3518208F179
:101600000808002DACBF4D1B0D46002D7FF750ADD7
:10161000102D1E9A214CB7DD1026079FDDF808B06B
:1016200004E008F10808103D102DADDD0132103343
:10163000072A1F931E9288E85000F2DD1DAA594622
:10164000384602F039FA00287FF48BAA1F9B1E9AB5
:10165000C846E8E71E9A119C1298C8F800000132AB
:101660002344072A1F93C8F804401E9200F30C82FB
:1016700008F10808ADE7039AD1073FF5D6AD1E9AE9
:10168000C8F80060013201330121072A1F931E921E
:10169000C8F804107FF7FBAD15E700BF0C9E0008EB
:1016A0001DAA0299079802F007FA00287FF459AAA8
:1016B0001F9B1E9AC846C7E51DAA0299079802F00B
:1016C000FBF900287FF44DAA1F9B1E9AC846CAE565
:1016D0000B99073121F00701D1E9002308310B9163
:1016E00014461D46FFF750BB0B9B073323F007033F
:1016F00003F10802D3E900450B920123FFF7DDBA9D
:101700000B9B073323F0070303F10802D3E90045DD
:101710000B920023FFF7D1BA4E46FFF7ECBA1DAA91
:101720000299079802F0C8F900287FF41AAA1F9BB3
:10173000C84671E4B4EE488BF1EE10FA80F1858270
:10174000069B01332BF0200500F0C681472D00F0E9
:10175000118147F48073039318EE903A002BC0F286
:10176000D481B0EE48AB00230893BBF1660F00F0C4
:10177000BC81BBF1460F00F0E280B0EE4A0B452D74
:101780000CBF069B069C079808BF5C1C1BAA18ABE5
:1017900001920093224617AB022100F0A9FBBBF196
:1017A000670F064640F0E381FB0740F13A823119AA
:1017B000B5EE40ABF1EE10FA00F059811B9B8B4265
:1017C00006D230205A1C1B9218701B9B9942F9D8E4
:1017D0009B1B472D0F9300F0EC80BBF1650F40F38E
:1017E000D481179B0E93BBF1660F00F0A7810F9B6E
:1017F0000E9A1946914200F38D81FF0700F11B827A
:1018000022EAE27304930A924FF0670B089B002BC5
:1018100040F0C78006939DF857300893FFF7DAB978
:1018200093ED008B08330B93FFF741BB34464646DC
:10183000884601322B44072A1F931E9288E8300005
:101840003FF7B6AE08F10808BCE60B9A13680432FD
:101850000B92059A1A60FFF7ACB81DAA0299079877
:1018600002F02AF900287FF47CA9C84689E41E9A70
:10187000AF48C8F80000013201330120072A1F9346
:101880001E92C8F804004EDC08F1080829B90F9A26
:101890001AB9039AD4077FF50BAC1E9A119C1298C3
:1018A000C8F8000001322344072A1F93C8F80440F7
:1018B0001E9200F3928108F108080029C0F26C81A1
:1018C0000F98C8F8006001320344072A1F931E9244
:1018D000C8F804007FF7EAABE8E40B9A05991368AF
:1018E000CD170846043229460B92C3E90001FFF7E1
:1018F00060B81DAA0299079802F0DEF800287FF46C
:1019000030A91F9BC84618E64021079801F056F9F8
:10191000029A10601061002800F0F681029A4023BC
:101920005361FFF736B81DAA0299079802F0C4F870
:1019300000287FF416A917991F9BC846A6E7069CA6
:10194000B0EE4A0B1BAA18AB01920093224617ABCC
:101950000321079800F0CCFA0646BBF1460F06EBD0
:1019600004017FF425AF3378302B00F07581179C8C
:1019700021441DE7069B002B08BF01230693E8E6E0
:101980003046FEF77DFF0023069320EAE0720E93B7
:101990009DF857300A900B94039704920893FFF731
:1019A00019B92D2700238DF8577008970693FFF774
:1019B00013B9179B0E931A46033304DB069B194693
:1019C0009142BFF614AFABF1020B0E9B8DF864B0E1
:1019D000013B002B1793BDBF0E9BC3F101032D22CA
:1019E0002B22092B8DF8652040F31D810DF1730426
:1019F0002046504D00E0104685FB0312D917C1EB7D
:101A0000A20101EB8102A3EB42023032092900F866
:101A1000012C0B4600F1FF32EDDC30330238D9B235
:101A2000844202F8011C40F268810DF16600134601
:101A300001E013F8011B00F8011BA342F9D10133A7
:101A40009B1A0DF16602134419AA9B1A0F9A13935D
:101A5000012A13440A9340F314810A9B119A1344F8
:101A60000A9323EAE373049300230E93CEE60B4616
:101A7000AEE61DAA0299079802F01EF800287FF42E
:101A800070A81F9BC84690E41DAA0299079802F00F
:101A900013F800287FF465A817991F9BC84698E59E
:101AA0001DAA0299079802F007F800287FF459A8A8
:101AB00017990F9A1F9B511AC846A2E5069B0896D4
:101AC000062B28BF062306960E9604930B940397C5
:101AD0000A93194EFFF77EB80623069339E62D23A5
:101AE0008DF857300893FFF7F3B9069CB0EE4A0B18
:101AF0001BAA18AB01920093032117AB224607984B
:101B000000F0F6F9064601192DE72D23B1EE48AB9A
:101B100008932AE6119A0F9B13440E9A0A93002AFF
:101B200040F3B98023EAE37304934FF0670B6DE64B
:101B300018A500086766666610A50008002B40F32C
:101B4000B280069A002A40F09280FA0700F18F8056
:101B500004930A935AE6069B04930A939DF8573020
:101B600006900B9403970E900893FFF733B8BBF1E0
:101B7000470F7FF41CAEF9073FF5EFAE1B9B472DD7
:101B8000A3EB06030F933FF414AF179B0E931CE7D0
:101B900000230693FEF744BF4D4210315E4C29DA14
:101BA0001027DDF81CB004E008F10808103D102DE6
:101BB00020DD01321033072A1F931E9288E890001F
:101BC000F2DD1DAA0299584601F076FF00287EF446
:101BD000C8AF1F9B1E9AC846E8E71DAA029907983E
:101BE00001F06AFF00287EF4BCAF17991F9B1E9A74
:101BF000C84662E601322B44072A88E830001F936A
:101C00001E9208F108087FF75BAE1DAA029907989B
:101C100001F052FF00287EF4A4AF1F9B1E9AC84615
:101C20004EE61B9BD4E5303330228DF867308DF8BB
:101C300066201AAB08E70E9B119A13440A9323EA15
:101C4000E37304934FF0670BE0E59DF85720334EA4
:101C5000334B0892FFF73EB9B5EE40ABF1EE10FA08
:101C60003FF485AEC4F1010417942144A0E50E9B16
:101C7000119A1344069A1A4422EAE2730A920493D0
:101C8000C4E517F001030E937FF4E7AE0A9B23EA45
:101C9000E3730493BAE50E9B0A9AC3F101031A4455
:101CA00013460A923EE7069B0BB9FB0702D5119B30
:101CB0000133DFE701234BE70B9D9AF801302C68D5
:101CC0008246284644EAE474043006940B90FEF7FA
:101CD000A4BE8DF85710FFF758B98DF85710FFF7CD
:101CE0003BB98DF85710FFF73CB88DF85710FEF749
:101CF000C4BF8DF85710FFF7CDB80DF16603A3E60A
:101D00008DF85710FFF712B9079A0C2313604FF0A4
:101D1000FF330593FEF72EBF0C9E0008E4A40008D5
:101D2000E0A400082DE9F047254C2568D5F8484186
:101D30000646884692469946C4B360681F2817DC59
:101D4000431C76B104EB80050122C5F888A0D4F8C5
:101D5000881182401143022EC4F88811C5F80891F9
:101D60001ED00230636044F820800020BDE8F08778
:101D7000144B03B34FF4C870AFF300800446D0B1E6
:101D8000D5F84831002780E88800C5F84841384632
:101D90000123C4F88871C4F88C71002EE1D0D1E71A
:101DA000D4F88C110A43C4F88C21DAE705F5A6743F
:101DB000C5F84841C1E74FF0FF30BDE8F08700BFEC
:101DC000F89D00080000000002690B69934200F3CF
:101DD0008D802DE9F04F03F1FF3801F1140700F178
:101DE000140B57F828205BF828304FEA880483B09A
:101DF0000132B3FBF2F90BEB0403009407EB040A86
:101E00000193B9F1000F39D000252E46BC46DE46BD
:101E10005CF8044BDEF80030A2B209FB0255220C3C
:101E20002C0C09FB0242ADB2751B96B2C6EB1346F1
:101E300015FA83F306EB23469BB243EA0643E245D9
:101E40004FEA12454EF8043B4FEA2646E0D2009B8B
:101E50005BF8033093B9019C231F9B450CD254F8C7
:101E6000043C4BB9A4F1080302E01A68043B1AB918
:101E70009B4508F1FF38F8D3C0F81080044601F004
:101E8000E7FB00282EDB09F101095D46002357F826
:101E9000041B28688AB29A1A0B0C12FA80F2C3EB60
:101EA000104303EB224392B242EA0342BA4545F89B
:101EB000042B4FEA2343EAD25BF828200BEB88037C
:101EC00082B91A1F93450BD253F8042C42B9083B30
:101ED00002E01A68043B1AB99B4508F1FF38F8D3B1
:101EE000C4F81080484603B0BDE8F08F002070476A
:101EF0002DE9F04F056C93B004465BEC10AB1C9FD2
:101F00000191914604934DB1426C6A600123934064
:101F1000AB60294601F076F900232364BBF1000F82
:101F20005E4635DB00233B60C14BB34315D04BEC21
:101F300017ABB5EE407BF1EE10FACDE902AB2DD137
:101F4000049A012313601D9B002B00F0B380B94855
:101F50001860013813B0BDE8F08F049A42F20F7395
:101F60001360BAF1000F0DD1C6F3130656B91D9BCD
:101F7000B148002BEED000F108031D9A136013B096
:101F8000BDE8F08F1D9BAD48002BE3D0C31CF4E7E8
:101F900001232BF000463B60B346C5E711A910AA08
:101FA0009DED020B204601F07FFC310D804665D08F
:101FB000DDE90223C3F3130040F07F53002510989E
:101FC0000D95A1F2FF3143F4401343EC172BB7EE0C
:101FD000086B9FED914B37EE466B9FED917B9FED2C
:101FE000925BA6EE047B06EE901AB8EEE66BA6EEC8
:101FF000057BFDEEC76BB5EEC07BF1EE10FACDEDC3
:10200000026A00F13081029D162D00F201818C4B95
:1020100003EBC50393ED007B4BEC16ABB4EEC67B34
:10202000F1EE10FA40F383816B1E029300230B93B1
:10203000411A4B1E069300F1108100230793029B67
:10204000002BC0F20181069A0A931146194400231D
:1020500006910593019B092B2ED8052B40F3508543
:10206000043B01930025019B023B032B00F25085AA
:10207000DFE813F0490386025603D803109811993C
:10208000014401F23243202B40F34A81C3F1400363
:1020900001F212429E402AFA02F3334307EE903ACD
:1020A000B8EE677B012553EC172B0139A3F1F873C8
:1020B0000D958AE763484DE7002161642046894613
:1020C00001F07AF84FF0FF36012308902064CDF834
:1020D00004900C960993119B002B7ADB029A0E2A2E
:1020E00077DC574BB9F1000F03EBC20393ED004BC4
:1020F000C0F232834BEC17AB87EE046BBDEEC66BC0
:10210000089A16EE103A012E03F13003B8EEC65BC2
:1021100002F1010B1370A5EE447B24D0B2EE043B18
:1021200027EE037BB5EE407BF1EE10FA3CD0B1EE2A
:10213000442B089A06E027EE037BB5EE407BF1EED8
:1021400010FA31D087EE046BBDEEC66B16EE103A76
:1021500030330BF8013BABEB0203B342B8EEC65B86
:10216000A2EE057BE7D137EE077BB4EEC74BF1EE6D
:1021700010FA08D4B4EE474BF1EE10FA14D116EE73
:10218000103ADB0710D51BF8013C08990BF1FF3220
:1021900004E0914200F0DA8312F8013D392B02F19C
:1021A000010BF6D0013313704146204601F02AF8A6
:1021B0000022029B8BF80020049A013313601D9BC0
:1021C000002B00F055830898C3F800B013B0BDE8A9
:1021D000F08F099A002A52D0019A012A40F3E28234
:1021E0000599721E9142C0F246838B1A0D93002E00
:1021F000C0F21584079F3346079A1A440792069A3D
:1022000001211A442046069201F0E4F805463AE01E
:1022100001230B930CE700BF61436F63A787D23F95
:10222000B3C8608B288AC63FFB799F501344D33FC5
:102230000000F07F19A500081CA5000828A50008CB
:10224000309E000818A50008079A029BD21A5B422C
:102250000593002307920A93FCE6C1F1010307935B
:1022600000230693EBE6B8EEE66BB4EE467BF1EEA8
:1022700010FA3FF4C8AE029B013B0293C3E6059BF4
:10228000079F099D0D93002F0CDD069900290B4631
:1022900008DDB942079AA8BF3B46D21AFF1ACB1AEB
:1022A00007920693059BEBB1099B002B00F073820C
:1022B0000D9B002B11DD1A462946204601F026F918
:1022C000424601460546204601F08EF841460E90F2
:1022D000204600F097FF0E9B9846059B0D9A9A1A90
:1022E00040F05A820121204601F074F80A9B0590C3
:1022F000002B1FDD01461A46204601F007F9019B1D
:102300000590012B40F30F8200230D93059A13696A
:1023100002EB8303186901F00DF8C0F1200013E00F
:10232000C3F120030AFA03F307EE903AB8E600235C
:102330000B937DE6019B012B40F33E8200230D931E
:102340000A9B0120002BE1D1069A104410F01F00D7
:1023500000F09E80C0F12003042B40F3D483079B40
:10236000C0F11C000344079313460344074406933B
:10237000079B002B05DD41461A46204601F016F961
:102380008046069B002B05DD1A460599204601F084
:102390000DF905900B9B002B40F08380002E40F33D
:1023A0001E82099B002B00F09680002F05DD294638
:1023B0003A46204601F0FAF805460D9B002B40F006
:1023C000CE822F46089B013E9A1909920AF001021B
:1023D0000A921E46DDF814B040465946FFF7F4FC59
:1023E00029468246404601F033F93A46594681462D
:1023F000204601F049F9C36883460AF13002002BF8
:1024000040F0E58101464046079201F021F9594626
:102410000690204600F0F6FE069B079A33B9019914
:1024200021B90A9B002B00F04383019BB9F1000FF7
:10243000C0F23B8205D1019919B90A99002900F02F
:102440003482002B00F39F82099B327006F1010950
:102450009E42CB4600F0A282414600230A2220463B
:1024600000F0DAFEBD42804629464FF000034FF0EF
:102470000A02204600F0A58100F0CEFE394605464E
:1024800000230A22204600F0C7FE4E460746A1E779
:102490001C20079B03440793069B034407440693B1
:1024A00066E70599404601F0D3F80028BFF676AFFD
:1024B000029E414600230A222046013E029600F079
:1024C000ABFE099B8046002B40F002830C9B002B47
:1024D00040F30A831E46DDF820A0DDF814B057460D
:1024E00002E000F099FE804659464046FFF76CFC3A
:1024F00000F1300907F8019BA7EB0A03B3424FF044
:102500000A024FF0000341462046EADB089B012EF9
:10251000ACBF9B1901339B464FF0000A4146012294
:10252000204601F043F80599804601F091F8002813
:1025300040F3D7811BF8012C08990BF1FF3304E01D
:102540008B4200F0688113F8012D392A03F1010B49
:10255000F6D001321A700599204600F053FE002D86
:102560003FF422AEBAF1000F05D0AA4503D0514680
:10257000204600F047FE2946204600F043FE13E6C1
:1025800000230993029B4B445E1C012E37460C939B
:10259000B8BF01270E960021172F61640AD90122C6
:1025A00004235B0003F114008742114602F101028B
:1025B000F7D26164204600F0FFFD0E9B08900E2BC1
:1025C00020643FF688AD002D3FF485AD02980028C9
:1025D000CDE90EAB40F39A81C84A00F00F0302EB3D
:1025E000C3020311DF0692ED007B40F14D81C44A26
:1025F00092ED086B4BEC14AB03F00F03032184EE58
:10260000065B5BB1BE4ADD0704D592ED006B01317C
:1026100027EE067B5B1002F10802F4D185EE076B12
:102620000B9B3BB1B7EE007BB4EEC76BF1EE10FA3B
:1026300000F10682B1EE0C5B07EE901AB8EEE77B74
:10264000A7EE065B51EC150BA1F15071002E00F0C6
:10265000F880029A3546099B002B00F0A781B6EE60
:10266000003BA64B089F03EBC50313ED024BBDEEE9
:10267000C67B83EE045B17EE103A41EC140B30334B
:10268000DBB235EE445BB8EEC77B36EE477BB4EE8B
:10269000C75BF1EE10FA3B7007F1010B31DCB7EECE
:1026A000003B33EE476BB4EEC65BF1EE10FA00F37D
:1026B000FA81012D00F02681B2EE044B089B5919D6
:1026C0000AE033EE476BB4EEC56BF1EE10FA00F1A1
:1026D000EA818B4500F0168127EE047B25EE045B32
:1026E000BDEEC76B16EE103A3033DBB2B8EEC66BF8
:1026F00037EE467BB4EEC57BF1EE10FA0BF8013BEA
:10270000DFD5029250E500230993B9F1000F40F3A1
:10271000BF804F46CDF83890CDF830904E463AE71E
:1027200001230993F1E7BAF1000F7FF4EDADCBF38C
:102730001303002B7FF402AE2BF000431B0D1B058F
:10274000002B00F0B381079B01330793069B0133F5
:10275000069301230D93F3E5002E3FF7CBAC40F039
:102760008380B1EE047B24EE074B4BEC17ABB4EE49
:10277000C74BF1EE10FA3546059643DB6FEA0903C5
:10278000DDF820B002930599204600F03BFD002DB6
:102790003FF40AADEFE6059A4146204600F0B6FE4A
:1027A00080469FE50D9A002A00F03E81059A0D9221
:1027B00003F23343079F1FE5BAF1000F7FF4BEAD6C
:1027C000B5E700F029FD4E460546074602E60146FC
:1027D0002046069200F016FD0123069A26E6019B8C
:1027E000022B7FF7DEAD002EC8D1334605990522B6
:1027F000204600F011FD01460590404600F028FFFC
:102800000028BBDD029A08993123013202920B7035
:1028100001F1010BB7E7029A01320292089A3123C3
:10282000137098E601230993ACE607EE901AB1EE17
:102830000C5BB8EEE77BA6EE075B51EC150BA1F144
:102840005071B1EE047B36EE477B41EC160BB4EED3
:10285000C67BF1EE10FA00F3A580B1EE466BB4EE44
:10286000C67BF1EE10FA4DD5002305931D4685E792
:102870000898FFF76FBB059B0A990592D31A194474
:1028800000230A910D93B2E49DED0E5B0221B8E6A0
:1028900000216164204600F08FFC4FF00109089090
:1028A00020644E46CDF830908DE6002B914611DD28
:1028B00041460122204600F079FE0599804600F04D
:1028C000C7FE002840F3FD80B9F1390F00F0D48035
:1028D0000AF13109AA4686F8009006F1010B3D463F
:1028E00039E604D119F0010F01D023E693461BF815
:1028F000013C302B0BF1FF32F8D02CE6309E000863
:10290000209F0008DDE90EABFFF7E5BB00F09480E7
:10291000029B884A5B4203F00F0102EBC10292ED79
:10292000006B9DED0E7B1B1127EE066B00F0E18026
:10293000814A0221D80704D592ED007B013126EEB1
:10294000076B5B1002F10802F4D169E608993023A5
:102950000B70029B013302931BF8013C22E469686F
:10296000204600F029FC2B69023307469A0005F146
:102970000C010C30FDF7DEFC39460122204600F048
:1029800015FE07461EE5392A76D002F10109AA464E
:1029900086F8009006F1010B3D46DCE5AA4691461B
:1029A0003D46BBE5002305931D462BE7614BBDEE7D
:1029B000C67B03EBC50313ED024B17EE103A41EC57
:1029C000150B089824EE054B3033012DB8EEC77B6C
:1029D000037000F1010B36EE477B12D0B2EE045BC0
:1029E000089B591927EE057BBDEEC76B16EE103A12
:1029F00030330BF8013B8B45B8EEC66B37EE467BA8
:102A0000F0D1B6EE006B34EE065BB4EEC75BF1EED0
:102A100010FA38D502921BF8013CFFF7B6BB079BB2
:102A20009F1B0023FFF7E8BB109B059A0D92C3F193
:102A30003603079FFFF7E0BB9DED0E6B0221EFE52C
:102A4000002E3FF4F2AE0C9B002B7FF75BAFB2EE93
:102A5000044BB1EE0C5B013107EE901A26EE046BCD
:102A6000B8EEE77B029AA6EE075B51EC150B013A34
:102A70001D46A1F15071EEE53922AA4632703D465D
:102A800006F1010B58E536EE446BB4EEC76BF1EE80
:102A900010FA01DC36E78B461BF8013C302B0BF1BA
:102AA000FF31F8D02DE60292FFF76FBB0D9347E49C
:102AB000392ACB469146DFD0BBF1000F3FF708AF74
:102AC00008E77FF407AF19F0010F3FF403AFFBE60F
:102AD000294600230A22204600F09EFB0C9B002B77
:102AE000054608DD1E4660E4019B022B20DC0C9E9F
:102AF000F1E4022194E5019B022B19DC0C9E54E4C5
:102B00000125FFF7B0BA3FF433ACC0F13C00C0E49C
:102B1000002565642946204600F04EFB4FF0FF3645
:102B200001230890A94620640C960993FFF7D3BAB5
:102B30000C9E58E6309E0008209F0008B2B110B5E8
:102B40000B4910461446FDF72FFD08B9094810BD82
:102B500008492046FDF728FD0028F7D02046064901
:102B6000FDF722FD0028F1D0002010BD014870477C
:102B70002CA50008D4A40008D49F00080048704782
:102B800030040020014B186A704700BF3004002059
:102B900000487047540400200020704700487047E8
:102BA00074040020024B0A4601461868FFF7C6BFAE
:102BB0000000002000487047740400202DE9F04F09
:102BC00001F10B06162E83B0054640F29E8036F0CA
:102BD000070600F1BD80B14200F2BA8000F0E8FAC9
:102BE000B6F5FC7FC0F08F82730A00F0B880042B2A
:102BF00000F27D81B30903F1390003F1380EC300FF
:102C0000C14F3B44A3F108015C68A14206D10CE02E
:102C1000002A80F2AA80E468A14206D0636823F00B
:102C200003039A1B0F2AF3DD70463C69DFF8DCE2F0
:102C3000744500F0A781636823F003039A1B0F2AF1
:102C400000F38C81002AC7F814E0C7F810E080F286
:102C50009D80B3F5007F80F05D81DB0803F1010CFE
:102C600099107A6857F83C80C4F8088001238B409B
:102C700007EBCC0113430839E1607B6047F83C4027
:102C8000C8F80C408210012494409C4200F28B80D2
:102C90001C4206D120F0030064001C4200F1040035
:102CA000FAD007EBC009CC468046DCF80C309C45D6
:102CB00007D169E1002A80F27781DB689C4500F04A
:102CC0006381596821F003018A1B0F2AF2DDD3F8D2
:102CD0000CC0D3F8088001939C19284646F00106E1
:102CE00042F001055E60C8F80CC0CCF808807C6139
:102CF0003C61C4F80CE0C4F808E065605A5000F08C
:102D000059FA019B03F108041EE0102920D800F0B5
:102D10004FFA1026182302207B4F3B44A3F10802F0
:102D20005C68944200F039816368E168A66823F02A
:102D30000303234428465A68F16042F001028E6082
:102D40005A6000F037FA0834204603B0BDE8F08F2F
:102D500000240C2320462B6003B0BDE8F08F4020F8
:102D60004FF400734FF03F0E4AE72344E1685A687E
:102D7000A66842F00102F16028468E605A6000F0B9
:102D800019FA0834204603B0BDE8F08F23442846E2
:102D90005A6842F001025A6000F00CFA08342046EA
:102DA00003B0BDE8F08FBC68636823F00309B14548
:102DB00004D3A9EB06030F2B00F38980DFF850A1A1
:102DC000D7F80824DAF80030013204EB090B06EBDF
:102DD000030800F0508108F5805808F10F0828F426
:102DE0007F6828F00F084146284600F053FE421C39
:102DF000034600F0F680834500F2F180DAF8042003
:102E00004244CAF8042000F04781D7F80814013181
:102E10001BBFA3EB0B0B5A44C7F80834CAF80420B5
:102E200013F0070200F00D81C2F10801C2F58052D3
:102E30000B4408329844C8F30B08A2EB080841463B
:102E40002846019300F026FE431C019B00F03E81C2
:102E5000C11A414441F00101DAF80420BB60424448
:102E6000BC425960CAF8042016D0B9F10F0F40F2E5
:102E7000F4806168A9F10C0323F00703E01801F066
:102E800001014FF0050E19430F2B6160C0F804E0FB
:102E9000C0F808E000F21281DAF82C30BC689A42DF
:102EA000DAF8303088BFCAF82C209A4288BFCAF8B6
:102EB0003020626822F003029642A2EB060301D89A
:102EC0000F2B04DC284600F075F900243CE7A2191A
:102ED00043F0010346F0010666602846BA6053607D
:102EE00000F068F90834204603B0BDE8F08F142BD9
:102EF00069D9542B00F29B80330B03F16F0003F16F
:102F00006E0EC3007CE600BFAC040020B4040020B9
:102F1000E80800205A0A042A5BD9142A00F2AE807D
:102F200002F15C01C9005B3207EB010C7958ACF18E
:102F3000080C8C4500F088804A6822F00302934216
:102F400073D289688C45F7D1DCF80C207B68E2608D
:102F5000C4F808C09460CCF80C4093E6A11946F080
:102F6000010C42F00106C4F804C0284679613961B9
:102F7000C1F80CE0C1F808E04E60E25000F01AF928
:102F80000834E1E67B687DE608F1010818F0030FDC
:102F90000CF1080C7FF489AE2DE0DC68A34208BF79
:102FA00002303FF442AEBFE619441C464A68DB6873
:102FB00054F8086F42F001024A602846F3609E60B0
:102FC00000F0F8F8C0E603F15C0003F15B0EC3000B
:102FD00016E69A0902F13901C9003832A4E7BC4269
:102FE00054D0BC68626822F0030265E759F80839DA
:102FF000994540F0868010F0030F00F1FF30F5D1C5
:103000007B6823EA04037B6064009C423FF6CBAEFE
:10301000002C3FF4C8AE1C4240467FF442AE640030
:103020001C4200F10400FAD03BE68C468CE7B3F575
:10303000AA7F15D8F30B03F1780003F1770EC300D4
:10304000DEE54FF48052F5E67B689210012101FA2B
:1030500002F213437B60624679E701225A6031E74E
:1030600040F25452934223D8B30C03F17D0003F194
:103070007C0EC300C4E508F11008B4E6542A29D830
:103080001A0B02F16F01C9006E324DE7DAF8042025
:103090004244CAF80420B8E6CBF30B0100297FF4C0
:1030A000B4AE09EB0803B96843F001034B60F3E6E3
:1030B0007F204FF47E734FF07E0EA1E504F10801EE
:1030C000284601F021FBDAF80420E5E601214FF063
:1030D0000008C1E6B2F5AA7F05D8DA0B02F1780143
:1030E000C900773220E740F254518A4205D89A0C41
:1030F00002F17D01C9007C3216E74FF47E717E2219
:1031000012E77B6880E7F00806F1080304E600BFD9
:1031100001F0FF01102A2BDB10F0070F08D010F888
:10312000013B013A8B422DD010F0070F42B3F6D18C
:10313000F0B441EA012141EA014122F007047FF0A5
:1031400000070023F0E80256083C85EA010586EAFC
:10315000010685FA47F5A3FA87F586FA47F6A5FA38
:1031600087F68EB9EED1F0BC01F0FF0102F0070244
:1031700032B110F8013B013A83EA010313B1F8D1EF
:103180000020704701387047002D06BF35460338D0
:10319000073815F0010F07D1013015F4807F02BF09
:1031A000013015F4C03F0130F0BC0138704700BF5A
:1031B000704700BF704700BFC36C70B505460C4632
:1031C0004BB153F8240080B1026843F82420002357
:1031D0000361C36070BD2122042101F015FAE86487
:1031E00003460028EDD1002070BD012101FA04F64C
:1031F000721D2846920001F007FA0028F3D04460BF
:103200008660E4E731B1C36C4A6853F82200086075
:1032100043F82210704700BFF0B50C6983B00D462B
:10322000064601F1140E0027DEF8000081B202FB11
:103230000133010C180C02FB01019BB2013703EBB7
:103240000143BC424EF8043B4FEA1143ECDC3BB176
:10325000AA68944207DA05EB8402013453612C61B9
:10326000284603B0F0BD6968019301313046FFF78D
:10327000A3FF2A69023205F10C01074692000C30C7
:10328000FDF758F8F26C6968019B52F8210028603C
:1032900042F821503D46DEE72DE9F843244C089ED4
:1032A0001F46083384FB034EDB17C3EB6E0EBEF1E3
:1032B000010F05460C46904635DD012300215B00D9
:1032C0009E4501F10101FADC2846FFF775FF012355
:1032D000B8F1090F4661036121DD04F109094E4689
:1032E000444416F8013B0146303B0A222846FFF7CA
:1032F00093FFA642F5D1A8F108044C44474514DDDC
:10330000A7EB0807274414F8013B0146303B0A228B
:103310002846FFF781FFA742F5D1BDE8F8830A34BC
:103320004FF00908EAE70021CEE7BDE8F88300BFC7
:10333000398EE338020C12040346B2B9030410209C
:1033400013F07F4F04BF1B02083013F0704F04BF0F
:103350001B01043013F0404F04BF9B000230002BD0
:1033600002DB5B0003D4202070470020E8E7013037
:10337000704700BF036813F00702014607D0DA0761
:1033800021D4980721D49B080B600220704798B283
:1033900098B1104613F0FF0F04BF1B0A08301A073C
:1033A00004BF1B0904309A0704BF9B080230DA07E8
:1033B00007D45B0804D1202070471B0C1020E9E7DC
:1033C00001300B607047002070475B080B600120E4
:1033D000704700BF10B50C460121FFF7EDFE01223A
:1033E0004461026110BD00BF2DE9F04F0C69156901
:1033F000AC4283B08B46164604DA2246B3462C46CE
:103400000E461546DBF80830DBF8041004EB05081F
:103410009845C8BF0131FFF7CFFE00F1140909EB51
:10342000880AD145009005D24B46002143F8041B81
:103430009A45FBD806F1140C0CEB85030BF1140B29
:103440009C450BEB840E4CD2CDF804A09A46DCF8D8
:103450000050AFB2EFB100214D465E460C4656F823
:10346000042B286893B281B207FB0313120C010CE2
:10347000234407FB021101EB13419BB243EA0143D2
:10348000B64545F8043B4FEA1144E8D82C60DCF817
:1034900000502D0C1DD0D9F8003048461C46594626
:1034A00000220E88240C05FB064422449BB243EA0A
:1034B000024340F8043B51F8043B04681B0CA6B2DD
:1034C00005FB036303EB12438E454FEA1342E8D832
:1034D00003600CF1040CE24509F10409B7D8DDF8EA
:1034E00004A0B8F1000F0BDD5AF8043CAAF1040A5D
:1034F0001BB105E05AF8043D13B9B8F10108F9D140
:103500000098C0F8108003B0BDE8F08F12F00303FC
:103510002DE9F041144607462ED10D46A4101CD0CB
:10352000BE6C96B3E3074FF0000806D4641014D0C5
:103530003068A8B10646E307F8D532462946384632
:10354000FFF752FFB5B16A68FB6C641053F82210A4
:10355000296043F822500546EAD12846BDE8F081AB
:10356000324631463846FFF73FFF3060C0F80080F2
:103570000646E0E70546D9E75A1E0B4D002355F8ED
:103580002220FFF749FE0546C8E701213846FFF72C
:1035900013FE40F2712101220023416102610646BF
:1035A000B8640360BEE700BF209E00082DE9F84321
:1035B00091460A698B684FEA691404EB020808F126
:1035C00001059D420E460746496804DD5B009D42A9
:1035D00001F10101FADC3846FFF7EEFD002C00F1A5
:1035E000140306DD03EB8402002143F8041B9A4216
:1035F000FBD1346906F1140119F01F0901EB840EA7
:103600001DD0C9F1200C00220C6804FA09F41443FF
:1036100043F8044B51F8042B8E4522FA0CF2F3D8F0
:103620001A600AB108F10205FB6C7268013D53F89B
:1036300022100561316043F82260BDE8F883043B45
:1036400051F8042B43F8042F8E45F9D8ECE700BF5E
:1036500030B40B6905460069C01A0FD19B001435C0
:10366000143119442B4401E09D4207D253F8044D14
:1036700051F8042D9442F7D002D3012030BC70479A
:103680004FF0FF30FAE700BF2DE9F0410F690E4619
:1036900011697F1A002F904617D1890006F1140591
:1036A00002F1140E6B18714401E09D425CD253F894
:1036B000042D51F8044DA242F7D05ED233462C4679
:1036C000464675469846012705E058DB06F1140585
:1036D00008F1140400277168FFF76EFDD8F8103068
:1036E0003669C76004EB830CA64605EB860700F13C
:1036F000140400235EF8041B55F8048B8AB213FAF5
:1037000088F3090C9A1AC1EB184303EB224392B2D7
:1037100042EA0342F44544F8042B4FEA2343E9D834
:10372000AF4217D9A446AE465EF8042B13FA82F3D3
:10373000191401EB12419BB243EA014277454CF860
:10374000042B4FEA2143EFD8ED432F4427F0030722
:1037500004373C44043C22B954F8043D013E002B9C
:10376000FAD00661BDE8F0810021FFF725FD0122B6
:10377000002302614361BDE8F0817446ABE7334644
:1037800006F1140402F11405164601279846A2E733
:10379000134B10EE902A1A40A2F15073002B04DD57
:1037A0000020194641EC100B70475B421B15132B90
:1037B0000DDD143B1E2BDDBFC3F11F03012202FAF6
:1037C00003F301230021184641EC100B70474FF41E
:1037D0000022002042FA03F141EC100B704700BFB9
:1037E0000000F07FF8B5046900F1140606EB8404CC
:1037F00054F8045C2846FFF79DFDC0F120030A2819
:103800000B60A4F1040117DC8E42C0F10B0738BF36
:1038100054F8081C25FA07FE00F115004EF07F53FE
:1038200034BFF940002105FA00F043F4401340EAA8
:10383000010243EC102BF8BD8E421DD20B3854F818
:10384000087C1CD0854045F07F55C0F1200CA4F1C8
:10385000080E45F4401527FA0CF1764545EA0103B8
:103860001ED254F80C1C07FA00F021FA0CF10843A0
:10387000024643EC102BF8BD0B3808D1074645F043
:103880007F5343F440133A4643EC102BF8BD05FA3E
:1038900000F040F07F53002043F440130246E8E775
:1038A00007FA00F00246E4E72DE9F04357EC106B0D
:1038B00083B0884601213C46C7F30A551746FFF7F7
:1038C0007BFCC4F3130481460DB144F480140194CD
:1038D0001EB302A840F8086DFFF74CFD002834D154
:1038E0009DE80C00C9F81420002B0CBF0121022117
:1038F000C9F81830C9F81010DDB909EB8103A0F23E
:103900003240C8F800001869FFF714FDC0EB411001
:103910003860484603B0BDE8F08301A8FFF72AFDF0
:10392000019BC9F8143001212030C9F81010002D76
:10393000E3D0A5F233450544C0F13500C8F8005086
:103940003860484603B0BDE8F0839DE80A00C0F146
:10395000200203FA02F20A43C3400193C9F814207B
:10396000C2E700BF30B587B00C4604A90546FFF793
:1039700039FF204605A98DED000BFFF733FF2069C5
:103980002969049A059B091AD31A03EB41138DED9B
:10399000020B002BDDE90001DDE902450BDD01EB47
:1039A0000351CDE900019DED007B9DED026B87EE9B
:1039B000060B07B030BDC3EB033305EB0355CDE970
:1039C0000245F0E7172808DDB7EE000BB2EE047BE6
:1039D000013820EE070BFBD17047034B03EBC0000F
:1039E00090ED040B704700BF209E000870B414696E
:1039F0004E1E02F11403761103EB840101368B4253
:103A000000EB86060CD2041F53F8045B44F8045FF5
:103A10009942F9D88B1A153B23F003030433184459
:103A2000864204D9002340F8043B8642FBD870BC90
:103A3000704700BF03694A11934210B400F11404A7
:103A400010DA04EB83039C4221D253F8040C043BAC
:103A500018B115E053F8042D92B99C42FAD35DF8E1
:103A6000044B704710DD11F01F010DD054F82200F7
:103A700020FA01F303FA01F1884204EB8203E2D059
:103A800001205DF8044B704704EB8203DBE7002064
:103A9000E5E700BF38B5074C00230546084623601C
:103AA00001F022F9431C00D038BD2368002BFBD065
:103AB0002B6038BDB83900202DE9F04F936883B0F2
:103AC0009046002B70D082460C4617688D680868B7
:103AD00042E0A38913F4906F2ED06569216905EB4C
:103AE0004505A0EB010B05EBD5750BF101006D1041
:103AF0003044A8422A4684BF05462A465B0538D58D
:103B000011465046FFF75AF800283CD05A46216922
:103B10000190FCF70FFCA289019B22F4906242F015
:103B20008002A281A5EB0B0203EB0B006561236110
:103B30002060A2603546B3465A46494600F0CAFEA8
:103B4000D8F80830A2682068551B58449E1BA56011
:103B50002060C8F808603EB37E683B460837002EF8
:103B6000FAD0AE42D3F80090AB46B2D23546B34657
:103B7000E2E7504600F012FF03460028D2D1216947
:103B8000504600F0C1FD0C23CAF80030A389002282
:103B900043F040034FF0FF30A381C8F80820C8F875
:103BA000042003B0BDE8F08F0020C8F8040003B083
:103BB000BDE8F08F2DE9F04FADB00C460591898935
:103BC00007930D060A9003D52369002B00F0D684D5
:103BD00000230DF1700A0A9F0B93934611931093E3
:103BE0000293CDF83CA0D1469BF800305C46EBB187
:103BF000252B02D11AE0252B03D014F8013F002B0E
:103C0000F9D1A4EB0B058DB1109B119AC9F800B046
:103C100001332A44072BC9F804501192109300F382
:103C2000C38309F10809029B2B4402932378002BDC
:103C300000F04B8300204FF000038DF8373004F183
:103C4000010B6278054603464FF0FF3804460BF13E
:103C5000010BA2F12001582900F26B82DFE811F07C
:103C6000BD0069026902B80069026902690269025D
:103C7000690269025900B30069026300C001690268
:103C8000BB01AD01AD01AD01AD01AD01AD01AD01B6
:103C9000AD01AD0169026902690269026902690246
:103CA00069026902690269025F01690269026902C7
:103CB00069026902690269026902690269024D01C9
:103CC000690269026902690269023C0169026902CA
:103CD00025016902690269026902690269026902D1
:103CE000690269026902C50000026902690269028B
:103CF000FB01000269026902EE016902DA017A0041
:103D00003602310269020E02690268006902690224
:103D10008F0007990C680A46002C02F1040280F219
:103D2000C9836442079243F004039BF800208EE7A6
:103D300006949C0600F1D6800799D8060A4600F141
:103D40000A825E0640F107820C88043100250122B8
:103D50000791CCE113F02002069440F0D58013F0D7
:103D6000100140F0FE8113F0400200F0FA81079844
:103D70000A4601460431048807910025B7E10694FC
:103D8000002840F03184BA490B919D0600F19680DD
:103D90000798DC06014602D4580600F1A9830C6896
:103DA000043107910025D90740F1948054EA0501B8
:103DB00000F0908030218DF8392043F002038DF817
:103DC0003810022293E19BF8002001202B253EE7CA
:103DD00043F001039BF8002039E79BF80020002DF9
:103DE0007FF435AF0120202531E7079906940A6852
:103DF0008DF848204FF000000A468DF83700043255
:103E0000012000900792049012AE01934FF0000839
:103E1000019B13F00203089302D0009B023300932E
:103E2000019B13F08403099340F0A281069B009A42
:103E30009C1A002C40F39C81102C1199109A8D4DE6
:103E400025DD48461023C146B046059E04E0103CDF
:103E5000102C00F1080017DD01321031072A1191F2
:103E6000109205604360F2DD0FAA31463846039395
:103E7000FFF722FE002840F02F82103C102C1199F1
:103E8000109A039B5046E7DC4646C8468146531CC1
:103E90002144072B11911093C9F80050C9F8044030
:103EA00000F3F28209F1080964E10694002840F069
:103EB000A58371490B919D067FF56AAF079C073476
:103EC00024F0070101F10800D1E90045D907079066
:103ED0003FF56CAF02220AE143F0100306949C0602
:103EE0007FF52AAF079C073424F0070202F108018E
:103EF000D2E9004507910122F9E043F0100313F0E5
:103F0000200206943FF42BAF079C073424F00702ED
:103F100002F10801D2E9004507910022E7E006948A
:103F2000002840F0658343F010039C0600F1FA82FC
:103F3000D80602D4590600F1C48207990C680A46D3
:103F4000E5170432079220462946002871F1000245
:103F5000C0F2C5829DF837200392B8F1FF3F4FF0C1
:103F6000010240F0CE8054EA050100F00D82019379
:103F7000012A00F06B82022A40F02D820B985646EF
:103F8000230904F00F0143EA05732A091C4615466C
:103F9000435C06F8013D54EA0503F1D1AAEB0603A0
:103FA0000493049B039A4345B8BF43460093002AF9
:103FB0003FF42EAF013300932AE7A2F13001002431
:103FC0001BF8012B04EB840401EB4404A2F1300143
:103FD0000929F5D93DE643F080039BF8002036E639
:103FE0009BF800202A2A0BF1010600F0E782A2F1DB
:103FF00030010929B3464FF000083FF62AAE1BF8FE
:10400000012B08EB880801EB4808A2F130010929CF
:10401000F5D91EE6002840F0DD829A0600F176828E
:10402000DE0600F197825D0640F19482079A1368DC
:1040300004320792BDF808201A80D5E59BF80020CD
:104040006C2A03BF9BF8012043F020030BF1010B06
:1040500043F01003FBE543F040039BF80020F6E536
:10406000069400283FF461AF8DF837505DE700BF3C
:10407000FCA40008489F0008E8A4000807990694DB
:104080000E684FF000028DF837200C1D002E00F056
:104090008382B8F1FF3F00F065824246002130463E
:1040A0000093FFF735F8009B002800F07E82821B0A
:1040B00001939DF837300492079403934FF0000862
:1040C0006FE743F020039BF80020C0E50798B34A50
:1040D00006940B9204687822302104308DF8392040
:1040E00043F00203079000258DF8381002224FF0AC
:1040F00000018DF8371000210391B8F1FF3F3FF424
:1041000032AF23F08001019154EA05017FF430AF12
:10411000B8F1000F40F03781002A40F0B18113F070
:104120000103049300F0CB812CAE302306F8413D0F
:1041300037E70694002840F05E82002A00F0C58030
:1041400001218DF848204FF0000200918DF83720B2
:10415000049112AE59E6043114680791012200253A
:10416000C5E7079801460431046807910025BEE7BA
:104170001199109B9DF837206AB1013301310DF17F
:1041800037000122072B1191109389E8050000F3F5
:10419000458109F10809089A62B1013302310EA87C
:1041A0000222072B1191109389E8050000F3428148
:1041B00009F10809099A802A00F09B80049AA8EB6B
:1041C0000205002D31DD102D754C23DD4A464FF0E0
:1041D0001008B1462646059C04E0103D102D02F162
:1041E000080214DD01331031072B1191109382E87E
:1041F0004001F2DD0FAA21463846FFF75DFC00289A
:104200006AD1103D102D1199109B5246EADC3446BC
:104210004E46914601332944072B1191109389E8AA
:10422000300000F3CA8009F108090498C9F8006059
:1042300001330144072B11911093C9F8040000F3D6
:10424000908009F10809019B5B0730D5069B009A15
:104250009C1A002C2BDD102C109B524D1CDD1026BF
:10426000DDF8148004E0103C102C09F1080913DD7E
:1042700001331031072B1191109389E86000F2DDB2
:104280000FAA41463846FFF717FC28BB103C102CFC
:104290001199109BD146EBDC01332144072B11917E
:1042A0001093C9F80050C9F8044000F3F980029B4C
:1042B000069A00988242ACBF9B181B1802930029F3
:1042C00059D100231093D1468EE4119B23B10A9853
:1042D00005990FAAFFF7F0FB059B9B8913F0400F90
:1042E000029B18BF4FF0FF33029302982DB0BDE838
:1042F000F08F069A0098151A002D7FF75FAF102DEA
:10430000274C22DD4A46B1462646059C04E0103D76
:10431000102D02F1080215DD013310311020072B9A
:104320001191109316605060F1DD0FAA21463846B6
:10433000FFF7C2FB0028CFD1103D102D1199109B23
:104340005246E9DC34464E46914601332944072B58
:104350001191109389E8300000F3F08009F1080909
:104360002CE70FAA05993846FFF7A6FB0028B3D122
:104370001199D14667E70FAA05993846FFF79CFBCC
:1043800000289ED0A8E7019B012A00F0B780022AEE
:104390001ED1019300240025F0E500BFFCA4000815
:1043A000589F0008489F00080FAA05993846FFF754
:1043B00083FB002890D1D14635E40FAA05993846F1
:1043C000FFF77AFB002887D11199109BD1462CE783
:1043D000019300240025514600E03146E20842EAFC
:1043E0004572E80804F0070305461446303354EAE2
:1043F000050201F8013C01F1FF36EED1019AD20726
:104400007FF5CCAD302B3FF4C9AD0239302306F82F
:10441000013CAAEB010304930E46C2E50FAA0599DD
:104420003846FFF749FB00287FF456AF1199109BDF
:10443000D146B0E60FAA05993846FFF73DFB0028A4
:104440007FF44AAF1199109BD146B3E6002D08BF07
:104450000A2C52D35646204629460A22002300F051
:1044600051FC303206F8012D2046294600230A224D
:1044700000F048FC04460D4654EA0503EBD18DE5F7
:10448000CDF8108056468CE50FAA05993846FFF7FF
:1044900013FB00287FF420AF1199109BD14669E6E9
:1044A0000FAA05993846FFF707FB00287FF414AFE1
:1044B0001199FCE607929BF80020FFF7C8BB56460F
:1044C0006FE5079EB6F900403246E51720460432F4
:1044D00029460028079271F10002BFF63BAD2D225C
:1044E00064428DF83720039265EB4505012204E60E
:1044F0000C8804310025079155E4019B01932CAEF3
:104500003034012306F8414D04934AE5079A029995
:104510001368CD170846043229460792C3E9000103
:10452000FFF762BB079C073424F00704D4E90001BD
:1045300004F10802079204460D4606E50FAA059904
:104540003846FFF7B9FA00287FF4C6AE1199109BE0
:10455000D14633E6079A136804320792029A1A602A
:10456000FFF742BB304601930794FCF789F99DF8A9
:104570003730049003934FF0000812E54021009279
:10458000FEF71CFB059A10601061009A28B305998C
:1045900040234B61FFF71CBB4246062A28BF062278
:1045A000049207940092174E2FE49DF83720CDF81F
:1045B00010800392079401938046F2E4079A1168F1
:1045C0009BF8012041EAE17807990431B34607914D
:1045D000FFF73DBB8DF837501FE50A9A0C23136097
:1045E0004FF0FF33029380E68DF83750FFF7CBBBD7
:1045F0008DF8375097E48DF837509EE58DF8375099
:1046000057E400BF10A5000810B502FB01F1FEF74A
:10461000D5FA0446D8B150F8042C22F00302043A2B
:10462000242A18D8132A14D900231B2A03604360B4
:1046300016D9242A8360C36011BF00F11002036100
:10464000436100F118020023136053609360204619
:1046500010BD0246F7E70021FBF706FF204610BD1C
:1046600000F10802EFE700BFF8B5244F0C460646FC
:10467000FEF79EFDBB685D68C4F57E610F3125F0D5
:104680000305294421F47F6121F00F01A1F5805435
:10469000B4F5805F07DB00213046FFF7FBF9BB680C
:1046A0002B44984204D03046FEF784FD0020F8BD2C
:1046B00061423046FFF7EEF901300DD0104BBA6879
:1046C00019682D1B45F001053046091B556019601E
:1046D000FEF770FD0120F8BD00213046FFF7DAF942
:1046E000BA68831A0F2BDEDD064C0549246843F0B7
:1046F0000103001B53600860D5E700BFAC04002035
:10470000EC080020B4080020002944D02DE9F04135
:104710000D468046FEF74CFD55F8047C694927F0AC
:104720000103A5F10804E2188E685068B24220F037
:1047300003005ED0FE0750600BD455F8087CE41BE4
:1047400001F1080EA56875453B446DD0E768EF6040
:10475000BD6015186D68ED073ED543F0010262603B
:10476000E350B3F5007F17D2DB08581C9A104D6850
:1047700051F83070A7600123934001EBC0022B4336
:10478000083AE2604B6041F83040FC604046BDE8CA
:10479000F041FEF70FBD70475A0A042A52D89A0911
:1047A00002F13907FF0002F13805C819CA59083863
:1047B00090424FD0516821F003018B4232D292686F
:1047C0009042F7D1C368A060E3609C60C46040463B
:1047D000BDE8F041FEF7EEBC95683B4FBD42034497
:1047E00040D0D068E86043F0010285606260E35029
:1047F000B7E7FF07034407D455F8082CA41A13445D
:10480000A068E268C2609060304A126843F001001C
:10481000934260608C60B9D32D4B40461968FFF716
:1048200023FFB3E71046CDE711184968C90744D400
:104830009168D268CA60034443F0010091606060EF
:10484000E350A3E7142A16D802F15C07FF0002F137
:104850005B05AAE7AA1001234D6893402B434B60E8
:104860000346B0E743F001024C610C61E560A560CE
:104870006260E3508AE7542A06D81A0B02F16F07E8
:10488000FF0002F16E0590E7B2F5AA7F06D8DA0BB9
:1048900002F17807FF0002F1770586E740F25450F5
:1048A000824206D89A0C02F17D07FF0002F17C05D6
:1048B0007BE74FF47E777E2577E743F00101616067
:1048C000136063E7AC040020B4040020B8080020A3
:1048D000E80800208842F0B50DD98B1898420AD21A
:1048E0008418002A51D0224613F8014D02F8014DD8
:1048F0009942F9D1F0BD0F2A48D941EA00039B073C
:1049000046D100F1100401F11003154653F8106C64
:1049100044F8106C53F80C6C44F80C6C53F8086CA9
:1049200044F8086C103D53F8046C44F8046C0F2DE7
:1049300003F1100304F11004E8D8A2F1100323F0EE
:104940000F0302F00F0E1033BEF1030F194403449E
:1049500021D91E1F0D467446043C55F8047B46F8C9
:10496000047F032CF8D8AEF1040424F003040434CB
:104970002144234402F0030262B1013B0A4411F8CE
:10498000014B03F8014F8A42F9D1F0BD0346F3E72A
:104990000346F2E7F0BD7246EEE700BF002900F0E3
:1049A00095802DE9F04F0D46164683B0804606F1FE
:1049B0000B07FEF7FDFB55F804EC162F2EF0030451
:1049C000A5F108093CD810221746BE423DD89442B2
:1049D00043DAC44B996809EB0400884200F0B480C4
:1049E000436823F0010101444968C9074CD51EF012
:1049F000010F00F09B8031464046FEF7DFF8064687
:104A000000283AD055F8043C23F001034B44A0F1B0
:104A100008029A4200F02181221F242A00F2078115
:104A2000132A00F2DB8003462A4611681960516898
:104A3000596092689A6029464046FFF765FE1CE07F
:104A400027F00707002F3A46BFDA00260C2330462E
:104A5000C8F8003003B0BDE8F08F2E46E31B0F2BE3
:104A60001ED8D9F8043003F0010323434C44C9F89D
:104A70000430636843F0010363604046FEF79AFB2D
:104A8000304603B0BDE8F08F23F00303E1189142F4
:104A90001FDBC36882682E46D3600C469A60DDE750
:104AA000D9F8042009EB070102F001024C4443F05D
:104AB00001031743C9F804704B60636843F00103B6
:104AC000083163604046FFF71FFED6E71146FEF748
:104AD00075B81EF0010F8ED155F8081CA9EB010A1C
:104AE000DAF8041021F003010B442344934225DB40
:104AF000C26881685646CA609160DAF80C1056F8B0
:104B0000080F221F242AC160886000F29480132AB3
:104B10006FD92968CAF808106968CAF80C101B2AEE
:104B200000F2A28008350AF1100263E055F8083C53
:104B3000A9EB030ADAF8041021F003016318934289
:104B4000FFF659AF5646D8E7416821F0030BA3445E
:104B500007F11000834556DA1EF0010F7FF44BAFCA
:104B600055F8081CA9EB010ADAF8041021F003013A
:104B70008B445845E2DC5646DAF80C1056F8080F1C
:104B8000221F242AC160886000F28F80132A40F21D
:104B90008A802968CAF808106968CAF80C101B2AAC
:104BA00000F28A8008350AF11002296811606968EC
:104BB0005160A96891600AEB0701ABEB070242F074
:104BC000010299604A60DAF8043003F001031F43E0
:104BD0004046CAF80470FEF7EDFA51E72B6803600F
:104BE0006B6843601B2A2DD800F1080305F1080209
:104BF0001BE732462968116069685160A9689160B5
:104C00001C46D1462AE709EB0701ABEB070B4BF03B
:104C1000010299604A6055F8043C03F001031F4308
:104C2000404645F8047CFEF7C5FA2E4628E729469B
:104C3000FFF750FEFFE6294630461C46D146FFF7F7
:104C400049FE0BE7AB688360EB68C360242A17D08A
:104C500000F1100305F11002E7E650F8043C23F0E0
:104C600003031C442E46F9E6A968CAF81010E96847
:104C7000CAF81410242A0CD010350AF11802B9E72A
:104C80002B6903616B69436105F1180200F1180398
:104C9000CBE62A69CAF818206A69CAF81C201835B8
:104CA0000AF12002A6E732467FE729463046019303
:104CB000FFF710FE019B7EE7A968CAF81010E968AB
:104CC000CAF81410242A03D010350AF118026CE730
:104CD0002A69CAF818206A69CAF81C2018350AF12E
:104CE000200262E7AC040020044A05491368002B47
:104CF00008BF0B4618441060184670471C09002076
:104D0000C039002053B94AB9002908BF00281CBF88
:104D10004FF0FF314FF0FF3000F07AB9ADF1080CE1
:104D20006DE904CE00F006F8DDF804E0DDE90223C9
:104D300004B070472DE9F0478C460D460446089EA6
:104D4000002B51D18A4217466DD9B2FA82FEBEF1CC
:104D5000000F0BD0CEF1200C01FA0EF520FA0CFC5E
:104D600002FA0EF74CEA050C00FA0EF44FEA174A65
:104D7000250CBCFBFAF81FFA87F90AFB18CC45EAA8
:104D80000C4508FB09F3AB420AD9ED1908F1FF32D3
:104D900080F02381AB4240F22081A8F102083D441B
:104DA000ED1AA4B2B5FBFAF00AFB105544EA05442B
:104DB00000FB09F9A14509D9E41900F1FF3380F09E
:104DC0000A81A14540F2078102383C44A4EB090462
:104DD00040EA08400021002E61D024FA0EF400239E
:104DE00034607360BDE8F0878B4207D9002E54D041
:104DF000002186E821000846BDE8F087B3FA83F178
:104E0000002940F08E80AB4202D3824200F2FA8049
:104E1000841A65EB03050120AC46002E3FD086E8DE
:104E20001010BDE8F08712B90127B7FBF2F7B7FA07
:104E300087FEBEF1000F34D1EB1B3A0C1FFA87FC42
:104E40000121B3FBF2F8250C02FB183345EA0345B8
:104E50000CFB08F3AB4207D9ED1908F1FF3002D281
:104E6000AB4200F2D1808046ED1AA3B2B5FBF2F05E
:104E700002FB105543EA05440CFB00FCA44507D98E
:104E8000E41900F1FF3302D2A44500F2B8801846BD
:104E9000A4EB0C0440EA08409DE731463046BDE8EB
:104EA000F087CEF1200405FA0EF307FA0EF720FA88
:104EB00004F83A0C25FA04F448EA0308B4FBF2F1CA
:104EC0004FEA184502FB11441FFA87FC45EA0445E6
:104ED00001FB0CF3AB4200FA0EF409D9ED1901F114
:104EE000FF3080F08A80AB4240F2878002393D4437
:104EF000EB1A1FFA88F5B3FBF2F002FB103345EA18
:104F0000034500FB0CF3AB4207D9ED1900F1FF3864
:104F10006FD2AB426DD902383D44EB1A40EA0141F1
:104F20008FE7C1F1200722FA07F88B4005FA01F458
:104F300048EA030320FA07FE4FEA134CFD404EEA0D
:104F4000040EB5FBFCF94FEA1E440CFB19551FFA81
:104F500083F844EA054509FB08F4AC4202FA01F281
:104F600000FA01FA08D9ED1809F1FF3043D2AC423A
:104F700041D9A9F102091D442D1B1FFA8EFEB5FB74
:104F8000FCF00CFB10554EEA054400FB08F8A04568
:104F900007D9E41800F1FF3529D2A04527D90238F6
:104FA0001C4440EA0940A4EB0804A0FB02894C45DC
:104FB000C6464D4615D312D056B1BAEB0E0364EB7C
:104FC000050404FA07F7CB401F43CC4037607460F8
:104FD0000021BDE8F0871846F8E69046E0E6C245B5
:104FE000EAD2B8EB020E69EB03050138E4E7284684
:104FF000D7E7404691E78146BEE7014678E70238A9
:105000003C4445E7084608E7A8F102083D442BE781
:10501000704700BF10B504460E4B18784FF47A73F2
:10502000B3FBF0F30C4A1068B0FBF3F000F088FC1F
:1050300068B90F2C01D901200AE0002221464FF067
:10504000FF3000F03DFC054B1C60002000E001201B
:1050500010BD00BFBC080020C8080020C008002008
:1050600008B5032000F01AFC0020FFF7D3FF04F07E
:1050700031FD002008BD0000034A1168034B1B7876
:105080000B441360704700BF4C090020BC0800208F
:10509000014B1868704700BF4C09002038B5044622
:1050A000FFF7F6FF0546B4F1FF3F02D0044B1B7833
:1050B0001C44FFF7EDFF401BA042FAD338BD00BFF0
:1050C000BC080020002800F0A18038B5044690F804
:1050D0002030D3B12268136823F002031360FFF776
:1050E000D7FF054623685A6812F0020F10D0FFF769
:1050F000CFFF401B0A28F5D9636A43F4003363628B
:10510000052384F82030012038BD04F0FBFCE1E7E2
:105110001A6842F001021A60FFF7BAFF05462368D9
:105120005A6812F0010F0DD1FFF7B2FF401B0A2899
:10513000F5D9636A43F400336362052384F82030B1
:105140000120E1E7227E012A3DD01A6822F0800288
:105150001A60637E012B3BD02268136823F0400362
:105160001360A37E012B39D02268136823F020033B
:105170001360E37E012B37D02268136843F01003DD
:105180001360237F012B35D02268136823F00803B6
:105190001360637F012B33D02268136823F004036C
:1051A0001360A368E26813432269134362691343DF
:1051B0006268013A21681343CB61002060620123D9
:1051C00084F82030A0E71A6842F080021A60C0E735
:1051D0002268136843F040031360C2E72268136833
:1051E00043F020031360C4E72268136823F0100320
:1051F0001360C6E72268136843F008031360C8E72A
:105200002268136843F004031360CAE70120704763
:10521000036890F82020013AD2B2012A05D9436AE6
:1052200043F4802343620120704770B4434A9342A1
:1052300000D0434BD3F8002242F00102C3F8002211
:105240003F4A934243D04A6902F01F02012000FA0C
:1052500002F2D3F81C02D44320EA0200C3F81C0275
:10526000C869A8B9D3F80C022040C3F80C02CE6874
:105270008D88486945EA0645483043F830508E68C5
:105280000D88486945EA0645483003EBC000456093
:10529000C869012829D0886900283DD1D3F80402C3
:1052A0002040C3F80402086900283BD1D3F8140257
:1052B0000440C3F81442096A012939D0D3F8002206
:1052C00022F00102C3F80022002070BC7047D3F81E
:1052D000002222F47C52C3F80022D3F80022486A4C
:1052E00042EA0022C3F80022ADE7D3F80C021043D3
:1052F000C3F80C020E688D88486945EA06454830B7
:1053000043F830508E688D89486945EA0645483033
:1053100003EBC0004560BEE7D3F804021043C3F8B6
:105320000402C0E7D3F814021043C3F81402C2E722
:10533000D3F81C120A43C3F81C22BFE70034004014
:105340000064004070B5044690F82050EDB2012D85
:1053500006D0436A43F4002343620125284670BD0A
:10536000022380F820300268136823F001031360E1
:10537000FFF78EFE064623685B6813F0010F0CD022
:10538000FFF786FE831B0A2BF5D9636A43F40033CB
:105390006362052384F82030E0E700256562DDE7DD
:1053A00070B490F820400568AD68013CE4B2012C6F
:1053B00065D815F0E05F5CD0C5F30164022C05D917
:1053C000436A43F40003436201205DE00125A540E8
:1053D0001D608B68002B39D10E68CB68056843EAE5
:1053E000465604F118031B01EE5003680D6904F1E1
:1053F000180603EB06135D600B7D012B31D0D179CC
:1054000093791B0443EA0163517943EA0123157937
:1054100001682B4301EB0411C1F88C31D1789378EA
:105420001B0443EA0163517843EA012311780268BF
:105430000B4302EB0412C2F88831026818342401CD
:10544000135943F00103135100201DE04D6843EA56
:10545000C503CD6806682B4304F118052D0173516F
:10546000C3E7036803EB0613596841F48071596080
:10547000C5E7436A43F400134362012004E0436A32
:1054800043F480234362012070BC704790F82030C1
:10549000013BDBB2012B01D90020704703689868FB
:1054A00010F0806000D001209A6812F0006F00D0E8
:1054B00001309B6813F0805FEFD00130704730B44B
:1054C00090F82040013CE4B2012C00F2918051B9E7
:1054D0000468E46814F0030F10D1436A43F4001326
:1054E0004362012089E00468246914F0030F05D1A8
:1054F000436A43F40013436201207EE0056801F132
:105500001B0424012C5904F004049460002C61D184
:10551000056801F11B0424012C59640D1460056811
:1055200001F11B0424012D59C5F34005D560056820
:1055300025446D6805F00F051561056825446D6803
:10554000C5F30725956105682C446468240C5461F3
:10555000026802EB0112D2F8B8211A70026802EB5D
:105560000112D2F8B821C2F307225A70026802EB86
:105570000112D2F8B821C2F307429A70026802EB16
:105580000112D2F8B821120EDA70026802EB011291
:10559000D2F8BC211A71026802EB0112D2F8BC21C8
:1055A000C2F307225A71026802EB0112D2F8BC2141
:1055B000C2F307429A71026802EB0112D2F8BC21D1
:1055C000120EDA7171B90268D36843F02003D36018
:1055D000002012E0056801F11B0424012C59E408A5
:1055E00054609CE70268136943F020031361EFE7FE
:1055F000436A43F480234362012030BC704790F833
:105600002030013BDBB2012B01D90020704721B9CA
:105610000368D86800F0030070470368186900F059
:105620000300704790F82030013BDBB2012B05D915
:10563000436A43F480234362012070470268536940
:105640001943516100207047704770477047704799
:1056500070472DE9F84F054603685C69D3F804806C
:105660009F68D3F80CB0D3F810A0D3F8189014F0BA
:1056700001063BD017F0010616D001229A6017F000
:10568000020F08D117F0040F0CD117F0080606D04E
:105690004FF4805608E003F00DFD002604E0FFF70C
:1056A000D3FF01E04FF4006617F4807F0DD02B6824
:1056B0004FF480729A6017F4007F40F0868017F4F0
:1056C000806F00F0868046F4005617F4803F0DD0BE
:1056D0002B684FF480329A6017F4003F40F08380CB
:1056E00017F4802F00F0838046F4004614F0080F72
:1056F00007D01BF0100F04D046F400762B68102260
:10570000DA6014F0040F02D01BF0080F79D114F006
:10571000020F04D02B68DB6813F0030F78D114F06C
:10572000400F07D01AF0100F04D046F480662B68A3
:1057300010221A6114F0200F02D01AF0080F6BD15A
:1057400014F0100F04D02B681B6913F0030F6AD1FB
:1057500014F4003F02D018F0100F68D114F4803F09
:1057600002D018F0080F69D114F4004F7AD018F065
:10577000040F74D014F4807F04D019F0010F01D00D
:1057800046F0010614F4007F04D019F0020F01D096
:1057900046F0020614F4806F04D019F0040F01D013
:1057A00046F0040614F4006F59D019F0700956D071
:1057B000B9F1400F65D058D8B9F1200F5ED0B9F1DA
:1057C000300F42D146F0200644E0284603F0B4FCF6
:1057D0007BE717F4006F02D046F4804675E7284651
:1057E000FFF733FF71E7284603F0EAFC7EE717F482
:1057F000002F02D046F4803678E72846FFF726FFD0
:1058000074E72B680822DA60284603F02FFC7EE755
:10581000284603F0CBFB82E72B6808221A61284652
:1058200003F036FC8CE7284603F00EFC90E72B686B
:1058300010225A602846FFF70AFF8FE72B680822DC
:105840005A602846FFF704FF8EE7B9F1100F01D127
:1058500046F008062A68936923F0700393612B6869
:1058600004225A609EB9BDE8F88FB9F1500F0BD0F1
:10587000B9F1600FEED146F48076EBE746F0100602
:10588000E8E746F04006E5E746F08006E2E76B6AA7
:105890001E436E62284603F0D7FCE4E70649CB6856
:1058A00023F4E0631B041B0C000200F4E0600343DC
:1058B000024A1A43CA60704700ED00E00000FA0592
:1058C00030B4154BDB68C3F30223C3F10704042C87
:1058D00028BF04241D1D062D14D9033B4FF0FF35AE
:1058E00005FA04F421EA0401994005FA03F322EAD7
:1058F00003031943002807DB0901C9B2074B1954F8
:1059000030BC70470023E9E700F00F000901C9B27D
:10591000034B1954F4E700BF00ED00E000E400E0A1
:1059200014ED00E0002807DB00F01F02400901230E
:105930009340024A42F82030704700BF00E100E087
:105940000138B0F1807F0AD2064B5860064AF02138
:1059500082F823100020986007221A607047012007
:10596000704700BF10E000E000ED00E090F8353037
:10597000DBB2022B03D0802343650120704705234F
:1059800080F835300268136823F0010313600020AB
:105990007047000000230F2B00F2E380F0B482B0C8
:1059A00039E0092200E00022B2403A4302346D4E51
:1059B00046F824206C4A1468EA4324EA05064F6836
:1059C00017F4803F01D045EA0406674C26606468FE
:1059D00002EA04064F6817F4003F01D045EA0406C6
:1059E000614C6660A46802EA04064F6817F4801FE1
:1059F00001D045EA04065C4CA660E46822404E688B
:105A000016F4001F01D045EA0402574CE26001334E
:105A10000F2B00F2A38001229A400C6804EA0205D1
:105A200032EA0404F3D14C68122C18BF022C10D1B6
:105A3000DE08083650F826C003F00704A7000F243C
:105A4000BC402CEA040C0C69BC4044EA0C0440F84D
:105A50002640D0F800C05E000324B440E7432CEA9F
:105A6000040C4C6804F00304B44044EA0C040460E1
:105A70004C6804F1FF3C112C18BFBCF1010F01D997
:105A8000122C10D1846807EA040CCC68B44044EAB4
:105A90000C048460446824EA02024C68C4F30014D5
:105AA0009C4014434460C26817408A68B2403A433D
:105AB000C2604A6812F0805FA9D02C4A546C44F44A
:105AC00080445464526C02F480420192019A9C0812
:105AD000A61C244A52F8267003F0030296000F22F7
