:020000040800F2
:1000000000000820097400083173000833730008E9
:1000100035730008377300083973000800000000CA
:100020000000000000000000000000003B7300081A
:100030003D730008000000003F7300084173000892
:10004000597400085974000859740008597400085C
:10005000597400085974000859740008597400084C
:10006000597400085974000859740008597400083C
:10007000597400085974000859740008597400082C
:10008000597400085974000859740008497300082D
:1000900059730008697300087973000859740008DF
:1000A00059740008597400085974000859740008FC
:1000B00089730008597400085974000859740008BD
:1000C00059740008597400085974000859740008DC
:1000D000597400085974000859740008997300088D
:1000E00059740008597400085974000859740008BC
:1000F00059740008597400085974000859740008AC
:1001000059740008A973000859740008597400084C
:10011000597400085974000859740008597400088B
:10012000597400085974000859740008597400087B
:10013000597400085974000859740008597400086B
:10014000597400085974000859740008597400085B
:10015000597400085974000859740008597400084B
:10016000597400085974000859740008597400083B
:100170005974000859740008597400080000000000
:10018000597400085974000859740008597400081B
:10019000597400085974000859740008597400080B
:1001A00059740008597400085974000859740008FB
:1001B00059740008597400085974000859740008EB
:1001C00059740008597400080000000059740008B0
:1001D00059740008597400085974000859740008CB
:1001E00059740008597400085974000859740008BB
:0801F00059740008597400085D
:10020000844641EA000313F003036DD1403A41D321
:1002100051F8043B40F8043B51F8043B40F8043BE0
:1002200051F8043B40F8043B51F8043B40F8043BD0
:1002300051F8043B40F8043B51F8043B40F8043BC0
:1002400051F8043B40F8043B51F8043B40F8043BB0
:1002500051F8043B40F8043B51F8043B40F8043BA0
:1002600051F8043B40F8043B51F8043B40F8043B90
:1002700051F8043B40F8043B51F8043B40F8043B80
:1002800051F8043B40F8043B51F8043B40F8043B70
:10029000403ABDD2303211D351F8043B40F8043B10
:1002A00051F8043B40F8043B51F8043B40F8043B50
:1002B00051F8043B40F8043B103AEDD20C3205D320
:1002C00051F8043B40F8043B043AF9D2043208D018
:1002D000D2071CBF11F8013B00F8013B01D30B888A
:1002E00003806046704700BF082A13D38B078DD068
:1002F00010F003038AD0C3F10403D21ADB071CBF3A
:1003000011F8013B00F8013B80D331F8023B20F8A3
:10031000023B7BE7043AD9D3013A11F8013B00F8DC
:10032000013BF9D20B7803704B7843708B78837064
:100330006046704700000000000000000000000060
:10034000A2EB0300704700BF02780B78012A28BF98
:100350009A42F5D16DE9044540EA0104CDE902670E
:100360006FF0000C4FEA447212B380EA010414F0FB
:10037000070F6AD100F0070420F0070004F003051E
:1003800021F007014FEAC505F0E8042314F0040F3B
:10039000F1E804670CFA05F462EA040266EA04066E
:1003A0000AD063EA0403624667EA0407664603E08C
:1003B000F0E80423F1E8046782FA4CF582EA0604C7
:1003C000A4FA8CF46CBB83FA4CF583EA0705A5FA12
:1003D0008CF595B950E9022351E9026782FA4CF590
:1003E00082EA0604A4FA8CF483FA4CF583EA070542
:1003F000A5FA8CF52543DBD09CB92DBAB5FA85F466
:1004000024F0070427FA04F1DDE9026723FA04F374
:1004100003F0FF0001F0FF01FDE80445A0EB01003F
:10042000704724BAB4FA84F424F0070426FA04F1DD
:10043000DDE9026722FA04F202F0FF0001F0FF0199
:10044000FDE80445A0EB0100704714F0030F3CD118
:1004500010F0030428D150F8082B51F8083B82FA19
:100460004CF582EA0305A5FA8CF55DB950F8042C29
:1004700051F8043C82FA4CF582EA0305A5FA8CF5A2
:10048000002DE8D02DBAB5FA85F424F0070423FA3C
:1004900004F122FA04F202F0FF0001F0FF01FDE88E
:1004A0000445A0EB010070474FEAC40420F00300AC
:1004B00050F8082B21F0030151F8083B0CFA04F422
:1004C00062EA040263EA0403C9E710F003041AD0E5
:1004D000A1EB040120F00300E40750F8042B06D040
:1004E0000FD28B785FFAA2F4E41A06D12BB1CB7845
:1004F0005FFAB2F4E41A00D11BB920465DF8104B44
:10050000704701F1040150F8042BCC0721F00301DE
:1005100051F8043B48D824D222F07F4482FA4CF5AB
:1005200094EA1325A5FA8CF50AD165B951F8043B74
:1005300084EA0204B4EB036F0ED150F8042BEBE70E
:100540004FEA132355E035F07F454DD10878FDE89B
:100550000445C0F1000070474FEA126203F0FF0348
:1005600047E002EA1C4482FA4CF594EA1345A5FAE6
:100570008CF50AD165B951F8043B84EA0204B4EB66
:10058000034F0CD150F8042BEBE74FEA134330E054
:1005900015EA1C4528D10B884FEA124229E04FEAA0
:1005A000124203EA1C4324E002F0FF0482FA4CF5F5
:1005B00094EA1365A5FA8CF50AD165B951F8043BA4
:1005C00084EA0204B4EB032F09D150F8042BEBE7C3
:1005D0004FEA13630DE015F0FF0F05D10B684FEAEA
:1005E000122223F07F4304E04FF00000FDE80445B1
:1005F000704712BA1BBA82FA4CF482EA0304A4FAD6
:100600008CF5B5FA85F402FA04F203FA04F34FEA22
:100610001260FDE80445A0EB136070470000000085
:1006200000000000000000000000000000000000CA
:1006300000000000000000000000000000000000BA
:1006400090F800F06DE9024520F007016FF0000C12
:1006500010F0070491F820F040F049804FF00004BA
:100660006FF00700D1E9002391F840F000F1080095
:1006700082FA4CF2A4FA8CF283FA4CF3A2FA8CF3CD
:100680004BBBD1E9022382FA4CF200F10800A4FA34
:100690008CF283FA4CF3A2FA8CF3E3B9D1E9042388
:1006A00082FA4CF200F10800A4FA8CF283FA4CF3BF
:1006B000A2FA8CF37BB9D1E9062301F1200182FA79
:1006C0004CF200F10800A4FA8CF283FA4CF3A2FA7F
:1006D0008CF3002BC6D0002A04BF04301A4612BA8D
:1006E000B2FA82F2FDE8024500EBD2007047D1E990
:1006F000002304F00305C4F100004FEAC50514F01F
:10070000040F91F840F00CFA05F562EA05021CBFEF
:1007100063EA050362464FF00004A9E70000000009
:1007200001F0FF01102A2BDB10F0070F08D010F8A2
:10073000013B013A8B422DD010F0070F42B3F6D1A6
:10074000F0B441EA012141EA014122F007047FF0BF
:1007500000070023F0E80256083C85EA010586EA16
:10076000010685FA47F5A3FA87F586FA47F6A5FA52
:1007700087F68EB9EED1F0BC01F0FF0102F007025E
:1007800032B110F8013B013A83EA010313B1F8D109
:100790000020704701387047002D06BF35460338EA
:1007A000073815F0010F07D1013015F4807F02BF23
:1007B000013015F4C03F0130F0BC0138704700BF74
:1007C00053B94AB9002908BF00281CBF4FF0FF31B8
:1007D0004FF0FF3000F00CB8ADF1080C6DE904CE1D
:1007E0000BF072F8DDF804E0DDE9022304B0704795
:1007F000704700BF10B5054C227832B9044B13B1D5
:100800000448AFF300800123237010BDD8090020F5
:100810000000000074BB000808B5034B1BB103497E
:100820000348AFF3008008BD00000000DC09002091
:1008300074BB000810B504460E4B18784FF47A7359
:10084000B3FBF0F30C4A1068B0FBF3F000F088FC47
:1008500068B90F2C01D9012010BD002221464FF0AC
:10086000FF3000F03FFC054B1C60002010BD012054
:1008700010BD00BF00000020240000200400002064
:1008800008B5032000F01CFC0020FFF7D3FF06F0A2
:100890006BFC002008BD0000034A1168034B1B7865
:1008A0000B441360704700BFA40A00200000002022
:1008B000014B1868704700BFA40A002038B50446F1
:1008C000FFF7F6FF0546B4F1FF3F02D0044B1B785B
:1008D0001C44FFF7EDFF401B8442FAD838BD00BF2F
:1008E00000000020002800F0A18038B5044690F8F0
:1008F0002030D3B12268136823F002031360FFF79E
:10090000D7FF054623685A6812F0020F10D0FFF790
:10091000CFFF401B0A28F5D9636A43F400336362B2
:10092000052384F82030012038BD06F035FCE1E7CE
:100930001A6842F001021A60FFF7BAFF0546236801
:100940005A6812F0010F0DD1FFF7B2FF401B0A28C1
:10095000F5D9636A43F400336362052384F82030D9
:10096000012038BD227E012A3DD01A6822F0800283
:100970001A60637E012B3BD02268136823F040038A
:100980001360A37E012B39D02268136823F0200363
:100990001360E37E012B37D02268136843F0100305
:1009A0001360237F012B35D02268136823F00803DE
:1009B0001360637F012B33D02268136823F0040394
:1009C00013602168A368E2681343226913436269D4
:1009D00013436268013A1343CB6100206062012334
:1009E00084F8203038BD1A6842F080021A60C0E7EF
:1009F0002268136843F040031360C2E7226813685B
:100A000043F020031360C4E72268136823F0100347
:100A10001360C6E72268136843F008031360C8E751
:100A20002268136843F004031360CAE7012070478B
:100A3000026890F82030013BDBB2012B05D9436AF4
:100A400043F4802343620120704770B4434B9A42C1
:100A500000D0434AD2F8003243F00103C2F800321A
:100A60003F4B9A4242D04B6903F01F03012000FA2A
:100A700003F3D2F81C42D8430440C2F81C42CC69AC
:100A8000ACB9D2F80C420440C2F80C424C69CE68B2
:100A90008D8845EA0645483442F834504C698E68E2
:100AA0000D8845EA0645483402EBC4046560CC690C
:100AB000012C29D08C69002C3DD1D2F8044204408D
:100AC000C2F804420C69002C3BD1D2F814422040F9
:100AD000C2F81402096A012939D0D2F8003223F091
:100AE0000103C2F80032002070BC7047D2F8003217
:100AF00023F47C53C2F80032D2F80032486A43EA49
:100B00000023C2F80032AEE7D2F80C421C43C2F810
:100B10000C424C690E688D8845EA0645483442F817
:100B200034504C698E688D8945EA0645483402EB9D
:100B3000C4046560BEE7D2F804421C43C2F8044214
:100B4000C0E7D2F814021843C2F81402C2E7D2F880
:100B50001C120B43C2F81C32BFE700BF0034004038
:100B60000064004038B590F82030DBB2012B05D08E
:100B7000436A43F400234362012038BD0446022344
:100B800080F820300268136823F001031360FFF738
:100B90008FFE054623685B6813F0010F0DD0FFF749
:100BA00087FE401B0A28F5D9636A43F40033636269
:100BB000052384F82030012038BD0020606238BD54
:100BC00070B490F820400568AD68013CE4B2012C97
:100BD00006D9436A43F480234362012070BC704706
:100BE00015F0E05F5BD0C5F30165022D3ED801240E
:100BF000AC401C608B68002B3ED104680E68CB684B
:100C000043EA465605F118031B01E65003680C69D8
:100C100005F1180603EB06135C600B7D012B36D043
:100C20000468D17993791B0443EA0163517943EA5B
:100C3000012311790B432E013444C4F88C3101682F
:100C4000D47893781B0443EA0463547843EA04237A
:100C5000127813433144C1F88831026818352D01E8
:100C6000535943F0010353510020B7E7436A43F45B
:100C7000000343620120B1E704684E6843EAC603FB
:100C8000CE68334305F118063601A351BEE7036869
:100C900003EB0613596841F480715960C0E7436A59
:100CA00043F400134362012098E790F82030013BA1
:100CB000DBB2012B01D90020704703689A6812F05B
:100CC000806F0BD100209A6812F0006F00D00130C5
:100CD0009B6813F0805FEFD0013070470120F2E78E
:100CE00030B490F82040013CE4B2012C06D9436AAC
:100CF00043F480234362012030BC704700296FD148
:100D00000468E46814F0030F64D0056801F11B0463
:100D100024012C5904F004049460002C6BD1056864
:100D200001F11B0424012C59640D1460056801F1C4
:100D30001B0424012D59C5F34005D56005682544E1
:100D40006D6805F00F051561056825446D68C5F3EC
:100D50000725956105682C446468240C5461046877
:100D60000A011444D4F8B8411C7004681444D4F83F
:100D7000B841C4F307245C7004681444D4F8B84143
:100D8000C4F307449C7004681444D4F8B841240E9A
:100D9000DC7004681444D4F8BC411C710468144429
:100DA000D4F8BC41C4F307245C7104681444D4F83B
:100DB000BC41C4F307449C7104682244D2F8BC21AE
:100DC000120EDA71F9B90268D36843F02003D360D8
:100DD000002091E7436A43F40013436201208BE74C
:100DE0000468246914F0030F8FD1436A43F400139D
:100DF0004362012080E7056801F11B0424012C599E
:100E0000E408546092E70268136943F02003136119
:100E1000002071E790F82030013BDBB2012B01D9B3
:100E20000020704721B10368186900F00300704783
:100E30000368D86800F00300704790F82030013B49
:100E4000DBB2012B05D9436A43F4802343620120BE
:100E50007047026853691943516100207047704719
:100E600070477047704770472DE9F84F0546036893
:100E70005C695F689E68D3F80C90D3F81080D3F853
:100E800018A014F0010F5AD016F0010F17D001224C
:100E90009A6016F0020F08D116F0040F30D116F048
:100EA000080F07D04FF4805B0BE005F061F84FF0BE
:100EB000000B06E0FFF7D3FF4FF0000B01E04FF00F
:100EC000000B16F4807F0BD02B684FF480729A6071
:100ED00016F4007F17D116F4806F18D04BF4005B26
:100EE00016F4803F2DD02B684FF480329A6016F4B0
:100EF000003F16D116F4802F17D04BF4004B20E0A2
:100F00004FF4006BDDE7284605F074F8E8E716F4C7
:100F1000006F02D04BF4804BE2E72846FFF7A0FFBA
:100F2000DEE7284605F0AAF80BE016F4002F02D001
:100F30004BF4803B05E02846FFF793FF01E04FF0BC
:100F4000000B14F0080F07D019F0100F04D04BF469
:100F5000007B2B681022DA6014F0040F02D019F025
:100F6000080F60D114F0020F04D02B68DB6813F077
:100F7000030F5FD114F0400F07D018F0100F04D00A
:100F80004BF4806B2B6810221A6114F0200F02D0F2
:100F900018F0080F52D114F0100F04D02B681B6901
:100FA00013F0030F51D114F4003F02D017F0100FCB
:100FB0004FD114F4803F02D017F0080F50D114F431
:100FC000004F67D017F0040F61D014F4807F04D075
:100FD0001AF0010F01D04BF0010B14F4007F04D084
:100FE0001AF0020F01D04BF0020B14F4806F04D002
:100FF0001AF0040F01D04BF0040B14F4006F46D02C
:101000001AF0700A43D0BAF1300F48D02FD9BAF194
:10101000500F47D0BAF1600F47D0BAF1400F31D12D
:101020004BF0400B2EE02B680822DA60284604F0D3
:101030007BFF97E7284604F009FF9BE72B6808220F
:101040001A61284604F082FFA5E7284604F05AFFFB
:10105000A9E72B6810225A602846FFF703FFA8E78C
:101060002B6808225A602846FFF7FDFEA7E7BAF171
:10107000100F05D0BAF1200F04D14BF0100B01E096
:101080004BF0080B2A68936923F0700393612B6877
:1010900004225A60BBF1000F0AD1BDE8F88F4BF073
:1010A000200BEFE74BF0800BECE74BF4807BE9E79C
:1010B0006B6A4BEA03036B62284605F023F8ECE702
:1010C0000649CB6823F4E0631B041B0C000200F408
:1010D000E0600343024A1A43CA60704700ED00E033
:1010E0000000FA0530B4144BDB68C3F30223C3F1EC
:1010F0000704042C28BF04241D1D062D13D9033B0F
:10110000012505FA04F4013C2140994005FA03F356
:10111000013B13401943002807DB0901C9B2074B03
:10112000195430BC70470023EAE700F00F000901B2
:10113000C9B2034B1954F4E700ED00E000E400E00D
:1011400014ED00E0002808DB420900F01F00012335
:1011500003FA00F0014B43F82200704700E100E081
:101160000138B0F1807F0AD2064B5860F021064A60
:1011700082F823100020986007221A60704701202F
:10118000704700BF10E000E000ED00E090F835305F
:10119000DBB2022B03D08023436501207047052377
:1011A00080F835300268136823F0010313600020D3
:1011B00070470000F0B583B0002437E0092600E056
:1011C000002606FA0EF6324302336C4E46F8232010
:1011D0006B4B1A68EB4302EA03064F6817F4803F33
:1011E00001D045EA0206664A1660526803EA020622
:1011F0004F6817F4003F01D045EA0206604A566086
:10120000926803EA02064F6817F4801F01D045EA8E
:1012100002065B4A9660D26813404E6816F4001FBF
:1012200001D045EA0203564AD36001340F2C00F284
:10123000A3800123A3400A6803EA0205AB42F4D16C
:101240004A68122A18BF022A12D14FEAD40E0EF1B0
:10125000080E50F82E2004F00706B6000F27B740FE
:1012600022EA07020F6907FA06F6324340F82E20F9
:1012700006684FEA440E032202FA0EF2D2431640E9
:101280004F6807F0030707FA0EF73E4306604E6803
:10129000771E112E18BF012F01D9122E0FD186688B
:1012A0001640CF6807FA0EF73E438660466826EA86
:1012B00003034E68C6F30016A64033434360C36879
:1012C0001A408B6803FA0EF31A43C2604B6813F09E
:1012D000805FAAD02B4B5A6C42F480425A645B6CFC
:1012E00003F480430193019BA3089E1C234A52F8F8
:1012F000262004F003064FEA860E0F2606FA0EF6A5
:1013000022EA0602204FB8423FF45AAF1F4EB042C5
:1013100022D006F58066B04220D006F58066B04245
:101320001ED006F58066B0421CD006F58066B0423D
:101330001AD006F58066B04218D006F58066B04235
:1013400016D006F58066B04214D006F58066B0422D
:101350003FF434AF0A2634E7012632E7022630E7AD
:1013600003262EE704262CE705262AE7062628E78B
:10137000072626E7082624E703B0F0BD0038014021
:10138000003C0140003802400000024000040240DE
:101390000369194201D1002070470120704712B93A
:1013A00009048161704781617047436931EA030331
:1013B00001D08161704709048161704710B582B026
:1013C0001B4B1A6C42F080521A641B6C03F0805362
:1013D0000193019B174A136843F480331360FFF7AE
:1013E00067FA0446134B5B6813F4803F08D1FFF79C
:1013F0005FFA001BB0F57A7FF4D9032002B010BD6C
:101400000C4A136843F400331360FFF751FA0446A3
:10141000084B5B6813F4003F07D1FFF749FA001B44
:10142000B0F57A7FF4D90320E8E70020E6E700BFB3
:101430000038024000700040002800F0DC8170B5E8
:1014400082B00446036813F0010F3AD0A24B9B68A8
:1014500003F00C03042B2BD09F4B9B6803F00C0371
:10146000082B20D06368B3F5803F50D0002B54D1B7
:10147000994B1A6822F480321A601A6822F480228A
:101480001A606368002B5FD0FFF712FA0546924B93
:101490001B6813F4003F14D1FFF70AFA401B6428BD
:1014A000F5D90320ACE18C4B5B6813F4800FD9D0E5
:1014B000894B1B6813F4003F03D06368002B00F0D6
:1014C0009C81236813F0020F64D0834B9B6813F058
:1014D0000C0F4DD0804B9B6803F00C03082B42D0BF
:1014E000E368002B79D07C4A136843F00103136052
:1014F000FFF7DEF90546784B1B6813F0020F63D146
:10150000FFF7D6F9401B0228F5D9032078E1724A8B
:10151000136843F480331360B3E7B3F5A02F09D009
:101520006D4B1A6822F480321A601A6822F4802205
:101530001A60A6E7684B1A6842F480221A601A689B
:1015400042F480321A609CE7FFF7B2F90546624B1D
:101550001B6813F4003FB4D0FFF7AAF9401B6428BE
:10156000F5D903204CE15C4B5B6813F4800FB7D1D5
:10157000594B1B6813F0020F04D0E368012B01D014
:1015800001203DE1544A136823F0F803216943EA3E
:10159000C1031360236813F0080F46D0636983B357
:1015A0004D4A536F43F001035367FFF781F9054636
:1015B000494B5B6F13F0020F37D1FFF779F9401BEE
:1015C0000228F5D903201BE1434A136823F0F803EE
:1015D000216943EAC1031360DCE73F4A136823F043
:1015E00001031360FFF764F905463B4B1B6813F0DA
:1015F000020FCFD0FFF75CF9401B0228F5D903207A
:10160000FEE0354A536F23F001035367FFF750F9AB
:101610000546314B5B6F13F0020F06D0FFF748F918
:10162000401B0228F5D90320EAE0236813F0040FD9
:101630007ED0294B1B6C13F0805F31D1264B1A6C86
:1016400042F080521A641B6C03F080530193019B9B
:101650000125224B1B6813F4807F23D0A368012B44
:1016600034D0002B3CD11C4B1A6F22F001021A67B8
:101670001A6F22F004021A67A368002B46D0FFF706
:1016800017F90646144B1B6F13F0020F4FD1FFF7EB
:101690000FF9801B41F288339842F3D90320AFE061
:1016A0000025D6E70D4A136843F480731360FFF7F3
:1016B000FFF80646094B1B6813F4807FCED1FFF775
:1016C000F7F8801B6428F5D9032099E0024A136FCC
:1016D00043F001031367CFE7003802400070004079
:1016E000052B09D0484B1A6F22F001021A671A6FB6
:1016F00022F004021A67BFE7434B1A6F42F004025C
:101700001A671A6F42F001021A67B5E7FFF7D0F8BF
:1017100006463D4B1B6F13F0020F08D0FFF7C8F8C9
:10172000801B41F288339842F3D9032068E0F5B971
:10173000A369002B63D0344A926802F00C02082A95
:1017400060D0022B19D0304A136823F080731360E5
:10175000FFF7AEF804462C4B1B6813F0007F48D00F
:10176000FFF7A6F8001B0228F5D9032048E0264A17
:10177000136C23F080531364DAE7234A136823F0D1
:1017800080731360FFF794F805461F4B1B6813F036
:10179000007F06D0FFF78CF8401B0228F5D9032004
:1017A0002EE0E369226A1343626A43EA8213A26A63
:1017B0005208013A43EA0243E26A43EA0263226BB7
:1017C00043EA0273104A5360136843F08073136056
:1017D000FFF76EF804460C4B1B6813F0007F06D130
:1017E000FFF766F8001B0228F5D9032008E0002067
:1017F00006E0002004E001207047012000E0002006
:1018000002B070BD0120FBE700380240F8B5254B5F
:101810009B6803F00C03042B41D0082B01D0224815
:10182000F8BD204B5A6802F03F025B6813F4800F4A
:1018300012D01C4B5968C1F3881100231B48A1FB2F
:101840000001FEF7BDFF174B5B68C3F30143013393
:101850005B00B0FBF3F0F8BD124B5B68C3F3881379
:101860001E4600275C010025E41A65EB0705A90167
:1018700041EA9461A001001B61EB0501CB0043EA42
:101880005073C400A01943EB07018B0243EA905345
:101890008402204619460023FEF792FFD3E703484F
:1018A000F8BD00BF003802400024F40040787D01FC
:1018B000002800F0A28070B50446524B1B6803F06C
:1018C0000F038B420CD24F4A136823F00F030B43D4
:1018D0001360136803F00F03994201D0012070BD1B
:1018E000236813F0020F17D013F0040F04D0464AF8
:1018F000936843F4E0539360236813F0080F04D017
:10190000414A936843F4604393603F4A936823F0ED
:10191000F003A068034393600D46236813F0010FA2
:1019200031D06368012B20D0022B25D0364A1268B3
:1019300012F0020F63D034498A6822F00302134385
:101940008B60FEF7B5FF06462F4B9B6803F00C0338
:101950006268B3EB820F16D0FEF7AAFF801B41F23C
:1019600088339842F0D9032070BD274A126812F4D8
:10197000003FE0D1012070BD234A126812F0007FC1
:10198000D9D1012070BD1F4B1B6803F00F039D428E
:101990000CD21C4A136823F00F032B431360136807
:1019A00003F00F039D4201D0012070BD236813F0A6
:1019B000040F06D0144A936823F4E053E1680B4304
:1019C0009360236813F0080F07D00F4A936823F43D
:1019D0006043216943EAC1039360FFF717FF0A4B95
:1019E0009B68C3F30313094AD35CD840084B1860C3
:1019F0000020FEF71FFF002070BD0120704701206E
:101A000070BD00BF003C024000380240D4C3000853
:101A100024000020014B1868704700BF24000020FC
:101A200008B5FFF7F7FF044B9B68C3F38223034A13
:101A3000D35CD84008BD00BF00380240E4C30008B2
:101A400008B5FFF7E7FF044B9B68C3F34233034A33
:101A5000D35CD84008BD00BF00380240E4C3000892
:101A6000F0B583B00446036813F0010F0CD0B54BFA
:101A70009A6822F400029A609A68416B0A439A605D
:101A8000436BC3B1002700E00027236813F4002F45
:101A900015D0AC4AD2F88C3023F44013E16B0B43E1
:101AA000C2F88C30E36BB3F5801F06D0002B00F03A
:101AB0004581002504E00127E7E70127F6E7002537
:101AC000236813F4801F0FD09E4AD2F88C3023F481
:101AD0004003216C0B43C2F88C30236CB3F5800FAC
:101AE00000F02E8103B90125236813F0807F00D018
:101AF000012713F0200F40F02781236813F0100F07
:101B00000CD0904BD3F88C2022F08072C3F88C203C
:101B1000D3F88C20A16B0A43C3F88C20236813F4FC
:101B2000804F08D0874AD2F8903023F44033616E5A
:101B30000B43C2F89030236813F4004F08D0814A59
:101B4000D2F8903023F44023A16E0B43C2F89030BA
:101B5000236813F4803F08D07A4AD2F8903023F4F7
:101B60004013E16E0B43C2F89030236813F4003F3A
:101B700008D0744AD2F8903023F44003216F0B430D
:101B8000C2F89030236813F0400F08D06D4AD2F8A5
:101B9000903023F00303616C0B43C2F8903023684C
:101BA00013F0800F08D0674AD2F8903023F00C036E
:101BB000A16C0B43C2F89030236813F4807F08D0E7
:101BC000604AD2F8903023F03003E16C0B43C2F846
:101BD0009030236813F4007F08D05A4AD2F890302E
:101BE00023F0C003216D0B43C2F89030236813F437
:101BF000806F08D0534AD2F8903023F44073616D5F
:101C00000B43C2F89030236813F4006F08D04D4A9C
:101C1000D2F8903023F44063A16D0B43C2F89030AA
:101C2000236813F4805F08D0464AD2F8903023F43A
:101C30004053E16D0B43C2F89030236813F4005F0A
:101C400008D0404AD2F8903023F44043216E0B4331
:101C5000C2F89030236813F4800F08D0394AD2F8C4
:101C6000903023F08063A16F0B43C2F8903023685B
:101C700013F4001F0DD0334AD2F8903023F00063E4
:101C8000E16F0B43C2F89030E36FB3F1006F00F0E7
:101C9000C180236813F0080F00D0012513F4802FB2
:101CA00008D0284AD2F8903023F04073616F0B437C
:101CB000C2F89030236813F4000F09D0214AD2F8FB
:101CC000903023F08053D4F880100B43C2F890304A
:101CD000236813F0806F09D01A4AD2F8903023F0AD
:101CE0000053D4F884100B43C2F89030236813F0EB
:101CF000006F09D0134AD2F88C3023F00073D4F867
:101D000088100B43C2F88C30236813F0805F09D031
:101D10000C4AD2F88C3023F08063D4F88C100B433B
:101D2000C2F88C30002F77D12368B3F1007F73D0D5
:101D3000002D40F00581002003B0F0BD0125BFE675
:101D40000127CFE600380240B84B1A6C42F08052AF
:101D50001A641B6C03F080530193019BB44A13680F
:101D600043F480731360FEF7A3FD0646B04B1B6877
:101D700013F4807F06D1FEF79BFD801B6428F5D904
:101D80000320D9E7A94B1B6F13F4407315D0226BC6
:101D900002F44072934210D0A44B1A6F22F44072A6
:101DA000196F41F480311967196F21F48031196777
:101DB0001A671B6F13F0010F12D1236B03F44072EB
:101DC000B2F5407F1DD0994A936823F4F8139360CD
:101DD00096490B6F226BC2F30B0213430B678CE621
:101DE000FEF766FD0646914B1B6F13F0020FE4D120
:101DF000FEF75EFD801B41F288339842F3D9032041
:101E00009AE78A48826822F4F8128A4919400A43FC
:101E10008260DDE701253CE7844A136823F0806394
:101E20001360FEF745FD0646804B1B6813F0006FFC
:101E300006D0FEF73DFD801B6428F5D903207BE723
:101E4000236813F0010F13D0636B8BB9774AD2F874
:101E50008430D2F88410606803F4403343EA80137E
:101E600001F070610B43A16843EA0173C2F884304A
:101E7000236813F4002F03D0E26BB2F5801F43D028
:101E800013F4801F03D0236CB3F5800F3CD023687C
:101E900013F0807F11D0654AD2F88400D2F8841004
:101EA000666823691B0443EA861300F070600343ED
:101EB00001F0E0410B43C2F88430236813F0007F47
:101EC0000DD0626823691B0443EA8213E26843EA87
:101ED0000263A26843EA0273544AC2F88430534A48
:101EE000136843F080631360FEF7E2FC06464F4B35
:101EF0001B6813F0006F7FF41BAFFEF7D9FC801B4B
:101F00006428F4D9032017E7484AD2F88430D2F87D
:101F10008410606803F4403343EA8013E06843EAC6
:101F2000006301F0E0410B43C2F88430D2F88C30FA
:101F300023F01F03616A01390B43C2F88C30A6E716
:101F40003A4A136823F080531360FEF7B1FC05464C
:101F5000364B1B6813F0005F06D0FEF7A9FC401B50
:101F60006428F5D90320E7E6236813F4002F01D095
:101F7000E26B22B113F4801F1DD0236CDBB92B4A16
:101F8000D2F88830D2F88810606903F4403343EA0D
:101F90008013A06943EA006301F0E0410B43C2F8FB
:101FA0008830D2F88C3023F4F853A16A013943EA1F
:101FB0000123C2F88C30236813F4001F03D0E36FB1
:101FC000B3F1006F38D0236813F0080F19D0174A07
:101FD000D2F88810D2F88830606903F4403343EABD
:101FE000801301F070610B43E16943EA0173C2F8A9
:101FF0008830D2F88C3023F44033E16A0B43C2F8C6
:102000008C300A4A136843F080531360FEF750FC8B
:102010000446064B1B6813F0005F20D1FEF748FC16
:10202000001B6428F5D9032086E600BF0038024073
:1020300000700040FFFCFF0F0A4AD2F88800D2F877
:1020400088106569236A1B0443EA851300F07060F9
:10205000034301F0E0410B43C2F88830B3E70020AE
:102060006AE600BF0038024070B582B00446002323
:102070000193006801F060FF054610B1284602B0E8
:1020800070BD206801F06BFF0646F8B10023A36421
:102090002846C0B9019B5A1C01924FF6FF72934229
:1020A00040D00021206801F071FF00283DD10021BF
:1020B000206801F083FF00283AD10021206801F058
:1020C00078FDC00FE5E700236364D7E70123A3642D
:1020D0000346E0B9019B5A1C01924FF6FF729342EE
:1020E00029D00021206801F051FF05460028C5D104
:1020F0004FF08041206801F061FF05460028BDD106
:102100000021206801F055FD0346C00FE1E713F000
:10211000804F03D1002363643546AFE70123636436
:102120003546ABE74FF08075A8E74FF08055A5E73F
:102130004FF08055A2E74FF080759FE770B50546D8
:10214000866A002405E0286801F00EFD46F82400A8
:102150000134072CF7D9AB6A2033AB62002070BD85
:1021600070B50546066A002405E006EB8401286880
:1021700001F0FDFC0134072CF7D92B6A20332B62C8
:10218000002070BD70B571B10D460446016D0904A3
:10219000006801F06FFF064638B90021206801F0A1
:1021A00008FD286001E04FF00066304670BD2DE963
:1021B000F04387B004460E4615469846FEF778FB76
:1021C0006EB1074694F83430DBB2012B0DD0A36B0F
:1021D00043F00053A363012007B0BDE8F083A36B75
:1021E00043F00063A3630120F6E70023A36305EB3C
:1021F0000803E26D93421BD8032384F8343023682C
:102200000022DA62636C012B00D06D024FF4007182
:10221000206801F0E7FD034680B1226840F2FF51DB
:102220009163A26B1343A363012084F83400D3E7C6
:10223000A36B43F00073A3630120CDE74FF0FF339E
:1022400000934FEA482301939023029302230393C0
:1022500000230493012305936946206801F0B0FD33
:10226000B8F1010F15D9022323632946206801F034
:10227000E9FD8146B9F1000F24D0236840F2FF52F6
:102280009A63A36B49EA0303A363012084F8340033
:10229000A2E7012323632946206801F0BBFD8146A4
:1022A000E8E7206801F060FC46F825000135072DBD
:1022B000F7D920360E9B83B1FEF7FAFAC01B0E9BAE
:1022C00083420AD92068436B13F4957F12D1436B84
:1022D00013F4004FEED04D46E9E7236840F2FF5279
:1022E0009A63A36B43F00043A363012384F8343063
:1022F000032071E7436B13F4807F09D0B8F1010F1D
:1023000006D9636C032B03D001F0E4FD034648BB00
:1023100023685A6B12F0080F2FD15A6B12F0020F7C
:1023200036D15A6B12F0200F3DD12068436B13F465
:10233000001F43D001F018FC46F8040B0E9B2BB194
:10234000FEF7B6FAC01B0E9B8342EED8236840F21C
:10235000FF529A63A36B43F00043A363012084F808
:10236000340039E7226840F2FF519163A26B1343B6
:10237000A363012084F834002EE740F2FF529A63F1
:10238000A36B43F00803A363012084F8340023E720
:1023900040F2FF529A63A36B43F00203A363012050
:1023A00084F8340018E740F2FF529A63A36B43F0BD
:1023B0002003A363012084F834000DE740F2FF53AB
:1023C0008363012384F83430002005E72DE9F043CE
:1023D00087B004460E4615469846FEF769FA6EB178
:1023E000074694F83430DBB2012B0DD0A36B43F0D9
:1023F0000053A363012007B0BDE8F083A36B43F053
:102400000063A3630120F6E70023A36305EB080341
:10241000E26D934229D8032384F8343023680022E4
:10242000DA62636C012B00D06D024FF400712068FA
:1024300001F0D8FC0346F0B9B8F1010F26D92023EA
:1024400023632946206801F02DFD8146B9F1000F74
:1024500024D0236840F2FF529A63A36B49EA030336
:10246000A363012084F83400C5E7A36B43F0007335
:10247000A3630120BFE7226840F2FF519163A26B82
:102480001343A363012084F83400B4E710232363CB
:102490002946206801F0EEFC8146D7E74FF0FF3374
:1024A00000934FEA48230193902302930023039360
:1024B0000493012305936946206801F081FC10E034
:1024C00006EB8501206801F052FB0135072DF7D995
:1024D00020360E9B83B1FEF7EBF9C01B0E9B8342A7
:1024E0000AD92068436B13F48D7F12D1436B13F428
:1024F000804FEED04D46E9E7236840F2FF529A63E1
:10250000A36B49EA0303A363012384F83430032057
:1025100071E7436B13F4807F09D0B8F1010F06D93E
:10252000636C032B03D001F0D5FC0346B8B92368D4
:102530005A6B12F0080F1DD15A6B12F0020F24D102
:102540005A6B12F0100F2BD040F2FF529A63A36B1C
:1025500043F01003A363012084F834004BE72268A2
:1025600040F2FF519163A26B1343A363012084F8EF
:10257000340040E740F2FF529A63A36B43F0080334
:10258000A363012084F8340035E740F2FF529A63D8
:10259000A36B43F00203A363012084F834002AE70D
:1025A00040F2FF529A63012384F83430002022E77E
:1025B000704730B4436E9A0F0A70C3F383624A7057
:1025C000C3F301638B7090F86630CB7090F8653080
:1025D0000B7190F864304B7190F86B301B01CB801D
:1025E000B0F86A20CB889BB2C2F303142343CB809C
:1025F00002F00F020A7290F86930DA094A72C3F3E6
:1026000080128A72C3F34012CA72C3F300120A73B3
:1026100000224A73426C002A40F092809B0203F42D
:1026200040630B61836E0A699B0003F47F7313435D
:102630000B61C36E0A6942EA93720A61C3F3C26214
:102640000A75C3F302634B75C26EC2F30743C2F34C
:1026500042548C75C2F38242CA755B0003F00603D4
:102660000B76C26EC2F307230C7EC2F3C032224344
:102670000A760A69013242650C7E023402FA04F4D9
:1026800044650A7AD5B20122AA408265520A02FB49
:1026900004F2C2654FF400720266C3F380124A76F8
:1026A0005B0003F07E038B76C36E8A7EC3F3C01497
:1026B00022438A7603F07F03CB76036F1A0EDC0F7A
:1026C0000C77C3F341744C77C3F382638B77930029
:1026D00003F00C03CB77036FCA7FC3F3815422430B
:1026E000CA77C3F3405281F82020002281F82120CC
:1026F000C3F3004381F82230036FC3F3C03481F881
:102700002340C3F3803481F82440C3F3403481F87C
:102710002540C3F3003481F82640C3F3812481F8B7
:102720002740C3F3012381F82830036FC3F3460326
:1027300081F82930012381F82A30104630BC7047D7
:10274000012A0CD0036840F2FF529A63836B43F076
:1027500080538363012280F834201046EEE7836EB5
:102760001B0403F47C130B6190F86F200B6943EAA0
:1027700002230B610A6990F86E3013430B6190F8E5
:102780006D300C690134A4024465C4654FF40072D5
:102790008265026681E770B590B004460123ADF80A
:1027A0001230006801F0ECF920B94FF0806528463E
:1027B00010B070BD636C032B1AD0206801F018FCB8
:1027C00005460028F3D10021206801F0F2F9606786
:1027D0000421206801F0EDF9A0670821206801F0CC
:1027E000E8F9E0670C21206801F0E3F9C4F8800003
:1027F000636C032B07D00DF11201206801F022FC5D
:1028000005460028D3D1636C032B1DD0BDF81210F0
:1028100021650904206801F000FC05460028C6D1A6
:102820000021206801F0C5F960660421206801F0EC
:10283000C0F9A0660821206801F0BBF9E0660C2110
:10284000206801F0B6F920670421206801F0B1F991
:10285000000DE06405A92046FFF7ABFE226D1204CF
:102860000023206801F050FB054600289FD1234635
:1028700053F8106B93E807008DE80700043494E8E0
:102880000E00304601F054F991E710B58AB00446C5
:1028900000230493059306930793089376230993E3
:1028A0000AAB13E907008DE8070004AB0ECB2068E4
:1028B00001F03EF92268536823F480735360206866
:1028C00001F05AF92268536843F480735360022080
:1028D000FDF7F4FF2046FFF7C7FB40B10346012098
:1028E00084F83400A26B1343A3630AB010BD2046E2
:1028F000FFF751FF034630B1012084F83400A26B8A
:102900001343A363F1E70020EFE7A8B110B5044635
:1029100090F8343063B1032384F834302046FFF755
:10292000B4FF0020A0632063012384F8343010BD7D
:10293000037704F067FCEEE701207047436C0B60FF
:10294000836C4B60C36C8B60036DCB60436D0B611C
:10295000836D4B61C36D8B61036ECB61002070474B
:1029600010B582B0044602A9002341F8043DFFF7E8
:1029700009FC18B10346A26B1343A3630198C0F38B
:10298000432002B010BD10B5846B236C0BB1002343
:102990002364E36B03B110BD2046FFF7E1FF002382
:1029A000A363012384F834300538C0B29842F2D8CA
:1029B000206801F08FFAA36B1843A063A36B1BB9C7
:1029C0002046FFF7F5FDE6E7204602F0E6FE10BDE3
:1029D00010B5846BE36B0BB10023E363236C03B18D
:1029E00010BD2046FFF7BCFF0023A363012384F83A
:1029F00034300538C0B29842F2D8206801F06AFA43
:102A0000A36B1843A063A36B1BB92046FFF7D0FD4F
:102A1000E6E7204602F0C1FE10BD000010B50446F6
:102A200003685A6B12F4807F60D04FF480729A630F
:102A30000268D36B23F49D73D363036B13F0080F09
:102A40002AD0036B13F0020F03D1036B13F0200F96
:102A500004D0206801F03EFA034690B9236840F2A2
:102A6000FF529A63012384F83430236B13F0010F73
:102A700003D1236B13F0020F0AD0204602F097FE19
:102A800010BDA26B1343A3632046FFF791FDE5E75A
:102A9000204602F087FE10BD036B13F0800F0BD0B1
:102AA000036B13F0200F08D1236B13F0010F03D138
:102AB000236B13F0020F0DD010BD006801F00AFA6D
:102AC00003460028F0D0A26B1343A3632046FFF710
:102AD0006FFDE9E72268D36A23F00803D36201237C
:102AE00084F83430204602F05DFE10BD5A6B12F4BB
:102AF000804F40D15A6B12F4004F42D15A6B12F002
:102B00003A0FD9D05A6B12F0020F03D0826B42F009
:102B1000020282635A6B12F0080F03D0A26B42F0DC
:102B20000802A2635A6B12F0200F03D0A26B42F08E
:102B30002002A2635A6B12F0100F03D0A26B42F076
:102B40001002A26340F2FF529A632268D36B23F40F
:102B50009D73D363236B13F0800F2ED0236CB3B11E
:102B60001C4A1A65206CFEF711FB0028A4D0206CCB
:102B7000FFF709FF10BD4FF480429A63FFF7F0FAA8
:102B800010BD4FF400429A63FFF7D8FA10BDE36B13
:102B900053B1114A1A65E06BFEF7F8FA00288BD0A2
:102BA000E06BFFF715FF10BD0023A363012384F83A
:102BB0003430204602F0F1FD10BD236B13F0080FF6
:102BC0003FF47AAF012384F834302046FFF7F0FC5D
:102BD00072E700BF87290008D129000810B4036AF2
:102BE000046A24F001040462846924F0F00444EAD5
:102BF000021223F00A030B43826103625DF8044B67
:102C0000704710B4036A23F0100303628469036AF7
:102C100024F4704444EA023223F0A00343EA01138F
:102C2000826103625DF8044B7047836823F0700390
:102C3000194341F007018160704700000268D368C2
:102C400043F00103D36002689168064B0B40062BEA
:102C500018BFB3F5803F03D0136843F0010313603E
:102C600000207047070001007047704770477047A9
:102C700010B5044603681A6912F0020F11D0DA6821
:102C800012F0020F0DD06FF002021A6101230377D8
:102C900003689B6913F0030F79D0FFF7E6FF002369
:102CA000237723681A6912F0040F12D0DA6812F041
:102CB000040F0ED06FF004021A61022323772368F9
:102CC0009B6913F4407F68D02046FFF7CEFF0023B6
:102CD000237723681A6912F0080F12D0DA6812F00D
:102CE000080F0ED06FF008021A61042323772368BF
:102CF000DB6913F0030F57D02046FFF7B6FF002320
:102D0000237723681A6912F0100F12D0DA6812F0D4
:102D1000100F0ED06FF010021A610823237723687A
:102D2000DB6913F4407F46D02046FFF79EFF002367
:102D3000237723681A6912F0010F03D0DA6812F0C2
:102D4000010F3FD123681A6912F0800F03D0DA68AF
:102D500012F0800F3DD123681A6912F4807F03D0EE
:102D6000DA6812F0800F3BD123681A6912F0400F25
:102D700003D0DA6812F0400F39D123681A6912F0D3
:102D8000200F03D0DA6812F0200F37D110BDFFF703
:102D90006BFF2046FFF76AFF81E72046FFF764FFDD
:102DA0002046FFF763FF92E72046FFF75DFF2046CE
:102DB000FFF75CFFA3E72046FFF756FF2046FFF72B
:102DC00055FFB4E76FF001021A61204602F0ACFF34
:102DD000B8E76FF080021A61204600F064F9BAE7A4
:102DE0006FF480721A61204600F05EF9BCE76FF064
:102DF00040021A612046FFF73AFFBEE76FF020025B
:102E00001A61204600F04EF9C0E7000070B4036874
:102E10003A4DA84214BF00250125B0F1804F14BFE0
:102E20002A4645F00102AAB9354CA04214BF00243D
:102E30000124344EB0420DD064B904F1804404F54D
:102E40008234A04214BF0024012406F50066B0427B
:102E500000D01CB123F070034C682343002A33D107
:102E6000274A904214BF00220122264CA0422BD0B8
:102E700052BB02F1804202F58232904214BF00221E
:102E8000012204F50064A0421ED0EAB91E4A904215
:102E900014BF0022012204F59A34A04214D09AB93A
:102EA0001A4A904214BF0022012204F50064A04295
:102EB0000AD04AB9164A904214BF00220122A4F552
:102EC0009634A04200D01AB123F44073CC68234357
:102ED00023F080034A69134303608A68C2620A6868
:102EE00082620C4B984214BF2B4645F001030BB194
:102EF0000B6903630123436170BC7047000001400C
:102F00000008004000040040004401400018004058
:102F10000020004000040140A8B110B5044690F81C
:102F20003D305BB1022384F83D30211D2068FFF75E
:102F30006DFF012384F83D30002010BD80F83C3047
:102F400004F0ACF9EEE70120704710B4846824F473
:102F50007F4442EA032319430C4384605DF8044B29
:102F60007047000090F83C30012B64D010B5044647
:102F7000012380F83C30022380F83D3002689068DD
:102F80002E4B034093600B68402B4AD013D9602B23
:102F90003DD01ED9702B28D0B3F5005F30D1CB685F
:102FA0004A6889682068FFF7D0FF2268936843F475
:102FB0008043936024E0102B06D004D9202B03D04B
:102FC000302B01D01CE0DBB919462068FFF72DFE3D
:102FD00016E0502B14D1CA6849682068FFF7FEFD3F
:102FE00050212068FFF721FE0AE0CB684A68896813
:102FF0002068FFF7AAFF2268936843F07703936085
:10300000012384F83D30002084F83C0010BDCA68DC
:1030100049682068FFF7F5FD60212068FFF705FE8D
:10302000EEE7CA6849682068FFF7D8FD40212068AC
:10303000FFF7FBFDE4E70220704700BF8800FEFFBA
:1030400090F83C30012B27D070B4012380F83C303D
:10305000022380F83D3004686368A2680F4D104E6B
:10306000AC4218BFB44203D123F470034D682B4324
:1030700023F070030D682B4322F0800289680A4315
:10308000636003689A60012380F83D30002380F874
:103090003C30184670BC7047022070470004014065
:1030A000000001407047704770470268136823F4BE
:1030B000907313600268936823F0010393602023E8
:1030C0008367002303667047836F202B01D00220A3
:1030D0007047002A18BF002956D090F87030012B95
:1030E00054D0012380F870304165A0F85820A0F832
:1030F0005A20002303668368B3F5805F06D0A3B926
:10310000036973B9FF23A0F85C3014E0036923B9A5
:1031100040F2FF13A0F85C300DE0FF23A0F85C3014
:1031200009E07F23A0F85C3005E0B3F1805F1BD09D
:103130000023A0F85C300023C36722238367026862
:10314000936843F0010393608368B3F5805F15D003
:103150000F4B0366002380F8703001680A6842F460
:1031600090720A601846704703691BB97F23A0F864
:103170005C30E0E73F23A0F85C30DCE70369002B1C
:10318000E6D1044B0366E5E7012070470220704753
:10319000B531000819320008704708B501680A689F
:1031A00022F040020A602022426700224266FFF7B6
:1031B000F3FF08BD08B5B0F85C30826F222A05D055
:1031C0000268936943F00803936108BD0268516A7D
:1031D000426DDBB20B401370436D01334365B0F8B1
:1031E0005A309BB2013B9BB2A0F85A30B0F85A302B
:1031F0009BB2002BE9D10268136823F4907313602B
:103200000268936823F001039360202383670023FF
:10321000036602F09BFF08BD08B5B0F85C20836F21
:10322000222B05D00268936943F00803936108BD1F
:1032300003685B6A416D1A400A80436D023343653F
:10324000B0F85A309BB2013B9BB2A0F85A30B0F8AC
:103250005A309BB2002BEAD10268136823F49073B2
:1032600013600268936823F001039360202383674F
:103270000023036602F06AFF08BD704738B50446B4
:103280000268D3691568906813F00F010CD113F030
:10329000200F09D015F0200F06D0236E002B00F070
:1032A00086802046984738BD00296FD010F0010075
:1032B00002D115F4907F69D013F0010F07D015F4F7
:1032C000807F04D001211162E26F0A43E26713F0AC
:1032D000020F07D030B1226802211162E26F42F082
:1032E0000402E26713F0040F07D030B12268042112
:1032F0001162E26F42F00202E26713F0080F09D098
:1033000015F0200F00D128B1226808211162E26F68
:103310000A43E267E26F002A49D013F0200F06D07B
:1033200015F0200F03D0236E0BB120469847E26FB3
:1033300023689B6813F0400F02D112F0080F1FD0D2
:103340002046FFF7B2FE23689A6812F0400F13D0B0
:103350009A6822F040029A60E36E4BB1164A1A65F1
:10336000E06EFDF713FF10B3E06E036D984738BDB4
:103370002046FFF782FF38BD2046FFF77EFF38BDAD
:103380002046FFF77AFF0023E36738BD13F0800F74
:1033900007D015F0800F04D0636E43B120469847E4
:1033A00038BD13F0400F02D015F0400F00D138BDEA
:1033B0002046FFF7F2FEFAE7BD33000808B5806B40
:1033C0000023A0F85A30A0F85230FFF756FF08BD8E
:1033D00010B5044683680269134342691343C26906
:1033E0001343016808689C4A024013430B6022683B
:1033F000536823F44053E1680B435360A369226A86
:10340000134321688A6822F4306213438B60236877
:10341000924A93422BD0924A93423BD0914A934294
:1034200050D0914A934263D0904A934275D0904ACB
:10343000934200F08A808F4A934200F09E808E4A29
:10344000934200F0B2801023E269B2F5004F00F021
:10345000D480082B00F26F81DFE813F032014701BE
:1034600051016D015A016D016D016D016401834BC4
:10347000D3F8903003F00303032B09D8DFE803F0FF
:103480000204AD060123DFE70423DDE70823DBE7C1
:103490001023D9E7794BD3F8903003F00C030C2BB1
:1034A0000ED8DFE803F0070D0D0D090D0D0D9C0D75
:1034B0000D0D0B000023C7E70423C5E70823C3E76E
:1034C0001023C1E76D4BD3F8903003F03003102B7D
:1034D0000AD006D9202B00F08480302B06D1082397
:1034E000B2E71BB90023AFE70423ADE71023ABE736
:1034F000624BD3F8903003F0C003402B09D005D9BC
:10350000802B70D0C02B06D108239DE71BB9002368
:103510009AE7042398E7102396E7584BD3F89030A6
:1035200003F44073B3F5807F0BD007D9B3F5007F68
:103530005BD0B3F5407F06D1082385E71BB9002394
:1035400082E7042380E710237EE74C4BD3F89030CA
:1035500003F44063B3F5806F0BD007D9B3F5006F68
:1035600045D0B3F5406F06D108236DE71BB90123A1
:103570006AE7042368E7102366E7404BD3F89030EE
:1035800003F44053B3F5805F0BD007D9B3F5005F68
:103590002FD0B3F5405F06D1082355E71BB90023B0
:1035A00052E7042350E710234EE7344BD3F8903012
:1035B00003F44043B3F5804F0BD007D9B3F5004F68
:1035C00019D0B3F5404F06D108233DE71BB90023BE
:1035D0003AE7042338E7102336E7022334E70223CF
:1035E00032E7022330E702232EE702232CE70223EF
:1035F0002AE7022328E7022326E7082B5DD8DFE825
:1036000003F0051F3F5C485C5C5C5300FEF708FA62
:103610006268530803EB4003B3FBF2F39BB2002054
:10362000A3F110014FF6EF72914200F287809AB237
:1036300022F00F02C3F3420313432268D36050E029
:10364000FEF7FEF96268530803EB4003B3FBF2F3A5
:103650009BB20020E4E700BFF369FFEF00100140D8
:103660000044004000480040004C00400050004032
:103670000014014000780040007C00400038024007
:103680006268304B03EB5203B3FBF2F39BB20020B2
:10369000C6E7FEF7BBF86268530803EB4003B3FBD1
:1036A000F2F39BB20020BBE76268530803F5803356
:1036B000B3FBF2F39BB20020B2E701200023AFE797
:1036C000FEF7AEF9626800EB5203B3FBF2F39BB274
:1036D0000020A3F110014FF6EF72914230D822681A
:1036E000D36000232366636610BDFEF7A9F9626804
:1036F00000EB5203B3FBF2F39BB20020E9E76268F0
:10370000114B03EB5203B3FBF2F39BB20020E0E753
:10371000FEF77CF8626800EB5203B3FBF2F39BB256
:103720000020D6E76268530803F50043B3FBF2F3C9
:103730009BB20020CDE701200023CAE70120D0E79B
:103740000120CEE70048E8010024F400436A13F0AA
:10375000010F06D00268536823F40033816A0B43DB
:103760005360436A13F0020F06D00268536823F4D3
:103770008033C16A0B435360436A13F0040F06D0D1
:103780000268536823F48023016B0B435360436A40
:1037900013F0080F06D00268536823F40043416B0E
:1037A0000B435360436A13F0100F06D0026893680E
:1037B00023F48053816B0B439360436A13F0200F13
:1037C00006D00268936823F40053C16B0B439360E7
:1037D000436A13F0400F0AD00268536823F4801341
:1037E000016C0B435360036CB3F5801F0BD0436A2D
:1037F00013F0800F06D00268536823F40023816C15
:103800000B43536070470268536823F4C003416C54
:103810000B435360EBE72DE9F04105460F46164692
:103820009846069C2B68DB6937EA03030CBF01232B
:103830000023B3421DD1B4F1FF3FF3D0FDF738F8B8
:10384000A0EB0800844201D3002CEBD12A68136856
:1038500023F4D07313602A68936823F00103936004
:1038600020236B67AB67002385F870300320BDE829
:10387000F0810020BDE8F0812DE9F04182B01E46C4
:10388000436F202B04D00223184602B0BDE8F0811C
:1038900004460D469046002A18BF002953D090F8E0
:1038A0007030012B01D10223EEE7012380F8703044
:1038B0000023C36721234367FCF7FAFF0746A4F8F8
:1038C0005080A4F85280A368B3F5805F02D04FF017
:1038D000000814E0236913B14FF000080FE0A84678
:1038E00000250CE0226838F8023BC3F3080393621A
:1038F000B4F852309BB2013B9BB2A4F85230B4F8FA
:1039000052309BB273B100963B4600228021204684
:10391000FFF781FFC8B9002DE4D0236815F8012B0B
:103920009A62E5E700963B46002240212046FFF7D9
:1039300072FF034608B10323A6E720226267002234
:1039400084F87020A0E701239EE703239CE710B5CD
:1039500082B004460023C367FCF7AAFF22681268FE
:1039600012F0080F07D120236367A367002084F8B3
:10397000700002B010BD6FF07E430093034600223A
:103980004FF400112046FFF746FF0028EBD003203C
:10399000EFE768B310B50446436F03B324236367AE
:1039A0002268136823F0010313602046FFF710FD1F
:1039B00001281FD0636ABBB92268536823F490437F
:1039C00053602268936823F02A0393602268136887
:1039D00043F0010313602046FFF7B9FF10BD80F8E4
:1039E000703003F06FFCD9E72046FFF7AFFEE3E746
:1039F0000120704710BD00000C4B1B680C4AA2FB55
:103A000003235A0A41F2883303FB02F35A1E4BB1D7
:103A1000416B134611F0800FF8D040F2FF538363DF
:103A2000002070474FF00040704700BF2400002086
:103A3000D34D6210144B1B68144AA2FB03235A0A8D
:103A400041F2883303FB02F35A1ECBB1416B13469C
:103A500011F0450FF8D0436B13F0040F03D004238B
:103A6000836318467047436B13F0010F04D140F293
:103A7000FF53836300207047012383631846704718
:103A80004FF00040704700BF24000020D34D62106B
:103A9000104B1B68104AA2FB03235A0A41F28833D9
:103AA00003FB02F35A1E8BB1416B134611F0450F15
:103AB000F8D0436B13F0040F03D00423836318463C
:103AC000704740F2FF538363002070474FF000407F
:103AD000704700BF24000020D34D6210124B1B68BA
:103AE000124AA2FB03235A0A41F2883303FB02F372
:103AF0005A1EA3B1416B134611F0450FF8D0436B2A
:103B000013F0040F03D04023836304207047436BFA
:103B100013F0400F06D040238363002070474FF01E
:103B2000004070470020704724000020D34D6210F1
:103B300084B010B402AC84E80E00039A0B46134321
:103B4000049A1343059A1343069A1343079A13439F
:103B50004168044A0A401343436000205DF8044B67
:103B600004B070470081FFFFD0F8800070470B68F9
:103B7000C0F88030002070470323036000207047A6
:103B8000006800F0030070470B6883604B688A6828
:103B90001343CA6813430A691343C168024A0A40BF
:103BA0001343C3600020704700F0FFFF0069C0B2FC
:103BB000704782B000230193143001440191019BAE
:103BC000186802B07047000038B5524B1B68524C61
:103BD000A4FB03435B0A02FB03F2531E002A63D0DB
:103BE000446B1A4614F0450FF7D0436B13F0040FE3
:103BF00003D004238363184638BD436B13F0010FD1
:103C000003D001238363184638BD0D460446FFF7F1
:103C1000CDFFA84201D0012038BD40F2FF53A3637D
:103C200000212046FFF7C5FF3C4B0340002B3ED050
:103C300000283EDB10F0804F01D0402038BD10F04E
:103C4000005F01D0802038BD10F0805F34D110F0CB
:103C5000006F34D110F0806F34D110F0807F34D1F8
:103C600010F4000F34D110F4800F34D110F4001F81
:103C700034D110F4801F34D110F4802F34D110F4DB
:103C8000003F34D110F4803F34D110F4004F34D1D0
:103C900010F4804F34D110F4005F34D110F0080FCD
:103CA00034D04FF4000038BD4FF0004038BD002044
:103CB00038BD4FF0007038BD4FF4807038BD4FF400
:103CC000007038BD4FF4806038BD4FF4006038BDDF
:103CD0004FF4805038BD4FF4005038BD4FF4804051
:103CE00038BD4FF4004038BD4FF4003038BD4FF4BC
:103CF000802038BD4FF4002038BD4FF4801038BD0F
:103D00004FF4001038BD4FF4800038BD4FF48030C0
:103D100038BD00BF24000020D34D621008E0FFFD35
:103D200070B5254B1B68254CA4FB03435C0A41F28C
:103D3000883303FB04F35C1E002B37D0456B23460E
:103D400015F0450FF7D0436B13F0040F03D0042395
:103D50008363184670BD436B13F0010F03D001233A
:103D60008363184670BD16460D460446FFF71EFFD6
:103D7000A84201D0012070BD40F2FF53A36300218F
:103D80002046FFF716FF10F4604F05D010F4804F67
:103D900006D04FF4005070BD000C3080002070BD84
:103DA00010F4004F05D04FF4805070BD4FF000402C
:103DB00070BD4FF4803070BD24000020D34D6210E0
:103DC0000B6843624B6883628B68CA6813430A6955
:103DD00013434A691343C26A22F0F7021343C362D2
:103DE0000020704730B587B0054601911024029439
:103DF00040230393002304934FF48063059301A9A8
:103E0000FFF7C2FE41F2883221462846FFF7DCFE6A
:103E100007B030BD30B587B005460191112402943A
:103E200040230393002304934FF48063059301A977
:103E3000FFF7AAFE41F2883221462846FFF7C4FE6A
:103E400007B030BD30B587B0054601911224029409
:103E500040230393002304934FF48063059301A947
:103E6000FFF792FE41F2883221462846FFF7ACFE6A
:103E700007B030BD30B587B00546019118240294D3
:103E800040230393002304934FF48063059301A917
:103E9000FFF77AFE41F2883221462846FFF794FE6A
:103EA00007B030BD30B587B00546019119240294A2
:103EB00040230393002304934FF48063059301A9E7
:103EC000FFF762FE41F2883221462846FFF77CFE6A
:103ED00007B030BD30B587B00546002301930C24F0
:103EE00002944022039204934FF48063059301A946
:103EF000FFF74AFE034A21462846FFF765FE07B052
:103F000030BD00BF00E1F50530B587B00546019230
:103F10000724029440230393002304934FF4806307
:103F2000059301A9FFF730FE41F288322146284669
:103F3000FFF74AFE07B030BD10B586B00446002337
:103F400001930293039304934FF48063059301A9B3
:103F5000FFF71AFE2046FFF74FFD06B010BD10B563
:103F600086B004464FF4D57301930823029340238F
:103F70000393002304934FF48063059301A9FFF793
:103F800003FE2046FFF7AAFD06B010BD30B587B08E
:103F900005460191372402944023039300230493A0
:103FA0004FF48063059301A9FFF7EEFD41F28832DB
:103FB00021462846FFF708FE07B030BD10B586B091
:103FC00004460A4B0B430193292302934023039396
:103FD000002304934FF48063059301A9FFF7D4FDF8
:103FE0002046FFF755FD06B010BD00BF0000108051
:103FF00010B586B004460023019302220292C0222B
:10400000039204934FF48063059301A9FFF7BCFD6D
:104010002046FFF70FFD06B010BD10B586B0044670
:10402000019109230293C0230393002304934FF4C7
:104030008063059301A9FFF7A7FD2046FFF7FAFC6F
:1040400006B010BD70B586B005460E46002301933C
:10405000032402944022039204934FF48063059357
:1040600001A9FFF791FD324621462846FFF758FE89
:1040700006B070BD30B587B0054601910D2402949D
:1040800040230393002304934FF48063059301A915
:10409000FFF77AFD41F2883221462846FFF794FD6A
:1040A00007B030BD08B5044B03EB8002526852687C
:1040B0000344187A904708BD1C0A002008B5084B35
:1040C0001B5C0BB1002008BD054B01221A5403EB09
:1040D0008002526812681844007A904708BD00BFF9
:1040E0001C0A002038B5044C04EB80056D68AD68EF
:1040F0000444207AA84738BD1C0A002038B5044C77
:1041000004EB80056D68ED680444207AA84738BD4B
:104110001C0A002010B5044B03EB8004646824697A
:104120000344187AA04710BD1C0A0020427800788A
:1041300040EA02207047C278837843EA022243783B
:1041400043EA0223007840EA032070470170090A1D
:10415000417070470170C1F307234370C1F30743F7
:104160008370090EC170704713462AB10A78027035
:1041700001300131013BF9D1704701700130013A42
:10418000FBD1704730B4451C037808781B1A013AFC
:1041900004D04C1C28462146002BF4D0184630BCD5
:1041A000704700E0013003780BB18B42FAD118461A
:1041B0007047000030B400252B4601E00125013393
:1041C000012B15D81A01174CA258002AF6D0046802
:1041D000A242F4D1134A02EB03125468826894425B
:1041E000EDD1104A02EB0312946842699442E6D181
:1041F000022B03D059B1102030BC7047022908BFF0
:1042000045F001050DB91220F6E70020F4E7054A54
:1042100002EB03139B89B3F5807F01D00020EBE70D
:104220001020E9E7F8090020002000E00130012813
:1042300004D80301034AD358002BF7D1023818BF22
:1042400001207047F809002070B4002300E001331A
:10425000012B13D81A01244CA45802689442F6D1B9
:10426000214A02EB0312546882689442EFD11E4A3D
:1042700002EB0312946842699442E8D1022B29D0E0
:1042800021B1194A02EB0312928952BB21BB164A93
:1042900002EB03129189013189B2134A02EB031236
:1042A0009181581C70BC70470133012B04D81A014E
:1042B0000D4CA258002AF7D1022B10D006680A4DE7
:1042C0001C012A192E5184685460406990600020B6
:1042D0009081D5E70023E8E74FF48071DDE7002007
:1042E000E0E70020DEE700BFF809002001380128E0
:1042F00001D9022070470C4B03EB00139B89B3F5E7
:10430000807F0CD00BB1013B9BB2074A02EB00123D
:10431000938133B903010020034AD0507047002332
:10432000F0E70020704700BFF8090020002303E0F9
:104330005DF8044B70470133012B11D81A0109496C
:104340008A588242F7D110B41A0100248C500133EC
:10435000012BEDD81A0103498A588242F7D1F3E7BD
:10436000704700BFF809002002394369023B9942B7
:1043700004D24389806A03FB010070470020704724
:104380000268C36A0433490A5289B1FBF2F1186822
:1043900030B1814202D3091A0833F8E7586808445B
:1043A000704770B506460D4601F11A00FFF7BEFED4
:1043B00004463378032B00D070BD05F11400FFF7DD
:1043C000B5FE44EA0040F7E770B506460C461546D0
:1043D00091B204F11A00FFF7B9FE3378032B00D035
:1043E00070BD290C04F11400FFF7B0FEF8E70000DF
:1043F0002DE9F84F83468A46D1F8008000F1240960
:104400000B2220214846FFF7B8FE00252B4608273F
:1044100025E0013618F806305C2B18BF2F2BF8D09A
:104420004644CAF80060002D37D10620BDE8F88F59
:1044300008250B2712E014F0800F2AD121462148CD
:10444000FFF7AFFE00283AD1A4F16103DBB2192BCC
:1044500001D8203CE4B209F80540013533465E1C22
:1044600018F80340202CDBD95C2C18BF2F2CD1D09E
:104470002E2C18BFAF42DED82E3C18BF01240B2FC4
:1044800014BF274644F00107002FD1D00620BDE815
:10449000F88F803C0C4B1C5DD0E79BF82430E52B5B
:1044A00007D0202C09D804238BF82F300020BDE83A
:1044B000F88F05238BF82430F3E70023F4E7062078
:1044C000BDE8F88F10BC000890BB0008016809B176
:1044D0000A4603E04FF0FF3308E0013213783A2B2D
:1044E00018BF202BF9D83A2B02D00023184670476A
:1044F00010B44C1C0B78303B092B98BFA24206D15C
:1045000043B90132026018465DF8044B70474FF022
:10451000FF33F8E74FF0FF33F5E738B50D460446B3
:10452000B0B10368B3B11A7822B90920B0B92368D1
:104530002B6038BD8188DA88914201D00920F5E7E7
:104540005878FFF7AFFD10F0010F05D00920EDE717
:104550000920EBE70920E9E70020E7E70023E7E788
:10456000F8B5C3780BB90020F8BD0446C66A00F15F
:1045700030070123324639464078FFF7BFFDA8B91E
:104580000023E370236AF31AA269934210D2A5783C
:1045900008E0A3691E440123324639466078FFF7DC
:1045A000ADFD013D012DF4D80020F8BD0120F8BD7E
:1045B0000020F8BD70B5C36A8B4214D004460D4686
:1045C000FFF7CEFF064608B1304670BD01232A46EC
:1045D00004F130016078FFF785FD10B101264FF03E
:1045E000FF35E562F0E70026EEE7000010B504466F
:1045F0000023C3704FF0FF33C362FFF7DBFF08B146
:10460000042010BD04F22E20FFF790FD4AF655233A
:10461000984201D0032010BD94F83030E92B07D028
:10462000236B03F0FF130D4A934201D0022010BD0B
:1046300004F16600FFF77FFD20F07F40084B9842B1
:104640000AD004F18200FFF776FD064B984201D0B4
:10465000022010BD002010BD002010BDEB00900016
:1046600046415400464154332DE9F04784B00E468C
:10467000174600230B60FFF729FF051EC0F23881A3
:10468000A94B53F82540002C00F03681346007F028
:10469000FE0723787BB16078FFF704FD10F0010F6F
:1046A00009D1002F00F02A8110F0040F01D00A2058
:1046B0001FE100201DE100232370E8B26070FFF7C6
:1046C000FDFC10F0010F01D0032012E127B110F022
:1046D000040F01D00A200CE100212046FFF786FFDD
:1046E00002281DD00026042800F00A8101282DD9B7
:1046F0000D20FEE0002004AB03EB850343F8100C13
:104700000135032D0ED804F130002B0103F5DF73C2
:1047100018440379002BEDD00830FFF70CFDEAE7D1
:104720000025EEE7002508E031462046FFF75EFF52
:104730000128D8D90135032DD5D804AB03EB850367
:1047400053F8106C002EEFD10320F1E704F13B0089
:10475000FFF7ECFCB0F5007F01D00D20C9E004F1BB
:104760004600FFF7E3FC804620B904F15400FFF750
:10477000E2FC8046C4F8188094F8409084F80290D7
:1047800009F1FF33DBB2012B01D90D20B1E009FBA8
:1047900008F994F83D706781002F00F0B3807B1E0C
:1047A0001F4201D00D20A4E004F14100FFF7BEFC40
:1047B0008246208110F00F0F40F0A68004F14300E4
:1047C000FFF7B4FC054620B904F15000FFF7B3FC35
:1047D000054604F13E00FFF7A9FC0246002800F060
:1047E000958009EB000303EB1A139D42C0F0908003
:1047F000ED1AB5FBF7F5002D00F08C804FF6F57142
:104800008D4263D9032740F6F5718D4200D8012708
:1048100002356561E661324422623344A362032FAC
:1048200056D104F15A00FFF781FC002874D1BAF187
:10483000000F73D104F15C00FFF77DFC6062AD00F6
:1048400005F2FF15B8EB552F6CD34FF0FF33236102
:10485000E36080232371032F2CD104F16000FFF764
:1048600065FC012826D1711C2046FFF7A3FE08BB7A
:104870000023237104F22E20FFF758FC4AF655233B
:10488000984217D104F13000FFF755FC274B9842AE
:1048900010D104F50570FFF74EFC254B984209D165
:1048A00004F50670FFF747FC206104F50770FFF779
:1048B00042FCE06027701F4A138801339BB21380CB
:1048C000E3802046FFF732FD002012E002279AE73E
:1048D000BAF1000F24D04A446262022F01D16D0068
:1048E000AEE705EB450305F0010505EB5305A7E72A
:1048F0000B2004B0BDE8F0870C20FAE70020F8E7B1
:104900000120F6E70D20F4E70D20F2E70D20F0E797
:104910000D20EEE70D20ECE70D20EAE70D20E8E79B
:104920000D20E6E70D20E4E7F40900205252614132
:1049300072724161180A00202DE9F04701297CD9E3
:104940004369994201D3022578E017460C46064692
:104950000378022B43D0032B54D0012B01D0022526
:104960006CE001EB5108016A01EB5821FFF722FED0
:104970000546002862D106F1300A08F10109C8F3A2
:10498000080814F001041FD01AF9083003F00F03CF
:104990003A0102F47F621343DBB20AF808300123C4
:1049A000F370316A01EB59213046FFF703FE0546EB
:1049B000002843D1C9F3080944B1C7F307120AF824
:1049C00009200123F37039E0FBB2E6E71AF9092068
:1049D00022F00F02C7F303273A43D2B2EFE7016A8E
:1049E00001EB1421FFF7E6FD054638BB06F1300068
:1049F000630003F4FF73B9B21844FFF7A7FB012368
:104A0000F3701BE0016A01EBD411FFF7D3FD0546FB
:104A1000A0B927F0704706F13003A10001F4FE7140
:104A20005C182046FFF787FB00F0704139432046B1
:104A3000FFF790FB0123F37000E002252846BDE854
:104A4000F087F8B5066801295ED9736999425DD28D
:104A50000C463378022B30D0032B41D0012B01D0F0
:104A60000120F8BD01EB5105316A01EB55213046BB
:104A7000FFF7A0FD10B14FF0FF30F8BD6F1CC5F37C
:104A80000805354495F83050316A01EB572130461E
:104A9000FFF790FD10B14FF0FF30F8BDC7F30803EA
:104AA000334493F8300045EA002014F0010F01D0A0
:104AB0000009F8BDC0F30B00F8BD316A01EB142109
:104AC0003046FFF777FD10B14FF0FF30F8BD06F12B
:104AD0003000610001F4FF710844FFF727FBF8BDC7
:104AE000316A01EBD4113046FFF764FD10B14FF08D
:104AF000FF30F8BD3036A10001F4FE703044FFF7FE
:104B00001AFB20F07040F8BD0120F8BD0120F8BD6F
:104B10002DE9F0410768B1F5001F02D30220BDE87E
:104B2000F08106460C4611F01F0F02D00220BDE8AE
:104B3000F081716185681DB93B78022B00D97D6ACF
:104B400075B93B89B3EB541F02D80220BDE8F08150
:104B50007B6AF361B561F3690BBB0220BDE8F081AC
:104B6000B7F80A804FEA482801E0A4EB080444455E
:104B70000FD329463046FFF764FF0546B0F1FF3FEB
:104B800018D0012819D97B699842EED30220BDE8DC
:104B9000F08129463846FFF7E7FBF061DAE703EBDF
:104BA0005423F3613037C4F308043C4434620020DA
:104BB000BDE8F0810120BDE8F0810220BDE8F08170
:104BC0002DE9F04107460668884631B9F5688DB190
:104BD00073699D420FD301250DE0FFF732FF0346B5
:104BE00001284BD9B0F1FF3F4DD0726990424AD3B2
:104BF000454600E001252C460CE021463846FFF7EB
:104C000020FF034670B1B0F1FF3F18BF01283AD032
:104C1000AC4237D0013473699C42EED3012D2FD9B9
:104C20000224EAE74FF0FF3221463046FFF784FEC8
:104C30000346B0FA80F04009B8F1000F08BF002029
:104C400070B9A3B9F46032697369023B9A4201D822
:104C5000013A3261337943F001033371234612E0A4
:104C6000224641463046FFF767FE0346E9E7012B3F
:104C700001D0012307E04FF0FF3304E0012302E0FD
:104C8000002300E000231846BDE8F081F8B50E4689
:104C90000468012930D90746114663699E4201D351
:104CA00002212AE052B14FF0FF322046FFF744FEC6
:104CB000014618B121E02E4695421ED231463846B3
:104CC000FFF7BFFE0546D0B101281AD0B0F1FF3F73
:104CD00019D0002231462046FFF72EFE014660B96A
:104CE00023696269901E8342E5D2013323612379EF
:104CF00043F001032371DEE702210846F8BD0021DD
:104D0000FBE70221F9E70121F7E72DE9F8430668FF
:104D1000436903F12005C36913B90420BDE8F88392
:104D2000B5F5001F02D30420BDE8F8838846044689
:104D3000C5F308078FB90133C361816941B933896C
:104D4000B3EB551F09D80023C3610420BDE8F883E5
:104D50007389013B13EA552306D0656130363E4422
:104D600026620020BDE8F883FFF76BFE814601282C
:104D700048D9B0F1FF3F48D0736998423AD3B8F1AF
:104D8000000F04D10023E3610420BDE8F883A1698A
:104D90002046FFF715FF814610B90720BDE8F883CC
:104DA000012835D0B0F1FF3F35D03046FFF7D8FBB2
:104DB000A0BB4FF40072002106F13000FFF7DDF9CF
:104DC00049463046FFF7D0FAF0624FF00008738989
:104DD00098450BD20123F3703046FFF7C1FB00BBAF
:104DE00008F10108F36A0133F362F0E7F36AA3EB19
:104DF0000803F362C4F8189049463046FFF7B4FA46
:104E0000E061AAE70220BDE8F8830120BDE8F8834D
:104E10000220BDE8F8830120BDE8F8830120BDE849
:104E2000F8830120BDE8F88370B5044606680021C8
:104E3000FFF76EFE054640B1284670BD00212046B2
:104E4000FFF763FF05460028F6D1E1693046FFF71A
:104E5000B1FB05460028EFD1206A03787BB1C37A05
:104E600003F03F03A371C37A13F0080FE6D10B22BE
:104E700004F12401FFF786F90028DFD1DCE70425DF
:104E8000DAE730B583B004460191056801E00133EB
:104E90000193019B1A785C2A18BF2F2AF7D00022B1
:104EA000A2601B781F2B1ED901A92046FFF7A0FA8C
:104EB000034600BB2046FFF7B7FF94F82F200346B8
:104EC000E0B912F0040F16D1A37913F0100F1CD023
:104ED00005F130016369C3F3080319442846FFF75D
:104EE00060FAA060E0E7802384F82F301146204666
:104EF000FFF70EFE0346184603B030BD0428FAD172
:104F000012F0040FF7D10523F5E70523F3E7F8B511
:104F100004460F4606680021FFF7FAFD0246B8B9BD
:104F2000002506E0002501212046FFF7EEFE02469F
:104F300070B9E1693046FFF73DFB024640B9236A8C
:104F40001B78002B18BFE52BECD10135BD42EAD10F
:104F5000042A01D01046F8BD0722FBE770B50446CD
:104F600006680121FFF7D3FF054608B1284670BD4A
:104F7000E1693046FFF71EFB05460028F6D12022E6
:104F80000021206AFFF7F9F80B2204F12401206ABE
:104F9000FFF7EAF80123F370E8E7000070B5044674
:104FA000FFF7DEFA054648B92378032B08D0002224
:104FB00011466078FFF7AEF800B10125284670BDB4
:104FC0002379012BF3D104F130064FF40072002154
:104FD0003046FFF7D2F84AF6552104F22E20FFF7AB
:104FE000B5F80F493046FFF7B5F80E4904F50570DE
:104FF000FFF7B0F8216904F50670FFF7ABF8E16838
:1050000004F50770FFF7A6F8E2690132E2620123B6
:1050100031466078FFF772F800232371C7E700BFBD
:10502000525261417272416170B584B00190009139
:10503000144604A840F8041DFFF748FA051E21DBBA
:10504000124B53F8256026B13046FFF76FF9002365
:105050003370019B0BB100221A70019B0B4A42F87E
:10506000253014F1FF3418BF0124002B08BF44F091
:1050700001040CB1002006E0002201A96846FFF7F8
:10508000F3FA00E00B2004B070BD00BFF40900206B
:105090002DE9F04391B00191002800F011810546FF
:1050A000164602F03F073A4603A901A8FFF7DCFACB
:1050B000044628B1002C00F0048100232B6000E19D
:1050C000039B0493019904A8FFF7DBFE044660B933
:1050D0009DF93F30002B57DB37F0010314BF01214E
:1050E000002104A8FFF766F8044616F01C0F00F034
:1050F000A180002C54D0042C48D047F0080714B9E4
:1051000017F0080F58D1A4B917F0080F01D047F0D5
:105110004007039BDB6A6B620C9BAB6237F00103B9
:1051200014BF0121002104A8FFF78EF8286100B9FF
:105130000224002CBED1039EDDF83080414630466B
:10514000FFF72FF9A86008F11C00FEF7F4FFE860F4
:105150000021E9622E60F388AB802F7569752962A2
:10516000A96105F130084FF400724046FFF705F8D9
:1051700017F0200F9ED0EE68002E9BD0AE61039BEF
:105180005F897F02A9686CE00624AEE7FFF74CF860
:1051900008B91224B1E704A8FFF7E0FE0446ACE723
:1051A0009DF8163013F0110F04D116F0040FA6D09D
:1051B0000824A4E70724A2E700F004FD0646014600
:1051C0000C980E30FEF7C6FF31460C981630FEF7ED
:1051D000C1FF20220C9BDA72039EDDF8308041462D
:1051E0003046FFF7DEF88146002241463046FFF7A1
:1051F000EBF800210C981C30FEF7ACFF0122039B5A
:10520000DA70B9F1000F3FF47EAF039BDE6A002233
:10521000494604A8FFF73AFD044600287FF473AF1F
:1052200031460398FFF7C6F9044609F1FF33039AA4
:10523000D36068E7002C7FF466AF9DF8163013F05A
:10524000100F09D116F0020F3FF45DAF13F0010FFC
:105250003FF459AF072456E7042454E702240DE035
:10526000F61BB4FA84F35B09BE4298BF002353B126
:105270002846FFF7E6FB01460128EFD9B1F1FF3FD1
:10528000EED10124ECE7E961002C7FF413AFC6F303
:105290000803002B3FF40EAF039F3846FFF764F876
:1052A00008B9022406E700EB56222A620123414690
:1052B0007878FEF717FF00283FF4FCAE0124F9E6EA
:1052C0000924204611B0BDE8F0832DE9F04F85B0E8
:1052D00004468846164699460023C9F800300190D6
:1052E00003A9FFF71AF9074630B9677D27B9237D6F
:1052F00013F0010F04D10727384605B0BDE8F08F41
:10530000E368A2699B1AB34253D21E4651E0E36A96
:105310001BB12046FFF734F85DE0E1690198FFF723
:1053200090FB58E002276775E6E701276775E3E71A
:1053300002276775E0E701276775DDE7206A009BB4
:10534000C01A83456DD94FF4007204F1300108EBA7
:105350004020FEF709FF64E0226A009B93420DD0D3
:1053600094F91430002B5FDB0123009A04F1300123
:1053700003984078FEF7B6FE002864D1009B2362B4
:10538000A369C3F30803C3F50075AE4200D23546E6
:1053900004F130012A4619444046FEF7E5FEA844D0
:1053A000A3692B44A361D9F800302B44C9F800301D
:1053B000761B002EA0D0A169C1F30803002BDFD11A
:1053C000039BB3F80AA00AF1FF3A1AEA512A08D15E
:1053D00000299CD1A0680128A4D9B0F1FF3FA4D036
:1053E000E061039DE1692846FEF7BEFF00289FD0DB
:1053F0000AEB000300935FEA562BADD00AEB0B03D8
:105400006A89934201D9A2EB0A0B5B46009A414696
:105410006878FEF767FE00288DD194F91430002BD0
:105420008CDB4FEA4B25BAE7012304F130016878A1
:10543000FEF764FE20B9237D03F07F03237593E715
:105440000127677558E70127677555E72DE9F04F84
:1054500085B004468846164699460023C9F80030B0
:10546000009003A9FFF759F8074630B9677D27B9BF
:10547000237D13F0020F04D10727384605B0BDE89D
:10548000F08FA369F342C0F09580DE4392E0E36AB7
:10549000002B35D02046FEF773FF002800F0B180C6
:1054A000012832D0B0F1FF3F32D0E061A36803B9E8
:1054B000A06094F91430002B2DDB039B0193E1696C
:1054C0001846FEF751FF8346002835D0D344750AAD
:1054D00045D00AEB0503019A5289934201D9A2EB08
:1054E0000A052B465A46414601984078FEF706FECB
:1054F00028BB216AA1EB0B018D4223D86D024AE043
:10550000E1690098FFF75CFBC7E702276775B4E71E
:1055100001276775B1E70123226A04F1300103987E
:105520004078FEF7EBFD20B9237D03F07F03237560
:10553000C3E701276775A0E7022767759DE7012785
:1055400067759AE74FF4007208EB412104F13000CF
:10555000FEF70AFE237D03F07F032375CEE7236A5F
:105560009B4503D0A269E3689A423DD3C4F820B0BA
:10557000A369C3F30803C3F50075AE4200D23546F4
:1055800004F130002A4641461844FEF7EDFD237D24
:1055900063F07F032375A844A3692B44A361E268E9
:1055A000934238BF1346E360D9F800302B44C9F862
:1055B0000030761B2EB3A169C1F30803002BD7D1AD
:1055C000039BB3F80AA00AF1FF3A1AEA512A7FF4C2
:1055D00070AF00297FF45BAFA06800287FF45DAF57
:1055E0000098FFF7EDFA58E701235A4604F130011D
:1055F00001984078FEF776FD0028B7D0012767753F
:105600003BE7237D43F04003237536E770B582B056
:10561000044601A9FEF781FF034678B9227D12F006
:10562000400F0BD012F0800F0BD100F0CBFA0646E2
:10563000616A0198FEF7BEFF034680B1184602B0CA
:1056400070BD0123226A04F1300101984078FEF711
:1056500055FD48BB237D03F07F032375E5E7A56A6D
:10566000EB7A43F02003EB72A26829462068FEF72C
:10567000ABFEE16805F11C00FEF76CFD314605F15B
:105680001600FEF767FD002105F11200FEF75EFD32
:105690000122019BDA700198FFF780FC0346227D0E
:1056A00022F040022275C9E70123C7E710B582B096
:1056B0000446FFF7ABFF034610B1184602B010BD19
:1056C00001A92046FEF729FF03460028F5D12069ED
:1056D000FEF70CFE03460028EFD100222260ECE723
:1056E000104B5B7ADBB930B40E4B5D7AEDB200241F
:1056F0005C555D7A03EB85056860587A1844027240
:105700005A7AD2B2501CC0B2587230320A703A2360
:105710004B702F238B70CC70204630BC704701201B
:10572000704700BF1C0A002008B50022FFF7D8FF11
:1057300008BD000000B583B0009313460A46014639
:105740000348FCF734FD00B1012003B05DF804FB11
:10575000D032002000B583B0009313460A460146BC
:105760000348FCF733FE00B1012003B05DF804FBF1
:10577000D032002008B50348FDF7F2F8043818BF0E
:10578000012008BDD032002008B501460148FDF7D0
:10579000D5F808BDD0320020704708B5FFF7FCFFF0
:1057A00008BD704708B5FFF7FCFF08BD704708B596
:1057B000FFF7FCFF08BD00B583B001238DF807306B
:1057C00000F002FA10B900238DF807309DF80700A9
:1057D00003B05DF804FB000008B5FFF7ECFF0128FB
:1057E00001D0022008BD0248FDF78FF808BD00BFB8
:1057F000D032002000B589B00023079304E0C2181E
:10580000117B82F824100133072BF8DDC36A836310
:105810000268C263019300230393049305928DF8F9
:10582000183007AB00F10C0201A9006CFBF7C8F9B6
:1058300018B9012009B05DF804FB0020FAE700B5B3
:1058400087B0836B0093002302930393C26B04928F
:105850008DF81430012300F124026946006CFBF737
:10586000AFF918B9012007B05DF804FB0020FAE792
:1058700038B504460025C56585644564C56405657D
:105880004565856505660123436600F14401006CAA
:10589000FBF7CEF884F86C0094F9981D206CFBF7A8
:1058A000CCFA84F86D0094F9991D206CFBF7C5FAC9
:1058B00084F86D0084F8705084F8715084F8745046
:1058C00084F8725084F8755084F87350206CFBF79C
:1058D00049F984F86E00E36E33F07F4301D0012074
:1058E00038BD284638BD000008B50248FFF7C0FFA4
:1058F00008BD00BF4418002070B490F8703090F8D4
:105900007160B34222D0354600EB06139A6F0263F2
:10591000DC6F4460002308E000EB05121A4492F8A3
:105920008010C21811750133DBB29C42F4DC0136E1
:10593000074A82FB0632F317C3EB6213642202FBB1
:10594000136380F87130012070BC70470020FBE7C2
:105950001F85EB5170B490F87040631C134A82FBB2
:105960000312DE17C6EB6216642202FB163690F8AD
:1059700071309E4217D0426B00EB04139A67856822
:10598000DD67002308E0C218117F00EB04121A44FF
:1059900082F880100133DBB29D42F4DC80F8706045
:1059A000012070BC70470020FBE700BF1F85EB5152
:1059B00070B490F8723090F87360B34224D03546DA
:1059C00000EB0613D3F8B826C262D3F8BC460460D5
:1059D000002308E000EB05121A4492F8C016C21822
:1059E00011730133DBB29C42F4DC0136074A82FBBF
:1059F0000632F317C3EB6213642202FB136380F8D1
:105A00007330012070BC70470020FBE71F85EB510D
:105A100070B490F8743090F87560B34225D0354674
:105A200000EB0613D3F8F82CC262D3F8FC4C0460E8
:105A3000002308E000EB05121A4492F8001DC2187A
:105A400011730133DBB29C42F4DC0136084A82FB5D
:105A50000632F317C3EBA20303EB83035A00B31A16
:105A600080F87530012070BC70470020FBE700BF54
:105A70006766666670B490F87240631C144A82FBD5
:105A80000312DE17C6EB6216642202FB163690F88C
:105A900073309E4219D0C26A00EB0413C3F8B826D3
:105AA0000568C3F8BC56002308E0C218117B00EB60
:105AB00004121A4482F8C0160133DBB29D42F4DCB2
:105AC00080F87260012070BC70470020FBE700BFC7
:105AD0001F85EB5170B490F87440631C144A82FB2C
