:020000040800F2
:1000000000000820A95400082154000823540008C7
:100010002554000827540008295400080000000057
:100020000000000000000000000000002B54000849
:100030002D540008000000002F540008315400081F
:10004000F9540008F9540008F9540008F95400085C
:10005000F9540008F9540008F9540008F95400084C
:10006000F9540008F9540008F9540008F95400083C
:10007000F9540008F9540008F9540008F95400082C
:10008000F9540008F9540008F9540008F95400081C
:10009000F9540008F9540008F9540008F95400080C
:1000A000F9540008F9540008F9540008F9540008FC
:1000B000F9540008F9540008F9540008F9540008EC
:1000C000F9540008F9540008F9540008F9540008DC
:1000D000F9540008F9540008F9540008395400088C
:1000E000F9540008F9540008F9540008F9540008BC
:1000F000F9540008F9540008F9540008F9540008AC
:10010000F954000849540008F9540008F95400084B
:10011000F9540008F9540008F9540008F95400088B
:10012000F9540008F9540008F9540008F95400087B
:10013000F9540008F9540008F9540008F95400086B
:10014000F9540008F9540008F9540008F95400085B
:10015000F9540008F9540008F9540008F95400084B
:10016000F9540008F9540008F9540008F95400083B
:10017000F9540008F9540008F95400080000000080
:10018000F9540008F9540008F9540008F95400081B
:10019000F9540008F9540008F9540008F95400080B
:1001A000F9540008F9540008F9540008F9540008FB
:1001B000F9540008F9540008F9540008F9540008EB
:1001C000F9540008F954000800000000F954000830
:1001D000F9540008F9540008F9540008F9540008CB
:1001E000F9540008F9540008F9540008F9540008BB
:0801F000F9540008F95400085D
:10020000844641EA000313F003036DD1403A41D321
:1002100051F8043B40F8043B51F8043B40F8043BE0
:1002200051F8043B40F8043B51F8043B40F8043BD0
:1002300051F8043B40F8043B51F8043B40F8043BC0
:1002400051F8043B40F8043B51F8043B40F8043BB0
:1002500051F8043B40F8043B51F8043B40F8043BA0
:1002600051F8043B40F8043B51F8043B40F8043B90
:1002700051F8043B40F8043B51F8043B40F8043B80
:1002800051F8043B40F8043B51F8043B40F8043B70
:10029000403ABDD2303211D351F8043B40F8043B10
:1002A00051F8043B40F8043B51F8043B40F8043B50
:1002B00051F8043B40F8043B103AEDD20C3205D320
:1002C00051F8043B40F8043B043AF9D2043208D018
:1002D000D2071CBF11F8013B00F8013B01D30B888A
:1002E00003806046704700BF082A13D38B078DD068
:1002F00010F003038AD0C3F10403D21ADB071CBF3A
:1003000011F8013B00F8013B80D331F8023B20F8A3
:10031000023B7BE7043AD9D3013A11F8013B00F8DC
:10032000013BF9D20B7803704B7843708B78837064
:100330006046704700000000000000000000000060
:10034000A2EB0300704700BF02780B78012A28BF98
:100350009A42F5D16DE9044540EA0104CDE902670E
:100360006FF0000C4FEA447212B380EA010414F0FB
:10037000070F6AD100F0070420F0070004F003051E
:1003800021F007014FEAC505F0E8042314F0040F3B
:10039000F1E804670CFA05F462EA040266EA04066E
:1003A0000AD063EA0403624667EA0407664603E08C
:1003B000F0E80423F1E8046782FA4CF582EA0604C7
:1003C000A4FA8CF46CBB83FA4CF583EA0705A5FA12
:1003D0008CF595B950E9022351E9026782FA4CF590
:1003E00082EA0604A4FA8CF483FA4CF583EA070542
:1003F000A5FA8CF52543DBD09CB92DBAB5FA85F466
:1004000024F0070427FA04F1DDE9026723FA04F374
:1004100003F0FF0001F0FF01FDE80445A0EB01003F
:10042000704724BAB4FA84F424F0070426FA04F1DD
:10043000DDE9026722FA04F202F0FF0001F0FF0199
:10044000FDE80445A0EB0100704714F0030F3CD118
:1004500010F0030428D150F8082B51F8083B82FA19
:100460004CF582EA0305A5FA8CF55DB950F8042C29
:1004700051F8043C82FA4CF582EA0305A5FA8CF5A2
:10048000002DE8D02DBAB5FA85F424F0070423FA3C
:1004900004F122FA04F202F0FF0001F0FF01FDE88E
:1004A0000445A0EB010070474FEAC40420F00300AC
:1004B00050F8082B21F0030151F8083B0CFA04F422
:1004C00062EA040263EA0403C9E710F003041AD0E5
:1004D000A1EB040120F00300E40750F8042B06D040
:1004E0000FD28B785FFAA2F4E41A06D12BB1CB7845
:1004F0005FFAB2F4E41A00D11BB920465DF8104B44
:10050000704701F1040150F8042BCC0721F00301DE
:1005100051F8043B48D824D222F07F4482FA4CF5AB
:1005200094EA1325A5FA8CF50AD165B951F8043B74
:1005300084EA0204B4EB036F0ED150F8042BEBE70E
:100540004FEA132355E035F07F454DD10878FDE89B
:100550000445C0F1000070474FEA126203F0FF0348
:1005600047E002EA1C4482FA4CF594EA1345A5FAE6
:100570008CF50AD165B951F8043B84EA0204B4EB66
:10058000034F0CD150F8042BEBE74FEA134330E054
:1005900015EA1C4528D10B884FEA124229E04FEAA0
:1005A000124203EA1C4324E002F0FF0482FA4CF5F5
:1005B00094EA1365A5FA8CF50AD165B951F8043BA4
:1005C00084EA0204B4EB032F09D150F8042BEBE7C3
:1005D0004FEA13630DE015F0FF0F05D10B684FEAEA
:1005E000122223F07F4304E04FF00000FDE80445B1
:1005F000704712BA1BBA82FA4CF482EA0304A4FAD6
:100600008CF5B5FA85F402FA04F203FA04F34FEA22
:100610001260FDE80445A0EB136070470000000085
:1006200000000000000000000000000000000000CA
:1006300000000000000000000000000000000000BA
:1006400090F800F06DE9024520F007016FF0000C12
:1006500010F0070491F820F040F049804FF00004BA
:100660006FF00700D1E9002391F840F000F1080095
:1006700082FA4CF2A4FA8CF283FA4CF3A2FA8CF3CD
:100680004BBBD1E9022382FA4CF200F10800A4FA34
:100690008CF283FA4CF3A2FA8CF3E3B9D1E9042388
:1006A00082FA4CF200F10800A4FA8CF283FA4CF3BF
:1006B000A2FA8CF37BB9D1E9062301F1200182FA79
:1006C0004CF200F10800A4FA8CF283FA4CF3A2FA7F
:1006D0008CF3002BC6D0002A04BF04301A4612BA8D
:1006E000B2FA82F2FDE8024500EBD2007047D1E990
:1006F000002304F00305C4F100004FEAC50514F01F
:10070000040F91F840F00CFA05F562EA05021CBFEF
:1007100063EA050362464FF00004A9E70000000009
:1007200001F0FF01102A2BDB10F0070F08D010F8A2
:10073000013B013A8B422DD010F0070F42B3F6D1A6
:10074000F0B441EA012141EA014122F007047FF0BF
:1007500000070023F0E80256083C85EA010586EA16
:10076000010685FA47F5A3FA87F586FA47F6A5FA52
:1007700087F68EB9EED1F0BC01F0FF0102F007025E
:1007800032B110F8013B013A83EA010313B1F8D109
:100790000020704701387047002D06BF35460338EA
:1007A000073815F0010F07D1013015F4807F02BF23
:1007B000013015F4C03F0130F0BC0138704700BF74
:1007C00053B94AB9002908BF00281CBF4FF0FF31B8
:1007D0004FF0FF3000F00CB8ADF1080C6DE904CE1D
:1007E00009F086F8DDF804E0DDE9022304B0704783
:1007F000704700BF10B5054C227832B9044B13B1D5
:100800000448AFF300800123237010BDC00C00200A
:10081000000000009C9B000808B5034B1BB1034976
:100820000348AFF3008008BD00000000C40C0020A6
:100830009C9B000810B504460E4B18784FF47A7351
:10084000B3FBF0F30C4A1068B0FBF3F000F09CF837
:1008500068B90F2C01D901200AE0002221464FF08F
:10086000FF3000F051F8054B1C60002000E0012033
:1008700010BD00BF00000020100300200400002075
:1008800008B5032000F02EF80020FFF7D3FF04F096
:100890002DFD002008BD0000034A1168034B1B78A2
:1008A0000B441360704700BF540D0020000000206F
:1008B000014B1868704700BF540D002038B504463E
:1008C000FFF7F6FF0546B4F1FF3F02D0044B1B785B
:1008D0001C44FFF7EDFF401BA042FAD338BD00BF18
:1008E000000000200649CB6823F4E0631B041B0CC6
:1008F000000200F4E0600343024A1A43CA607047F2
:1009000000ED00E00000FA0530B4154BDB68C3F3DE
:100910000223C3F10704042C28BF04241D1D062D47
:1009200014D9033B4FF0FF3505FA04F421EA040122
:10093000994005FA03F322EA03031943002807DB71
:100940000901C9B2074B195430BC70470023E9E7CD
:1009500000F00F000901C9B2034B1954F4E700BFBE
:1009600000ED00E000E400E014ED00E0002807DB0B
:1009700000F01F02400901239340024A42F8203050
:10098000704700BF00E100E00138B0F1807F0AD27B
:10099000064B5860064AF02182F823100020986028
:1009A00007221A6070470120704700BF10E000E086
:1009B00000ED00E090F83530DBB2022B03D080234D
:1009C000436501207047052380F8353002681368BD
:1009D00023F00103136000207047000000230F2B59
:1009E00000F2E380F0B482B039E0092200E0002296
:1009F000B2403A4302346D4E46F824206C4A1468E3
:100A0000EA4324EA05064F6817F4803F01D045EA1F
:100A10000406674C2660646802EA04064F6817F40F
:100A2000003F01D045EA0406614C6660A46802EA12
:100A300004064F6817F4801F01D045EA04065C4C99
:100A4000A660E46822404E6816F4001F01D045EA13
:100A50000402574CE26001330F2B00F2A380012205
:100A60009A400C6804EA020532EA0404F3D14C68A7
:100A7000122C18BF022C10D1DE08083650F826C000
:100A800003F00704A7000F24BC402CEA040C0C69F7
:100A9000BC4044EA0C0440F82640D0F800C05E0098
:100AA0000324B440E7432CEA040C4C6804F003042C
:100AB000B44044EA0C0404604C6804F1FF3C112C7F
:100AC00018BFBCF1010F01D9122C10D1846807EABC
:100AD000040CCC68B44044EA0C048460446824EA02
:100AE00002024C68C4F300149C4014434460C26882
:100AF00017408A68B2403A43C2604A6812F0805F89
:100B0000A9D02C4A546C44F480445464526C02F4CE
:100B100080420192019A9C08A61C244A52F8267031
:100B200003F0030296000F22B24027EA0207224A8E
:100B300090423FF45CAF02F58062904222D002F511
:100B40008062904220D002F5806290421ED002F571
:100B5000806290421CD002F5806290421AD002F569
:100B60008062904218D002F58062904216D002F561
:100B70008062904214D002F5806290423FF435AF1B
:100B80000A2235E7012233E7022231E703222FE769
:100B900004222DE705222BE7062229E7072227E773
:100BA000082225E702B0F0BC7047704700380140CA
:100BB000003C014000380240000002400369194235
:100BC00001D00120704700207047000010B582B0AE
:100BD0001B4B1A6C42F080521A641B6C03F080535A
:100BE0000193019B174A136843F480331360FFF7A6
:100BF0005FFE0446134B5B6813F4803F08D1FFF798
:100C000057FE001BB0F57A7FF4D9032002B010BD67
:100C10000C4A136843F400331360FFF749FE04469F
:100C2000084B5B6813F4003F07D1FFF741FE001B40
:100C3000B0F57A7FF4D90320E8E70020E6E700BFAB
:100C40000038024000700040002800F0DA8170B5E2
:100C500082B00446036813F0010F29D0A74B9B68AC
:100C600003F00C03042B1AD0A44B9B6803F00C0375
:100C7000082B0FD06368B3F5803F40D0002B54D1D0
:100C80009E4B1A6822F480321A601A6822F480227D
:100C90001A6039E0994B5B6813F4800FEAD0974BE8
:100CA0001B6813F4003F03D06368002B00F0AB8196
:100CB000236813F0020F74D0904B9B6813F00C0F55
:100CC0005ED08E4B9B6803F00C03082B53D0E36877
:100CD000002B00F08980894A136843F001031360F8
:100CE000FFF7E6FD0546854B1B6813F0020F72D136
:100CF000FFF7DEFD401B0228F5D9032088E17F4A7B
:100D0000136843F48033136063682BB3FFF7D0FD9F
:100D100005467A4B1B6813F4003FC9D1FFF7C8FDA5
:100D2000401B6428F5D9032072E1B3F5A02F09D048
:100D3000724B1A6822F480321A601A6822F48022F8
:100D40001A60E1E76D4B1A6842F480221A601A6853
:100D500042F480321A60D7E7FFF7AAFD0546674BD9
:100D60001B6813F4003FA3D0FFF7A2FD401B6428CB
:100D7000F5D903204CE1614B5B6813F4800FA6D1D9
:100D80005E4B1B6813F0020F03D0E368012B40F0A9
:100D90003C815A4A136823F0F803216943EAC103EE
:100DA0001360236813F0080F46D0636983B3534A76
:100DB000536F43F001035367FFF77AFD05464F4B2E
:100DC0005B6F13F0020F37D1FFF772FD401B022853
:100DD000F5D903201CE1494A136823F0F80321697F
:100DE00043EAC1031360DCE7444A136823F00103BC
:100DF0001360FFF75DFD0546404B1B6813F0020FC3
:100E0000CFD0FFF755FD401B0228F5D90320FFE0A6
:100E10003A4A536F23F001035367FFF749FD054634
:100E2000364B5B6F13F0020F06D0FFF741FD401BFE
:100E30000228F5D90320EBE0236813F0040F7DD0DE
:100E40002E4B1B6C13F0805F0BD12C4B1A6C42F0B5
:100E500080521A641B6C03F080530193019B01259F
:100E600000E00025264B1B6813F4807F0ED0A3689A
:100E7000012B1FD0002B35D1204B1A6F22F001021D
:100E80001A671A6F22F004021A6718E01C4A1368E6
:100E900043F480731360FFF70BFD0646184B1B6885
:100EA00013F4807FE3D1FFF703FD801B6428F5D99D
:100EB0000320ADE0114A136F43F001031367A368E9
:100EC00053B3FFF7F5FC06460C4B1B6F13F0020FF4
:100ED00033D1FFF7EDFC801B41F288339842F3D900
:100EE000032095E0052B0DD0044B1A6F22F0010270
:100EF0001A671A6F22F004021A67E0E7003802400E
:100F000000700040444B1A6F42F004021A671A6FD7
:100F100042F001021A67D2E7FFF7CAFC06463E4BD1
:100F20001B6F13F0020F08D0FFF7C2FC801B41F2C9
:100F300088339842F3D903206AE0F5B9A369002BFE
:100F400065D0354A926802F00C02082A62D0022B62
:100F500019D0314A136823F080731360FFF7A8FC9F
:100F600004462D4B1B6813F0007F48D0FFF7A0FC10
:100F7000001B0228F5D903204AE0274A136C23F00E
:100F800080531364DAE7244A136823F080731360F4
:100F9000FFF78EFC0546204B1B6813F0007F06D040
:100FA000FFF786FC401B0228F5D9032030E0E369F7
:100FB000226A1343626A43EA8213A26A5208013A20
:100FC00043EA0243E26A43EA0263226B43EA0273A2
:100FD000114A5360136843F080731360FFF768FC95
:100FE00004460D4B1B6813F0007F06D1FFF760FC31
:100FF000001B0228F5D903200AE0002008E00020A9
:1010000006E001207047012002E0012000E00020FE
:1010100002B070BD0120FBE700380240F8B5244B58
:101020009B6803F00C03042B3DD0082B3DD1204BD3
:101030005A6802F03F025B6813F4800F12D01C4B19
:101040005968C1F3881100231A48A1FB0001FFF77A
:10105000B7FB174B5B68C3F3014301335B00B0FB85
:10106000F3F023E0124B5B68C3F388135C010025A7
:10107000E41A65F10005AE0146EA9466A701381B43
:1010800066EB0501CC0044EA5074C500E81844F151
:1010900000018B0243EA9053840220461946002344
:1010A000FFF78EFBD5E7034800E00348F8BD00BF1B
:1010B0000038024040787D010024F400002800F050
:1010C0009F8070B50D460446514B1B6803F00F031B
:1010D0008B420BD24E4A136823F00F030B4313606D
:1010E000136803F00F038B4240F08C80236813F0E9
:1010F000020F17D013F0040F04D0464A936843F44C
:10110000E0539360236813F0080F04D0414A9368BA
:1011100043F4604393603F4A936823F0F003A1686F
:101120000B439360236813F0010F31D06368012BE8
:1011300020D0022B25D0374A126812F0020F63D05C
:1011400034498A6822F0030213438B60FFF7B0FB37
:101150000646304B9B6803F00C036268B3EB820FCA
:1011600016D0FFF7A5FB801B41F288339842F0D9D7
:10117000032044E0274A126812F4003FE0D1012026
:101180003DE0244A126812F0007FD9D1012036E0F8
:101190001F4B1B6803F00F03AB420AD91C4A1368AC
:1011A00023F00F032B431360136803F00F03AB42CC
:1011B0002CD1236813F0040F06D0164A936823F449
:1011C000E053E1680B439360236813F0080F07D0E6
:1011D000104A936823F46043216943EAC103936092
:1011E000FFF71CFF0B4B9B68C3F303130A4AD35C46
:1011F000D8400A4B18600020FFF71CFB002070BD90
:10120000012070470120FAE70120F8E70120F6E706
:10121000003C0240003802401C9F000810030020E0
:10122000014B1868704700BF1003002008B5FFF796
:10123000F7FF044B9B68C3F38223034AD35CD84077
:1012400008BD00BF003802402C9F000808B5FFF71A
:10125000E7FF044B9B68C3F34233034AD35CD84097
:1012600008BD00BF003802402C9F0008F0B583B0D5
:101270000446066816F001060DD0B54B9A6822F4B4
:1012800000029A609A68416B0A439A60436B002B94
:1012900000F055810026256815F4002511D0AC4AD0
:1012A000D2F88C3023F44013E16B0B43C2F88C303E
:1012B000E36BB3F5801F00F04481002B00F0438105
:1012C0000025236813F4801F0FD0A14AD2F88C3078
:1012D00023F44003216C0B43C2F88C30236CB3F52C
:1012E000800F00F0328103B90125236813F0807F5D
:1012F00000D0012613F0200F40F02C81236813F05A
:10130000100F0CD0924BD3F88C2022F08072C3F8CF
:101310008C20D3F88C20A16B0A43C3F88C2023685F
:1013200013F4804F08D08A4AD2F8903023F4403327
:10133000616E0B43C2F89030236813F4004F08D05D
:10134000834AD2F8903023F44023A16E0B43C2F8B5
:101350009030236813F4803F08D07D4AD2F8903053
:1013600023F44013E16E0B43C2F89030236813F46A
:10137000003F08D0764AD2F8903023F44003216F22
:101380000B43C2F89030236813F0400F08D0704A26
:10139000D2F8903023F00303616C0B43C2F8903015
:1013A000236813F0800F08D0694AD2F8903023F0F8
:1013B0000C03A16C0B43C2F89030236813F4807FB8
:1013C00008D0634AD2F8903023F03003E16C0B432D
:1013D000C2F89030236813F4007F08D05C4AD2F83A
:1013E000903023F0C003216D0B43C2F89030236886
:1013F00013F4806F08D0564AD2F8903023F440732B
:10140000616D0B43C2F89030236813F4006F08D06D
:101410004F4AD2F8903023F44063A16D0B43C2F8D9
:101420009030236813F4805F08D0494AD2F8903096
:1014300023F44053E16D0B43C2F89030236813F45A
:10144000005F08D0424AD2F8903023F44043216E26
:101450000B43C2F89030236813F4800F08D03C4A45
:10146000D2F8903023F08063A16F0B43C2F8903024
:10147000236813F4001F0DD0354AD2F8903023F0C2
:101480000063E16F0B43C2F89030E36FB3F1006F7C
:1014900000F0C680236813F0080F00D0012513F474
:1014A000802F08D02A4AD2F8903023F04073616F21
:1014B0000B43C2F89030236813F4000F09D0244A7C
:1014C000D2F8903023F08053D4F880100B43C2F848
:1014D0009030236813F0806F09D01D4AD2F8903005
:1014E00023F00053D4F884100B43C2F890302368E3
:1014F00013F0006F09D0164AD2F88C3023F0007335
:10150000D4F888100B43C2F88C30236813F0805F46
:1015100009D00F4AD2F88C3023F08063D4F88C10B5
:101520000B43C2F88C30002E7CD12368B3F1007FCE
:1015300078D0012D00F00981002003B0F0BD012614
:10154000A9E60126B9E60125BBE60126CBE600BFE8
:1015500000380240B74B1A6C42F080521A641B6C80
:1015600003F080530193019BB34A136843F48073E3
:101570001360FFF79DF90746AF4B1B6813F4807F9C
:1015800006D1FFF795F9C01B6428F5D90320D4E7ED
:10159000A84B1B6F13F4407315D0226B02F44072FA
:1015A0009A4210D0A34B1A6F22F44072196F41F483
:1015B00080311967196F21F4803119671A671B6F21
:1015C00013F0010F12D1236B03F44072B2F5407F88
:1015D0001DD0984A936823F4F813936095490B6FD4
:1015E000226BC2F30B0213430B6787E6FFF760F928
:1015F0000746904B1B6F13F0020FE4D1FFF758F929
:10160000C01B41F288339842F3D9032095E78948FB
:10161000826822F4F812894919400A438260DDE7A2
:10162000012537E7834A136823F080631360FFF7CF
:101630003FF906467F4B1B6813F0006F06D0FFF79B
:1016400037F9801B6428F5D9032076E7236813F067
:10165000010F13D0636B8BB9764AD2F88430D2F87D
:101660008410606803F4403343EA801301F0706132
:101670000B43A16843EA0173C2F88430236813F472
:10168000002F03D0E26BB2F5801F06D013F4801F49
:101690001ED0236CB3F5800F1AD1664AD2F884307D
:1016A000D2F88410606803F4403343EA8013E068A2
:1016B00043EA006301F0E0410B43C2F88430D2F802
:1016C0008C3023F01F03616A01390B43C2F88C3060
:1016D000236813F0807F11D0564AD2F88400D2F8E4
:1016E0008410666823691B0443EA861300F0706067
:1016F000034301F0E0410B43C2F88430236813F048
:10170000007F0DD0626823691B0443EA8213E268FC
:1017100043EA0263A26843EA0273464AC2F884308D
:10172000444A136843F080631360FFF7C1F806462C
:10173000404B1B6813F0006F7FF4FBAEFFF7B8F867
:10174000801B6428F4D90320F7E63A4A136823F093
:1017500080531360FFF7ACF80546364B1B6813F057
:10176000005F06D0FFF7A4F8401B6428F5D90320DA
:10177000E3E6236813F4002F01D0E26B22B113F4E7
:10178000801F1DD0236CDBB92A4AD2F88830D2F8EA
:101790008810606903F4403343EA8013A06943EA88
:1017A000006301F0E0410B43C2F88830D2F88C307E
:1017B00023F4F853A16A013943EA0123C2F88C30BB
:1017C000236813F4001F03D0E36FB3F1006F37D029
:1017D000236813F0080F19D0164AD2F88810D2F8EF
:1017E0008830606903F4403343EA801301F070618C
:1017F0000B43E16943EA0173C2F88830D2F88C30B8
:1018000023F44033E16A0B43C2F88C30094A136871
:1018100043F080531360FFF74BF80446054B1B68F9
:1018200013F0005F1FD1FFF743F8001B6428F5D9C0
:10183000032082E60038024000700040FFFCFF0FEA
:101840000A4AD2F88800D2F888106569236A1B0416
:1018500043EA851300F07060034301F0E0410B435D
:10186000C2F88830B4E7002067E600BF00380240C5
:1018700070B582B0044600230193006801F004FDB6
:10188000054610B1284602B070BD206801F00FFD7A
:10189000064610B30023A364284604E00021206814
:1018A00001F035FBC00FA8B9019B5A1C01924FF6FD
:1018B000FF7293423DD00021206801F00FFD002807
:1018C0003AD10021206801F021FD0028E6D04FF038
:1018D0008055D7E700236364D4E70123A36405465A
:1018E00005E00021206801F012FB0546C00FB0B9E9
:1018F000019B5A1C01924FF6FF7293421FD00021A8
:10190000206801F0EBFC05460028BBD14FF0804178
:10191000206801F0FBFC05460028E2D0B2E715F094
:10192000804503D0012363643546ABE7002363643D
:10193000A8E74FF08075A5E74FF08055A2E74FF07C
:1019400080759FE770B50546866A002405E0286823
:1019500001F0B8FA46F824000134072CF7D9AB6A35
:101960002033AB62002070BD70B50546066A0024C6
:1019700005E006EB8401286801F0A7FA0134072C82
:10198000F7D92B6A20332B62002070BD70B581B16E
:1019900004460E46016D0904006801F013FD05467A
:1019A00008B1284670BD0021206801F0B0FA30600F
:1019B000F7E74FF00065F4E72DE9F04786B00446FD
:1019C0000E4615469946DDF838A0FEF771FF46B37E
:1019D000804694F83470FFB2012F40F0F18000236C
:1019E000A36305EB0903E26D934220D8032384F837
:1019F000343023680022DA62636C012B00D06D0260
:101A00004FF40071206801F095FBA8B1236840F203
:101A1000FF519963A36B0343A363012384F834301C
:101A2000D3E0A36B43F00063A3630127CDE0A36B76
:101A300043F00073A363C8E04FF0FF3300934FEA15
:101A400049230193902302930223039300230493D9
:101A5000012305936946206801F05AFBB9F1010F93
:101A600011D9022323632946206801F093FB18B3A0
:101A7000236840F2FF529A63A36B1843A0630123CB
:101A800084F83430A1E0012323632946206801F063
:101A900069FBECE7206801F015FA46F825000135EE
:101AA000072DF7D92036BAF1000F0FD0FEF700FF4F
:101AB000A0EB0800504509D22068456B15F49575D8
:101AC00011D1436B13F4004FEDD0E9E7236840F2E6
:101AD000FF529A63A36B43F00043A363012384F88E
:101AE0003430032771E0436B13F4807F05D0B9F1E4
:101AF000010F02D9636C032B2AD123685A6B12F0B1
:101B0000080F34D15A6B12F0020F3BD15A6B12F00E
:101B1000200F42D12068436B13F4001F48D001F01E
:101B2000D1F946F8040BBAF1000F05D0FEF7C0FE5C
:101B3000A0EB08005045EDD3236840F2FF529A63B2
:101B4000A36B43F00043A363012384F834303CE0EB
:101B500001F068FB0028D0D0236840F2FF51996360
:101B6000A36B0343A363012384F834302DE040F2D8
:101B7000FF529A63A36B43F00803A363012384F825
:101B8000343022E040F2FF529A63A36B43F0020329
:101B9000A363012384F8343017E040F2FF529A63C4
:101BA000A36B43F02003A363012384F834300CE0DB
:101BB00040F2FF538363012384F83430002704E0AC
:101BC000A36B43F00053A3630127384606B0BDE87A
:101BD000F0872DE9F04F87B004460E46154699462A
:101BE000DDF840A0FEF764FE002E36D0804694F863
:101BF0003470FFB2012F40F0D8800023A36305EBBF
:101C00000903E26D93422ED8032384F8343023680D
:101C10000022DA62636C012B00D06D024FF4007178
:101C2000206801F087FA18BBB9F1010F2BD92023E6
:101C300023632946206801F0DDFA8346BBF1000FDB
:101C400029D0236840F2FF529A63A06B40EA0B0050
:101C5000A063012384F83430ACE0A36B43F000634D
:101C6000A3630127A6E0A36B43F00073A363A1E085
:101C7000236840F2FF519963A36B0343A3630123DD
:101C800084F8343096E0102323632946206801F05D
:101C900099FA8346D2E74FF0FF3300934FEA492386
:101CA000019390230293002303930493012305934C
:101CB0006946206801F02CFA11E006EB85012068E6
:101CC00001F003F90135072DF7D92036BAF1000FDD
:101CD0000FD0FEF7EDFDA0EB0800504509D22068BB
:101CE000456B15F48D7511D1436B13F4804FEDD016
:101CF000E9E7236840F2FF529A63A06B40EA0B00C9
:101D0000A063012384F83430032753E0436B13F4BA
:101D1000807F05D0B9F1010F02D9636C032B17D175
:101D200023685A6B12F0080F21D15A6B12F0020F80
:101D300028D15A6B12F0100F2FD040F2FF529A6345
:101D4000A36B43F01003A363012384F8343031E024
:101D500001F068FA0028E3D0236840F2FF5199634C
:101D6000A36B0343A363012384F8343022E040F2E1
:101D7000FF529A63A36B43F00803A363012384F823
:101D8000343017E040F2FF529A63A36B43F0020332
:101D9000A363012384F834300CE040F2FF529A63CD
:101DA000012384F83430002704E0A36B43F0005390
:101DB000A3630127384607B0BDE8F08F704730B401
:101DC000436E9A0F0A70C3F383624A70C3F30163D0
:101DD0008B7090F86630CB7090F865300B7190F88E
:101DE00064304B7190F86B301B01CB80B0F86A30D7
:101DF000CC88C3F303122243CA8003F00F030B7293
:101E000090F86930DA094A72C3F380128A72C3F318
:101E10004012CA72C3F300120A7300224A73426C62
:101E2000002A40F092809B0203F440630B61836EB2
:101E30000A699B0003F47F7313430B61C36E0A6945
:101E400042EA93720A61C3F3C2620A75C3F3026382
:101E50004B75C26EC2F30743C2F342548C75C2F392
:101E60008242CA755B0003F006030B76C26EC2F3B2
:101E700007230C7EC2F3C03222430A760A6901327C
:101E800042650C7E023402FA04F444650A7AD5B243
:101E90000122AA408265520A02FB04F2C2654FF495
:101EA00000720266C3F380124A765B0003F07E0381
:101EB0008B76C36E8A7EC3F3C01422438A7603F006
:101EC0007F03CB76036F1A0EDC0F0C77C3F34174DC
:101ED0004C77C3F382638B77930003F00C03CB77CB
:101EE000036FCA7FC3F381542243CA77C3F34052BE
:101EF00081F82020002281F82120C3F3004381F8DB
:101F00002230036FC3F3C03481F82340C3F380341D
:101F100081F82440C3F3403481F82540C3F30034F2
:101F200081F82640C3F3812481F82740C3F30123BD
:101F300081F82830036FC3F3460381F82930012369
:101F400081F82A30104630BC7047012A1BD1836EBD
:101F50001B0403F47C130B6190F86F200B6943EAB8
:101F600002230B610A6990F86E3013430B6190F8FD
:101F70006D300A69013292024265C2654FF4007207
:101F8000826502668EE7036840F2FF529A63836BB4
:101F900043F080538363012280F834201046D2E757
:101FA00070B590B004460123ADF81230006800F01F
:101FB00095FF00286AD0636C032B43D1636C032B1D
:101FC0005BD1636C032B1DD0BDF812102165090491
:101FD000206801F0CAF90546002859D1002120687F
:101FE00000F095FF60660421206800F090FFA06675
:101FF0000821206800F08BFFE0660C21206800F0CB
:1020000086FF20670421206800F081FF000DE06456
:1020100005A92046FFF7D3FE226D12040023206895
:1020200001F01AF9054698BB234653F8106B93E864
:1020300007008DE80700043494E80E00304600F0F5
:1020400025FF25E0206801F07BF9054600BB002153
:10205000206800F05CFF60670421206800F057FFF3
:10206000A0670821206800F052FFE0670C2120687B
:1020700000F04DFFC4F88000A0E70DF112012068C8
:1020800001F088F9054600289BD001E04FF08065FB
:10209000284610B070BD10B58AB0044600230493E2
:1020A0000593069307930893762309930AAB13E9E4
:1020B00007008DE8070004AB0ECB206800F0E6FEB9
:1020C0002268536823F480735360206800F002FF95
:1020D0002268536843F4807353600220FEF7EEFBDE
:1020E0002046FFF7C5FB40B10246012084F83400CA
:1020F000A36B1343A3630AB010BD2046FFF750FF44
:10210000024608B90020F6E7012084F83400A36BEA
:102110001343A363EFE7A8B110B5044690F8343039
:1021200063B1032384F834302046FFF7B4FF002066
:10213000A0632063012384F8343010BD037703F0DB
:10214000EDF8EEE701207047436C0B60836C4B6049
:10215000C36C8B60036DCB60436D0B61836D4B6112
:10216000C36D8B61036ECB610020704710B582B0E8
:1021700004460023019301A9FFF708FC10B1A36BEB
:102180000343A3630198C0F3432002B010BD10B510
:10219000846B236C0BB100232364E36B03B110BD8C
:1021A0002046FFF7E3FF0023A363012384F83430C4
:1021B0000538C0B29842F2D8206801F033F8A36B1A
:1021C0000343A363A36B1BB1204602F0CCFCE6E7FC
:1021D0002046FFF7F3FDE2E710B5846BE36B0BB12C
:1021E0000023E363236C03B110BD2046FFF7BEFF5D
:1021F0000023A363012384F834300538C0B2984229
:10220000F2D8206801F00EF8A36B0343A363A36B1D
:102210001BB1204602F0A7FCE6E72046FFF7CEFD03
:10222000E2E7000010B5044603685A6B12F4807FA1
:102230005FD04FF480729A630268D36B23F49D736E
:10224000D363036B13F0080F2AD0036B13F0020F54
:1022500003D1036B13F0200F04D0206800F0E2FFDD
:10226000034690B9236840F2FF529A63012384F831
:102270003430236B13F0010F03D1236B13F0020FE3
:102280000AD0204602F079FC10BDA26B1343A36371
:102290002046FFF793FDE5E7204602F069FCF3E7EF
:1022A000036B13F0800FEFD0036B13F0200F13D1EB
:1022B000236B13F0010FE7D1236B13F0020FE3D16F
:1022C0002268D36A23F00803D362012384F83430F0
:1022D000204602F04DFCD7E7006800F0A3FF03465C
:1022E0000028E5D0A26B1343A3632046FFF766FDE9
:1022F000DEE75A6B12F4804F40D15A6B12F4004F54
:1023000042D15A6B12F03A0FBED05A6B12F0020F44
:1023100003D0826B42F0020282635A6B12F0080F04
:1023200003D0A26B42F00802A2635A6B12F0200F96
:1023300003D0A26B42F02002A2635A6B12F0100F7E
:1023400003D0A26B42F01002A26340F2FF529A63E4
:102350002268D36B23F49D73D363236B13F0800F38
:102360002FD0236CB3B11D4A1A65206CFEF722FBF7
:10237000002889D0206CFFF70AFF85E74FF48042E0
:102380009A63FFF7F1FA7FE74FF400429A63FFF791
:10239000D9FA79E7E36B5BB1114A1A65E06BFEF796
:1023A00009FB00283FF470AFE06BFFF715FF6BE708
:1023B0000023A363012384F83430204602F0D3FBCA
:1023C00062E7236B13F0080F3FF45EAF012384F83C
:1023D00034302046FFF7F2FC56E700BF8F2100089B
:1023E000D92100080268136823F49073136002680F
:1023F000936823F00103936020238367002303661F
:1024000070470000836F202B5ED1B2FA82F35B0924
:10241000002908BF0123002B58D190F87030012B00
:1024200056D0012380F870304165A0F85820A0F8FC
:102430005A20002303668368B3F5805F06D0A3B9F2
:10244000036973B9FF23A0F85C3014E0036923B972
:1024500040F2FF13A0F85C300DE0FF23A0F85C30E1
:1024600009E07F23A0F85C3005E0B3F1805F1BD06A
:102470000023A0F85C300023C3672223836702682F
:10248000936843F0010393608368B3F5805F15D0D0
:10249000104B0366002380F8703001680A6842F42C
:1024A00090720A601846704703691BB97F23A0F831
:1024B0005C30E0E73F23A0F85C30DCE70369002BE9
:1024C000E6D1054B0366E5E702207047012070471F
:1024D00002207047F92400085B250008704708B502
:1024E00001680A6822F040020A6020224267002246
:1024F0004266FFF7F3FF08BD08B5B0F85C30826FA5
:10250000222A05D00268936943F00803936108BD4D
:102510000268516ADBB2426D0B401370436D0133A8
:102520004365B0F85A30013B9BB2A0F85A30B0F87E
:102530005A309BB2002BEAD10268136823F49073DF
:1025400013600268936823F001039360202383677C
:102550000023036602F07CFDD9E708B5B0F85C20E3
:10256000836F222B05D00268936943F008039361BF
:1025700008BD03685B6A416D13400B80436D0233F5
:102580004365B0F85A30013B9BB2A0F85A30B0F81E
:102590005A309BB2002BEBD10268136823F490737E
:1025A00013600268936823F001039360202383671C
:1025B0000023036602F04CFDDAE7704738B50446A5
:1025C0000268D3691568906813F00F0105D113F004
:1025D000200F02D015F0200F13D129B110F0010007
:1025E00015D115F4907F12D113F0800F02D015F0A1
:1025F000800F77D113F0400F02D015F0400F77D144
:1026000038BD236E002BFBD020469847F8E713F027
:10261000010F07D015F4807F04D001211162E26F11
:102620000A43E26713F0020F07D030B1226802219B
:102630001162E26F42F00402E26713F0040F07D068
:1026400030B1226804211162E26F42F00202E267B7
:1026500013F0080F09D015F0200F00D128B122681F
:1026600008211162E26F0A43E267E26F002AC7D0D5
:1026700013F0200F06D015F0200F03D0236E0BB1FE
:1026800020469847E26F23689B6813F0400F02D101
:1026900012F0080F20D02046FFF7A4FE23689A68A6
:1026A00012F0400F14D09A6822F040029A60E36E54
:1026B00053B1114A1A65E06EFEF77CF900289FD0ED
:1026C000E06E036D98479BE72046FFF776FF97E79C
:1026D0002046FFF772FF93E72046FFF76EFF0023C7
:1026E000E3678DE7636E002B8AD02046984787E723
:1026F0002046FFF7F4FE83E7FD26000808B5806B4F
:102700000023A0F85A30A0F85230FFF756FF08BD5A
:1027100038B5044683680269134342691343C269AA
:102720001343016808689F4A024013430B60226804
:10273000536823F44053E1680B435360A269236A52
:102740001A4321688B6823F4306313438B6023683A
:10275000954A934219D0954A934229D0944A93427C
:102760003ED0944A934262D0934A934271D0934AA6
:10277000934200F08380924A934200F09480914A01
:10278000934200F0A58010253AE08F4BD3F89030AB
:1027900003F00303032B09D8DFE803F00204AE06BD
:1027A00001252DE004252BE0082529E0102527E050
:1027B000854BD3F8903003F00C030C2B0ED8DFE8D8
:1027C00003F0070D0D0D090D0D0D9D0D0D0D0B00E9
:1027D000002515E0042513E0082511E010250FE081
:1027E000794BD3F8903003F03003202B00F0888031
:1027F00019D8002B00F08680102B40F0858004252E
:10280000E369B3F5004F00F0AB80082D00F2408182
:10281000DFE815F00701180122013E012B013E01FE
:102820003E013E013501302B70D10825E8E7664BAB
:10283000D3F8903003F0C003802B69D005D8002B6B
:1028400068D0402B68D10425DAE7C02B66D1082573
:10285000D6E75D4BD3F8903003F44073B3F5007FB7
:102860005ED006D8002B5DD0B3F5807F5CD1042507
:10287000C6E7B3F5407F59D10825C1E7524BD3F8DD
:10288000903003F44063B3F5006F51D006D8002BAD
:1028900050D0B3F5806F4FD10425B1E7B3F5406F49
:1028A0004CD10825ACE7484BD3F8903003F44053A3
:1028B000B3F5005F44D006D8002B43D0B3F5805F5A
:1028C00042D104259CE7B3F5405F3FD1082597E747
:1028D0003D4BD3F8903003F44043B3F5004F37D06D
:1028E00005D8BBB3B3F5804F36D1042588E7B3F5DF
:1028F000404F33D1082583E7022581E702257FE792
:1029000002257DE700257BE7102579E7102577E78D
:10291000022575E7002573E7102571E710256FE79D
:1029200002256DE700256BE7102569E7102567E7AD
:10293000022565E7012563E7102561E710255FE7BC
:1029400002255DE700255BE7102559E7102557E7CD
:10295000022555E7002553E7102551E710254FE7DD
:10296000082D5BD8DFE805F005323D5A465A5A5A21
:102970005100FEF75BFC6268530803EB4003B3FBB6
:10298000F2F39BB2A3F110014FF6EF72914200F205
:1029900082809AB222F00F02C3F3420313432268EB
:1029A000D3607BE0F369FFEF00100140004400407A
:1029B00000480040004C004000500040001401401E
:1029C00000780040007C004000380240FEF73EFCEA
:1029D0006268530803EB4003B3FBF2F39BB200259C
:1029E000D0E76268304B03EB5203B3FBF2F39BB2C8
:1029F0000025C7E7FEF712FB6268530803EB4003AC
:102A0000B3FBF2F39BB20025BCE76268530803F501
:102A10008033B3FBF2F39BB20025B3E7012500231B
:102A2000B0E7FEF703FC626800EB5203B3FBF2F37E
:102A30009BB2A3F110014FF6EF7291422DD822689C
:102A4000D3602BE0FEF702FC626800EB5203B3FB9D
:102A5000F2F39BB20025ECE76268144B03EB5203E0
:102A6000B3FBF2F39BB20025E3E7FEF7D7FA626807
:102A700000EB5203B3FBF2F39BB20025D9E7626887
:102A8000530803F50043B3FBF2F39BB20025D0E7F4
:102A900001250023CDE7012500E001250023236661
:102AA0006366284638BD00BF0048E8010024F400F2
:102AB000436A13F0010F06D00268536823F4003311
:102AC000816A0B435360436A13F0020F06D0026819
:102AD000536823F48033C16A0B435360436A13F095
:102AE000040F06D00268536823F48023016B0B4364
:102AF0005360436A13F0080F06D00268536823F44A
:102B00000043416B0B435360436A13F0100F06D030
:102B10000268936823F48053816B0B439360436A8C
:102B200013F0200F06D00268936823F40053C16BA2
:102B30000B439360436A13F0400F0AD00268536856
:102B400023F48013016C0B435360036CB3F5801FB7
:102B50000BD0436A13F0800F06D00268536823F449
:102B60000023816C0B43536070470268536823F461
:102B7000C003416C0B435360EBE72DE9F843054676
:102B80000F4616469946DDF820802C68E46937EA3E
:102B900004030CBF01240024B4421DD1B8F1FF3F4F
:102BA000F3D0FDF785FEA0EB0900404502D8B8F14F
:102BB000000FEAD12A68136823F4D07313602A68DF
:102BC000936823F00103936020236B67AB670023B6
:102BD00085F87030032000E00020BDE8F8832DE97F
:102BE000F04182B01E46436F202B58D104460D465B
:102BF0009046B2FA82F35B09002908BF0123002B3B
:102C000051D190F87030012B4FD0012380F87030F3
:102C10000023C36721234367FDF74AFE0746A4F854
:102C20005080A4F85280A368B3F5805F02D04FF0C3
:102C3000000810E023690BB34FF000080BE038F8F0
:102C4000023B2268C3F308039362B4F85220013AAE
:102C500092B2A4F85220B4F852309BB28BB10096D5
:102C60003B46002280212046FFF787FFF8B9002D60
:102C7000E5D015F8012B23689A62E6E7A8460025FF
:102C8000E9E700963B46002240212046FFF775FF0A
:102C900078B920236367002384F8703000E00220B5
:102CA00002B0BDE8F0810120FAE70220F8E7032036
:102CB000F6E70320F4E710B582B004460023C367AB
:102CC000FDF7F6FD23681B6813F0080F07D12023DA
:102CD0006367A367002084F8700002B010BD6FF036
:102CE0007E430093034600224FF400112046FFF775
:102CF00044FF0028EBD00320EFE768B310B504468B
:102D0000436F03B3242363672268136823F001032E
:102D100013602046FFF7FCFC012813D0636ABBB99F
:102D20002268536823F4904353602268936823F029
:102D30002A0393602268136843F00103136020465E
:102D4000FFF7B9FF10BD80F8703002F033FBD9E710
:102D50002046FFF7ADFEE3E7012070470C4B1B68F0
:102D60000C4AA2FB03235A0A41F2883303FB02F305
:102D70001A46013B42B1426B12F0800FF8D040F28C
:102D8000FF538363002070474FF00040704700BF3F
:102D900010030020D34D62100146134B1B68134AE9
:102DA000A2FB03235A0A41F2883303FB02F31A46BB
:102DB000013BAAB14A6B12F0450FF8D04B6B13F0F0
:102DC000040F07D1486B10F0010006D140F2FF5309
:102DD0008B637047042088637047012088637047C5
:102DE0004FF00040704700BF10030020D34D621029
:102DF00001460F4B1B680F4AA2FB03235A0A41F2FC
:102E0000883303FB02F31A46013B72B14A6B12F09E
:102E1000450FF8D0486B10F0040003D140F2FF5387
:102E20008B6370470420886370474FF00040704701
:102E300010030020D34D62100146124B1B68124A4A
:102E4000A2FB03235A0A41F2883303FB02F31A461A
:102E5000013B9AB14A6B12F0450FF8D04B6B13F05F
:102E6000040307D1486B10F0400009D040228A6368
:102E70001846704740238B63042070474FF0004092
:102E8000704700BF10030020D34D621084B010B40F
:102E900002AC84E80E000B46039A1343049A1343D2
:102EA000059A1343069A1343079A13434168044A49
:102EB0000A401343436000205DF8044B04B07047A0
:102EC0000081FFFFD0F8800070470B68C0F88030A9
:102ED000002070470323036000207047006800F063
:102EE000030070470B6883604B688A681343CA68A5
:102EF00013430A691343C168024A0A401343C3607B
:102F00000020704700F0FFFF0069C0B2704782B038
:102F100000230193143008440190019B186802B00B
:102F20007047000038B504460D464F4B1B684F49AB
:102F3000A1FB03135B0A02FB03F21346013A002BC9
:102F40005BD0636B13F0450FF7D0636B13F0040F86
:102F500006D1636B13F0010F05D00120A0634EE092
:102F60000420A0634BE02046FFF7CEFFA84201D02B
:102F7000012044E040F2FF53A36300212046FFF705
:102F8000C6FF03463A481840C8B3002B38DB13F09D
:102F9000804F38D113F0005F37D113F0805F36D106
:102FA00013F0006F36D113F0806F36D113F0807FAD
:102FB00036D113F4000F36D113F4800F36D113F449
:102FC000001F36D113F4801F36D113F4802F36D171
:102FD00013F4003F36D113F4803F36D113F4004F81
:102FE00036D113F4804F36D113F4005F36D113F08D
:102FF000080F36D04FF4000001E04FF0004038BD1C
:103000004FF00070FBE74020F9E78020F7E74FF42E
:103010008070F4E74FF40070F1E74FF48060EEE762
:103020004FF40060EBE74FF48050E8E74FF40050B6
:10303000E5E74FF48040E2E74FF40040DFE74FF46C
:103040000030DCE74FF48020D9E74FF40020D6E7CA
:103050004FF48010D3E74FF40010D0E74FF4800016
:10306000CDE74FF48030CAE710030020D34D621043
:1030700008E0FFFDF8B505460E461746224B1B68D3
:103080002248A0FB0323580A41F2883303FB00F3D4
:103090001C46013B7CB36C6B14F0450FF8D06B6B96
:1030A00013F0040F06D16B6B13F0010F05D0012054
:1030B000A86322E00420A8631FE02846FFF724FF4E
:1030C000B04201D0012018E040F2FF53AB63002171
:1030D0002846FFF71CFF034610F4604008D013F4A5
:1030E000804F0BD113F4004F0BD04FF4805004E00D
:1030F0001B0C3B8001E04FF00040F8BD4FF4005046
:10310000FBE74FF48030F8E710030020D34D621046
:103110000B6843624B6883628B68CA6813430A6911
:1031200013434A691343C26A22F0F7021343C3628E
:103130000020704730B587B00446019110250295F4
:1031400040230393002304934FF48063059301A964
:10315000FFF7C8FE41F2883229462046FFF7E2FE1B
:1031600007B030BD30B587B00446019111250295F6
:1031700040230393002304934FF48063059301A934
:10318000FFF7B0FE41F2883229462046FFF7CAFE1B
:1031900007B030BD30B587B00446019112250295C5
:1031A00040230393002304934FF48063059301A904
:1031B000FFF798FE41F2883229462046FFF7B2FE1B
:1031C00007B030BD30B587B004460191182502958F
:1031D00040230393002304934FF48063059301A9D4
:1031E000FFF780FE41F2883229462046FFF79AFE1B
:1031F00007B030BD30B587B004460191192502955E
:1032000040230393002304934FF48063059301A9A3
:10321000FFF768FE41F2883229462046FFF782FE1A
:1032200007B030BD30B587B00446002301930C25AC
:1032300002954022039204934FF48063059301A901
:10324000FFF750FE034A29462046FFF76BFE07B002
:1032500030BD00BF00E1F50530B587B004460192EE
:103260000725029540230393002304934FF48063C2
:10327000059301A9FFF736FE41F288322946204620
:10328000FFF750FE07B030BD10B586B004460023EE
:1032900001930293039304934FF48063059301A970
:1032A000FFF720FE2046FFF759FD06B010BD10B510
:1032B00086B004464FF4D57301930823029340234C
:1032C0000393002304934FF48063059301A9FFF750
:1032D00009FE2046FFF7B0FD06B010BD30B587B03F
:1032E000044601913725029540230393002304935C
:1032F0004FF48063059301A9FFF7F4FD41F2883292
:1033000029462046FFF70EFE07B030BD10B586B047
:1033100004460A4B0B430193292302934023039352
:10332000002304934FF48063059301A9FFF7DAFDAE
:103330002046FFF75DFD06B010BD00BF0000108005
:1033400010B586B004460023019302220292C022E7
:10335000039204934FF48063059301A9FFF7C2FD24
:103360002046FFF719FD06B010BD10B586B0044623
:10337000019109230293C0230393002304934FF484
:103380008063059301A9FFF7ADFD2046FFF704FD1B
:1033900006B010BD70B586B004460D4600230193FB
:1033A000032602964022039204934FF48063059310
:1033B00001A9FFF797FD2A4631462046FFF75AFE3E
:1033C00006B070BD30B587B0044601910D25029559
:1033D00040230393002304934FF48063059301A9D2
:1033E000FFF780FD41F2883229462046FFF79AFD1B
:1033F00007B030BD08B5044B03EB80025268526839
:103400000344187A904708BD040D002008B5084B06
:103410001B5C53B9064B01221A5403EB800252681D
:1034200012681844007A904708BD0020FCE700BFEE
:10343000040D002038B5044C04EB80056D68AD68C0
:103440000444207AA84738BD040D002038B5044C48
:1034500004EB80056D68ED680444207AA84738BD08
:10346000040D002010B5044B03EB8004646824694C
:103470000344187AA04710BD040D0020427800785C
:1034800040EA02207047C278837843EA02224378F8
:1034900043EA0223007840EA032070470170090ADA
:1034A000417070470170C1F307234370C1F30743B4
:1034B0008370090EC170704710B414462AB10A789F
:1034C000013102700130013CF9D15DF8044B7047C5
:1034D00001700130013AFBD1704710B404462078E6
:1034E00001340B780131C01A013A01D00028F6D01E
:1034F0005DF8044B70470346187818B1884201D034
:103500000133F9E77047000030B400252B4601E095
:1035100001250133012B15D81A01184CA258002A95
:10352000F6D00468A242F4D1144A02EB03125468A4
:1035300082689442EDD1114A02EB03129468426909
:103540009442E6D1022B0AD0A9B90C4A02EB03132C
:103550009B89B3F5807F0CD0002030BC70470229D6
:1035600014BF294645F0010109B10020F5E71220FA
:10357000F3E71020F1E71020EFE700BFE00C002098
:10358000002000E00130012804D80301034AD35889
:10359000002BF7D1023818BF01207047E00C002043
:1035A00070B4002300E00133012B13D81A01244C1E
:1035B000A45802689442F6D1214A02EB03125468DF
:1035C00082689442EFD11E4A02EB0312946842696A
:1035D0009442E8D1022B13D021B1194A02EB031215
:1035E000928952BB21BB164A02EB03129189013129
:1035F00089B2134A02EB03129181581C70BC7047C8
:103600000023012B05D81A010D4CA2580AB1013331
:10361000F7E7022B0FD00668094D1C0105EB0312DA
:103620002E51846854604069906000209081D3E7F7
:103630004FF48071DDE70020E0E70020DEE700BF07
:10364000E00C00200138012815D80D4B03EB0013C6
:103650009B89B3F5807F03D01BB1013B9BB200E097
:103660000023074A02EB0012938133B903010020C3
:10367000034AD0507047022070470020704700BFB7
:10368000E00C0020002303E05DF8044B7047013399
:10369000012B11D81A0109498A588242F7D110B476
:1036A0001A0100248C500133012BEDD81A01034973
:1036B0008A588242F7D1F3E7704700BFE00C002040
:1036C00002394369023B8B4204D94389806A01FB7A
:1036D00003007047002070470268C36A0433490A38
:1036E0005289B1FBF2F1186830B1814202D3091A54
:1036F0000833F8E758680844704770B506460D4629
:1037000001F11A00FFF7BAFE3378032B00D070BD29
:10371000044605F11400FFF7B1FE44EA0040F6E765
:1037200070B506460C46154691B204F11A00FFF733
:10373000B5FE3378032B00D070BD290C04F11400C2
:10374000FFF7ACFEF8E700002DE9F84F81468A4606
:10375000D1F8008000F1240B0B2220215846FFF7FE
:10376000B7FE00252B46082729E0013618F8063059
:103770005C2B18BF2F2BF8D04644CAF80060002DF0
:1037800045D099F82430E52B36D0202C38D80423A6
:1037900089F82F30002036E014F0800F28D1214620
:1037A0001C48FFF7A8FE80BBA4F16103DBB2192B14
:1037B00001D8203CE4B20BF80540013533465E1CCD
:1037C00018F80340202CD7D95C2C18BF2F2CCDD053
:1037D0002E2C18BFAF42DFD82E3C18BF01240B2F70
:1037E00014BF274644F0010767B908250B27E5E712
:1037F000803C094B1C5DD2E7052389F82430C4E7DF
:103800000023C5E70620BDE8F88F0620FBE7062069
:10381000F9E700BFB89B0008C89B00080146006894
:1038200008B1024603E04FF0FF30704701321378D1
:103830003A2B18BF202BF9D83A2B01D00020704723
:10384000034613F8010B3038092898BF9A4203D178
:1038500028B901320A6070474FF0FF3070474FF0CF
:10386000FF30704738B50D46044698B103689BB1E8
:103870001A78A2B18188DA88914203D00920002405
:103880002C6038BD5878FFF7B5FD10F0010009D164
:103890002468F5E70920F3E71C460920F0E7092032
:1038A0000024EDE709200024EAE72DE9F041C5787E
:1038B00015B92846BDE8F0810446C76A00F1300812
:1038C00001233A4641464078FFF7C0FD054698B9C6
:1038D0000023E370236AFB1AA2699342E9D2A67817
:1038E000012EE6D9A3691F4401233A464146607878
:1038F000FFF7ACFD013EF3E70125DAE770B5C36AD7
:103900008B4202D10026304670BD04460D46FFF7BB
:10391000CCFF06460028F6D101232A4604F13001E7
:103920006078FFF787FD10B101264FF0FF35E562A3
:10393000E9E7000038B504460023C3704FF0FF33B9
:10394000C362FFF7DBFF30BB054604F22E20FFF712
:1039500095FD4AF6552398421FD194F83030E92B53
:1039600007D0236B03F0FF130D4A934201D00225C9
:1039700014E004F16600FFF786FD20F07F40094B5C
:1039800098420BD004F18200FFF77DFD064B984270
:1039900004D0022502E0042500E00325284638BDB6
:1039A000EB00900046415400464154332DE9F04F5E
:1039B00085B00D46164600230B60FFF72FFF071E4C
:1039C000C0F24481B54B53F82740002C00F04381EE
:1039D0002C6006F0FE06237873B16078FFF70AFDCD
:1039E00010F0010508D1002E00F0318110F0040F15
:1039F00000F02D810A252AE100232370F8B26070BF
:103A0000FFF704FD10F0010540F027811EB110F012
:103A1000040F40F0248100212046FFF78BFF02288D
:103A200000F0B6800027042800F01B81012800F276
:103A30001A8104F13B00FFF721FDB0F5007F40F053
:103A4000148104F14600FFF719FD064620B904F180
:103A50005400FFF718FD0646A66194F84020A270B6
:103A6000531EDBB2012B00F2028106FB02F894F830
:103A70003D90A4F80A90B9F1000F00F0FA8009F126
:103A8000FF3319EA030F40F0F68004F14100FFF71D
:103A9000F5FC8246208110F00F0F40F0EE8004F11B
:103AA0004300FFF7EBFC834620B904F15000FFF719
:103AB000EAFC834604F13E00FFF7E0FC02460028E2
:103AC00000F0DD8000EB080303EB1A139B45C0F008
:103AD000D880ABEB030BBBFBF9F1CB45C0F0D38037
:103AE0004FF6F57081426BD94FF0030B40F6F5703D
:103AF000814201D84FF0010B01F10209C4F8149082
:103B0000E7613A4422623B44A362BBF1030F5AD0FF
:103B1000BAF1000F00F0BD8042446262BBF1020FB7
:103B200062D009EB490309F0010909EB530909F2D5
:103B3000FF19B6EB592FC0F0AE804FF0FF33236171
:103B4000E36080232371BBF1030F50D084F800B0F1
:103B5000534A138801339BB21380E3802046FFF75A
:103B600091FD74E0002004AB03EB860343F8100CD6
:103B70000136032E0ED804F13000330103F5DF7354
:103B800018440379002BEDD00830FFF77CFCEAE7FE
:103B90000026EEE700260AE039462046FFF7CAFE77
:103BA00001287FF640AF0136032E3FF63CAF04AB51
:103BB00003EB860353F8107C002FEDD10320F2E7CE
:103BC0004FF0020B92E704F15A00FFF757FC002870
:103BD0005BD1BAF1000F5AD104F15C00FFF753FC3E
:103BE00060624FEA8909A2E74FEA49099FE704F1B9
:103BF0006000FFF743FC0128A8D1791C2046FFF79D
:103C00007DFE0028A2D10023237104F22E20FFF7AD
:103C100035FC4AF65523984298D104F13000FFF75D
:103C200032FC204B984291D104F50570FFF72BFC34
:103C30001D4B98428AD104F50670FFF724FC2061E1
:103C400004F50770FFF71FFCE0607FE70B252846AF
:103C500005B0BDE8F08F0C25F9E70325F7E70A2545
:103C6000F5E70125F3E70D25F1E70D25EFE70D2534
:103C7000EDE70D25EBE70D25E9E70D25E7E70D2538
:103C8000E5E70D25E3E70D25E1E70D25DFE70D2548
:103C9000DDE70D25DBE70D25D9E700BFDC0C0020B3
:103CA000000D002052526141727241612DE9F047CE
:103CB00001297ED907460C46164643698B427AD9BC
:103CC0000378022B45D0032B57D0012B03D00225BC
:103CD0002846BDE8F08701EB5108016A01EB582145
:103CE000FFF70CFE05460028F2D107F1300A08F173
:103CF0000109C8F3080814F001041FD01AF90830AC
:103D000003F00F03320102F47F621343DBB20AF8BF
:103D100008300123FB70396A01EB59213846FFF75F
:103D2000EDFD05460028D3D1C9F3080944B1C6F317
:103D300007120AF809200123FB70C9E7F3B2E6E78E
:103D40001AF9092022F00F02C6F303263243D2B239
:103D5000EFE7016A01EB1421FFF7D0FD05460028CB
:103D6000B6D107F13000640004F4FF74B1B220440E
:103D7000FFF794FB0123FB70AAE7016A01EBD41162
:103D8000FFF7BCFD05460028A2D126F0704607F1DA
:103D90003003A40004F4FE741C442046FFF773FBB8
:103DA00000F0704131432046FFF77CFB0123FB709C
:103DB0008EE702258CE702258AE7F8B50568012918
:103DC00056D90C466B698B4254D92B78022B2DD0D7
:103DD000032B3BD0012B01D001204AE001EB51061F
:103DE000296A01EB56212846FFF788FD10B14FF0F4
:103DF000FF303EE0771CC6F308062E4496F830608C
:103E0000296A01EB57212846FFF778FDA0BBC7F3CD
:103E100008073D4495F8300046EA002014F0010FF1
:103E200001D0000925E0C0F30B0022E0296A01EB74
:103E300014212846FFF762FD08BB05F1300064003D
:103E400004F4FF742044FFF719FB12E0296A01EB28
:103E5000D4112846FFF752FDA0B905F13000A400A7
:103E600004F4FE742044FFF70EFB20F0704000E0E5
:103E70000120F8BD0120FCE74FF0FF30F9E74FF0DB
:103E8000FF30F6E74FF0FF30F3E72DE9F041D0F8CF
:103E90000080B1F5001F42D206460F4611F01F0FF9
:103EA0003FD1416184682CB998F80030022B01D9C8
:103EB000D8F82440B4B9B8F80830B3EB571F32D95A
:103EC000D8F82430F361B461F36993B303EB57235B
:103ED000F36108F13003C7F308011944316200208F
:103EE000BDE8F081B8F80A506D0200E07F1BAF42D8
:103EF0000FD321463046FFF760FF0446B0F1FF3F85
:103F000013D0012813D9D8F814308342EED80220F8
:103F1000E6E721464046FFF7D3FBF061D3E70220F6
:103F2000DEE70220DCE70220DAE70120D8E7022002
:103F3000D6E70220D4E72DE9F041054606680F4692
:103F400051B9D6F80C80B8F1000F12D0736943450F
:103F500011D84FF001080EE0FFF72FFF03460128AC
:103F60004CD9B0F1FF3F4ED0726982424BD8B8466F
:103F700001E04FF0010844460CE021462846FFF7D7
:103F80001CFF034678B1B0F1FF3F18BF01283AD0BB
:103F9000444537D001347369A342EED8B8F1010F1C
:103FA0002ED90224E9E74FF0FF3221463046FFF7D1
:103FB0007DFE02463B1E18BF0123002818BF0023C8
:103FC00073B9A2B9F46032697369023B9A4201D8AD
:103FD000013A3261337943F001033371234612E031
:103FE000224639463046FFF761FE0246E9E7012ADC
:103FF00001D0012307E04FF0FF3304E0012302E08A
:10400000002300E000231846BDE8F081F8B50C4617
:10401000056801292ED9064611466B69A3422BD9A2
:104020004AB14FF0FF322846FFF740FE074610B175
:1040300023E0A24221D9274621463046FFF7BDFEA4
:104040000446E0B101281CD0B0F1FF3F1BD0002294
:1040500039462846FFF72AFE074670B92B696A6978
:10406000911E8B42E5D201332B612B7943F0010382
:104070002B71DEE7022700E002273846F8BD002753
:10408000FBE70227F9E70127F7E72DE9F047066884
:104090004569C369002B6CD0044688462035B5F5C8
:1040A000001F68D2C5F308073FB90133C3618169B6
:1040B00079B93389B3EB551F07D9656106F1300330
:1040C0003B4423620020BDE8F0870023C361042045
:1040D000F9E77389013B13EA5529EED1FFF76DFE2D
:1040E0008246012849D9B0F1FF3F48D07369834225
:1040F00037D8B8F1000F11D0A1692046FFF71BFF98
:10410000824600283DD001283DD0B0F1FF3F3CD091
:104110003046FFF7CAFB28B10120D4E70023E36152
:104120000420D0E74FF40072002106F13000FFF7C1
:10413000CFF951463046FFF7C3FAF06273899945CB
:104140000BD20123F3703046FFF7AFFBF8B909F14A
:104150000109F36A0133F362F0E7F36AA3EB0903A1
:10416000F362C4F818A051463046FFF7A9FAE0619F
:10417000A3E70420A7E70420A5E70220A3E7012086
:10418000A1E707209FE702209DE701209BE7012090
:1041900099E770B5044606680021FFF776FE0546EC
:1041A00040B1284670BD00212046FFF76EFF05464E
:1041B0000028F6D1E1693046FFF7A0FB054600284C
:1041C000EFD1206A03787BB1C37A03F03F03A37178
:1041D000C37A13F0080FE6D10B2204F12401FFF794
:1041E0007CF90028DFD1DCE70425DAE730B583B0BD
:1041F000044601910568019B1A785C2A18BF2F2A92
:1042000002D101330193F6E70022A2601B781F2B35
:104210001BD8802384F82F3011462046FFF735FE47
:104220000346184603B030BD0428FAD112F0040F3B
:10423000F7D10523F5E705F130016369C3F30803FE
:1042400019442846FFF759FAA06001A92046FFF754
:104250007BFA03460028E4D12046FFF79AFF94F842
:104260002F2003460028DFD112F0040FD9D1A37903
:1042700013F0100FDFD10523D3E7F8B504460E463F
:1042800007680021FFF701FE0246B8B9002506E0E5
:10429000002501212046FFF7F8FE024670B9E169CA
:1042A0003846FFF72BFB024640B9236A1B78002BE8
:1042B00018BFE52BECD10135B542EAD1042A01D073
:1042C0001046F8BD0722FBE770B5044606680121D9
:1042D000FFF7D3FF054608B1284670BDE1693046B7
:1042E000FFF70CFB05460028F6D120220021206AAA
:1042F000FFF7EEF80B2204F12401206AFFF7DCF847
:104300000123F370E8E7000070B50446FFF7CDFA2B
:10431000054648B92378032B08D00022114660785F
:10432000FFF7A0F800B10125284670BD2379012BC5
:10433000F3D104F130064FF4007200213046FFF74C
:10434000C7F84AF6552104F22E20FFF7A7F80F49C7
:104350003046FFF7A7F80E4904F50570FFF7A2F8FD
:10436000216904F50670FFF79DF8E16804F5077010
:10437000FFF798F8E2690132E26201233146607882
:10438000FFF764F800232371C7E700BF5252614171
:104390007272416170B584B001900091164603912C
:1043A00003A8FFF73BFA041E1FDB114B53F8245000
:1043B00025B12846FFF766F900232B70019B0BB14E
:1043C00000221A70019B0A4A42F82430721E18BF5C
:1043D0000122002B08BF012212B1002004B070BDE1
:1043E00001A96846FFF7E2FAF8E70B20F6E700BFFD
:1043F000DC0C00202DE9F04391B00191002800F081
:104400000F811546064602F03F073A4603A901A868
:10441000FFF7CCFA044630B10CB1002333602046DC
:1044200011B0BDE8F083039B0493019904A8FFF742
:10443000DDFE044660B99DF93F30002B50DB37F0BC
:10444000010314BF0121002104A8FFF75DF8044611
:1044500015F01C0F5AD0002C4ED0042C42D047F03F
:104460000807002C61D117F0080F5ED000F0B6FBF2
:10447000054601460C980E30FFF714F829460C98B3
:104480001630FFF70FF80C9B2022DA72DDF80C8053
:10449000DDF8309049464046FFF72FF905460022E7
:1044A00049464046FFF73CF900210C981C30FEF7C6
:1044B000F9FF039B0122DA70BDB3039BD3F82C8074
:1044C0000022294604A8FFF7A1FD044668BB414627
:1044D0000398FFF713FA0446013D039BDD6024E0D7
:1044E0000624B5E7FFF74CF808B91224B7E704A88B
:1044F000FFF7EAFE0446B2E79DF8163013F0110FFD
:1045000012D115F0040FACD008240EE06CB99DF860
:10451000163013F0100F4CD115F0020F05D013F028
:10452000010F02D0072416E00724A4B917F0080FE2
:1045300001D047F04007039BDB6A73620C9BB362B8
:1045400037F0010314BF0121002104A8FFF728F868
:104550003061002862D0002C7FF45EAF039DDDF84F
:10456000308041462846FFF7C8F8B06008F11C00CB
:10457000FEF789FFF0600021F1623560EB88B380BF
:10458000377571753162B16106F130084FF4007210
:104590004046FEF79DFF17F0200F3FF43DAFF56852
:1045A000002D3FF439AFB561039B5F897F02B1688D
:1045B00005E00424CFE7B1F1FF3F10D0ED1BBD4271
:1045C00094BF00230123002C18BF00234BB13046B9
:1045D000FFF7F3FB01460128EDD80224EBE70124A5
:1045E000ECE7F161002C7FF417AFC5F30803002B53
:1045F0003FF412AF039F3846FFF762F808B9022470
:104600000BE700EB55223262012341467878FEF732
:1046100011FF00283FF400AF0124FEE60224FBE670
:104620000924FCE62DE9F04F85B004460E461746F6
:1046300098460023C8F80030019003A9FFF712F94B
:104640000090002840F0AE80637D0093002B40F086
:10465000A980237D13F0010F00F0C380E568A369F2
:10466000ED1ABD4262D33D4660E0E36A1BB12046CD
:10467000FFF732F86AE0E1690198FFF79EFB65E019
:104680004FF0020A84F815A0CDF800A08AE04FF0A0
:10469000010A84F815A0CDF800A083E04FF0020ACB
:1046A00084F815A0CDF800A07CE094F91430002B1C
:1046B00002DB4FEA4A272FE0206AA0EB09005045B1
:1046C000F7D24FF4007204F1300106EB4020FEF700
:1046D000F3FEEEE7226A4A450DD094F91430002B20
:1046E00064DB01234A4604F1300103984078FEF769
:1046F000A1FE00286ED1C4F82090A369C3F308037B
:10470000C3F50077BD4200D22F4604F130013A468E
:1047100019443046FEF7D0FE3E44A3693B44A361F2
:10472000D8F800303B44C8F80030ED1B002D39D0DC
:10473000A169C1F30803002BDFD1039B5F89013F0F
:1047400017EA512708D100298FD1A068012897D9ED
:10475000B0F1FF3F9BD0E061DDF80CB0E169584655
:10476000FEF7AEFF8146002898D0B9444FEA552A9B
:10477000B5F5007FAED307EB0A03BBF80A209342DE
:1047800001D9A2EB070A53464A4631469BF801007D
:10479000FEF750FE002888D04FF0010A84F815A0DB
:1047A000CDF800A0009805B0BDE8F08F012304F11A
:1047B00030019BF80100FEF749FE20B9237D03F08C
:1047C0007F0323758DE74FF0010A84F815A0CDF81B
:1047D00000A0E7E74FF0010A84F815A0CDF800A08B
:1047E000E0E707230093DDE72DE9F04F85B00446AD
:1047F0000E46154698460023C8F80030019003A9DC
:10480000FFF730F8009000284AD1637D0093002B19
:1048100046D1237D13F0020F00F0E380A369EB4241
:10482000C0F0B180DD43AEE0E36A002B3CD020460F
:10483000FEF752FF002800F0CF80012839D0B0F1F8
:10484000FF3F3DD0E061A36803B9A06094F9143044
:10485000002B3CDBDDF80CB0E1695846FEF730FF79
:104860008146002848D0B9444FEA552AB5F5007F63
:104870005ED307EB0A03BBF80A20934201D9A2EBEF
:10488000070A53464A4631469BF80100FEF7DEFD13
:10489000002838D04FF0010A84F815A0CDF800A008
:1048A000009805B0BDE8F08FE1690198FFF743FB80
:1048B000C0E74FF0020A84F815A0CDF800A0EFE79A
:1048C0004FF0010A84F815A0CDF800A0E8E7012315
:1048D000226A04F1300103984078FEF7B7FD20B951
:1048E000237D03F07F032375B4E74FF0010A84F8BA
:1048F00015A0CDF800A0D3E74FF0020A84F815A068
:10490000CDF800A0CCE7216AA1EB0901514502D303
:104910004FEA4A2728E04FF4007206EB412104F1E8
:104920003000FEF7C9FD237D03F07F032375EFE719
:10493000236A4B4503D0A269E3689A423BD3C4F88B
:104940002090A369C3F30803C3F50077BD4200D2EA
:104950002F4604F130003A4631461844FEF7ACFDCC
:10496000237D63F07F0323753E44A3693B44A36129
:10497000E268934238BF1346E360D8F800303B4406
:10498000C8F80030ED1B3DB3A169C1F30803002B4B
:10499000D7D1039B5F89013F17EA51277FF456AFB8
:1049A00000297FF441AFA06800287FF443AF01984D
:1049B000FFF7C1FA3EE701234A4604F130019BF8B4
:1049C0000100FEF737FD0028B9D04FF0010A84F846
:1049D00015A0CDF800A063E7237D43F040032375C5
:1049E0005EE7072300935BE770B582B0044601A938
:1049F000FEF738FF70B9237D13F0400F0AD013F093
:104A0000800F09D100F0EAF80546616A0198FEF7C7
:104A100075FF78B102B070BD0123226A04F1300144
:104A200001984078FEF712FD40BB237D03F07F0321
:104A30002375E7E7A66AF37A43F02003F372A268CE
:104A400031462068FEF76CFEE16806F11C00FEF7B7
:104A500029FD294606F11600FEF724FD002106F186
:104A60001200FEF71BFD019B0122DA700198FFF78F
:104A70004BFC237D23F040032375CBE70120C9E7DE
:104A800010B582B00446FFF7AFFF08B102B010BD09
:104A900001A92046FEF7E6FE0028F7D12069FEF7BF
:104AA000D1FD0028F2D12060F0E70000104B5B7AC6
:104AB000E3B970B4044603F0FF000D4B5D7AEDB22C
:104AC00000265E555D7A03EB85056C605C7A1C44BC
:104AD00022725A7A541CE4B25C7230320A703A2361
:104AE0004B702F238B70CE7070BC704701207047C5
:104AF000040D002008B50022FFF7D8FF08BD000014
:104B000000B583B0009313460A4601460348FCF7FC
:104B100053FF00B1012003B05DF804FB3016002004
:104B200000B583B0009313460A4601460348FDF7DB
:104B300050F800B1012003B05DF804FB30160020EE
:104B400008B50348FDF712FB043818BF012008BD63
:104B50003016002008B501460148FDF7F5FA08BDFA
:104B600030160020704708B5FFF7FCFF08BD7047FE
:104B700008B5FFF7FCFF08BD704708B5FFF7FCFF5D
:104B800008BD00B583B001238DF8073000F028F888
:104B900010B900238DF807309DF8070003B05DF8C9
:104BA00004FB000008B5FFF7ECFF012801D002204C
:104BB00008BD0248FDF7AFFAFAE700BF3016002043
:104BC00008B503490348FFF795FF034B187008BD6C
:104BD0005C0D0020089F0008580D00200020704741
:104BE00008B520210348FBF7E9FF08B9012008BDFB
:104BF0000020FCE700000240054B064A1A60002234
:104C00005A609A60DA601A615A6101229A617047AB
:104C100030160020002C014000B589B00023049319
:104C2000059306930793124B1A6B42F001021A6325
:104C30001A6B02F001020092009A1A6B42F008020D
:104C40001A631A6B02F008020192019A1A6B42F081
:104C500004021A631B6B03F004030293029B2023DC
:104C6000039303A90348FBF7B9FE09B05DF804FB01
:104C7000003802400000024008B50948094B0360B3
:104C8000094B436000238360C36003610C224261CF
:104C90008361C36103624362FEF72FF808BD00BF62
:104CA000A8150020004800401055220008B5002239
:104CB00011463120FBF728FE3120FBF757FE00227A
:104CC00011462720FBF720FE2720FBF74FFE08BDEB
:104CD00030B5B9B0342200212BA800F04FFC0024DD
:104CE00026942794289429942A949022214602A855
:104CF00000F044FC1F4B1A6C42F080521A641B6C8B
:104D000003F080530093009B1B4B1A6842F440420F
:104D10001A601B6803F440430193019B02252B9505
:104D200001232E9310232F9331953294082333932C
:104D3000D82334933595092336932BA8FBF784FFAA
:104D4000FBF744FF0F232693279528944FF4A05395
:104D500029934FF480532A93072126A8FCF7AEF934
:104D6000064B029315942194229402A8FCF77EFA34
:104D700039B030BD00380240007000400001A00092
:104D80002DE9F041C0B0914B1B7843B98F4B1B7894
:104D90009BB18F4B00221A6040B0BDE8F0810A231E
:104DA00010228C498C48FDF71AFF00228B498C4851
:104DB000FFF7F0FA854B1870E8E78A4D8A4A2B46D0
:104DC00007CA03C31A70894C132229462046FFF7ED
:104DD00011FB874B1870DFF85482864B4FF48072BA
:104DE00041462046FFF71EFC7B4F0A2311228249D1
:104DF0003846FDF7F4FE814E42468149304600F0C8
:104E00000DFC3046FBF71CFC0A2382B231463846C3
:104E1000FDF7E5FE2046FFF733FE33222946204604
:104E2000FFF7E8FA002433E0764C774B93E807006D
:104E300084E80700754D332221462846FFF7DAFA49
:104E4000734E3046FBF7FCFB0246724B3146284658
:104E5000FFF7CAFC2846FFF713FE332221462846F7
:104E6000FFF7C8FA0A2318226B495B48FDF7B7FE23
:104E70006A4B01221A60564B01221A600A230E2245
:104E800067495548FDF7ABFE86E7002853D001344B
:104E9000644B1B68A342EEDD22466349684600F07E
:104EA000BDFB6946614800F033FD614B18605D4B06
:104EB0001B68A342B8D0002CE7D10028E5D1514CA3
:104EC0005C4B254693E8070003C52A802046FBF784
:104ED000B7FB02464F4F454E3B4621463046FFF753
:104EE00083FC3046FFF7CCFD534A234607CA03C371
:104EF0002A80464D332221462846FFF77BFA444E4E
:104F00003046FBF79DFB02463B4631462846FFF7FD
:104F10006BFC2846FFF7B4FD332221462846FFF7F5
:104F200069FA0A23142245492B48FDF758FE3B4BEA
:104F300001221A609FE7334D22464149284600F07E
:104F40006DFB2846FBF77CFB0246324F274E3B4663
:104F500029463046FFF748FC3046FFF791FD2246D0
:104F60003849284600F05AFB284C3322294620466F
:104F7000FFF740FA264E3046FBF762FB02463B46FF
:104F800031462046FFF730FC2046FFF779FD3322FB
:104F900029462046FFF72EFA0F4C0A230D222A49F4
:104FA0002046FDF71CFE2846FBF74AFB0A2382B287
:104FB00029462046FDF713FE0A23022223492046F4
:104FC000FDF70DFE154B01221A6054E7C8170020AB
:104FD000140D0020489C0008A81500205C0D00203E
:104FE000900F0020080200205C9C0008F81B0020A5
:104FF0008C1F0020F01B0020689C0008C0110020BE
:105000007C9C0008080100208C9C0008CC17002024
:105010000800002028160020989C0008180D002089
:105020000C9D000808030020849C0008281E002016
:10503000F41B0020B49C0008C09C0008CC9C000815
:10504000E49C0008F09C0008FC9C0008EC9C000814
:1050500008B5174B834200D008BD164B1978164B84
:105060005B5C0A2B18BF0D2B10D1144B01221A7058
:105070000023114A53540F4A13700E4B1B78012220
:105080000D4919440A48FDF7BDF9E5E7142903D194
:10509000084B00221A70F0E70A2301220648014457
:1050A0000348FDF79CFD034A137801331370E4E7CE
:1050B000A8150020110D0020B4160020100D0020AE
:1050C00010B51D491D48FBF73FF9A8B11C491B4805
:1050D000FBF73AF900BB1B4C40F20B121A49204671
:1050E000FBF78EF82046FBF7ABFA642382B2214629
:1050F0001648FDF774FD10BD124C99221449204644
:10510000FBF77EF82046FBF79BFA642382B2214628
:105110000E48FDF764FDEEE70A4C084A0D492046AB
:1051200000F07CFA2046FBF78BFA642382B221461A
:105130000648FDF754FDDEE71C9D0008B41600206C
:10514000C09D0008FC190020C49D0008A81500207F
:10515000249D0008D09E000808B5FBF791FBFFF7DF
:10516000B7FDFFF759FDFFF747FDFFF785FDFFF797
:1051700027FDFFF79BFD0A23112215491548FDF76E
:105180002EFD002214491548FFF704F9144B18703E
:105190000A20FBF793FB01E0FFF7F2FD114B1B68C0
:1051A000012BF9D1104B1B780122104919440948F1
:1051B000FDF728F90E4B00221A7004E00D4B002277
:1051C0001A70FFF77DFF0B4B1B78012BFBD1F5E726
:1051D000F49E0008A81500205C0D0020900F002010
:1051E000C8170020180D0020110D0020B416002053
:1051F0002C160020100D002008B5074B01221A7054
:10520000FFF79EFC20B9044A137803F0FE031370E5
:10521000014B187808BD00BF0C03002010B50446F0
:10522000074B01221A70FFF7BDFC10B1044B187830
:1052300010BD2046FFF7E0FF014B1870F6E700BFF6
:105240000C03002008B5FFF7D7FF08BD08B50846D6
:1052500011461A464FF0FF33FFF752FC30B9FFF703
:105260006FFC03460028FAD1184608BD0123FBE76E
:1052700008B5084611461A464FF0FF33FFF750FCB9
:1052800030B9FFF75DFC03460028FAD1184608BD87
:105290000123FBE730B589B0134B1B7813F00104F1
:1052A0001DD10846154603291CD8DFE801F0190274
:1052B00009106846FFF74EFC069B2B6020460FE066
:1052C0006846FFF747FC079B2B80204608E06846AE
:1052D000FFF740FC079B5B0A2B60204600E00320A1
:1052E00009B030BD0420FBE70C03002082B00A4B5C
:1052F0001A6C42F080521A641A6C02F080520092CA
:10530000009A5A6C42F480425A645B6C03F4804306
:105310000193019B02B070470038024070B588B01D
:1053200000230393049305930693079302681E4B8F
:105330009A4201D008B070BD03F586335A6C42F42E
:1053400000625A645A6C02F400620092009A1A6B6E
:1053500042F004021A631A6B02F004020192019AED
:105360001A6B42F008021A631B6B03F008030293E6
:10537000029B4FF488530393022604960325069557
:105380000C2407940DEB04010848FBF727FB0423CA
:105390000393049600230593069507940DEB0401EF
:1053A0000348FBF71BFBC5E7002C01400008024047
:1053B000000C024000B589B00023039304930593C9
:1053C000069307930268144B9A4202D009B05DF825
:1053D00004FB03F5F8331A6C42F480221A641A6C49
:1053E00002F480220192019A1A6B42F008021A63B9
:1053F0001B6B03F008030293029B4FF4407303936B
:1054000002230493032306930723079303A9034866
:10541000FBF7E4FADAE700BF00480040000C024066
:105420007047FEE7FEE7FEE7FEE77047704770470C
:1054300008B5FBF731FA08BD08B50248FDF7BEF81C
:1054400008BD00BFA815002008B50248FCF7EAFE19
:1054500008BD00BF3016002010B40F4AD2F88830C3
:1054600043F47003C2F888300C4B196841F0010115
:105470001960002098601C68094921401960094999
:105480005960196821F480211960D8604FF00063D9
:1054900093605DF8044B704700ED00E00038024077
:1054A000FFFFF6FE10300024DFF834D0002103E0C7
:1054B0000C4B5B58435004310B480C4B42189A423A
:1054C000F6D30B4A02E0002342F8043B094B9A4210
:1054D000F9D3FFF7C1FF00F02DF8FFF73DFE70474D
:1054E00000000820D4A1000800000020C00C00200B
:1054F000C00C0020B81F0020FEE70000002301467A
:105500001A46184601F038BF38B5084B084D5B1BEA
:105510009C1007D0043B1D44013C55F804399847C2
:10552000002CF9D1BDE8384004F03EBBD4A10008FE
:10553000D0A1000870B50D4E0D4D761BB61006D0EB
:10554000002455F8043B01349847A642F9D1094E8E
:10555000094D761B04F022FBB61006D0002455F846
:10556000043B01349847A642F9D170BDC8A1000898
:10557000C8A10008D0A10008C8A10008F0B486079F
:1055800046D0541E002A3CD0CAB2034601E0013C7A
:1055900037D303F8012B9D07F9D1032C2AD9CDB2BB
:1055A00045EA05250F2C45EA054534D9A4F110023A
:1055B00022F00F0C03F120071609674403F11002D3
:1055C00042E9045542E902551032BA42F8D1721C40
:1055D00014F00C0F03EB021204F00F0613D0331F6C
:1055E00023F003030433134442F8045B9342FBD1DA
:1055F00006F003042CB1CAB21C4403F8012B9C42F0
:10560000FBD1F0BC704734461346002CF3D1F8E7C9
:1056100014460346C1E71A462646E0E70EB430B505
:105620009CB01FAB0C4C0D4D53F8042B019301465D
:1056300002910691206802A96FF00044CDE904456B
:10564000079400F019FA029B00221A701CB0BDE802
:10565000304003B0704700BF140300200802FFFF72
:105660002DE9F04F012B1D46ADF21C4D81460F4632
:1056700090464FF0010340F2448119469C460024B5
:105680004FF0FF3006E0A3EB000C1C46012163182D
:105690009D4210D908EB000218F80360525C964254
:1056A000F1D300F082804FF0010C61462046644443
:1056B00063189D42EED8CDF808C04FF0010C61464A
:1056C000634600244FF0FF3606E0A3EB060C1C46B1
:1056D000012163189D420FD908EB010218F803E07D
:1056E000925D9645F1D866D04FF0010C6146264692
:1056F000644463189D42EFD8013600F1010B5E450A
:1057000002D3CDF808C0B34605AB0DF2144243F8FE
:10571000045F9342FBD16C1E002D00F0F68006AEB4
:1057200008F1FF3208EB0400019612F8011FD34381
:105730002B444344904246F82130F6D1029B5A460E
:1057400008EB0301404603F069F9002840F082802D
:105750000BF1FF330593029BEB1A82460646039337
:1057600009EB060E019A1EF8043052F8233043B3B9
:10577000BAF1000F04D0029A9342039A38BF13463D
:105780001E444FF0000A7B1BB342E9D209EB07002D
:1057900045F4006103F0A4FD07447B1BB342DFD254
:1057A00000200DF21C4DBDE8F08F8C4512BF013179
:1057B000644401216BE761450ABF6418013101218E
:1057C00087E7D3455B4638BF5346A34211D2591EE3
:1057D0009A1941444A4402E00133A34209D212F823
:1057E000010B11F801CF8445F6D0CBF1010216442C
:1057F000C6E7D345059B40F282800BEB06024A4484
:1058000008EB0B01CDF810B002E0534516D003466B
:1058100012F8010D11F801CD844503F1010B03F1DC
:10582000FF30F2D05B46DDF810B00AF1010A9A456C
:105830000BD8029BDDF80CA01E44A4E753460AF1E6
:10584000010A9A45DDF810B0F3D970460DF21C4DEF
:10585000BDE8F08FA5EB0B035B4538BF5B4601331A
:1058600004930BF1FF330293CBF101030026039362
:1058700045F4006A09EB0601019A0B5D52F82330EA
:105880006BB11E447B1B9E42F4D909EB07005146C5
:1058900003F026FD07447B1B9E42EBD980E7A3451E
:1058A00014D2029B0BEB060208EB030C4A445B4646
:1058B00002E00133A34209D212F8010B1CF801EFF8
:1058C0008645F6D0039A16441E44DBE7BBF1000F71
:1058D00010D00BEB0600484408EB0B0201E04345F7
:1058E00008D012F801ED10F801CDE6451346F6D0C8
:1058F000049BC6E708460DF21C4DBDE8F08F5B46E1
:1059000093E702934FF0000BFEE606AB019315E719
:105910002DE9F0410E46097890B00446002950D098
:105920007278002A00F08280B378002B4DD0F07896
:10593000002800F082803379002B54D03046FAF7EB
:105940007FFE074640F40071204603F0C9FC874201
:1059500067D8FE2F00F28580A0EB07084022791C53
:105960006846A044FFF70AFE77B1721ED519F8B257
:1059700012F8013F10A903F03F030B44B11A014490
:10598000AA4203F8401CF3D1013C10AAE35D03F0E6
:105990003F03134413F8400C0444A04503D234E001
:1059A0002C44A04531D3E55D10AB05F03F051D4407
:1059B0003A463146204615F8405C03F02FF800289F
:1059C000EED1204610B0BDE8F08142EA01410278F4
:1059D00000E0044642EA0343601C12B39942627835
:1059E000F7D1013CEDE72278DAB1316809BA01E07C
:1059F000994208D042EA0323204614F8012F002AD6
:105A0000F6D199420DD1C41EDBE718F8073008EB38
:105A1000070033B14FF4006103F062FC8044444559
:105A2000B2D90024204610B0BDE8F08103F0BCFBE1
:105A30000446204610B0BDE8F081120442EA01623B
:105A400042EA0323227800E02C4642EA0001651C6A
:105A50000802002AE5D0B3EB012F6278F4D1023CB2
:105A6000AFE701463B4620463246FFF7F9FD0446C4
:105A7000A7E700BF000000002DE9F04F2DED068BD9
:105A8000CDB08A4690460993834602F0EDFC036848
:105A900012931846FAF7D4FDBAF80C3011901D068F
:105AA00004D5DAF81030002B00F057870023CDE939
:105AB0002133CDE91333CDE916330F9315930693B4
:105AC000464623AB209399465346DA469B463378A5
:105AD0009FED5F8B9FED609B002B00F0448134466F
