:020000040800F2
:1000000000000820751100080D1100080F110008EC
:10001000111100081311000815110008000000005C
:1000200000000000000000000000000017110008A0
:1000300019110008000000001B1100081D11000824
:10004000C5110008C5110008C5110008C511000838
:10005000C5110008C5110008C5110008C511000828
:10006000C5110008C5110008C5110008C511000818
:10007000C5110008C5110008C5110008C511000808
:10008000C5110008C5110008C5110008C5110008F8
:10009000C5110008C5110008C5110008C5110008E8
:1000A000C5110008C5110008C5110008C5110008D8
:1000B000C5110008C5110008C5110008C5110008C8
:1000C000C5110008C5110008C5110008C5110008B8
:1000D000C5110008C5110008C5110008C5110008A8
:1000E000C5110008C5110008C5110008C511000898
:1000F000C5110008C5110008C5110008C511000888
:10010000C5110008C5110008C5110008C511000877
:10011000C5110008C5110008C5110008C511000867
:10012000C5110008C5110008C5110008C511000857
:10013000C5110008C5110008C5110008C511000847
:10014000C5110008C5110008C5110008C511000837
:10015000C5110008C5110008C5110008C511000827
:10016000C5110008C5110008C5110008C511000817
:10017000C5110008C5110008C511000800000000E5
:10018000C5110008C5110008C5110008C5110008F7
:10019000C5110008C5110008C5110008C5110008E7
:1001A0000000000000000000C5110008C511000893
:1001B000C5110008C5110008C5110008C5110008C7
:1001C000C5110008C511000800000000C511000895
:1001D000C5110008C5110008C5110008C5110008A7
:1001E000C5110008C5110008C5110008C511000897
:0801F00000000000C511000829
:1001F80010B5054C237833B9044B13B10448AFF359
:1002080000800123237010BD0C00002000000000B6
:100218002012000808B5034B1BB103490348AFF38C
:10022800008008BD00000000100000202012000817
:1002380053B94AB9002908BF00281CBF4FF0FF3145
:100248004FF0FF3000F072B9ADF1080C6DE904CE43
:1002580000F006F8DDF804E0DDE9022304B0704799
:100268002DE9F047089E04468846002B4BD18A4268
:10027800154667D9B2FA82F24AB1C2F1200701FAEB
:1002880002F320FA07F7954047EA030894404FEA3B
:10029800154E230CB8FBFEF71FFA85FC0EFB1788DA
:1002A80043EA084307FB0CF1994209D9EB1807F117
:1002B800FF3080F01B81994240F21881023F2B44A5
:1002C8005B1AA4B2B3FBFEF00EFB103344EA0344FE
:1002D80000FB0CFCA44509D92C1900F1FF3380F070
:1002E8000781A44540F2048102382C4440EA0740C3
:1002F800A4EB0C0400271EB1D4400023C6E9004338
:100308003946BDE8F0878B4209D9002E00F0EB8012
:100318000027C6E9000138463946BDE8F087B3FA38
:1003280083F7002F47D18B4202D3824200F2FA8032
:10033800841A61EB030301209846002EE0D0C6E939
:100348000048DDE702B9FFDEB2FA82F2002A40F087
:100358008F80491B4FEA154E1FFA85F80127B1FB1C
:10036800FEFC230C0EFB1C1143EA014308FB0CF1B5
:10037800994207D9EB180CF1FF3002D2994200F2EA
:10038800CD808446591AA3B2B1FBFEF00EFB1014BF
:1003980043EA044408FB00F8A04507D92C1900F1EA
:1003A800FF3302D2A04500F2B6801846A4EB080439
:1003B80040EA0C409FE7C7F1200CBB4022FA0CFE34
:1003C8004EEA030E01FA07F420FA0CF521FA0CF3B1
:1003D8004FEA1E482543B3FBF8F92C0C08FB1933E8
:1003E8001FFA8EFA44EA034309FB0AF49C4202FA14
:1003F80007F200FA07F10BD91EEB030309F1FF30EE
:1004080080F087809C4240F28480A9F102097344FD
:100418001B1BADB2B3FBF8F008FB103345EA0344ED
:1004280000FB0AFAA24508D91EEB040400F1FF33C9
:100438006BD2A24569D90238744440EA0940A0FB4E
:100448000289A4EB0A044C45C2464B4654D351D00A
:10045800002E69D0B1EB0A0564EB030404FA0CFC26
:10046800FD40FC404CEA0505C6E90054002747E773
:10047800C2F1200320FA03F7954001FA02F021FAAD
:1004880003F34FEA154E3843010CB3FBFEF71FFA8E
:1004980085F80EFB173341EA034107FB08F38B424B
:1004A80004FA02F407D9691807F1FF3C2FD28B42EE
:1004B8002DD9023F2944CB1A81B2B3FBFEF00EFBC3
:1004C800103341EA034100FB08F38B4207D969184E
:1004D80000F1FF3C17D28B4215D902382944C91ABA
:1004E80040EA07473BE73746304609E70746E7E66D
:1004F8001846FBE64145ABD2B8EB020A69EB0E029F
:1005080001381346A4E76046E9E7184695E76746C9
:10051800D1E781467CE702382C4447E7ACF1020C6E
:100528002B442FE7384608E73746E9E6704700BF0F
:1005380010B504460E4B18784FF47A73B3FBF0F3FA
:100548000C4A1068B0FBF3F000F08CF868B90F2C77
:1005580001D901200AE0002221464FF0FF3000F0C7
:100568004FF8034B5C60002000E0012010BD00BF85
:10057800000000200800002008B5032000F02EF835
:100588000020FFF7D5FF00F0A5FD002008BD000002
:10059800034A1168034B1B780B441360704700BF74
:1005A8002800002000000020014B1868704700BF99
:1005B8002800002038B50446FFF7F6FF0546B4F1D9
:1005C800FF3F02D0044B1B781C44FFF7EDFF401B94
:1005D800A042FAD338BD00BF000000200649CB680E
:1005E80023F4E0631B041B0C000200F4E0600343E7
:1005F800024A1A43CA60704700ED00E00000FA059D
:1006080030B4154BDB68C3F30223C3F10704042C91
:1006180028BF04241D1D062D14D9033B4FF0FF35B8
:1006280005FA04F421EA0401994005FA03F322EAE1
:1006380003031943002807DB0901C9B2074B195402
:1006480030BC70470023E9E700F00F000901C9B288
:10065800034B1954F4E700BF00ED00E000E400E0AC
:1006680014ED00E00138B0F1807F0AD2064B5860E3
:10067800064AF02182F823100020986007221A60A9
:1006880070470120704700BF10E000E000ED00E077
:1006980000230F2B00F2E280F0B482B039E0092287
:1006A80000E00022B2403A4302346D4E46F824205E
:1006B8006C4A1468EA4302EA04064F6817F4803F5C
:1006C80001D045EA0406674C2660646802EA04061D
:1006D8004F6817F4003F01D045EA0406614C666094
:1006E800A46802EA04064F6817F4801F01D045EA9F
:1006F80004065C4CA660E46822404E6816F4001FAD
:1007080001D045EA0402574CE26001330F2B00F296
:10071800A28001229A400C6804EA0205AA42F4D198
:100728004C68122C18BF022C10D1DE08083650F87D
:1007380026C003F00704A7000F24BC402CEA040CD1
:100748000C69BC4044EA0C0440F8264004685F0089
:100758000326BE40F64306EA040C4C6804F0030482
:10076800BC4044EA0C0404604C6804F1FF3C112CC2
:1007780018BFBCF1010F01D9122C11D1846806EA07
:10078800040CCC68BC4044EA0C048460446824EA45
:10079800020C4C68C4F300129A4042EA0C02426010
:1007A800C26816408A68BA403243C2604A6812F08A
:1007B800805FAAD02C4A546C44F480445464526C30
:1007C80002F480420192019A9C08A61C244A52F81D
:1007D800267003F0030296000F22B24027EA0207B0
:1007E800224A90423FF45DAF02F58062904222D0E7
:1007F80002F58062904220D002F5806290421ED0BD
:1008080002F5806290421CD002F5806290421AD0B4
:1008180002F58062904218D002F58062904216D0AC
:1008280002F58062904214D002F5806290423FF453
:1008380036AF0A2236E7012234E7022232E70322E2
:1008480030E704222EE705222CE706222AE70722B2
:1008580028E7082226E702B0F0BC7047704700BFBF
:1008680000380140003C01400038024000000240CE
:1008780012B909048161704781617047436931EA9F
:10088800030301D08161704709048161704700004A
:1008980010B582B01B4B1A6C42F080521A641B6C64
:1008A80003F080530193019B174A136843F4803384
:1008B8001360FFF779FE0446134B5B6813F4803F1F
:1008C80008D1FFF771FE001BB0F57A7FF4D9032039
:1008D80002B010BD0C4A136843F400331360FFF7ED
:1008E80063FE0446084B5B6813F4003F07D1FFF72B
:1008F8005BFE001BB0F57A7FF4D90320E8E70020FF
:10090800E6E700BF0038024000700040002800F011
:10091800DC8170B582B00446036813F0010F29D05A
:10092800A24B9B6803F00C03042B1AD09F4B9B68C7
:1009380003F00C03082B0FD06368B3F5803F40D059
:10094800002B54D1994B1A6822F480321A601A6825
:1009580022F480221A6039E0944B5B6813F4800F0C
:10096800EAD0924B1B6813F4003F03D06368002B56
:1009780000F0AD81236813F0020F75D08B4B9B6894
:1009880013F00C0F5ED0894B9B6803F00C03082B07
:1009980053D0E368002B00F08A80844A136843F040
:1009A80001031360FFF700FE0546804B1B6813F038
:1009B800020F73D1FFF7F8FD401B0228F5D9032079
:1009C80088E17A4A136843F48033136063682BB371
:1009D800FFF7EAFD0546754B1B6813F4003FC9D1C4
:1009E800FFF7E2FD401B6428F5D9032072E1B3F557
:1009F800A02F09D06D4B1A6822F480321A601A6849
:100A080022F480221A60E1E7684B1A6842F48022D7
:100A18001A601A6842F480321A60D7E7FFF7C4FDFB
:100A28000546624B1B6813F4003FA3D0FFF7BCFDDB
:100A3800401B6428F5D903204CE15C4B5B6813F438
:100A4800800FA6D1594B1B6813F0020F04D0E3683E
:100A5800012B01D001203DE1544A136823F0F8032B
:100A6800216943EAC1031360236813F0080F46D0D5
:100A7800636983B34D4A536F43F001035367FFF72C
:100A880093FD0546494B5B6F13F0020F37D1FFF713
:100A98008BFD401B0228F5D903201BE1434A13684C
:100AA80023F0F803216943EAC1031360DCE73F4AF6
:100AB800136823F001031360FFF776FD05463B4BEF
:100AC8001B6813F0020FCFD0FFF76EFD401B022802
:100AD800F5D90320FEE0354A536F23F0010353672D
:100AE800FFF762FD0546314B5B6F13F0020F06D02E
:100AF800FFF75AFD401B0228F5D90320EAE02368D6
:100B080013F0040F7ED0294B1B6C13F0805F1ED1AD
:100B1800264B1A6C42F080521A641B6C03F0805307
:100B28000193019B0125224B1B6813F4807F10D091
:100B3800A368012B21D0002B3CD11C4B1A6F22F04B
:100B480001021A671A6F22F004021A671AE00025D8
:100B5800E9E7174A136843F480731360FFF724FD2D
:100B68000646134B1B6813F4807FE1D1FFF71CFD89
:100B7800801B6428F5D90320ACE00C4A136F43F0BE
:100B880001031367A3685BB3FFF70EFD0646074B27
:100B98001B6F13F0020F34D1FFF706FD801B41F2E3
:100BA80088339842F3D9032094E000BF003802400C
:100BB80000700040052B09D0484B1A6F22F0010243
:100BC8001A671A6F22F004021A67DBE7434B1A6FA1
:100BD80042F004021A671A6F42F001021A67D1E75D
:100BE800FFF7E2FC06463D4B1B6F13F0020F08D0DF
:100BF800FFF7DAFC801B41F288339842F3D90320CF
:100C080068E0F5B9A369002B63D0344A926802F012
:100C18000C02082A60D0022B19D0304A136823F03E
:100C280080731360FFF7C0FC04462C4B1B6813F05D
:100C3800007F48D0FFF7B8FC001B0228F5D9032035
:100C480048E0264A136C23F080531364DAE7234AFA
:100C5800136823F080731360FFF7A6FC05461F4B4B
:100C68001B6813F0007F06D0FFF79EFC401B02288C
:100C7800F5D903202EE0E369226A1343626A43EA46
:100C88008213A26A5208013A43EA0243E26A43EA3B
:100C98000263226B43EA0273104A5360136843F0FD
:100CA80080731360FFF780FC04460C4B1B6813F03D
:100CB800007F06D1FFF778FC001B0228F5D9032036
:100CC80008E0002006E0002004E001207047012031
:100CD80000E0002002B070BD0120FBE700380240B0
:100CE800264B9B6803F00C03042B44D0082B01D03F
:100CF800234870472DE9F04B204B5A6802F03F0219
:100D08005B6813F4800F13D01C4B5968C1F388112A
:100D180000231C48A1FB0001FFF78AFA174B5B6808
:100D2800C3F3014301335B00B0FBF3F0BDE8F08B84
:100D3800124B5B68C3F388131E4600275C0100252D
:100D4800E41A65EB0705A90141EA9461A001001BBB
:100D580061EB0501CB0043EA5073C400A01943EBD3
:100D680007018B0243EA9053840220461946002368
:100D7800FFF75EFAD2E70348704700BF0038024029
:100D88000024F40080BA8C01002800F0A28070B51D
:100D98000446524B1B6803F00F038B420CD24F4A98
:100DA800136823F00F030B431360136803F00F035A
:100DB8008B4201D0012070BD236813F0020F17D0B9
:100DC80013F0040F04D0464A936843F4E053936049
:100DD800236813F0080F04D0414A936843F4604332
:100DE80093603F4A936823F0F003A068034393603D
:100DF8000D46236813F0010F31D06368012B20D012
:100E0800022B25D0364A126812F0020F63D03449FB
:100E18008A6822F0030213438B60FFF7C5FB06467E
:100E28002F4B9B6803F00C036268B3EB820F16D05C
:100E3800FFF7BAFB801B41F288339842F0D90320B0
:100E4800B9E7274A126812F4003FE0D10120B2E75F
:100E5800234A126812F0007FD9D10120ABE71F4B5B
:100E68001B6803F00F03AB420CD91C4A136823F02C
:100E78000F032B431360136803F00F03AB4201D039
:100E8800012098E7236813F0040F06D0144A9368EA
:100E980023F4E053E1680B439360236813F0080FD1
:100EA80007D00F4A936823F46043216943EAC103DA
:100EB8009360FFF715FF0A4B9B68C3F30313094AB6
:100EC800D35CD840084B18600020FFF731FB0020A6
:100ED80071E70120704701206DE700BF003C024028
:100EE80000380240381200080800002030B589B0E8
:100EF800002403940494059406940794134B1A6BE6
:100F080042F080021A631A6B02F080020192019A81
:100F18001A6B42F010021A631B6B03F01003029362
:100F2800029B0B4D22464FF478412846FFF7A0FC60
:100F38004FF478430393012304930594069403A97B
:100F48002846FFF7A5FB09B030BD00BF00380240B6
:100F58000010024030B595B03422002107A800F0F7
:100F680053F90024029403940494059406941C4BAA
:100F78001A6C42F080521A641B6C03F08053009381
:100F8800009B184B1A6842F440421A601B6803F42D
:100F980040430193019B012307934FF4A023089337
:100FA80002250D954FF480030E930D230F93D8233C
:100FB80010931195129507A8FFF7A8FCFFF768FC96
:100FC8000F230293039504944FF4A05305934FF411
:100FD80080530693072102A8FFF7D6FE15B030BD4F
:100FE800003802400070004038B5FFF7C5FAFFF737
:100FF800B1FFFFF77BFF00251DE0354C4FF4006182
:101008002046FFF73BFC4FF480512046FFF736FCA3
:101018004FF400512046FFF731FC4FF48041204641
:10102800FFF72CFC4FF400412046FFF727FC642013
:10103800FFF7C0FA0135092DDFDD254C01224FF4F9
:1010480000512046FFF714FC4FF49670FFF7B2FAF0
:1010580000224FF400512046FFF70AFC01224FF40A
:1010680080512046FFF704FC01224FF480412046BE
:10107800FFF7FEFB4FF49670FFF79CFA00224FF43F
:1010880080512046FFF7F4FB00224FF480412046B0
:10109800FFF7EEFB01224FF400612046FFF7E8FB63
:1010A80001224FF400412046FFF7E2FB4FF496700F
:1010B800FFF780FA00224FF400612046FFF7D8FBC3
:1010C80000224FF400412046FFF7D2FBB5E700BFEE
:1010D8000010024082B00A4B1A6C42F080521A6427
:1010E8001A6C02F080520092009A5A6C42F48042C4
:1010F8005A645B6C03F480430193019B02B0704710
:10110800003802407047FEE7FEE7FEE7FEE770475B
:101118007047704708B5FFF73BFA08BD10B40F4A8F
:10112800D2F8883043F47003C2F888300C4B196841
:1011380041F001011960002098601C6809492140AC
:10114800196009495960196821F480211960D8602B
:101158004FF0006393605DF8044B704700ED00E0CA
:1011680000380240FFFFF6FE10300024DFF834D0CC
:10117800002103E00C4B5B58435004310B480C4BE7
:1011880042189A42F6D30B4A02E0002342F8043B85
:10119800094B9A42F9D3FFF7C1FF00F011F8FFF7A6
:1011A80023FF70470000082060120008000000209C
:1011B8000C0000200C0000202C000020FEE700009E
:1011C80070B50D4E0D4CA41BA4100025A54209D1E5
:1011D8000B4E0C4C00F020F8A41BA4100025A542CF
:1011E80005D170BD56F8253098470135EEE756F819
:1011F800253098470135F2E75812000858120008C0
:10120800581200085C12000802440346934200D1B9
:10121800704703F8011BF9E7F8B500BFF8BC08BC34
:101228009E467047F8B500BFF8BC08BC9E4670479C
:10123800000000000000000001020304060708097E
:08124800000000000102030494
:0812500018F0FF7F010000000F
:041258001D0200086B
:04125C00F90100088C
:0C12600001000000100000000024F40059
:040000050800117569
:00000001FF
