:020000040800F2
:1000000000000220E94300082543000827430008B8
:10001000294300082B4300082D430008000000007E
:100020000000000000000000000000002F43000856
:100030003143000800000000334300083543000846
:10004000394400083944000839440008394400089C
:10005000394400083944000839440008394400088C
:10006000394400083944000839440008394400087C
:10007000394400083944000839440008394400086C
:10008000394400083944000839440008394400085C
:100090003D4300084D4300085D4300083944000813
:1000A000394400086D430008394400083944000809
:1000B000394400083944000839440008394400082C
:1000C000394400083944000839440008394400081C
:1000D000394400083944000839440008394400080C
:1000E00039440008394400083944000839440008FC
:1000F00039440008394400083944000839440008EC
:1001000039440008394400083944000839440008DB
:1001100039440008394400087D4300088D43000835
:1001200039440008394400083944000839440008BB
:1001300039440008000000000000000039440008B5
:10014000394400083944000839440008394400089B
:10015000394400083944000839440008394400088B
:10016000394400083944000839440008394400087B
:1001700039440008394400083944000800000000F0
:1001800000000000394400080000000000000000EA
:100190003944000800000000000000003944000855
:1001A00000000000000000000000000039440008CA
:1001B000394400083944000839440008394400082B
:0401C00039440008B6
:1001D00010B5054C237833B9044B13B10448AFF381
:1001E00000800123237010BD70000020000000007B
:1001F000BC4C000808B5034B1BB103490348AFF3DF
:10020000008008BD0000000074000020BC4C000805
:10021000034613F8012B002AFBD1181A0138704746
:1002200001F0FF01102A2BDB10F0070F08D010F8A7
:10023000013B013A8B422DD010F0070F42B3F6D1AB
:10024000F0B441EA012141EA014122F007047FF0C4
:1002500000070023F0E80256083C85EA010586EA1B
:10026000010685FA47F5A3FA87F586FA47F6A5FA57
:1002700087F68EB9EED1F0BC01F0FF0102F0070263
:1002800032B110F8013B013A83EA010313B1F8D10E
:100290000020704701387047002D06BF35460338EF
:1002A000073815F0010F07D1013015F4807F02BF28
:1002B000013015F4C03F0130F0BC0138704700BF79
:1002C00081F0004102E000BF83F0004330B54FEA07
:1002D00041044FEA430594EA050F08BF90EA020F74
:1002E0001FBF54EA000C55EA020C7FEA645C7FEA07
:1002F000655C00F0E2804FEA5454D4EB5555B8BF2A
:100300006D420CDD2C4480EA020281EA030382EA9A
:10031000000083EA010180EA020281EA0303362D2C
:1003200088BF30BD11F0004F4FEA01314FF4801CFF
:100330004CEA113102D0404261EB410113F0004F11
:100340004FEA03334CEA133302D0524263EB4303C8
:1003500094EA050F00F0A780A4F10104D5F1200E66
:100360000DDB02FA0EFC22FA05F2801841F10001C1
:1003700003FA0EF2801843FA05F359410EE0A5F195
:1003800020050EF1200E012A03FA0EFC28BF4CF0C6
:10039000020C43FA05F3C01851EBE37101F000457C
:1003A00007D54FF0000EDCF1000C7EEB00006EEB89
:1003B0000101B1F5801F1BD3B1F5001F0CD3490813
:1003C0005FEA30004FEA3C0C04F101044FEA44526A
:1003D00012F5800F80F09A80BCF1004F08BF5FEAF1
:1003E000500C50F1000041EB045141EA050130BDD1
:1003F0005FEA4C0C404141EB010111F4801FA4F174
:100400000104E9D191F0000F04BF01460020B1FAC8
:1004100081F308BF2033A3F10B03B3F120020CDA00
:100420000C3208DD02F1140CC2F10C0201FA0CF0DE
:1004300021FA02F10CE002F11402D8BFC2F1200C43
:1004400001FA02F120FA0CFCDCBF41EA0C019040F9
:10045000E41AA2BF01EB0451294330BD6FEA040442
:100460001F3C1CDA0C340EDC04F11404C4F120022D
:1004700020FA04F001FA02F340EA030021FA04F33F
:1004800045EA030130BDC4F10C04C4F1200220FA96
:1004900002F001FA04F340EA0300294630BD21FAD4
:1004A00004F0294630BD94F0000F83F4801306BF9A
:1004B00081F480110134013D4EE77FEA645C18BF8E
:1004C0007FEA655C29D094EA050F08BF90EA020F25
:1004D00005D054EA000C04BF1946104630BD91EA1D
:1004E000030F1EBF0021002030BD5FEA545C05D120
:1004F0004000494128BF41F0004130BD14F580045F
:100500003CBF01F5801130BD01F0004545F0FE41D2
:1005100041F470014FF0000030BD7FEA645C1ABF07
:10052000194610467FEA655C1CBF0B46024650EA3E
:10053000013406BF52EA033591EA030F41F400216A
:1005400030BD00BF90F0000F04BF0021704730B5F0
:100550004FF4806404F132044FF000054FF00001C5
:1005600050E700BF90F0000F04BF0021704730B586
:100570004FF4806404F1320410F0004548BF40425B
:100580004FF000013EE700BF42004FEAE2014FEAB0
:1005900031014FEA02701FBF12F07F4393F07F4F8B
:1005A00081F06051704732F07F4208BF704793F08E
:1005B0007F4F04BF41F40021704730B54FF46074A1
:1005C00001F0004521F000411CE700BF50EA0102A4
:1005D00008BF704730B54FF000050AE050EA01024D
:1005E00008BF704730B511F0004502D5404261EBBD
:1005F00041014FF4806404F132045FEA915C3FF4FE
:10060000D8AE4FF003025FEADC0C18BF03325FEA9A
:10061000DC0C18BF033202EBDC02C2F1200300FA4B
:1006200003FC20FA02F001FA03FE40EA0E0021FA70
:1006300002F11444BDE600BF70B54FF0FF0C4CF45E
:10064000E06C1CEA11541DBF1CEA135594EA0C0F10
:1006500095EA0C0F00F0DEF82C4481EA030621EA4B
:100660004C5123EA4C5350EA013518BF52EA033586
:1006700041F4801143F4801338D0A0FB02CE4FF038
:100680000005E1FB02E506F00042E0FB03E54FF068
:100690000006E1FB03569CF0000F18BF4EF0010E60
:1006A000A4F1FF04B6F5007F64F5407404D25FEA5C
:1006B0004E0E6D4146EB060642EAC62141EA55510F
:1006C0004FEAC52040EA5E504FEACE2EB4F1FD0C51
:1006D00088BFBCF5E06F1ED8BEF1004F08BF5FEACF
:1006E000500E50F1000041EB045170BD06F0004681
:1006F00046EA010140EA020081EA0301B4EB5C042E
:10070000C2BFD4EB0C0541EA045170BD41F4801125
:100710004FF0000E013C00F3AB8014F1360FDEBF4A
:10072000002001F0004170BDC4F10004203C35DA26
:100730000C341BDC04F11404C4F1200500FA05F3A9
:1007400020FA04F001FA05F240EA020001F000424A
:1007500021F0004110EBD37021FA04F642EB0601C0
:100760005EEA430E08BF20EAD37070BDC4F10C04EA
:10077000C4F1200500FA04F320FA05F001FA04F2AE
:1007800040EA020001F0004110EBD37041F100019A
:100790005EEA430E08BF20EAD37070BDC4F12005A5
:1007A00000FA05F24EEA020E20FA04F301FA05F20D
:1007B00043EA020321FA04F001F0004121FA04F2B5
:1007C00020EA020000EBD3705EEA430E08BF20EA85
:1007D000D37070BD94F0000F0FD101F000464000BF
:1007E00041EB010111F4801F08BF013CF7D041EA41
:1007F000060195F0000F18BF704703F00046520045
:1008000043EB030313F4801F08BF013DF7D043EA15
:100810000603704794EA0C0F0CEA135518BF95EACB
:100820000C0F0CD050EA410618BF52EA4306D1D152
:1008300081EA030101F000414FF0000070BD50EA71
:10084000410606BF1046194652EA430619D094EAFB
:100850000C0F02D150EA013613D195EA0C0F05D1E5
:1008600052EA03361CBF104619460AD181EA030139
:1008700001F0004141F0FE4141F470014FF00000F1
:1008800070BD41F0FE4141F4780170BD70B54FF08C
:10089000FF0C4CF4E06C1CEA11541DBF1CEA13550C
:1008A00094EA0C0F95EA0C0F00F0A7F8A4EB0504EE
:1008B00081EA030E52EA03354FEA013100F08880E5
:1008C0004FEA03334FF0805545EA131343EA1263AE
:1008D0004FEA022245EA111545EA10654FEA002663
:1008E0000EF000419D4208BF964244F1FD0404F51C
:1008F000407402D25B084FEA3202B61A65EB030578
:100900005B084FEA32024FF480104FF4002CB6EB34
:10091000020E75EB030E22BFB61A754640EA0C00B4
:100920005B084FEA3202B6EB020E75EB030E22BFF4
:10093000B61A754640EA5C005B084FEA3202B6EB35
:10094000020E75EB030E22BFB61A754640EA9C00F4
:100950005B084FEA3202B6EB020E75EB030E22BFC4
:10096000B61A754640EADC0055EA060E18D04FEA82
:10097000051545EA16754FEA06164FEAC30343EA22
:1009800052734FEAC2025FEA1C1CC0D111F4801FEF
:100990000BD141EA00014FF000004FF0004CB6E7E8
:1009A00011F4801F04BF01430020B4F1FD0C88BF87
:1009B000BCF5E06F3FF6AFAEB5EB030C04BFB6EB92
:1009C000020C5FEA500C50F1000041EB045170BD85
:1009D0000EF0004E4EEA113114EB5C04C2BFD4EBB2
:1009E0000C0541EA045170BD41F480114FF0000E36
:1009F000013C90E645EA060E8DE60CEA135594EAB2
:100A00000C0F08BF95EA0C0F3FF43BAF94EA0C0FB4
:100A10000AD150EA01347FF434AF95EA0C0F7FF429
:100A200025AF104619462CE795EA0C0F06D152EA7D
:100A300003353FF4FDAE1046194622E750EA410661
:100A400018BF52EA43067FF4C5AE50EA41047FF472
:100A50000DAF52EA43057FF4EBAE12E74FF0FF3CD7
:100A600006E000BF4FF0010C02E000BF4FF0010CA8
:100A70004DF804CD4FEA410C7FEA6C5C4FEA430C21
:100A800018BF7FEA6C5C1BD001B050EA410C0CBF70
:100A900052EA430C91EA030F02BF90EA020F0020D2
:100AA000704710F1000F91EA030F58BF994208BF39
:100AB00090422CBFD8176FEAE37040F001007047F6
:100AC0004FEA410C7FEA6C5C02D150EA013C07D14D
:100AD0004FEA430C7FEA6C5CD6D152EA033CD3D098
:100AE0005DF8040B704700BF8446104662468C4692
:100AF0001946634600E000BF01B5FFF7B7FF0028C5
:100B000048BF10F1000F01BD4DF808EDFFF7F4FFED
:100B10000CBF012000205DF808FB00BF4DF808ED78
:100B2000FFF7EAFF34BF012000205DF808FB00BF9B
:100B30004DF808EDFFF7E0FF94BF012000205DF8BD
:100B400008FB00BF4DF808EDFFF7CEFF94BF012072
:100B500000205DF808FB00BF4DF808EDFFF7C4FF6B
:100B600034BF012000205DF808FB00BF4FEA4102BE
:100B700012F5001215D211D56FF47873B3EB6252EF
:100B800012D94FEAC12343F0004343EA505311F016
:100B9000004F23FA02F018BF404270474FF00000A8
:100BA000704750EA013005D111F0004008BF6FF0E6
:100BB000004070474FF00000704700BF4A0011D25C
:100BC00012F5001211D20DD56FF47873B3EB6252A7
:100BD0000ED44FEAC12343F0004343EA505323FAB3
:100BE00002F070474FF00000704750EA013002D128
:100BF0004FF0FF3070474FF00000704753B94AB9CB
:100C0000002908BF00281CBF4FF0FF314FF0FF3014
:100C100000F072B9ADF1080C6DE904CE00F006F8F1
:100C2000DDF804E0DDE9022304B070472DE9F04768
:100C3000089E04468846002B4BD18A42154667D948
:100C4000B2FA82F24AB1C2F1200701FA02F320FAA5
:100C500007F7954047EA030894404FEA154E230CE6
:100C6000B8FBFEF71FFA85FC0EFB178843EA084322
:100C700007FB0CF1994209D9EB1807F1FF3080F01E
:100C80001B81994240F21881023F2B445B1AA4B2A7
:100C9000B3FBFEF00EFB103344EA034400FB0CFCF4
:100CA000A44509D92C1900F1FF3380F00781A44530
:100CB00040F2048102382C4440EA0740A4EB0C04C3
:100CC00000271EB1D4400023C6E900433946BDE8E1
:100CD000F0878B4209D9002E00F0EB800027C6E98F
:100CE000000138463946BDE8F087B3FA83F7002F94
:100CF00047D18B4202D3824200F2FA80841A61EB20
:100D0000030301209846002EE0D0C6E90048DDE745
:100D100002B9FFDEB2FA82F2002A40F08F80491B4E
:100D20004FEA154E1FFA85F80127B1FBFEFC230C94
:100D30000EFB1C1143EA014308FB0CF1994207D951
:100D4000EB180CF1FF3002D2994200F2CD808446BC
:100D5000591AA3B2B1FBFEF00EFB101443EA04448F
:100D600008FB00F8A04507D92C1900F1FF3302D287
:100D7000A04500F2B6801846A4EB080440EA0C40F7
:100D80009FE7C7F1200CBB4022FA0CFE4EEA030E8F
:100D900001FA07F420FA0CF521FA0CF34FEA1E4889
:100DA0002543B3FBF8F92C0C08FB19331FFA8EFA14
:100DB00044EA034309FB0AF49C4202FA07F200FAF0
:100DC00007F10BD91EEB030309F1FF3080F0878098
:100DD0009C4240F28480A9F1020973441B1BADB20E
:100DE000B3FBF8F008FB103345EA034400FB0AFAB2
:100DF000A24508D91EEB040400F1FF336BD2A245D3
:100E000069D90238744440EA0940A0FB0289A4EB86
:100E10000A044C45C2464B4654D351D0002E69D0EB
:100E2000B1EB0A0564EB030404FA0CFCFD40FC4042
:100E30004CEA0505C6E90054002747E7C2F1200344
:100E400020FA03F7954001FA02F021FA03F34FEA82
:100E5000154E3843010CB3FBFEF71FFA85F80EFB65
:100E6000173341EA034107FB08F38B4204FA02F40B
:100E700007D9691807F1FF3C2FD28B422DD9023FC9
:100E80002944CB1A81B2B3FBFEF00EFB103341EACA
:100E9000034100FB08F38B4207D9691800F1FF3CBE
:100EA00017D28B4215D902382944C91A40EA07479C
:100EB0003BE73746304609E70746E7E61846FBE6D4
:100EC0004145ABD2B8EB020A69EB0E02013813467A
:100ED000A4E76046E9E7184695E76746D1E781460B
:100EE0007CE702382C4447E7ACF1020C2B442FE797
:100EF000384608E73746E9E6704700BF10B50446B4
:100F00000E4B18784FF47A73B3FBF0F30C4A106869
:100F1000B0FBF3F000F0ACFC68B90F2C01D9012054
:100F20000AE0002221464FF0FF3000F05FFC034B47
:100F30005C60002000E0012010BD00BF0000002028
:100F40000800002008B50B4B1A6842F400721A60C2
:100F50001A6842F480621A601A6842F480721A6059
:100F6000032000F031FC0020FFF7C8FF03F006F972
:100F7000002008BD003C0240034A1168034B1B7867
:100F80000B441360704700BF980000200000002051
:100F9000014B1868704700BF9800002038B5044620
:100FA000FFF7F6FF0546B4F1FF3F02D0044B1B7874
:100FB0001C44FFF7EDFF401BA042FAD338BD00BF31
:100FC00000000020002800F0A18038B5044690F809
:100FD0002030D3B12268136823F002031360FFF7B7
:100FE000D7FF054623685A6812F0020F10D0FFF7AA
:100FF000CFFF401B0A28F5D9636A43F400336362CC
:10100000052384F82030012038BD03F0D3F8E1E750
:101010001A6842F001021A60FFF7BAFF054623681A
:101020005A6812F0010F0DD1FFF7B2FF401B0A28DA
:10103000F5D9636A43F400336362052384F82030F2
:101040000120E1E7227E012A3DD01A6822F08002C9
:101050001A60637E012B3BD02268136823F04003A3
:101060001360A37E012B39D02268136823F020037C
:101070001360E37E012B37D02268136843F010031E
:101080001360237F012B35D02268136823F00803F7
:101090001360637F012B33D02268136823F00403AD
:1010A0001360A368E2681343226913436269134320
:1010B0006268013A21681343CB610020606201231A
:1010C00084F82030A0E71A6842F080021A60C0E776
:1010D0002268136843F040031360C2E72268136874
:1010E00043F020031360C4E72268136823F0100361
:1010F0001360C6E72268136843F008031360C8E76B
:101100002268136843F004031360CAE701207047A4
:1011100090F82030013BDBB2012B05D9436A43F440
:10112000802343620120704770B4434BD3F8002200
:1011300042F00102C3F80022D3F8002222F47C52CC
:10114000C3F80022D3F80022486A42EA0022C3F81A
:1011500000224A6902F01F02012000FA02F2D3F8CD
:101160001C42D0430440C3F81C42CB69B3B9324B94
:10117000D3F80C420440C3F80C42CE688D884C6909
:1011800045EA0645483443F834508E680C884D696A
:1011900044EA0644483503EBC5035C60CB69012B88
:1011A0001DD08B69002B32D1234CD4F8043203407C
:1011B000C4F804320B698BBB1F4BD3F81442204098
:1011C000C3F814020B6A012B2FD01B4AD2F800324D
:1011D00023F00103C2F80032002070BC7047164BA8
:1011E000D3F80C421443C3F80C420E688D884C6946
:1011F00045EA0645483443F834508E688C894D6979
:1012000044EA0644483503EBC5035C60C9E70A4C71
:10121000D4F804321343C4F80432CBE70648D0F8BC
:1012200014321343C0F81432CCE70349D1F81C320E
:101230001A43C1F81C22C8E70064004038B590F892
:101240002030DBB2012B05D0436A43F40023436214
:10125000012038BD0446022380F82030026813685C
:1012600023F001031360FFF793FE054623685B68D4
:1012700013F0010F0DD0FFF78BFE401B0A28F5D9A4
:10128000636A43F400336362052384F8203001204D
:10129000DFE700206062DCE770B490F8204005686A
:1012A000AD68013CE4B2012C06D9436A43F48023C3
:1012B0004362012070BC704715F0E05F5BD0C5F35E
:1012C0000165022D3ED80124AC401C608B68002BC8
:1012D0003ED10E68CB68046843EA465605F1180310
:1012E0001B01E65003680C6905F1180603EB0613B1
:1012F0005C600B7D012B36D0D17993791B0443EAD6
:101300000163517943EA01231479016823432C01D5
:101310002144C1F88C31D17893781B0443EA0163EE
:10132000517843EA0123117802680B432244C2F842
:101330008831026818352D01535943F00103535188
:101340000020B7E7436A43F4000343620120B1E79A
:101350004C6843EAC403CC680668234305F11804CB
:1013600024013351BEE7036803EB0613596841F4C7
:1013700080715960C0E7436A43F40013436201205F
:1013800098E790F82030013BDBB2012B01D9002017
:10139000704703689A6812F0806F0BD100209A683A
:1013A00012F0006F00D001309B6813F0805FEFD027
:1013B000013070470120F2E790F82030013BDBB2AA
:1013C000012B01D90020704703689B68890631EA28
:1013D000030301D0012070470020704730B490F81B
:1013E0002040013CE4B2012C06D9436A43F4802337
:1013F0004362012030BC704700296FD10468E46863
:1014000014F0030F64D0056801F11B0424012C596A
:1014100004F004049460002C6BD1056801F11B04F6
:1014200024012C59640D1460056801F11B0424018A
:101430002D59C5F34005D560056825446D6805F054
:101440000F051561056825446D68C5F3072595618D
:1014500005682C446468240C546104680A0114442F
:10146000D4F8B8411C7004681444D4F8B841C4F3EB
:1014700007245C7004681444D4F8B841C4F30744EA
:101480009C7004681444D4F8B841240EDC700468DD
:101490001444D4F8BC411C7104681444D4F8BC4111
:1014A000C4F307245C7104681444D4F8BC41C4F349
:1014B00007449C7104682244D2F8BC21120EDA71F0
:1014C000F9B90268D36843F02003D360002091E7A4
:1014D000436A43F40013436201208BE704682469E4
:1014E00014F0030F8FD1436A43F4001343620120C9
:1014F00080E7056801F11B0424012C59E4085460BD
:1015000092E70268136943F020031361002071E73A
:1015100090F82030013BDBB2012B01D9002070474D
:1015200021B10368186900F0030070470368D868A8
:1015300000F00300704790F82030013BDBB2012B34
:1015400005D9436A43F4802343620120704702684F
:1015500053691943516100207047704770477047C5
:1015600070477047704770477047704770477047C3
:101570002DE9F84F054603685C695F689E68D3F8FB
:101580000C90D3F81080D3F818A014F0010F5AD0A3
:1015900016F0010F17D001229A6016F0020F08D141
:1015A00016F0040F30D116F0080F07D04FF4805B0F
:1015B0000BE0FFF7D2FF4FF0000B06E0FFF7D0FF84
:1015C0004FF0000B01E04FF0000B16F4807F0BD0C2
:1015D0002B684FF480729A6016F4007F17D116F4CE
:1015E000806F18D04BF4005B16F4803F2DD02B6831
:1015F0004FF480329A6016F4003F16D116F4802F13
:1016000017D04BF4004B20E04FF4006BDDE7284689
:10161000FFF7A4FFE8E716F4006F02D04BF4804B0D
:10162000E2E72846FFF79DFFDEE72846FFF797FF32
:101630000BE016F4002F02D04BF4803B05E0284667
:10164000FFF790FF01E04FF0000B14F0080F07D0F8
:1016500019F0100F04D04BF4007B2B681022DA60D5
:1016600014F0040F02D019F0080F60D114F0020F2B
:1016700004D02B68DB6813F0030F5FD114F0400F28
:1016800007D018F0100F04D04BF4806B2B68102299
:101690001A6114F0200F02D018F0080F52D114F084
:1016A000100F04D02B681B6913F0030F51D114F4F1
:1016B000003F02D017F0100F4FD114F4803F02D03A
:1016C00017F0080F50D114F4004F67D017F0040F33
:1016D00061D014F4807F04D01AF0010F01D04BF0D8
:1016E000010B14F4007F04D01AF0020F01D04BF06C
:1016F000020B14F4806F04D01AF0040F01D04BF0E9
:10170000040B14F4006F46D01AF0700A43D0BAF1FB
:10171000300F48D02FD9BAF1500F47D0BAF1600F2F
:1017200047D0BAF1400F31D14BF0400B2EE02B687F
:101730000822DA60284601F07BFE97E72846FFF78B
:1017400012FF9BE72B6808221A61284601F03AFF36
:10175000A5E72846FFF708FFA9E72B6810225A6083
:101760002846FFF702FFA8E72B6808225A602846A0
:10177000FFF7FCFEA7E7BAF1100F05D0BAF1200F72
:1017800004D14BF0100B01E04BF0080B2A68936971
:1017900023F0700393612B6804225A60BBF1000FA1
:1017A0000AD1BDE8F88F4BF0200BEFE74BF0800B30
:1017B000ECE74BF4807BE9E76B6A43EA0B036B626F
:1017C0002846FFF7D4FEECE7074AD36823F4E0632A
:1017D0001B041B0C000200F4E060184340F0BF60E3
:1017E00040F40030D060704700ED00E030B4174B9B
:1017F000DB68C3F30223C3F10704042C28BF0424CD
:101800001D1D062D18D9033B4FF0FF3505FA04F4D2
:1018100021EA0401994005FA03F322EA030319437C
:1018200000280BDB0901C9B200F1604000F56140FE
:1018300080F8001330BC70470023E5E700F00F008C
:101840000901C9B2024B1954F4E700BF00ED00E0F2
:1018500014ED00E0002807DB00F01F02400901231F
:101860009340024A42F82030704700BF00E100E098
:101870000138B0F1807F0AD2064B5860064AF02149
:1018800082F823100020986007221A607047012018
:10189000704700BF10E000E000ED00E000230F2BD8
:1018A00000F2D180F0B482B039E0062200E00022DC
:1018B000B2403A430234644E46F82420634A146826
:1018C000EA4302EA04064F6817F4803F01D045EA74
:1018D00004065E4C2660646802EA04064F6817F44A
:1018E000003F01D045EA0406584C6660A46802EA4D
:1018F00004064F6817F4801F01D045EA0406534CD4
:10190000A660E46822404E6816F4001F01D045EA44
:1019100004024E4CE26001330F2B00F29180012251
:101920009A400C6804EA0205AA42F4D14C68022CE1
:1019300001D0122C10D1DE08083650F826C003F072
:101940000704A7000F24BC402CEA040C0C69BC401F
:1019500044EA0C0440F8264004685F000326BE40B9
:10196000F64306EA040C4C6804F00304BC4044EA65
:101970000C0404604C6804F1FF3CBCF1010F03D976
:10198000112C01D0122C10D1846806EA040CCC680A
:10199000BC4044EA0C048460446824EA02024C68B7
:1019A000C4F300149C4014434460C26816408A6823
:1019B000BA403243C2604A6812F0805FABD0002266
:1019C0000192234A546C44F480445464526C02F4EF
:1019D00080420192019A9C08A61C1B4A52F826706C
:1019E00003F0030296000F22B24027EA0207194AC9
:1019F00090423FF45CAF02F58062904216D002F54F
:101A00008062904214D002F58062904212D002F5BA
:101A10008062904210D002F5806290420ED002F5B2
:101A2000806290423FF441AF072241E701223FE745
:101A300002223DE703223BE7042239E7052237E78C
:101A400002B0F0BC7047704700380140003C0140D4
:101A500000380240000002400369194201D1002011
:101A600070470120704712B9090481617047816194
:101A700070470000002800F09D8070B504464F4B71
:101A80001B6803F00F038B4209D2CBB24B4A137091
:101A9000136803F00F038B4201D0012070BD23684F
:101AA00013F0020F17D013F0040F04D0444A9368C8
:101AB00043F4E0539360236813F0080F04D0404AC6
:101AC000936843F4604393603D4A936823F0F003C6
:101AD000A068034393600D46236813F0010F32D0D2
:101AE0006368012B21D09A1E012A25D9344A126835
:101AF00012F0020F60D032498A6822F003021343C9
:101B00008B60FFF745FA06462D4B9B6803F00C03EC
:101B10006268B3EB820F16D0FFF73AFA801B41F2EE
:101B200088339842F0D90320B8E7254A126812F4A6
:101B3000003FE0D10120B1E7214A126812F0007F96
:101B4000D9D10120AAE71D4B1B6803F00F03AB425C
:101B500009D9EAB2194B1A701B6803F00F03AB42A4
:101B600001D001209AE7236813F0040F06D0144A2D
:101B7000936823F4E053E1680B439360236813F008
:101B8000080F07D00E4A936823F46043216943EAA3
:101B9000C103936000F040F8094B9B68C3F3031343
:101BA000084AD35CD840084B18600020FFF7A6F91C
:101BB000002073E70120704701206FE7003C0240DE
:101BC00000380240244D000808000020014B18682E
:101BD000704700BF0800002008B5FFF7F7FF044B6F
:101BE0009B68C3F38223034AD35CD84008BD00BF7F
:101BF00000380240344D000808B5FFF7E7FF044BFA
:101C00009B68C3F34233034AD35CD84008BD00BF8E
:101C100000380240344D00082DE9F04B5C4B9B68C6
:101C200003F00C03082B07D00C2B5BD0042B00F027
:101C3000AD805848BDE8F08B554B5A6802F03F0222
:101C40005B6813F4800F2AD0514B5B68C3F3881391
:101C50001E4600275C010025E41A65EB0705A90173
:101C600041EA9461A001001B61EB0501CB0043EA4E
:101C70005073C400A01943EB07014B0243EAD05351
:101C80004402204619460023FEF7B8FF404B5B682C
:101C9000C3F3014301335B00B0FBF3F0CAE73C4BF5
:101CA0005B68C3F388131E4600275C010025E41A15
:101CB00065EB0705A90141EA9461A001001B61EBF6
:101CC0000501CB0043EA5073C400A01943EB0701A0
:101CD0008B0243EA90538402204619460023FEF704
:101CE0008DFFD3E72A4B5A6802F03F025B6813F47A
:101CF000800F28D0264B5B68C3F388131E4600274D
:101D00005C010025E41A65EB0705A90141EA94612D
:101D1000A001001B61EB0501CB0043EA5073C40036
:101D2000A01943EB07014B0243EAD053440220467B
:101D300019460023FEF762FF154B5B68C3F302737D
:101D4000B0FBF3F076E7124B5B68C3F388131E46D3
:101D500000275C010025E41A65EB0705A90141EAAB
:101D60009461A001001B61EB0501CB0043EA5073B5
:101D7000C400A01943EB07018B0243EA905384028D
:101D8000204619460023FEF739FFD5E7024851E700
:101D9000003802400024F40000127A0070B582B0CE
:101DA0000446036813F0010F41D0A64B9B6803F073
:101DB0000C03042B32D0A34B9B6803F00C03082BBD
:101DC00027D0A04B9B6803F00C030C2B59D0636801
:101DD000B3F5803F5BD0B3F5A02F5ED0994B1A6866
:101DE00022F480321A601A6822F480221A60636832
:101DF000002B5CD0FFF7CCF80546924B1B6813F420
:101E0000003F14D1FFF7C4F8401B6428F5D9032024
:101E10009DE18C4B5B6813F4800FD2D0894B1B681B
:101E200013F4003F03D06368002B00F08D8123681A
:101E300013F0020F67D0834B9B6813F00C0F4AD04E
:101E4000804B9B6803F00C03082B3FD07D4B9B68B5
:101E500003F00C030C2B48D0E368002B74D07A4BB2
:101E600001221A60FFF794F80546764B1B6813F0C1
:101E7000020F60D1FFF78CF8401B0228F5D9032030
:101E800065E1704B5B6813F4800FA0D0C6E76D4A24
:101E9000136843F480331360A9E76A4B1A6842F46D
:101EA00080221A601A6842F480321A609FE7FFF7B6
:101EB0006FF80546634B1B6813F4003FB7D0FFF77C
:101EC00067F8401B6428F5D9032040E15D4B5B684F
:101ED00013F4800FBAD15B4B1B6813F0020F0AD0CA
:101EE000E368012B07D0012031E1564B5B6813F406
:101EF000800FB1D1EFE7534A136823F0F80321694B
:101F000043EAC1031360236813F0080F40D06369EC
:101F100063B34E4B01221A60FFF73AF80546494B6E
:101F20005B6F13F0020F33D1FFF732F8401B02282A
:101F3000F5D903200BE1434A136823F0F803216924
:101F400043EAC1031360DEE73F4B00221A60FFF74C
:101F50001FF805463B4B1B6813F0020FD3D0FFF769
:101F600017F8401B0228F5D90320F0E0374B002278
:101F70001A60FFF70DF80546324B5B6F13F0020F46
:101F800006D0FFF705F8401B0228F5D90320DEE054
:101F9000236813F0040F79D02A4B1B6C13F0805F79
:101FA00033D100230193274B1A6C42F080521A64FC
:101FB0001B6C03F080530193019B0125244B1B688C
:101FC00013F4807F23D0A368012B34D0052B41D09C
:101FD0001C4B1A6F22F001021A671A6F22F00402DA
:101FE0001A67A368002B3FD0FEF7D2FF0646154BB9
:101FF0001B6F13F0020F48D1FEF7CAFF801B41F29E
:1020000088339842F3D90320A1E00025D6E7104A8F
:10201000136843F480731360FEF7BAFF06460C4B57
:102020001B6813F4807FCED1FEF7B2FF801B02281D
:10203000F5D903208BE0034A136F43F001031367C4
:10204000CFE700BF0038024000004742800E474201
:1020500000700040404B1A6F42F004021A671A6F7A
:1020600042F001021A67BCE7FEF792FF06463A4BC0
:102070001B6F13F0020F08D0FEF78AFF801B41F29E
:1020800088339842F3D9032061E0E5B9A369002BB6
:102090005CD0314A926802F00C02082A59D0022B17
:1020A00017D02E4B00221A60FEF772FF04462A4B0F
:1020B0001B6813F0007F45D0FEF76AFF001B022863
:1020C000F5D9032043E0244A136C23F080531364B2
:1020D000DCE7224B00221A60FEF75AFF05461E4B32
:1020E0001B6813F0007F06D0FEF752FF401B02284A
:1020F000F5D903202BE0E369226A1343626A43EABD
:102100008213A26A5208013A43EA0243E26A43EAAE
:102110000263226B43EA02730F4A53600F4B0122A2
:102120001A60FEF735FF04460B4B1B6813F0007F67
:1021300006D1FEF72DFF001B0228F5D9032006E08B
:10214000002004E0002002E0012000E0002002B0B6
:1021500070BD0120FBE700BF00380240600047422D
:10216000022380F83D300268936803F00703062BD2
:1021700003D0136843F001031360012380F83D305E
:10218000002070470268D36843F00103D3600268FF
:10219000936803F00703062B03D0136843F0010391
:1021A000136000207047704770477047704710B544
:1021B000044603681A6912F0020F11D0DA6812F0AF
:1021C000020F0DD06FF002021A610123037703683A
:1021D0009B6913F0030F70D0FFF7E6FF002323770E
:1021E00023681A6912F0040F12D0DA6812F0040F93
:1021F0000ED06FF004021A610223237723689B69D3
:1022000013F4407F5FD02046FFF7CEFF00232377F3
:1022100023681A6912F0080F12D0DA6812F0080F5A
:102220000ED06FF008021A61042323772368DB695C
:1022300013F0030F4ED02046FFF7B6FF002323779D
:1022400023681A6912F0100F12D0DA6812F0100F1A
:102250000ED06FF010021A61082323772368DB6920
:1022600013F4407F3DD02046FFF79EFF00232377E5
:1022700023681A6912F0010F03D0DA6812F0010F17
:1022800036D123681A6912F0800F03D0DA6812F091
:10229000800F34D123681A6912F0400F03D0DA6836
:1022A00012F0400F32D123681A6912F0200F03D0C8
:1022B000DA6812F0200F30D110BDFFF774FF20460E
:1022C000FFF773FF8AE72046FFF76DFF2046FFF711
:1022D0006CFF9BE72046FFF766FF2046FFF765FF90
:1022E000ACE72046FFF75FFF2046FFF75EFFBDE744
:1022F0006FF001021A61204600F0D8FBC1E76FF0D1
:1023000080021A61204600F0B0F8C3E76FF0400287
:102310001A612046FFF74AFFC5E76FF020021A61F5
:10232000204600F0A1F8C7E70368304A904212D077
:10233000B0F1804F0FD0A2F57C4290420BD002F555
:102340008062904207D002F58062904203D002F58D
:102350007842904203D123F070034A681343234A22
:1023600090422AD0B0F1804F27D0A2F57C42904213
:1023700023D002F5806290421FD002F58062904225
:102380001BD002F57842904217D002F5705290426D
:1023900013D002F5806290420FD002F58062904225
:1023A0000BD0A2F59832904207D002F5806290429D
:1023B00003D002F58062904203D123F44073CA68CF
:1023C000134323F080034A69134303608B68C3629D
:1023D0000B688362054B984203D003F580639842F3
:1023E00001D10B6903630123436170470000014081
:1023F000A8B110B5044690F83D305BB1022384F8D3
:102400003D30211D2068FFF78FFF012384F83D3008
:10241000002010BD80F83C3001F004FFEEE7012001
:10242000704790F83C30012B1CD070B4012680F826
:102430003C60022380F83D3002685568936825F0BF
:1024400070050C682C4323F080054B682B435460C7
:102450000268936080F83D60002380F83C301846A5
:1024600070BC704702207047704770472DE9F843F1
:1024700004460268136923F44053C1680B43136197
:1024800083680269134342691343C2691A430168AE
:10249000CB6823F4164323F00C031343CB6002688C
:1024A000536923F4407381690B435361C369B3F5E6
:1024B000004F60D00368B84A934200F0148102F5DF
:1024C0008062934200F00F81FFF786FB00EB8000F3
:1024D00000EB80006568AD00B0FBF5F5AF4FA7FBE2
:1024E00005356D092E01FFF777FB00EB800000EB4F
:1024F00080006568AD00B0FBF5F9FFF76DFB00EB00
:10250000800000EB80006568AD00B0FBF5F5A7FB2F
:1025100005356D094FF0640808FB15952D0132351E
:10252000A7FB05356D0905F0F0053544FFF754FBB1
:1025300000EB800000EB80006668B600B0FBF6F6AA
:10254000FFF74AFB00EB800000EB800063689B0014
:10255000B0FBF3F0A7FB0030400908FB10684FEA1E
:10256000081808F13208A7FB0837C7F34317236898
:102570002F449F600DE10368874A93425BD002F5C8
:102580008062934257D0FFF727FB00EB800000EBFF
:10259000800065686D00B0FBF5F5804FA7FB053541
:1025A0006D092E01FFF718FB00EB800000EB8000A7
:1025B00065686D00B0FBF5F9FFF70EFB00EB8000DE
:1025C00000EB800065686D00B0FBF5F5A7FB0535F5
:1025D0006D094FF0640808FB1595ED003235A7FB37
:1025E00005356D096D0005F4F8753544FFF7F4FA0B
:1025F00000EB800000EB800066687600B0FBF6F62A
:10260000FFF7EAFA00EB800000EB800063685B00F4
:10261000B0FBF3F3A7FB03235B0908FB13684FEA46
:10262000C80808F13208A7FB0837C7F34217236828
:102630002F449F60ADE0FFF7DFFA00EB800000EB76
:10264000800065686D00B0FBF5F5544FA7FB0535BC
:102650006D092E01FFF7D0FA00EB800000EB80003F
:1026600065686D00B0FBF5F9FFF7C6FA00EB800076
:1026700000EB800065686D00B0FBF5F5A7FB053544
:102680006D094FF0640808FB1595ED003235A7FB86
:1026900005356D096D0005F4F8753544FFF7ACFAA2
:1026A00000EB800000EB800066687600B0FBF6F679
:1026B000FFF7A2FA00EB800000EB800063685B008C
:1026C000B0FBF3F3A7FB03235B0908FB13684FEA96
:1026D000C80808F13208A7FB0837C7F34217236878
:1026E0002F449F6055E0FFF787FA00EB800000EB76
:1026F00080006568AD00B0FBF5F5284FA7FB0535F8
:102700006D092E01FFF778FA00EB800000EB8000E6
:102710006568AD00B0FBF5F9FFF76EFA00EB8000DD
:1027200000EB80006568AD00B0FBF5F5A7FB053553
:102730006D094FF0640808FB15952D013235A7FB94
:1027400005356D0905F0F0053544FFF755FA00EB46
:10275000800000EB80006668B600B0FBF6F6FFF77D
:102760004BFA00EB800000EB800063689B00B0FB3D
:10277000F3F0A7FB0030400908FB10684FEA081887
:1027800008F13208A7FB0837C7F3431723682F4423
:102790009F60BDE8F88300BF001001401F85EB512A
:1027A0002DE9F04105460F4616469846069C2B68D3
:1027B0001B6837EA03030CBF01230023B3421DD17A
:1027C000B4F1FF3FF3D02CB1FEF7E2FBA0EB080021
:1027D000A042ECD92A68D36823F4D073D3602A6866
:1027E000536923F001035361202385F8393085F8BC
:1027F0003A30002385F83830032000E00020BDE89F
:10280000F08158B310B5044690F839300BB3242347
:1028100084F839302268D36823F40053D36020460B
:10282000FFF724FE2268136923F4904313612268A2
:10283000536923F02A0353612268D36843F4005399
:10284000D3600020E063202384F8393084F83A30E4
:1028500010BD80F8383001F02BFDD8E7012070471B
:102860002DE9F04182B01E4690F83930DBB2202BC2
:1028700055D104460D469046002955D0002A55D022
:1028800090F83830012B53D0012380F838300023E2
:10289000C363212380F83930FEF77AFB0746A4F89A
:1028A0002480A4F8268010E000963B460022802178
:1028B0002046FFF775FF00283CD12B882268C3F320
:1028C000080353602369C3B90235E38C9BB2B3B1EB
:1028D000E38C013B9BB2E384A368B3F5805FE3D054
:1028E00000963B46002280212046FFF759FF18BB87
:1028F0002A7823685A600135E7E70135E5E7009655
:102900003B46002240212046FFF74AFF0346A8B974
:10291000202284F83920002284F8382000E00223A5
:10292000184602B0BDE8F0810123F9E70123F7E77B
:102930000223F5E70323F3E70323F1E70323EFE79C
:10294000F0B589B000240394049405940694079488
:102950000094204B1A6B42F080021A631A6B02F04B
:1029600080020092009A01941A6B42F001021A63ED
:102970001A6B02F001020192019A02941A6B42F062
:1029800002021A631B6B03F002030293029B124FB5
:10299000224620213846FFF766F8104D224640F2C5
:1029A00021112846FFF75FF82023039301260496A0
:1029B0000594069403A93846FEF770FF40F22113F0
:1029C000039304960594069403A92846FEF766FF30
:1029D00009B0F0BD0038024000000240000402408F
:1029E00008B5002211461420FEF700FF1420FEF760
:1029F00031FF002211461520FEF7F8FE1520FEF7E4
:102A000029FF002211461620FEF7F0FE1620FEF7E1
:102A100021FF002211463620FEF7E8FE3620FEF7A1
:102A200019FF002211463720FEF7E0FE3720FEF79F
:102A300011FF08BD10B588B00C4601900023039328
:102A4000049305928DF818300C48FEF79AFC30B9C3
:102A500000240120FEF7A2FA204608B010BD07218D
:102A60000648FEF7A9FC08B10024F2E707AB2246AE
:102A700001A90248FEF710FC0124EAE7D406002071
:102A800010B5044600210748FEF742FD10B9064B79
:102A9000186810BD2346044A00210248FEF79EFC38
:102AA000F5E700BFD4060020FC06002008B5026848
:102AB000084B9A4200D008BD4FF480710648FEF7DB
:102AC000CBFF0128F7D100224FF480710248FEF7B6
:102AD000CAFFF0E70014004000040240F8B50546C4
:102AE0000F46084C54F8203008469847064600EB3D
:102AF000850504EB850423690BB1384698473046B9
:102B0000F8BD00BFD44C00080023037043708370ED
:102B1000C370037143718371C37103724372837213
:102B2000C372037343738373FF22C273027403E09F
:102B3000C218002151740133082BF9DD0023A0F8DD
:102B4000CC34A0F8CE3480F8D034A0F8D234A0F839
:102B5000D434A0F8D634A0F8D834A0F8DA34A0F8E9
:102B6000DC34A0F8DE34A0F8E034A0F8E834C0F893
:102B7000E434C0F8EC3480F8F034C0F8F434C0F831
:102B8000F834C0F8FC34C0F80035C0F80435C0F89B
:102B90000835C0F80C35C0F81035704708B5FFF798
:102BA000B3FF012008BD002302E00022C25401331C
:102BB000072BFADD7047000070B50546634E3046BE
:102BC000FFF7F1FF00246C710423337005E0082245
:102BD0005E495520FFF72EFF0134022CF7DD5B4CD8
:102BE0002046FFF7E0FF01232370EB7B63702B7C13
:102BF000A3700023E370082221465520FFF71AFF37
:102C00002046FFF7D0FF512323700423637008226E
:102C1000214640F20120FFF70DFF0822214640F235
:102C20000220FFF707FF3D252570D8236370082297
:102C3000214640F20120FFF7FDFE0822214640F226
:102C40000220FFF7F7FE25704A2363706423A37008
:102C50000822214640F20120FFF7ECFE082221461F
:102C600040F20220FFF7E6FE2570A8236370FF26DE
:102C7000A6700822214640F20120FFF7DBFE082261
:102C8000214640F20220FFF7D5FE25705F236370D6
:102C9000A6700822214640F20120FFF7CBFE082251
:102CA000214640F20220FFF7C5FE257026236370FF
:102CB000A6700822214640F20120FFF7BBFE082241
:102CC000214640F20220FFF7B5FE257049236370CC
:102CD000A6700822214640F20120FFF7ABFE082231
:102CE000214640F20220FFF7A5FE2570EB2363701A
:102CF000A6700822214640F20120FFF79BFE082221
:102D0000214640F20220FFF795FE25704D236370A7
:102D1000A6700822214640F20120FFF78BFE082210
:102D2000214640F20220FFF785FE25704E23637096
:102D3000A6700822214640F20120FFF77BFE082200
:102D4000214640F20220FFF775FE70BD58070020B3
:102D500070B53E4C2046FFF726FF03232370082260
:102D600021465520FFF766FE51232370042363702C
:102D70000822214640F20120FFF75CFE082221468E
:102D800040F20220FFF756FE3D252570D8236370E0
:102D90000822214640F20120FFF74CFE082221467E
:102DA00040F20220FFF746FE257049236370642637
:102DB000A6700822214640F20120FFF73BFE0822C0
:102DC000214640F20220FFF735FE2570EB236370A9
:102DD000A6700822214640F20120FFF72BFE0822B0
:102DE000214640F20220FFF725FE25708A236370FA
:102DF000A6700822214640F20120FFF71BFE0822A0
:102E0000214640F20220FFF715FE2570F62363707D
:102E1000A6700822214640F20120FFF70BFE08228F
:102E2000214640F20220FFF705FE2570A0236370C3
:102E3000A6700822214640F20120FFF7FBFD082280
:102E4000214640F20220FFF7F5FD70BD5807002033
:102E500070B50546294C2046FFF7A5FE002385F8EE
:102E6000D03406232370082221465520FFF7E2FDC7
:102E70002046FFF798FE5123237004236370082235
:102E8000214640F20120FFF7D5FD0822214640F2FD
:102E90000220FFF7CFFD3D252570D823637008225F
:102EA000214640F20120FFF7C5FD0822214640F2ED
:102EB0000220FFF7BFFD2570A8236370FF26A670D0
:102EC0000822214640F20120FFF7B4FD08222146E6
:102ED00040F20220FFF7AEFD25705F236370A670FD
:102EE0000822214640F20120FFF7A4FD08222146D6
:102EF00040F20220FFF79EFD70BD00BF5807002082
:102F000038B51C4B1B6800225A6201224FF48071B5
:102F10001948FEF7A8FD194C2046FFF744FE05238B
:102F20002370082221465520FFF784FD3D2525709A
:102F3000A82363703223A3700822214640F20120A7
:102F4000FFF778FD0822214640F20220FFF772FDCC
:102F500025705F2363706423A3700822214640F22A
:102F60000120FFF767FD0822214640F20220FFF70B
:102F700061FD38BD180700200004024058070020FA
:102F800010B504460023C3730374FEF701F8C4F8B8
:102F90001405E37953B1D4F8F43498421AD9C31A1A
:102FA00040F6B832934201D90023E371237A6BB320
:102FB000D4F8F834984218D9C31A40F252329342E6
:102FC0002AD900232372E37B0833E373237C403B3D
:102FD000237421E0C31A03F59C53083340F6B8323A
:102FE0009342E3D90023E371E0E7C31A03F59C534E
:102FF000083340F2523293420ED900232372E37B0E
:103000000833E373237C403B237405E0E37B083300
:10301000E373237C403B2374637A13B3D4F8FC340A
:1030200098420DD9C31A40F2523293421FD900235D
:103030006372E37B2033E373237C3C33237416E019
:10304000C31A03F59C53083340F2523293420ED90F
:1030500000236372E37B2033E373237C3C332374CC
:1030600005E0E37B2033E373237C3C332374A37AB2
:1030700013B3D4F8003598420DD9C31A40F2523236
:1030800093421FD90023A372E37B1033E373237CA5
:103090000333237416E0C31A03F59C53083340F23C
:1030A000523293420ED90023A372E37B1033E373B1
:1030B000237C0333237405E0E37B1033E373237C29
:1030C00003332374E37AE3B1D4F8043598420AD980
:1030D000C31A40F6B832934216D90023E372E37B59
:1030E0000233E37310E0C31A03F59C53083340F630
:1030F000B832934208D90023E372E37B0233E373CF
:1031000002E0E37B0233E373237BE3B1D4F80835B9
:1031100098420AD9C31A40F6B832934216D900230E
:103120002373E37B0133E37310E0C31A03F59C536D
:10313000083340F6B832934208D900232373E37B67
:103140000133E37302E0E37B0133E373637BE3B1B9
:10315000D4F80C3598420AD9C31A40F2523293423D
:1031600016D900236373E37B803BE37310E0C31A3B
:1031700003F59C53083340F25232934208D900239E
:103180006373E37B803BE37302E0E37B803BE373A9
:10319000A37BE3B1D4F8103598420AD9C01A40F2A3
:1031A0005233984216D90023A373E37B4033E37371
:1031B00010E0C01A00F59C50083040F2523398429B
:1031C00008D90023A373E37B4033E37302E0E37B7E
:1031D0004033E37310BD000038B50546074C204668
:1031E000FFF7E1FC01232370EB7B63702B7CA37062
:1031F000082221465520FFF71DFC38BD5807002046
:1032000038B50446B0F8CC24B0F8CE349A4265D034
:1032100003EB43018A000244D269AA2A69D023DC65
:10322000102A41D0A02A4CD103EB43039A00024458
:1032300092F82030022B59D0032B42D1FFF7CCFF5C
:10324000E37B2BB1102B03D0202B01D0302B38D1B6
:10325000484D2846FFF7A7FC0A232B700822294671
:103260005520FFF7E7FB2CE040F281118A4250D055
:10327000B2F5C17F25D103EB43018A001146024418
:1032800092F82020D82A1CD10A46024492F8223013
:103290000C2B60D037490D230B7008225520FFF707
:1032A000C9FB002323710CE0324D2846FFF77BFC5D
:1032B00010232B7001236B70082229465520FFF73D
:1032C000B9FBB4F8CE3401339AB22B4BA3FB0213F3
:1032D0005B09642101FB1323A4F8CE34E379002BAE
:1032E00043D02378002B42D101203FE0FFF774FF49
:1032F000E7E703EB43039A00024492F82030032BE4
:1033000004D0042BDDD100230370DAE7012303701E
:10331000D7E703EB43018A001146024492F82020CC
:10332000D82ACED10A46024492F822300C2B09D07A
:1033300010490C230B7008225520FFF77BFB00235C
:10334000E370BEE70B4908220A705520FFF772FBB5
:103350000123E370B5E7074909230B7008225520C4
:10336000FFF768FB01232371ABE7012038BD022082
:10337000FCE700BF580700201F85EB5110B58EB049
:10338000124C2046FFF70FFC114A01AB07CA03C3DA
:1033900023F8022B120C1A7001A8FCF739FF0A233C
:1033A00082B201A90B48FFF75BFA0B2323700423B9
:1033B0006370002405E0082204495520FFF73AFB1A
:1033C0000134022CF7DD0EB010BD00BF58070020FD
:1033D0003C4D00089406002030B58FB00D46114CCE
:1033E0002046FFF7E0FB2A460F4901A801F052F8FA
:1033F00001A8FCF70DFF0A2382B201A90B48FFF7D1
:103400002FFA0B23237008236370A570002405E0B6
:10341000082204495520FFF70DFB0134022CF7DD8B
:103420000FB030BD58070020484D0008940600201A
:1034300070B590B008210EA8FFF722FB5D4BB3F8E2
:10344000CC64344606EB46018A001344D86100225E
:103450000CE010AB134413F8085C04EB4403990030
:10346000544B0B44134483F820500132072AF0DDFB
:103470000136B6B2504BA3FB06235B09642202FB64
:1034800013664C4BA3F8CC64C0286DD012DDFF2826
:1034900000F0828032DD40F2811398426CD0B0F5AA
:1034A000C17F42D1434C01236373FDF771FDC4F822
:1034B0000C053AE0AA2867D0B02829D0A02834D13A
:1034C0003C4C0123E371FDF763FDC4F8F4049DF85F
:1034D0003830092B29D101AC384D0FCD0FC42B68E2
:1034E00024F8023B1B0C237001A8FCF791FE0A2371
:1034F00082B201A93248FFF7B3F916E0D02814D1FF
:103500002C4C0123A372FDF743FDC4F800050CE029
:103510009DF83830012B11D0022B19D0254C0123F6
:103520002372FDF735FDC4F8F804224BB3F8CC2420
:10353000B3F8CE349A4237D010B070BD1D4A5278DD
:10354000002AE9D09DF839201A4B83F8D024E5E70A
:10355000184B5B78002BE1D09DF83930003318BF51
:103560000123144A9370D9E7124C01236372FDF7CB
:103570000FFDC4F8FC04D8E70E4C0123A373FDF73C
:1035800007FDC4F81005D0E70A4C01232373FDF7AB
:10359000FFFCC4F80805C8E7064C0123E372FDF7F9
:1035A000F7FCC4F80405C0E723210248FFF714FF25
:1035B000C2E700BF3C0100201F85EB51604D0008B1
:1035C0009406002070B582B008216846FFF758FACB
:1035D000514BB3F8CC64344606EB46018A001344E1
:1035E000D86100220CE002AB134413F8085C04EB32
:1035F00044039900484B0B44134483F82050013294
:10360000072AF0DD0136B6B2444BA3FB06235B0963
:10361000642202FB1366404BA3F8CC64C02856D04A
:1036200011DDFF286BD024DD40F28113984256D083
:10363000B0F5C17F14D1384C01236373FDF7A8FCAA
:10364000C4F80C050CE0AA2851D0B0281BD0A02843
:1036500006D1314C0123E371FDF79AFCC4F8F40460
:103660002D4BB3F8CC24B3F8CE349A424FD002B0ED
:1036700070BDD028F4D1284C0123A372FDF788FC3B
:10368000C4F80005ECE79DF80030012B09D0022BAF
:1036900011D0214C01232372FDF77AFCC4F8F80401
:1036A000DEE71D4A5278002AF1D09DF801201A4B1E
:1036B00083F8D024EDE7184B5B78002BE9D09DF818
:1036C0000130003318BF0123134A9370E1E7124C15
:1036D00001236372FDF75CFCC4F8FC04C0E70E4CE8
:1036E0000123A373FDF754FCC4F81005B8E70A4C96
:1036F00001232373FDF74CFCC4F80805B0E7064C22
:103700000123E372FDF744FCC4F80405A8E7232174
:103710000148FFF761FEAAE73C0100201F85EB513D
:1037200070B50546B0F8CC24B0F8CE349A4229D012
:1037300003EB43018A000244D269B02A00F0C8803A
:1037400022DCA02A3AD0AA2A00F0B180102A0CD19B
:10375000C34C2046FFF727FA10232370022363701F
:10376000082221465520FFF765F9B5F8CE3401331C
:103770009AB2BC4BA3FB02135B09642101FB132328
:10378000A5F8CE34002451E140F281118A4200F0C4
:10379000C380B2F5C17F00F00381FF2AE5D103EBBE
:1037A00043018A001146024492F82020012ADCD10C
:1037B0000A46024492F82530C374D6E703EB43016E
:1037C0008A00024492F82020023A072ACDD801A1AB
:1037D00051F822F0F53700086B370008FB37000876
:1037E000013800086B3700086B37000839380008CB
:1037F00073380008FFF7F0FCB7E7FFF7BFFDB4E749
:10380000C278002AB1D00279002AAED08278002A8C
:10381000ABD04279002AA8D10122427003EB4303C6
:103820009A00024492F82130EC2B02D080F8F03458
:103830009BE780F8F03498E7B0F8D6344F2B94D853
:10384000874C2046FFF7AFF9512323700826667096
:103850003246214640F20120FFF7ECF83D23237069
:10386000D82363703246214640F20120FFF7E2F888
:103870007BE7B0F8D8344F2B3FF677AF784C204633
:10388000FFF791F9512323700826667032462146CE
:1038900040F20220FFF7CEF83D232370D823637057
:1038A0003246214640F20220FFF7C4F85DE703EB01
:1038B00043039A00024492F82030042B05D0082BD1
:1038C0007FF453AF002303704FE7002303704CE7EE
:1038D00003EB43018A00024492F82020012A13D00E
:1038E000022A7FF442AF5A00D018810008462944CA
:1038F00091F82110003118BF0121A97002462A4415
:1039000092F82630AB7430E703EB43039A0002448D
:1039100092F82630437428E703EB43018A000244FF
:1039200092F820204A2A16D0D82A7FF41EAF03EB43
:1039300043039A00024492F822300C2B01D14379C0
:103940002BB347490C230B7008225520FFF772F860
:103950000023EB7009E75A00D0188100084629447B
:1039600091F8221002462A4492F8210000EB01202F
:10397000A0F576503538FCF7F5FD37A3D3E90023E1
:10398000FCF784FFFDF71AF9A5F8D604EDE63449F3
:1039900008220A705520FFF74DF80123EB70E4E68A
:1039A00003EB43018A00024492F820204A2A16D0F1
:1039B000D82A7FF4DAAE03EB43039A00024492F86C
:1039C00022300C2B01D143792BB325490D230B70E9
:1039D00008225520FFF72EF800232B71C5E65A0068
:1039E000D01881000846294491F8221002462A4442
:1039F00092F8210000EB0120A0F576503538FCF755
:103A0000B1FD15A3D3E90023FCF740FFFDF7D6F87D
:103A1000A5F8D804A9E6124909230B7008225520FD
:103A2000FFF708F801232B719FE60134082C08DC0E
:103A30002B195B7C002BF8D0A0212846FFF7CCFC8B
:103A4000F3E72B781BB16B781BB1032000E001205A
:103A500070BD0220FCE700BFC898BB9690075C4091
:103A6000580700201F85EB5110B50446B0F8D2046A
:103A7000FCF778FD36A3D3E90023FCF725FC36A339
:103A8000D3E90023FCF702FF35A3D3E90023FDF7B8
:103A900063F808B101232375B4F8D404FCF762FD80
:103AA0002BA3D3E90023FCF70FFC2BA3D3E90023BE
:103AB000FCF7ECFE2AA3D3E90023FDF74DF808B18B
:103AC00001236375B4F8D604A0F576503538FCF7B9
:103AD00049FD1BA3D3E90023FCF7D8FE00221A4BB3
:103AE000FDF73AF808B10123A375B4F8D804A0F59E
:103AF00076503538FCF736FD11A3D3E90023FCF7E7
:103B0000C5FE0022104BFDF727F808B10123E3752D
:103B1000B4F8DE24C82303FB02F30C4A934201DD10
:103B200001232376B4F8E024C82303FB02F3074AF9
:103B3000934201DD0123637610BD00BFAFF3008027
:103B400048E17A14AE075C40000054403F04020094
:103B500033333333F358C240CDCCCCCCCC8C4B4038
:103B60000000000000C05C40D0B504463A48FFF7B2
:103B70001AF8A3781BB194F8D034192B01D86379C3
:103B800093B10023C4F8EC34334C90232370082203
:103B9000214640F20120FEF74DFF0822214640F267
:103BA0000220FEF747FFD0BD94F8D004FCF7DAFC02
:103BB00000222A4BFCF76AFE25A3D3E90023FCF779
:103BC0003BFD06460F4694F9F004FCF7CBFC0022BF
:103BD000224BFCF75BFE02460B4630463946FCF7AB
:103BE0002BFDFCF7C3FF04464242C3B2D2B258BF1A
:103BF0005342DBB20246002822DBC2F307221649F9
:103C0000902008704B708A70082240F20120FEF765
:103C100011FF64426242E3B2D2B258BF5342DBB2F8
:103C20002246002C0FDBC2F307220B4990200870BC
:103C30004B708A70082240F20220FEF7FBFEB2E7CA
:103C400000F1FF02D9E704F1FF02ECE7AFF30080D7
:103C5000FFFFFFFFBFFFCF40580700200000594083
:103C600038B50446B0F8CE34B0F8CC24934227D00F
:103C700003EB43018A000244D269B02A6AD030DCE7
:103C8000A02A48D0AA2A7FD0102A0CD1864D2846D7
:103C9000FEF789FF10232B7003236B70082229463F
:103CA0005520FEF7C7FEB4F8CE3401339AB27F4BED
:103CB000A3FB02135B09642101FB1323A4F8CE3498
:103CC000A379002B40F0E5802046FFF7CDFE237856
:103CD000002B00F0E4806378002B40F0E2800220AB
:103CE000DEE040F281118A4200F08180B2F5C17FAE
:103CF00000F0A680FF2AD6D103EB43018A001146CB
:103D0000024492F82020012ACDD10A46024492F8BA
:103D10002530C374C7E703EB43039A00024492F8CB
:103D20002030022B04D0062BBDD100234370BAE70C
:103D3000FFF752FAB4F8CE3403EB43039A0022445F
:103D400092F82130EC2B02D084F8F034ABE784F801
:103D5000F034A8E703EB43018A00024492F82020E4
:103D6000012A09D0022A9ED103EB43039A000244A0
:103D700092F82630837496E703EB43039A000244DB
:103D800092F8263043748EE703EB43018A00114614
:103D9000024492F82020052A15D0082A23D0012AAF
:103DA00081D10846214491F821100246224492F81C
:103DB00022301B0203EB01433D4A82FB03231B130A
:103DC000C4F8E4346FE703EB43039A00183202446B
:103DD000B2F90930374A82FB0312DB17C3EBA203A7
:103DE000A0F8E8345FE70023037043705BE703EB60
:103DF00043018A001146024492F82020492A0FD03C
:103E00004A2A7FF450AF0846214491F82210024616
:103E1000224492F8213003EB0123A4F8D63442E780
:103E20005A00D01881000846214491F82210024619
:103E3000224492F8213003EB0123A4F8D23432E774
:103E400003EB43018A001146024492F82020492ADC
:103E50000FD04A2A7FF427AF0846214491F8221058
:103E60000246224492F8213003EB0123A4F8D8340F
:103E700019E75A00D01881000846214491F8221011
:103E80000246224492F8213003EB0123A4F8D434F3
:103E900009E72046FFF768FE0023A37114E701201D
:103EA00038BD0320FCE700BF580700201F85EB51F9
:103EB000AD8BDB6867666666FEE7000008B50A48FA
:103EC0000A4B03604FF4E133436000238360C36017
:103ED00003610C2242618361C361FEF792FC00B969
:103EE00008BDFFF7E9FF00BF940600200044004032
:103EF00000B583B00023009301930E480E4A026080
:103F000040F2CF224260836040F2CF72C260836190
:103F1000FEF76EFA50B900230093019369460548F5
:103F2000FEF77FFA20B903B05DF804FBFFF7C4FF8A
:103F3000FFF7C2FF540600200010004000B583B018
:103F40000023009301930E480E4A026041F61F427F
:103F50004260836044F61F62C2608361FEF748FAE4
:103F600050B900230093019369460548FEF759FABA
:103F700020B903B05DF804FBFFF79EFFFFF79CFF3D
:103F8000180700200014004008B50D480D4B0360D1
:103F90000223436000238360C3604FF43022026138
:103FA0004FF4800242610376437601228276C27624
:103FB00003774377FDF706F800B908BDFFF77CFFEC
:103FC000D40600200064004008B50948094B03608E
:103FD00041F61F434360002383604CF24F32C260BE
:103FE00003618361FEF704FA00B908BDFFF764FFBF
:103FF0009C0000200044014000B595B0342200210F
:1040000007A800F03FFA002302930393049305935B
:1040100006930093204A116C41F080511164126C98
:1040200002F080520092009A01931C4B1A6842F4ED
:1040300040421A601B6803F440430193019B012333
:1040400007934FF4A023089302230D934FF48002AB
:104050000E9208220F924FF49071109111931292C8
:10406000139307A8FDF79AFE88B90F230293022342
:104070000393002304934FF4A05305930693042164
:1040800002A8FDF7F7FC20B915B05DF804FBFFF7B7
:1040900013FFFFF711FF00BF00380240007000401F
:1040A0002DE9F041FCF74EFFFFF7A6FFFEF748FCB5
:1040B000FFF704FFFFF71CFFFFF740FFFFF764FF68
:1040C000FFF782FFFEF78CFC254900258D614D60CE
:1040D0000D608D60CD600D614D61CD6101230B627E
:1040E000204C2046FDF714F82046FDF7A7F8DFF82E
:1040F00088804046FEF746F81B4F3846FEF742F8E8
:104100001A4E3046FEF72CF8D8F800305D623B6856
:104110005D6233685D6214212046FDF70CFA1521BB
:104120002046FDF708FA124C2046FEF729FF2146EB
:104130002846FEF7D3FC05460020FCF72FFFFCF7CE
:1041400027FF0C4BA3FB0023DB0803EB83035A0080
:104150009042E8D0A379002BE5D10122A271E2E7D9
:10416000E0000020D4060020180700209C0000205A
:104170003C010020CDCCCCCC5406002082B00021E4
:1041800000910B4B5A6C42F480425A645A6C02F410
:1041900080420092009A01911A6C42F080521A6497
:1041A0001B6C03F080530193019B02B0704700BF6A
:1041B0000038024000B589B00023039304930593AF
:1041C000069307930268154B9A4202D009B05DF836
:1041D00004FB0021019103F5EA331A6C42F00072EE
:1041E0001A641A6C02F000720192019A02911A6B21
:1041F00042F001021A631B6B03F001030293029B5E
:104200004FF4C0530393022304930323069309231B
:10421000079303A90248FDF741FBD7E7006400407C
:104220000000024000B585B003681D4A934208D0E3
:104230001C4A934212D01C4A93421CD005B05DF830
:1042400004FB00230193194B1A6C42F010021A640C
:104250001B6C03F010030193019BEFE70023029313
:10426000124B1A6C42F020021A641B6C03F02003FC
:104270000293029BE2E7002103910C4B5A6C42F43B
:1042800000325A645B6C03F400330393039B0A46C9
:104290001920FDF7ABFA1920FDF7DCFACEE700BFD5
:1042A000001000400014004000440140003802406B
:1042B00000B589B0002303930493059306930793F5
:1042C0000268164B9A4202D009B05DF804FB002147
:1042D000019103F5FA331A6C42F400321A641A6C35
:1042E00002F400320192019A02911A6B42F001022B
:1042F0001A631B6B03F001030293029B0C230393CD
:1043000002230493012305930323069307230793B2
:1043100003A90348FDF7C2FAD6E700BF00440040F6
:10432000000002407047FEE7FEE7FEE7FEE7704749
:104330007047704708B5FCF71FFE08BD08B5024876
:10434000FDF716F908BD00BFD406002008B50248E5
:10435000FDF70EF908BD00BFD406002008B50248DD
:10436000FDF706F908BD00BFD406002008B50248D5
:10437000FDF71DFF08BD00BF9C00002008B50248E6
:10438000FDF715FF08BD00BF5406002008B5024820
:10439000FDF70DFF08BD00BF180700200F49D1F839
:1043A000883043F47003C1F888300D4B1A6842F02E
:1043B00001021A60002098601A6822F0847222F4C8
:1043C00080321A60074A5A601A6822F480221A6002
:1043D000D8604FF000638B60704700BF00ED00E0D5
:1043E0000038024010300024DFF834D0002103E010
:1043F0000C4B5B58435004310B480C4B42189A420B
:10440000F6D30B4A02E0002342F8043B094B9A42E0
:10441000F9D3FFF7C3FF00F011F8FFF741FE704733
:1044200000000220B84D00080000002070000020AD
:104430007000002064070020FEE7000070B50D4EFC
:104440000D4CA41BA4100025A54209D10B4E0C4C09
:1044500000F034FCA41BA4100025A54205D170BDBA
:1044600056F8253098470135EEE756F8253098473D
:104470000135F2E7B04D0008B04D0008B04D00081E
:10448000B44D000802440346934200D1704703F83C
:10449000011BF9E70EB400B59CB01DAB029006906D
:1044A0006FF00041094807910491094953F8042B22
:1044B00005910068019302A900F066F8029B0022B2
:1044C0001A701CB05DF804EB03B070470C000020BC
:1044D0000802FFFF2DE9F0478E689E4282460C4697
:1044E0009046994637D88A8912F4906F31D0256862
:1044F00009696F1A6569022305EB450595FBF3F51C
:1045000009F101033B449D4238BF1D46530530D598
:10451000294600F02BFB064650B90C23CAF80030A0
:10452000A38943F04003A3814FF0FF30BDE8F0873B
:104530003A46216900F0A8FAA38923F4906343F076
:104540008003A381266165613E44ED1B2660A56062
:104550004E464E4500D94E4632464146206800F050
:104560009EFAA3689B1BA36023681E44266000205C
:10457000DCE72A4600F054FB06460028E2D1216918
:10458000504600F0A5FAC8E72DE9F04F1D468B898B
:104590001F069DB080460C4616460FD50B696BB9B9
:1045A000402100F0E3FA2060206128B90C23C8F80C
:1045B00000304FF0FF30C8E04023636100230993CF
:1045C00020238DF8293030238DF82A3003954FF0C1
:1045D000010B37463D4615F8013B0BB1252B3ED16B
:1045E000B7EB060A0BD05346324621464046FFF74A
:1045F00071FF013000F0A480099B534409933B787C
:10460000002B00F09D8000234FF0FF32CDE9052301
:10461000049307938DF853301A932F46052217F809
:10462000011B5048FBF7FCFD049BD0B9D90644BFE1
:1046300020228DF853201A0744BF2B228DF85320D7
:104640002A782A2A15D0079A2F4600200A253946AB
:1046500011F8013B303B092B4DD9B8B10FE02F4683
:10466000B8E7404A801A0BFA00F0184304903D4620
:10467000D3E7039A111D12680391002A01DB079208
:1046800004E0524243F00203079204933B782E2B3E
:104690000CD17B782A2B33D1039B1A1D1B68039204
:1046A000002BB8BF4FF0FF33023705932E4D3978FA
:1046B00003222846FBF7B4FD38B14023401B03FA20
:1046C00000F0049B034301370493397827488DF8A1
:1046D000281006227E1CFBF7A3FD002838D0244BAF
:1046E00013BB039B073323F0070308330393099B92
:1046F0004B4409936DE705FB023201200F46A6E704
:1047000000230137059319460A25384610F8012B76
:10471000303A092A03D9002BC8D00591C6E705FB1A
:10472000012101230746F0E703AB00932246114B1A
:1047300004A94046AFF30080B0F1FF3F8146D6D1D7
:10474000A3895B063FF535AF09981DB0BDE8F08F32
:1047500003AB00932246074B04A9404600F082F8C1
:10476000EAE700BF744D00087A4D00087E4D00084E
:1047700000000000D54400082DE9F04791461F468F
:104780008A680B69DDF820809342B8BF1346C9F8E8
:10479000003091F8432006460C4612B10133C9F8A7
:1047A00000302368990642BFD9F800300233C9F8B7
:1047B0000030256815F0060507D104F1190AE368F1
:1047C000D9F800209B1AAB4228DC94F843302268C9
:1047D000003318BF012392062DD404F14302394659
:1047E0003046C047013020D02368E568D9F8002062
:1047F00003F00603042B08BFAD1AA36822690CBF9F
:1048000025EAE57500259342C4BF9B1AED184FF0C9
:1048100000091A344D451AD1002008E00123524600
:1048200039463046C047013003D14FF0FF30BDE874
:10483000F0870135C3E7E1185A1C302081F84300A6
:10484000224494F8451082F843100233C5E701234F
:10485000224639463046C0470130E6D009F1010909
:10486000D8E700002DE9F04301F1430C0C46097E26
:1048700085B06E291746064698460C9A00F0B3801C
:1048800022D8632936D00AD8002900F0B9805829E7
:1048900000F0838004F1420584F8421032E064297C
:1048A00001D06929F6D120681368050603F10401D7
:1048B0002AD51B681160002B03DA2D225B4284F895
:1048C00043206F480A2239E0732900F09D8008D800
:1048D0006F2920D07029DDD1236843F020032360A5
:1048E00003E0752917D07829D4D1782384F845308E
:1048F000644855E01368191D1B68116004F14205F6
:1049000084F8423001238CE01B68116010F0400FE6
:1049100018BF1BB2CFE713682568181D1060280662
:1049200001D51B6802E06806FBD51B8854486F2937
:1049300014BF0A220822002184F843106568A5608C
:10494000002DC0F29580216821F004012160002B28
:104950003DD1002D40F08E806546082A0BD123689A
:10496000DB0708D5236962689A42DEBF302305F869
:10497000013C05F1FF35ACEB05032361CDF8008068
:104980003B4603AA21463046FFF7F6FE01304DD1E3
:104990004FF0FF3005B0BDE8F083394884F845108A
:1049A000136821681D1D1B6815600A060BD5CA0710
:1049B00044BF41F0200121601BB9226822F020028F
:1049C00022601022B7E74D0648BF9BB2EFE765466D
:1049D000B3FBF2F102FB1133C35C05F8013D0B465A
:1049E0000029F5D1B9E7136825686169181D1060C1
:1049F00028061B6801D5196002E06A06FBD51980FC
:104A0000002323616546B9E71368191D11601D680D
:104A1000626800212846FBF703FC08B1401B606078
:104A200063682361002384F84330A7E723692A469B
:104A300039463046C0470130AAD023689B0713D4BB
:104A4000E068039B9842B8BF1846A3E701234A4693
:104A500039463046C04701309AD00135E368039AA1
:104A60009B1AAB42F2DCEBE7002504F11909F5E7EC
:104A7000002BACD1037884F8423004F142056CE796
:104A8000854D0008964D000810B5431E0A4491421A
:104A900000D110BD11F8014B03F8014FF7E7884230
:104AA00010B501EB020307D8421E99420AD011F853
:104AB000014B02F8014FF8E78342F5D98118D21A69
:104AC000D34200D110BD13F8014D01F8014DF7E7B5
:104AD00038B50546002945D051F8043C0C1F002B81
:104AE000B8BFE41800F0D2F81F4A1368104633B973
:104AF000636014602846BDE8384000F0C8B8A3429F
:104B00000CD921686218934204BF1A685B6863601D
:104B100004BF521822600460ECE713465A680AB1D9
:104B2000A242FAD919685818A0420BD12068014452
:104B3000581882421960DDD1106852685A600144E9
:104B40001960D7E702D90C232B60D3E7206821181E
:104B50008A4204BF11685268626004BF091821606C
:104B60005C60C7E738BD00BF8C00002070B5CD1C6D
:104B700025F0030508350C2D38BF0C25002D064601
:104B800001DBA94203D90C233360002070BD00F083
:104B90007DF8214A1468214691B9204C23681BB93D
:104BA000304600F063F820602946304600F05EF899
:104BB000431C24D10C233360304600F068F8E4E74E
:104BC0000B685B1B18D40B2B0FD90B60CD50CC1886
:104BD000304600F05CF804F10B00231D20F00700C4
:104BE000C31AD3D05A42E250D0E78C424B6816BF6A
:104BF000636013600C46EBE70C464968CCE7C41CC5
:104C000024F00304A04205D0211A304600F02EF80B
:104C10000130CFD02560DBE78C0000209000002021
:104C2000F8B5074614460E4621B91146BDE8F840CE
:104C3000FFF79CBF22B9FFF74BFF25462846F8BD7A
:104C400000F026F8A0420FD221463846FFF78EFF2B
:104C500005460028F2D031462246FFF715FF3146BF
:104C60003846FFF735FFE9E73546E7E738B5064C44
:104C7000002305460846236000F012F8431C02D1C9
:104C8000236803B12B6038BD600700207047704770
:104C900051F8043C181F002BBCBF0B58C0187047BC
:104CA000044B1968024609B903491960186802449F
:104CB0001A6070479400002068070020F8B500BF14
:104CC000F8BC08BC9E467047F8B500BFF8BC08BCED
:044CD0009E46704745
:104CD4009D2B00080132000821370008613C0008C0
:104CE40000000000B92B00080000000000000000D4
:104CF4000000000000000000512D0008000000002A
:104D040000000000B92B000800000000012F00087B
:104D140000000000B92B0008512E0008000000001C
:104D24000000000000000000010203040607080957
:104D3400000000000102030453687574446F776E29
:104D44000A0D000053687574446F776E5F45727284
:104D54006F72733A2025640A0D0000005265717564
:104D64006573742052656365697665640A0D000095
:104D7400232D302B2000686C4C0065666745464740
:104D840000303132333435363738394142434445C3
:104D94004600303132333435363738396162636432
:044DA4006566000040
:084DA80084BEFF7F0100000042
:044DB000F501000801
:044DB400D101000821
:104DB80001000000100000000024F4001000002092
:104DC80000000000000000000000000000000000DB
:104DD80000000000000000000000000000000000CB
:104DE80000000000000000000000000000000000BB
:104DF80000000000000000000000000000000000AB
:104E0800000000000000000000000000000000009A
:104E1800000000000000000000000000000000008A
:04000005080043E9C3
:00000001FF
